{
  "contractName": "DEHToken",
  "abi": [
    {
      "inputs": [],
      "stateMutability": "nonpayable",
      "type": "constructor"
    },
    {
      "anonymous": false,
      "inputs": [
        {
          "indexed": true,
          "internalType": "address",
          "name": "owner",
          "type": "address"
        },
        {
          "indexed": true,
          "internalType": "address",
          "name": "spender",
          "type": "address"
        },
        {
          "indexed": false,
          "internalType": "uint256",
          "name": "value",
          "type": "uint256"
        }
      ],
      "name": "Approval",
      "type": "event"
    },
    {
      "anonymous": false,
      "inputs": [
        {
          "indexed": true,
          "internalType": "address",
          "name": "from",
          "type": "address"
        },
        {
          "indexed": true,
          "internalType": "address",
          "name": "to",
          "type": "address"
        },
        {
          "indexed": false,
          "internalType": "uint256",
          "name": "value",
          "type": "uint256"
        }
      ],
      "name": "Transfer",
      "type": "event"
    },
    {
      "inputs": [],
      "name": "decimals",
      "outputs": [
        {
          "internalType": "uint8",
          "name": "",
          "type": "uint8"
        }
      ],
      "stateMutability": "view",
      "type": "function",
      "constant": true
    },
    {
      "inputs": [],
      "name": "name",
      "outputs": [
        {
          "internalType": "string",
          "name": "",
          "type": "string"
        }
      ],
      "stateMutability": "view",
      "type": "function",
      "constant": true
    },
    {
      "inputs": [],
      "name": "symbol",
      "outputs": [
        {
          "internalType": "string",
          "name": "",
          "type": "string"
        }
      ],
      "stateMutability": "view",
      "type": "function",
      "constant": true
    },
    {
      "inputs": [],
      "name": "totalSupply",
      "outputs": [
        {
          "internalType": "uint256",
          "name": "_totalSupply",
          "type": "uint256"
        }
      ],
      "stateMutability": "pure",
      "type": "function",
      "constant": true
    },
    {
      "inputs": [
        {
          "internalType": "address",
          "name": "_addr",
          "type": "address"
        }
      ],
      "name": "balanceOf",
      "outputs": [
        {
          "internalType": "uint256",
          "name": "balance",
          "type": "uint256"
        }
      ],
      "stateMutability": "view",
      "type": "function",
      "constant": true
    },
    {
      "inputs": [
        {
          "internalType": "address",
          "name": "_to",
          "type": "address"
        },
        {
          "internalType": "uint256",
          "name": "_value",
          "type": "uint256"
        }
      ],
      "name": "transfer",
      "outputs": [
        {
          "internalType": "bool",
          "name": "success",
          "type": "bool"
        }
      ],
      "stateMutability": "nonpayable",
      "type": "function"
    },
    {
      "inputs": [
        {
          "internalType": "address",
          "name": "_from",
          "type": "address"
        },
        {
          "internalType": "address",
          "name": "_to",
          "type": "address"
        },
        {
          "internalType": "uint256",
          "name": "_value",
          "type": "uint256"
        }
      ],
      "name": "transferFrom",
      "outputs": [
        {
          "internalType": "bool",
          "name": "success",
          "type": "bool"
        }
      ],
      "stateMutability": "nonpayable",
      "type": "function"
    },
    {
      "inputs": [
        {
          "internalType": "address",
          "name": "_to",
          "type": "address"
        },
        {
          "internalType": "uint256",
          "name": "_amount",
          "type": "uint256"
        }
      ],
      "name": "mint",
      "outputs": [],
      "stateMutability": "nonpayable",
      "type": "function"
    },
    {
      "inputs": [
        {
          "internalType": "address",
          "name": "_spender",
          "type": "address"
        },
        {
          "internalType": "uint256",
          "name": "_value",
          "type": "uint256"
        }
      ],
      "name": "approve",
      "outputs": [
        {
          "internalType": "bool",
          "name": "success",
          "type": "bool"
        }
      ],
      "stateMutability": "nonpayable",
      "type": "function"
    },
    {
      "inputs": [
        {
          "internalType": "address",
          "name": "_owner",
          "type": "address"
        },
        {
          "internalType": "address",
          "name": "_spender",
          "type": "address"
        }
      ],
      "name": "allowance",
      "outputs": [
        {
          "internalType": "uint256",
          "name": "remaining",
          "type": "uint256"
        }
      ],
      "stateMutability": "view",
      "type": "function",
      "constant": true
    }
  ],
  "bytecode": "0x608060405234801561001057600080fd5b5060008081905550610da3806100276000396000f3fe608060405234801561001057600080fd5b506004361061009e5760003560e01c806340c10f191161006657806340c10f191461015d57806370a082311461017957806395d89b41146101a9578063a9059cbb146101c7578063dd62ed3e146101f75761009e565b806306fdde03146100a3578063095ea7b3146100c157806318160ddd146100f157806323b872dd1461010f578063313ce5671461013f575b600080fd5b6100ab610227565b6040516100b8919061091e565b60405180910390f35b6100db60048036038101906100d691906109d9565b610260565b6040516100e89190610a34565b60405180910390f35b6100f96102ed565b6040516101069190610a5e565b60405180910390f35b61012960048036038101906101249190610a79565b6102f7565b6040516101369190610a34565b60405180910390f35b61014761046b565b6040516101549190610ae8565b60405180910390f35b610177600480360381019061017291906109d9565b610470565b005b610193600480360381019061018e9190610b03565b610609565b6040516101a09190610a5e565b60405180910390f35b6101b1610652565b6040516101be919061091e565b60405180910390f35b6101e160048036038101906101dc91906109d9565b61068b565b6040516101ee9190610a34565b60405180910390f35b610211600480360381019061020c9190610b30565b6107fe565b60405161021e9190610a5e565b60405180910390f35b6040518060400160405280600981526020017f44454820546f6b656e000000000000000000000000000000000000000000000081525081565b600081600260003373ffffffffffffffffffffffffffffffffffffffff1673ffffffffffffffffffffffffffffffffffffffff16815260200190815260200160002060008573ffffffffffffffffffffffffffffffffffffffff1673ffffffffffffffffffffffffffffffffffffffff168152602001908152602001600020819055506001905092915050565b6000612710905090565b60008082118015610310575061030c84610609565b8211155b61034f576040517f08c379a000000000000000000000000000000000000000000000000000000000815260040161034690610bbc565b60405180910390fd5b81600160008673ffffffffffffffffffffffffffffffffffffffff1673ffffffffffffffffffffffffffffffffffffffff168152602001908152602001600020600082825461039e9190610c0b565b9250508190555081600160008573ffffffffffffffffffffffffffffffffffffffff1673ffffffffffffffffffffffffffffffffffffffff16815260200190815260200160002060008282546103f49190610c3f565b925050819055508273ffffffffffffffffffffffffffffffffffffffff168473ffffffffffffffffffffffffffffffffffffffff167fddf252ad1be2c89b69c2b068fc378daa952ba7f163c4a11628f55a4df523b3ef846040516104589190610a5e565b60405180910390a3600190509392505050565b600081565b600073ffffffffffffffffffffffffffffffffffffffff168273ffffffffffffffffffffffffffffffffffffffff16036104df576040517f08c379a00000000000000000000000000000000000000000000000000000000081526004016104d690610ce1565b60405180910390fd5b612710816000546104f09190610c3f565b1115610531576040517f08c379a000000000000000000000000000000000000000000000000000000000815260040161052890610d4d565b60405180910390fd5b80600160008473ffffffffffffffffffffffffffffffffffffffff1673ffffffffffffffffffffffffffffffffffffffff16815260200190815260200160002060008282546105809190610c3f565b92505081905550806000808282546105989190610c3f565b925050819055508173ffffffffffffffffffffffffffffffffffffffff16600073ffffffffffffffffffffffffffffffffffffffff167fddf252ad1be2c89b69c2b068fc378daa952ba7f163c4a11628f55a4df523b3ef836040516105fd9190610a5e565b60405180910390a35050565b6000600160008373ffffffffffffffffffffffffffffffffffffffff1673ffffffffffffffffffffffffffffffffffffffff168152602001908152602001600020549050919050565b6040518060400160405280600381526020017f444548000000000000000000000000000000000000000000000000000000000081525081565b600080821180156106a457506106a033610609565b8211155b6106e3576040517f08c379a00000000000000000000000000000000000000000000000000000000081526004016106da90610bbc565b60405180910390fd5b81600160003373ffffffffffffffffffffffffffffffffffffffff1673ffffffffffffffffffffffffffffffffffffffff16815260200190815260200160002060008282546107329190610c0b565b9250508190555081600160008573ffffffffffffffffffffffffffffffffffffffff1673ffffffffffffffffffffffffffffffffffffffff16815260200190815260200160002060008282546107889190610c3f565b925050819055508273ffffffffffffffffffffffffffffffffffffffff163373ffffffffffffffffffffffffffffffffffffffff167fddf252ad1be2c89b69c2b068fc378daa952ba7f163c4a11628f55a4df523b3ef846040516107ec9190610a5e565b60405180910390a36001905092915050565b6000600260008473ffffffffffffffffffffffffffffffffffffffff1673ffffffffffffffffffffffffffffffffffffffff16815260200190815260200160002060008373ffffffffffffffffffffffffffffffffffffffff1673ffffffffffffffffffffffffffffffffffffffff16815260200190815260200160002054905092915050565b600081519050919050565b600082825260208201905092915050565b60005b838110156108bf5780820151818401526020810190506108a4565b838111156108ce576000848401525b50505050565b6000601f19601f8301169050919050565b60006108f082610885565b6108fa8185610890565b935061090a8185602086016108a1565b610913816108d4565b840191505092915050565b6000602082019050818103600083015261093881846108e5565b905092915050565b600080fd5b600073ffffffffffffffffffffffffffffffffffffffff82169050919050565b600061097082610945565b9050919050565b61098081610965565b811461098b57600080fd5b50565b60008135905061099d81610977565b92915050565b6000819050919050565b6109b6816109a3565b81146109c157600080fd5b50565b6000813590506109d3816109ad565b92915050565b600080604083850312156109f0576109ef610940565b5b60006109fe8582860161098e565b9250506020610a0f858286016109c4565b9150509250929050565b60008115159050919050565b610a2e81610a19565b82525050565b6000602082019050610a496000830184610a25565b92915050565b610a58816109a3565b82525050565b6000602082019050610a736000830184610a4f565b92915050565b600080600060608486031215610a9257610a91610940565b5b6000610aa08682870161098e565b9350506020610ab18682870161098e565b9250506040610ac2868287016109c4565b9150509250925092565b600060ff82169050919050565b610ae281610acc565b82525050565b6000602082019050610afd6000830184610ad9565b92915050565b600060208284031215610b1957610b18610940565b5b6000610b278482850161098e565b91505092915050565b60008060408385031215610b4757610b46610940565b5b6000610b558582860161098e565b9250506020610b668582860161098e565b9150509250929050565b7f496e73756666696369656e742062616c616e6365000000000000000000000000600082015250565b6000610ba6601483610890565b9150610bb182610b70565b602082019050919050565b60006020820190508181036000830152610bd581610b99565b9050919050565b7f4e487b7100000000000000000000000000000000000000000000000000000000600052601160045260246000fd5b6000610c16826109a3565b9150610c21836109a3565b925082821015610c3457610c33610bdc565b5b828203905092915050565b6000610c4a826109a3565b9150610c55836109a3565b9250827fffffffffffffffffffffffffffffffffffffffffffffffffffffffffffffffff03821115610c8a57610c89610bdc565b5b828201905092915050565b7f4d696e7420746f20746865207a65726f20616464726573730000000000000000600082015250565b6000610ccb601883610890565b9150610cd682610c95565b602082019050919050565b60006020820190508181036000830152610cfa81610cbe565b9050919050565b7f4d6178696d756d20546f6b656e73205265616368656400000000000000000000600082015250565b6000610d37601683610890565b9150610d4282610d01565b602082019050919050565b60006020820190508181036000830152610d6681610d2a565b905091905056fea26469706673582212204007c3dea4eb3afcca1c065b053b8db130f9a67f1540f6402eb18888634d79b264736f6c634300080d0033",
  "immutableReferences": {},
  "source": "// SPDX-License-Identifier: GPL-3.0\r\npragma solidity >=0.5.10;\r\n\r\nimport \"@openzeppelin/contracts/token/ERC20/IERC20.sol\";\r\n\r\ncontract DEHToken is IERC20 {\r\n    string public constant symbol = \"DEH\";\r\n    string public constant name = \"DEH Token\";\r\n    uint8 public constant decimals = 0;\r\n    uint private constant __totalSupply = 10000;\r\n    uint private availableTokens;\r\n    mapping (address => uint) private __balanceOf;\r\n    mapping (address => mapping (address => uint)) private __allowances;\r\n\r\n    constructor() {\r\n        availableTokens=0;\r\n    }\r\n\r\n    function totalSupply() public pure override returns (uint _totalSupply) {\r\n        return __totalSupply;\r\n    }\r\n\r\n    function balanceOf(address _addr) public view override returns (uint balance) {\r\n        return __balanceOf[_addr];\r\n    }\r\n\r\n    function transfer(address _to, uint _value) public override returns (bool success) {\r\n        require(_value > 0 && _value <= balanceOf(msg.sender), \"Insufficient balance\");\r\n        \r\n        __balanceOf[msg.sender] -= _value;\r\n        __balanceOf[_to] += _value;\r\n        emit Transfer(msg.sender, _to, _value);\r\n        return true;\r\n    }\r\n\r\n    function transferFrom(address _from, address _to, uint _value) public override returns (bool success) {\r\n        require(_value > 0 && _value <= balanceOf(_from), \"Insufficient balance\");\r\n        \r\n        __balanceOf[_from] -= _value;\r\n        __balanceOf[_to] += _value;\r\n        emit Transfer(_from, _to, _value);\r\n        return true;\r\n    }\r\n\r\n    function mint(address _to, uint _amount) public {\r\n        require(_to != address(0), \"Mint to the zero address\");\r\n        require(availableTokens+_amount <= __totalSupply, \"Maximum Tokens Reached\");\r\n        __balanceOf[_to] += _amount;\r\n        availableTokens += _amount;\r\n        emit Transfer(address(0), _to, _amount);\r\n    }\r\n\r\n    function approve(address _spender, uint _value) public override returns\r\n    (bool success) {\r\n        __allowances[msg.sender][_spender] = _value;\r\n        return true;\r\n    }\r\n    function allowance(address _owner, address _spender)\r\n        public view override returns (uint remaining) {\r\n            return __allowances[_owner][_spender];\r\n    }\r\n}\r\n",
  "sourcePath": "C:\\Users\\jeffr\\Documents\\GitHub\\Healthcare-Blockchain-Project\\blockchain\\contracts\\DEHToken.sol",
  "compiler": {
    "name": "solc",
    "version": "0.8.13+commit.abaa5c0e.Emscripten.clang"
  },
  "schemaVersion": "3.4.16",
  "updatedAt": "2024-04-03T04:08:08.968Z",
  "networkType": "ethereum",
  "devdoc": {
    "kind": "dev",
    "methods": {
      "totalSupply()": {
        "details": "Returns the value of tokens in existence."
      }
    },
    "version": 1
  },
  "userdoc": {
    "kind": "user",
    "methods": {},
    "version": 1
  }
}