{
  "contractName": "MedicalAppointment",
  "abi": [
    {
      "inputs": [
        {
          "internalType": "address",
          "name": "_hospital",
          "type": "address"
        },
        {
          "internalType": "address",
          "name": "_dehTokenAddress",
          "type": "address"
        },
        {
          "internalType": "address",
          "name": "_medicalRecordAccess",
          "type": "address"
        }
      ],
      "stateMutability": "nonpayable",
      "type": "constructor"
    },
    {
      "inputs": [
        {
          "internalType": "address",
          "name": "",
          "type": "address"
        },
        {
          "internalType": "uint256",
          "name": "",
          "type": "uint256"
        }
      ],
      "name": "allAppointments",
      "outputs": [
        {
          "internalType": "address",
          "name": "patientAddresses",
          "type": "address"
        },
        {
          "internalType": "string",
          "name": "name",
          "type": "string"
        },
        {
          "internalType": "uint256",
          "name": "bookingId",
          "type": "uint256"
        },
        {
          "internalType": "uint256",
          "name": "fee",
          "type": "uint256"
        },
        {
          "internalType": "string",
          "name": "appointmentDate",
          "type": "string"
        },
        {
          "internalType": "string",
          "name": "appointmentSlot",
          "type": "string"
        },
        {
          "internalType": "enum MedicalAppointment.AppointmentStatus",
          "name": "status",
          "type": "uint8"
        }
      ],
      "stateMutability": "view",
      "type": "function",
      "constant": true
    },
    {
      "inputs": [],
      "name": "dehToken",
      "outputs": [
        {
          "internalType": "contract DEHToken",
          "name": "",
          "type": "address"
        }
      ],
      "stateMutability": "view",
      "type": "function",
      "constant": true
    },
    {
      "inputs": [],
      "name": "hospital",
      "outputs": [
        {
          "internalType": "address",
          "name": "",
          "type": "address"
        }
      ],
      "stateMutability": "view",
      "type": "function",
      "constant": true
    },
    {
      "inputs": [],
      "name": "medicalRecordAccess",
      "outputs": [
        {
          "internalType": "contract MedicalRecordAccess",
          "name": "",
          "type": "address"
        }
      ],
      "stateMutability": "view",
      "type": "function",
      "constant": true
    },
    {
      "inputs": [
        {
          "internalType": "uint256",
          "name": "",
          "type": "uint256"
        }
      ],
      "name": "patientAddresses",
      "outputs": [
        {
          "internalType": "address",
          "name": "",
          "type": "address"
        }
      ],
      "stateMutability": "view",
      "type": "function",
      "constant": true
    },
    {
      "inputs": [
        {
          "internalType": "address",
          "name": "",
          "type": "address"
        }
      ],
      "name": "patients",
      "outputs": [
        {
          "internalType": "address",
          "name": "patientAddress",
          "type": "address"
        },
        {
          "internalType": "string",
          "name": "name",
          "type": "string"
        },
        {
          "internalType": "uint256",
          "name": "age",
          "type": "uint256"
        }
      ],
      "stateMutability": "view",
      "type": "function",
      "constant": true
    },
    {
      "inputs": [
        {
          "internalType": "uint256",
          "name": "_fee",
          "type": "uint256"
        },
        {
          "internalType": "string",
          "name": "_appointmentDate",
          "type": "string"
        },
        {
          "internalType": "string",
          "name": "_appointmentSlot",
          "type": "string"
        },
        {
          "internalType": "string",
          "name": "_name",
          "type": "string"
        },
        {
          "internalType": "uint256",
          "name": "_age",
          "type": "uint256"
        }
      ],
      "name": "requestAppointment",
      "outputs": [],
      "stateMutability": "nonpayable",
      "type": "function"
    },
    {
      "inputs": [],
      "name": "payAppointmentFee",
      "outputs": [],
      "stateMutability": "nonpayable",
      "type": "function"
    },
    {
      "inputs": [
        {
          "internalType": "address",
          "name": "_patientAddress",
          "type": "address"
        }
      ],
      "name": "confirmAppointment",
      "outputs": [],
      "stateMutability": "nonpayable",
      "type": "function"
    },
    {
      "inputs": [
        {
          "internalType": "address",
          "name": "_patientAddress",
          "type": "address"
        }
      ],
      "name": "provideService",
      "outputs": [],
      "stateMutability": "nonpayable",
      "type": "function"
    },
    {
      "inputs": [],
      "name": "acknowledgeService",
      "outputs": [],
      "stateMutability": "nonpayable",
      "type": "function"
    },
    {
      "inputs": [
        {
          "internalType": "address",
          "name": "_patientAddress",
          "type": "address"
        },
        {
          "internalType": "string",
          "name": "_medicalRecord",
          "type": "string"
        }
      ],
      "name": "releaseMedicalRecord",
      "outputs": [],
      "stateMutability": "nonpayable",
      "type": "function"
    },
    {
      "inputs": [],
      "name": "getAllAppointments",
      "outputs": [
        {
          "components": [
            {
              "internalType": "address",
              "name": "patientAddresses",
              "type": "address"
            },
            {
              "internalType": "string",
              "name": "name",
              "type": "string"
            },
            {
              "internalType": "uint256",
              "name": "bookingId",
              "type": "uint256"
            },
            {
              "internalType": "uint256",
              "name": "fee",
              "type": "uint256"
            },
            {
              "internalType": "string",
              "name": "appointmentDate",
              "type": "string"
            },
            {
              "internalType": "string",
              "name": "appointmentSlot",
              "type": "string"
            },
            {
              "internalType": "enum MedicalAppointment.AppointmentStatus",
              "name": "status",
              "type": "uint8"
            }
          ],
          "internalType": "struct MedicalAppointment.Appointment[]",
          "name": "",
          "type": "tuple[]"
        }
      ],
      "stateMutability": "view",
      "type": "function",
      "constant": true
    },
    {
      "inputs": [],
      "name": "getPatientAppointments",
      "outputs": [
        {
          "components": [
            {
              "internalType": "address",
              "name": "patientAddresses",
              "type": "address"
            },
            {
              "internalType": "string",
              "name": "name",
              "type": "string"
            },
            {
              "internalType": "uint256",
              "name": "bookingId",
              "type": "uint256"
            },
            {
              "internalType": "uint256",
              "name": "fee",
              "type": "uint256"
            },
            {
              "internalType": "string",
              "name": "appointmentDate",
              "type": "string"
            },
            {
              "internalType": "string",
              "name": "appointmentSlot",
              "type": "string"
            },
            {
              "internalType": "enum MedicalAppointment.AppointmentStatus",
              "name": "status",
              "type": "uint8"
            }
          ],
          "internalType": "struct MedicalAppointment.Appointment[]",
          "name": "",
          "type": "tuple[]"
        }
      ],
      "stateMutability": "view",
      "type": "function",
      "constant": true
    },
    {
      "inputs": [
        {
          "internalType": "address",
          "name": "patientAddress",
          "type": "address"
        }
      ],
      "name": "getPatientDetails",
      "outputs": [
        {
          "internalType": "string",
          "name": "",
          "type": "string"
        },
        {
          "internalType": "uint256",
          "name": "",
          "type": "uint256"
        }
      ],
      "stateMutability": "view",
      "type": "function",
      "constant": true
    }
  ],
  "bytecode": "0x6080604052600180553480156200001557600080fd5b506040516200414a3803806200414a83398181016040528101906200003b919062000170565b826000806101000a81548173ffffffffffffffffffffffffffffffffffffffff021916908373ffffffffffffffffffffffffffffffffffffffff16021790555081600560006101000a81548173ffffffffffffffffffffffffffffffffffffffff021916908373ffffffffffffffffffffffffffffffffffffffff16021790555080600660006101000a81548173ffffffffffffffffffffffffffffffffffffffff021916908373ffffffffffffffffffffffffffffffffffffffff160217905550505050620001cc565b600080fd5b600073ffffffffffffffffffffffffffffffffffffffff82169050919050565b600062000138826200010b565b9050919050565b6200014a816200012b565b81146200015657600080fd5b50565b6000815190506200016a816200013f565b92915050565b6000806000606084860312156200018c576200018b62000106565b5b60006200019c8682870162000159565b9350506020620001af8682870162000159565b9250506040620001c28682870162000159565b9150509250925092565b613f6e80620001dc6000396000f3fe608060405234801561001057600080fd5b50600436106100f55760003560e01c8063a6c6e9e211610097578063e6a07e2411610066578063e6a07e241461026a578063efe2ccc114610286578063f246c13d146102b7578063f7be2e29146102c1576100f5565b8063a6c6e9e2146101e2578063aa2fedde146101fe578063b40f16911461021c578063d65a54831461024c576100f5565b80637933570c116100d35780637933570c146101545780639636c70f146101725780639d5dbc04146101a8578063a23ba70b146101c4576100f5565b80630869cfbc146100fa5780630df7d4b81461012c5780636408b4a514610136575b600080fd5b610114600480360381019061010f9190612ab8565b6102dd565b60405161012393929190612ba6565b60405180910390f35b6101346103af565b005b61013e610617565b60405161014b9190612c43565b60405180910390f35b61015c61063d565b6040516101699190612ea9565b60405180910390f35b61018c60048036038101906101879190612ef7565b610b6f565b60405161019f9796959493929190612f46565b60405180910390f35b6101c260048036038101906101bd9190612ab8565b610d93565b005b6101cc611026565b6040516101d99190612ea9565b60405180910390f35b6101fc60048036038101906101f791906130ff565b611320565b005b610206611841565b604051610213919061315b565b60405180910390f35b61023660048036038101906102319190613176565b611865565b604051610243919061315b565b60405180910390f35b6102546118a4565b60405161026191906131c4565b60405180910390f35b610284600480360381019061027f9190612ab8565b6118ca565b005b6102a0600480360381019061029b9190612ab8565b611b5d565b6040516102ae9291906131df565b60405180910390f35b6102bf611f6e565b005b6102db60048036038101906102d6919061320f565b612200565b005b60026020528060005260406000206000915090508060000160009054906101000a900473ffffffffffffffffffffffffffffffffffffffff16908060010180546103269061330d565b80601f01602080910402602001604051908101604052809291908181526020018280546103529061330d565b801561039f5780601f106103745761010080835404028352916020019161039f565b820191906000526020600020905b81548152906001019060200180831161038257829003601f168201915b5050505050908060020154905083565b6000600260003373ffffffffffffffffffffffffffffffffffffffff1673ffffffffffffffffffffffffffffffffffffffff1681526020019081526020016000209050600081600301805490501161043c576040517f08c379a00000000000000000000000000000000000000000000000000000000081526004016104339061338a565b60405180910390fd5b6000816003016001836003018054905061045691906133d9565b815481106104675761046661340d565b5b906000526020600020906007020190506000600581111561048b5761048a612cf2565b5b8160060160009054906101000a900460ff1660058111156104af576104ae612cf2565b5b146104ef576040517f08c379a00000000000000000000000000000000000000000000000000000000081526004016104e6906134ae565b60405180910390fd5b60006002826003015461050291906134ce565b9050600560009054906101000a900473ffffffffffffffffffffffffffffffffffffffff1673ffffffffffffffffffffffffffffffffffffffff166323b872dd3330846040518463ffffffff1660e01b815260040161056393929190613528565b6020604051808303816000875af1158015610582573d6000803e3d6000fd5b505050506040513d601f19601f820116820180604052508101906105a69190613597565b6105e5576040517f08c379a00000000000000000000000000000000000000000000000000000000081526004016105dc90613636565b60405180910390fd5b60018260060160006101000a81548160ff0219169083600581111561060d5761060c612cf2565b5b0217905550505050565b600560009054906101000a900473ffffffffffffffffffffffffffffffffffffffff1681565b606060008054906101000a900473ffffffffffffffffffffffffffffffffffffffff1673ffffffffffffffffffffffffffffffffffffffff163373ffffffffffffffffffffffffffffffffffffffff16146106cd576040517f08c379a00000000000000000000000000000000000000000000000000000000081526004016106c4906136c8565b60405180910390fd5b600080600090505b6003805490508110156107865760026000600383815481106106fa576106f961340d565b5b9060005260206000200160009054906101000a900473ffffffffffffffffffffffffffffffffffffffff1673ffffffffffffffffffffffffffffffffffffffff1673ffffffffffffffffffffffffffffffffffffffff168152602001908152602001600020600301805490508261077191906136e8565b9150808061077e9061373e565b9150506106d5565b5060008167ffffffffffffffff8111156107a3576107a2612fd4565b5b6040519080825280602002602001820160405280156107dc57816020015b6107c961293e565b8152602001906001900390816107c15790505b5090506000805b600380549050811015610b65576000600382815481106108065761080561340d565b5b9060005260206000200160009054906101000a900473ffffffffffffffffffffffffffffffffffffffff1690506000600260008373ffffffffffffffffffffffffffffffffffffffff1673ffffffffffffffffffffffffffffffffffffffff168152602001908152602001600020905060005b8160030180549050811015610b4f5781600301818154811061089e5761089d61340d565b5b90600052602060002090600702016040518060e00160405290816000820160009054906101000a900473ffffffffffffffffffffffffffffffffffffffff1673ffffffffffffffffffffffffffffffffffffffff1673ffffffffffffffffffffffffffffffffffffffff16815260200160018201805461091d9061330d565b80601f01602080910402602001604051908101604052809291908181526020018280546109499061330d565b80156109965780601f1061096b57610100808354040283529160200191610996565b820191906000526020600020905b81548152906001019060200180831161097957829003601f168201915b5050505050815260200160028201548152602001600382015481526020016004820180546109c39061330d565b80601f01602080910402602001604051908101604052809291908181526020018280546109ef9061330d565b8015610a3c5780601f10610a1157610100808354040283529160200191610a3c565b820191906000526020600020905b815481529060010190602001808311610a1f57829003601f168201915b50505050508152602001600582018054610a559061330d565b80601f0160208091040260200160405190810160405280929190818152602001828054610a819061330d565b8015610ace5780601f10610aa357610100808354040283529160200191610ace565b820191906000526020600020905b815481529060010190602001808311610ab157829003601f168201915b505050505081526020016006820160009054906101000a900460ff166005811115610afc57610afb612cf2565b5b6005811115610b0e57610b0d612cf2565b5b81525050868680610b1e9061373e565b975081518110610b3157610b3061340d565b5b60200260200101819052508080610b479061373e565b915050610879565b5050508080610b5d9061373e565b9150506107e3565b5081935050505090565b60046020528160005260406000208181548110610b8b57600080fd5b9060005260206000209060070201600091509150508060000160009054906101000a900473ffffffffffffffffffffffffffffffffffffffff1690806001018054610bd59061330d565b80601f0160208091040260200160405190810160405280929190818152602001828054610c019061330d565b8015610c4e5780601f10610c2357610100808354040283529160200191610c4e565b820191906000526020600020905b815481529060010190602001808311610c3157829003601f168201915b505050505090806002015490806003015490806004018054610c6f9061330d565b80601f0160208091040260200160405190810160405280929190818152602001828054610c9b9061330d565b8015610ce85780601f10610cbd57610100808354040283529160200191610ce8565b820191906000526020600020905b815481529060010190602001808311610ccb57829003601f168201915b505050505090806005018054610cfd9061330d565b80601f0160208091040260200160405190810160405280929190818152602001828054610d299061330d565b8015610d765780601f10610d4b57610100808354040283529160200191610d76565b820191906000526020600020905b815481529060010190602001808311610d5957829003601f168201915b5050505050908060060160009054906101000a900460ff16905087565b60008054906101000a900473ffffffffffffffffffffffffffffffffffffffff1673ffffffffffffffffffffffffffffffffffffffff163373ffffffffffffffffffffffffffffffffffffffff1614610e21576040517f08c379a0000000000000000000000000000000000000000000000000000000008152600401610e18906137f8565b60405180910390fd5b6000600260008373ffffffffffffffffffffffffffffffffffffffff1673ffffffffffffffffffffffffffffffffffffffff1681526020019081526020016000209050600073ffffffffffffffffffffffffffffffffffffffff168160000160009054906101000a900473ffffffffffffffffffffffffffffffffffffffff1673ffffffffffffffffffffffffffffffffffffffff1603610ef7576040517f08c379a0000000000000000000000000000000000000000000000000000000008152600401610eee90613864565b60405180910390fd5b6000816003018054905011610f41576040517f08c379a0000000000000000000000000000000000000000000000000000000008152600401610f389061338a565b60405180910390fd5b60008160030160018360030180549050610f5b91906133d9565b81548110610f6c57610f6b61340d565b5b9060005260206000209060070201905060026005811115610f9057610f8f612cf2565b5b8160060160009054906101000a900460ff166005811115610fb457610fb3612cf2565b5b14610ff4576040517f08c379a0000000000000000000000000000000000000000000000000000000008152600401610feb906138f6565b60405180910390fd5b60038160060160006101000a81548160ff0219169083600581111561101c5761101b612cf2565b5b0217905550505050565b6060600260003373ffffffffffffffffffffffffffffffffffffffff1673ffffffffffffffffffffffffffffffffffffffff168152602001908152602001600020600301805480602002602001604051908101604052809291908181526020016000905b8282101561131757838290600052602060002090600702016040518060e00160405290816000820160009054906101000a900473ffffffffffffffffffffffffffffffffffffffff1673ffffffffffffffffffffffffffffffffffffffff1673ffffffffffffffffffffffffffffffffffffffff1681526020016001820180546111139061330d565b80601f016020809104026020016040519081016040528092919081815260200182805461113f9061330d565b801561118c5780601f106111615761010080835404028352916020019161118c565b820191906000526020600020905b81548152906001019060200180831161116f57829003601f168201915b5050505050815260200160028201548152602001600382015481526020016004820180546111b99061330d565b80601f01602080910402602001604051908101604052809291908181526020018280546111e59061330d565b80156112325780601f1061120757610100808354040283529160200191611232565b820191906000526020600020905b81548152906001019060200180831161121557829003601f168201915b5050505050815260200160058201805461124b9061330d565b80601f01602080910402602001604051908101604052809291908181526020018280546112779061330d565b80156112c45780601f10611299576101008083540402835291602001916112c4565b820191906000526020600020905b8154815290600101906020018083116112a757829003601f168201915b505050505081526020016006820160009054906101000a900460ff1660058111156112f2576112f1612cf2565b5b600581111561130457611303612cf2565b5b815250508152602001906001019061108a565b50505050905090565b60008054906101000a900473ffffffffffffffffffffffffffffffffffffffff1673ffffffffffffffffffffffffffffffffffffffff163373ffffffffffffffffffffffffffffffffffffffff16146113ae576040517f08c379a00000000000000000000000000000000000000000000000000000000081526004016113a590613988565b60405180910390fd5b6000600260008473ffffffffffffffffffffffffffffffffffffffff1673ffffffffffffffffffffffffffffffffffffffff1681526020019081526020016000209050600081600201549050600073ffffffffffffffffffffffffffffffffffffffff168260000160009054906101000a900473ffffffffffffffffffffffffffffffffffffffff1673ffffffffffffffffffffffffffffffffffffffff160361148d576040517f08c379a000000000000000000000000000000000000000000000000000000000815260040161148490613864565b60405180910390fd5b60008260030180549050116114d7576040517f08c379a00000000000000000000000000000000000000000000000000000000081526004016114ce9061338a565b60405180910390fd5b600082600301600184600301805490506114f191906133d9565b815481106115025761150161340d565b5b906000526020600020906007020190506004600581111561152657611525612cf2565b5b8160060160009054906101000a900460ff16600581111561154a57611549612cf2565b5b1461158a576040517f08c379a000000000000000000000000000000000000000000000000000000000815260040161158190613a1a565b60405180910390fd5b600081600301549050600560009054906101000a900473ffffffffffffffffffffffffffffffffffffffff1673ffffffffffffffffffffffffffffffffffffffff1663a9059cbb60008054906101000a900473ffffffffffffffffffffffffffffffffffffffff16836040518363ffffffff1660e01b8152600401611610929190613a3a565b6020604051808303816000875af115801561162f573d6000803e3d6000fd5b505050506040513d601f19601f820116820180604052508101906116539190613597565b611692576040517f08c379a000000000000000000000000000000000000000000000000000000000815260040161168990613ad5565b60405180910390fd5b60058260060160006101000a81548160ff021916908360058111156116ba576116b9612cf2565b5b0217905550600660009054906101000a900473ffffffffffffffffffffffffffffffffffffffff1673ffffffffffffffffffffffffffffffffffffffff1663a224b73587866001018887876004016040518663ffffffff1660e01b8152600401611728959493929190613b8a565b600060405180830381600087803b15801561174257600080fd5b505af1158015611756573d6000803e3d6000fd5b50505050600560009054906101000a900473ffffffffffffffffffffffffffffffffffffffff1673ffffffffffffffffffffffffffffffffffffffff1663a9059cbb87836040518363ffffffff1660e01b81526004016117b7929190613a3a565b6020604051808303816000875af11580156117d6573d6000803e3d6000fd5b505050506040513d601f19601f820116820180604052508101906117fa9190613597565b611839576040517f08c379a000000000000000000000000000000000000000000000000000000000815260040161183090613c3e565b60405180910390fd5b505050505050565b60008054906101000a900473ffffffffffffffffffffffffffffffffffffffff1681565b6003818154811061187557600080fd5b906000526020600020016000915054906101000a900473ffffffffffffffffffffffffffffffffffffffff1681565b600660009054906101000a900473ffffffffffffffffffffffffffffffffffffffff1681565b60008054906101000a900473ffffffffffffffffffffffffffffffffffffffff1673ffffffffffffffffffffffffffffffffffffffff163373ffffffffffffffffffffffffffffffffffffffff1614611958576040517f08c379a000000000000000000000000000000000000000000000000000000000815260040161194f90613cd0565b60405180910390fd5b6000600260008373ffffffffffffffffffffffffffffffffffffffff1673ffffffffffffffffffffffffffffffffffffffff1681526020019081526020016000209050600073ffffffffffffffffffffffffffffffffffffffff168160000160009054906101000a900473ffffffffffffffffffffffffffffffffffffffff1673ffffffffffffffffffffffffffffffffffffffff1603611a2e576040517f08c379a0000000000000000000000000000000000000000000000000000000008152600401611a2590613864565b60405180910390fd5b6000816003018054905011611a78576040517f08c379a0000000000000000000000000000000000000000000000000000000008152600401611a6f9061338a565b60405180910390fd5b60008160030160018360030180549050611a9291906133d9565b81548110611aa357611aa261340d565b5b9060005260206000209060070201905060016005811115611ac757611ac6612cf2565b5b8160060160009054906101000a900460ff166005811115611aeb57611aea612cf2565b5b14611b2b576040517f08c379a0000000000000000000000000000000000000000000000000000000008152600401611b2290613d62565b60405180910390fd5b60028160060160006101000a81548160ff02191690836005811115611b5357611b52612cf2565b5b0217905550505050565b6060600080600260008573ffffffffffffffffffffffffffffffffffffffff1673ffffffffffffffffffffffffffffffffffffffff1681526020019081526020016000206040518060800160405290816000820160009054906101000a900473ffffffffffffffffffffffffffffffffffffffff1673ffffffffffffffffffffffffffffffffffffffff1673ffffffffffffffffffffffffffffffffffffffff168152602001600182018054611c129061330d565b80601f0160208091040260200160405190810160405280929190818152602001828054611c3e9061330d565b8015611c8b5780601f10611c6057610100808354040283529160200191611c8b565b820191906000526020600020905b815481529060010190602001808311611c6e57829003601f168201915b505050505081526020016002820154815260200160038201805480602002602001604051908101604052809291908181526020016000905b82821015611f5057838290600052602060002090600702016040518060e00160405290816000820160009054906101000a900473ffffffffffffffffffffffffffffffffffffffff1673ffffffffffffffffffffffffffffffffffffffff1673ffffffffffffffffffffffffffffffffffffffff168152602001600182018054611d4c9061330d565b80601f0160208091040260200160405190810160405280929190818152602001828054611d789061330d565b8015611dc55780601f10611d9a57610100808354040283529160200191611dc5565b820191906000526020600020905b815481529060010190602001808311611da857829003601f168201915b505050505081526020016002820154815260200160038201548152602001600482018054611df29061330d565b80601f0160208091040260200160405190810160405280929190818152602001828054611e1e9061330d565b8015611e6b5780601f10611e4057610100808354040283529160200191611e6b565b820191906000526020600020905b815481529060010190602001808311611e4e57829003601f168201915b50505050508152602001600582018054611e849061330d565b80601f0160208091040260200160405190810160405280929190818152602001828054611eb09061330d565b8015611efd5780601f10611ed257610100808354040283529160200191611efd565b820191906000526020600020905b815481529060010190602001808311611ee057829003601f168201915b505050505081526020016006820160009054906101000a900460ff166005811115611f2b57611f2a612cf2565b5b6005811115611f3d57611f3c612cf2565b5b8152505081526020019060010190611cc3565b50505050815250509050806020015181604001519250925050915091565b60008054906101000a900473ffffffffffffffffffffffffffffffffffffffff1673ffffffffffffffffffffffffffffffffffffffff163373ffffffffffffffffffffffffffffffffffffffff1603611ffc576040517f08c379a0000000000000000000000000000000000000000000000000000000008152600401611ff390613df4565b60405180910390fd5b6000600260003373ffffffffffffffffffffffffffffffffffffffff1673ffffffffffffffffffffffffffffffffffffffff1681526020019081526020016000209050600073ffffffffffffffffffffffffffffffffffffffff168160000160009054906101000a900473ffffffffffffffffffffffffffffffffffffffff1673ffffffffffffffffffffffffffffffffffffffff16036120d2576040517f08c379a00000000000000000000000000000000000000000000000000000000081526004016120c990613864565b60405180910390fd5b600081600301805490501161211c576040517f08c379a00000000000000000000000000000000000000000000000000000000081526004016121139061338a565b60405180910390fd5b6000816003016001836003018054905061213691906133d9565b815481106121475761214661340d565b5b906000526020600020906007020190506003600581111561216b5761216a612cf2565b5b8160060160009054906101000a900460ff16600581111561218f5761218e612cf2565b5b146121cf576040517f08c379a00000000000000000000000000000000000000000000000000000000081526004016121c690613e86565b60405180910390fd5b60048160060160006101000a81548160ff021916908360058111156121f7576121f6612cf2565b5b02179055505050565b600073ffffffffffffffffffffffffffffffffffffffff16600260003373ffffffffffffffffffffffffffffffffffffffff1673ffffffffffffffffffffffffffffffffffffffff16815260200190815260200160002060000160009054906101000a900473ffffffffffffffffffffffffffffffffffffffff1673ffffffffffffffffffffffffffffffffffffffff160361237f5733600260003373ffffffffffffffffffffffffffffffffffffffff1673ffffffffffffffffffffffffffffffffffffffff16815260200190815260200160002060000160006101000a81548173ffffffffffffffffffffffffffffffffffffffff021916908373ffffffffffffffffffffffffffffffffffffffff1602179055506003339080600181540180825580915050600190039060005260206000200160009091909190916101000a81548173ffffffffffffffffffffffffffffffffffffffff021916908373ffffffffffffffffffffffffffffffffffffffff160217905550612418565b6000600260003373ffffffffffffffffffffffffffffffffffffffff1673ffffffffffffffffffffffffffffffffffffffff1681526020019081526020016000206003018054905014806123d857506123d7336127c8565b5b612417576040517f08c379a000000000000000000000000000000000000000000000000000000000815260040161240e90613f18565b60405180910390fd5b5b81600260003373ffffffffffffffffffffffffffffffffffffffff1673ffffffffffffffffffffffffffffffffffffffff168152602001908152602001600020600101908051906020019061246e9291906129a3565b5080600260003373ffffffffffffffffffffffffffffffffffffffff1673ffffffffffffffffffffffffffffffffffffffff1681526020019081526020016000206002018190555060006124c0612917565b905060006040518060e001604052803373ffffffffffffffffffffffffffffffffffffffff1681526020018581526020018381526020018881526020018781526020018681526020016000600581111561251d5761251c612cf2565b5b8152509050600260003373ffffffffffffffffffffffffffffffffffffffff1673ffffffffffffffffffffffffffffffffffffffff16815260200190815260200160002060030181908060018154018082558091505060019003906000526020600020906007020160009091909190915060008201518160000160006101000a81548173ffffffffffffffffffffffffffffffffffffffff021916908373ffffffffffffffffffffffffffffffffffffffff16021790555060208201518160010190805190602001906125f19291906129a3565b50604082015181600201556060820151816003015560808201518160040190805190602001906126229291906129a3565b5060a082015181600501908051906020019061263f9291906129a3565b5060c08201518160060160006101000a81548160ff0219169083600581111561266b5761266a612cf2565b5b02179055505050600460003373ffffffffffffffffffffffffffffffffffffffff1673ffffffffffffffffffffffffffffffffffffffff16815260200190815260200160002081908060018154018082558091505060019003906000526020600020906007020160009091909190915060008201518160000160006101000a81548173ffffffffffffffffffffffffffffffffffffffff021916908373ffffffffffffffffffffffffffffffffffffffff160217905550602082015181600101908051906020019061273e9291906129a3565b506040820151816002015560608201518160030155608082015181600401908051906020019061276f9291906129a3565b5060a082015181600501908051906020019061278c9291906129a3565b5060c08201518160060160006101000a81548160ff021916908360058111156127b8576127b7612cf2565b5b0217905550505050505050505050565b600080600260008473ffffffffffffffffffffffffffffffffffffffff1673ffffffffffffffffffffffffffffffffffffffff168152602001908152602001600020600301805490500361281f5760019050612912565b6000600260008473ffffffffffffffffffffffffffffffffffffffff1673ffffffffffffffffffffffffffffffffffffffff1681526020019081526020016000206003016001600260008673ffffffffffffffffffffffffffffffffffffffff1673ffffffffffffffffffffffffffffffffffffffff168152602001908152602001600020600301805490506128b591906133d9565b815481106128c6576128c561340d565b5b906000526020600020906007020190506005808111156128e9576128e8612cf2565b5b8160060160009054906101000a900460ff16600581111561290d5761290c612cf2565b5b149150505b919050565b6000806001549050600160008154809291906129329061373e565b91905055508091505090565b6040518060e00160405280600073ffffffffffffffffffffffffffffffffffffffff16815260200160608152602001600081526020016000815260200160608152602001606081526020016000600581111561299d5761299c612cf2565b5b81525090565b8280546129af9061330d565b90600052602060002090601f0160209004810192826129d15760008555612a18565b82601f106129ea57805160ff1916838001178555612a18565b82800160010185558215612a18579182015b82811115612a175782518255916020019190600101906129fc565b5b509050612a259190612a29565b5090565b5b80821115612a42576000816000905550600101612a2a565b5090565b6000604051905090565b600080fd5b600080fd5b600073ffffffffffffffffffffffffffffffffffffffff82169050919050565b6000612a8582612a5a565b9050919050565b612a9581612a7a565b8114612aa057600080fd5b50565b600081359050612ab281612a8c565b92915050565b600060208284031215612ace57612acd612a50565b5b6000612adc84828501612aa3565b91505092915050565b612aee81612a7a565b82525050565b600081519050919050565b600082825260208201905092915050565b60005b83811015612b2e578082015181840152602081019050612b13565b83811115612b3d576000848401525b50505050565b6000601f19601f8301169050919050565b6000612b5f82612af4565b612b698185612aff565b9350612b79818560208601612b10565b612b8281612b43565b840191505092915050565b6000819050919050565b612ba081612b8d565b82525050565b6000606082019050612bbb6000830186612ae5565b8181036020830152612bcd8185612b54565b9050612bdc6040830184612b97565b949350505050565b6000819050919050565b6000612c09612c04612bff84612a5a565b612be4565b612a5a565b9050919050565b6000612c1b82612bee565b9050919050565b6000612c2d82612c10565b9050919050565b612c3d81612c22565b82525050565b6000602082019050612c586000830184612c34565b92915050565b600081519050919050565b600082825260208201905092915050565b6000819050602082019050919050565b612c9381612a7a565b82525050565b600082825260208201905092915050565b6000612cb582612af4565b612cbf8185612c99565b9350612ccf818560208601612b10565b612cd881612b43565b840191505092915050565b612cec81612b8d565b82525050565b7f4e487b7100000000000000000000000000000000000000000000000000000000600052602160045260246000fd5b60068110612d3257612d31612cf2565b5b50565b6000819050612d4382612d21565b919050565b6000612d5382612d35565b9050919050565b612d6381612d48565b82525050565b600060e083016000830151612d816000860182612c8a565b5060208301518482036020860152612d998282612caa565b9150506040830151612dae6040860182612ce3565b506060830151612dc16060860182612ce3565b5060808301518482036080860152612dd98282612caa565b91505060a083015184820360a0860152612df38282612caa565b91505060c0830151612e0860c0860182612d5a565b508091505092915050565b6000612e1f8383612d69565b905092915050565b6000602082019050919050565b6000612e3f82612c5e565b612e498185612c69565b935083602082028501612e5b85612c7a565b8060005b85811015612e975784840389528151612e788582612e13565b9450612e8383612e27565b925060208a01995050600181019050612e5f565b50829750879550505050505092915050565b60006020820190508181036000830152612ec38184612e34565b905092915050565b612ed481612b8d565b8114612edf57600080fd5b50565b600081359050612ef181612ecb565b92915050565b60008060408385031215612f0e57612f0d612a50565b5b6000612f1c85828601612aa3565b9250506020612f2d85828601612ee2565b9150509250929050565b612f4081612d48565b82525050565b600060e082019050612f5b600083018a612ae5565b8181036020830152612f6d8189612b54565b9050612f7c6040830188612b97565b612f896060830187612b97565b8181036080830152612f9b8186612b54565b905081810360a0830152612faf8185612b54565b9050612fbe60c0830184612f37565b98975050505050505050565b600080fd5b600080fd5b7f4e487b7100000000000000000000000000000000000000000000000000000000600052604160045260246000fd5b61300c82612b43565b810181811067ffffffffffffffff8211171561302b5761302a612fd4565b5b80604052505050565b600061303e612a46565b905061304a8282613003565b919050565b600067ffffffffffffffff82111561306a57613069612fd4565b5b61307382612b43565b9050602081019050919050565b82818337600083830152505050565b60006130a261309d8461304f565b613034565b9050828152602081018484840111156130be576130bd612fcf565b5b6130c9848285613080565b509392505050565b600082601f8301126130e6576130e5612fca565b5b81356130f684826020860161308f565b91505092915050565b6000806040838503121561311657613115612a50565b5b600061312485828601612aa3565b925050602083013567ffffffffffffffff81111561314557613144612a55565b5b613151858286016130d1565b9150509250929050565b60006020820190506131706000830184612ae5565b92915050565b60006020828403121561318c5761318b612a50565b5b600061319a84828501612ee2565b91505092915050565b60006131ae82612c10565b9050919050565b6131be816131a3565b82525050565b60006020820190506131d960008301846131b5565b92915050565b600060408201905081810360008301526131f98185612b54565b90506132086020830184612b97565b9392505050565b600080600080600060a0868803121561322b5761322a612a50565b5b600061323988828901612ee2565b955050602086013567ffffffffffffffff81111561325a57613259612a55565b5b613266888289016130d1565b945050604086013567ffffffffffffffff81111561328757613286612a55565b5b613293888289016130d1565b935050606086013567ffffffffffffffff8111156132b4576132b3612a55565b5b6132c0888289016130d1565b92505060806132d188828901612ee2565b9150509295509295909350565b7f4e487b7100000000000000000000000000000000000000000000000000000000600052602260045260246000fd5b6000600282049050600182168061332557607f821691505b602082108103613338576133376132de565b5b50919050565b7f50617469656e7420686173206e6f206170706f696e746d656e74730000000000600082015250565b6000613374601b83612aff565b915061337f8261333e565b602082019050919050565b600060208201905081810360008301526133a381613367565b9050919050565b7f4e487b7100000000000000000000000000000000000000000000000000000000600052601160045260246000fd5b60006133e482612b8d565b91506133ef83612b8d565b925082821015613402576134016133aa565b5b828203905092915050565b7f4e487b7100000000000000000000000000000000000000000000000000000000600052603260045260246000fd5b7f4c6174657374206170706f696e746d656e7420737461747573206d757374206260008201527f652050656e64696e670000000000000000000000000000000000000000000000602082015250565b6000613498602983612aff565b91506134a38261343c565b604082019050919050565b600060208201905081810360008301526134c78161348b565b9050919050565b60006134d982612b8d565b91506134e483612b8d565b9250817fffffffffffffffffffffffffffffffffffffffffffffffffffffffffffffffff048311821515161561351d5761351c6133aa565b5b828202905092915050565b600060608201905061353d6000830186612ae5565b61354a6020830185612ae5565b6135576040830184612b97565b949350505050565b60008115159050919050565b6135748161355f565b811461357f57600080fd5b50565b6000815190506135918161356b565b92915050565b6000602082840312156135ad576135ac612a50565b5b60006135bb84828501613582565b91505092915050565b7f496e73756666696369656e7420616c6c6f77616e6365206f722062616c616e6360008201527f6500000000000000000000000000000000000000000000000000000000000000602082015250565b6000613620602183612aff565b915061362b826135c4565b604082019050919050565b6000602082019050818103600083015261364f81613613565b9050919050565b7f4f6e6c7920686f73706974616c2063616e2061636365737320616c6c2061707060008201527f6f696e746d656e74730000000000000000000000000000000000000000000000602082015250565b60006136b2602983612aff565b91506136bd82613656565b604082019050919050565b600060208201905081810360008301526136e1816136a5565b9050919050565b60006136f382612b8d565b91506136fe83612b8d565b9250827fffffffffffffffffffffffffffffffffffffffffffffffffffffffffffffffff03821115613733576137326133aa565b5b828201905092915050565b600061374982612b8d565b91507fffffffffffffffffffffffffffffffffffffffffffffffffffffffffffffffff820361377b5761377a6133aa565b5b600182019050919050565b7f4f6e6c7920686f73706974616c2063616e2070726f766964652073657276696360008201527f6500000000000000000000000000000000000000000000000000000000000000602082015250565b60006137e2602183612aff565b91506137ed82613786565b604082019050919050565b60006020820190508181036000830152613811816137d5565b9050919050565b7f50617469656e74206e6f7420666f756e64000000000000000000000000000000600082015250565b600061384e601183612aff565b915061385982613818565b602082019050919050565b6000602082019050818103600083015261387d81613841565b9050919050565b7f4c6174657374206170706f696e746d656e7420737461747573206d757374206260008201527f6520436f6e6669726d6564000000000000000000000000000000000000000000602082015250565b60006138e0602b83612aff565b91506138eb82613884565b604082019050919050565b6000602082019050818103600083015261390f816138d3565b9050919050565b7f4f6e6c7920686f73706974616c2063616e2072656c65617365206d656469636160008201527f6c207265636f7264730000000000000000000000000000000000000000000000602082015250565b6000613972602983612aff565b915061397d82613916565b604082019050919050565b600060208201905081810360008301526139a181613965565b9050919050565b7f4c6174657374206170706f696e746d656e7420737461747573206d757374206260008201527f652041636b6e6f776c6564676564536572766963650000000000000000000000602082015250565b6000613a04603583612aff565b9150613a0f826139a8565b604082019050919050565b60006020820190508181036000830152613a33816139f7565b9050919050565b6000604082019050613a4f6000830185612ae5565b613a5c6020830184612b97565b9392505050565b7f546f6b656e207472616e7366657220746f20686f73706974616c206661696c6560008201527f6400000000000000000000000000000000000000000000000000000000000000602082015250565b6000613abf602183612aff565b9150613aca82613a63565b604082019050919050565b60006020820190508181036000830152613aee81613ab2565b9050919050565b60008190508160005260206000209050919050565b60008154613b178161330d565b613b218186612aff565b94506001821660008114613b3c5760018114613b4e57613b81565b60ff1983168652602086019350613b81565b613b5785613af5565b60005b83811015613b7957815481890152600182019150602081019050613b5a565b808801955050505b50505092915050565b600060a082019050613b9f6000830188612ae5565b8181036020830152613bb18187613b0a565b90508181036040830152613bc58186612b54565b9050613bd46060830185612b97565b8181036080830152613be68184613b0a565b90509695505050505050565b7f546f6b656e207472616e7366657220746f2070617469656e74206661696c6564600082015250565b6000613c28602083612aff565b9150613c3382613bf2565b602082019050919050565b60006020820190508181036000830152613c5781613c1b565b9050919050565b7f4f6e6c7920686f73706974616c2063616e20636f6e6669726d206170706f696e60008201527f746d656e74730000000000000000000000000000000000000000000000000000602082015250565b6000613cba602683612aff565b9150613cc582613c5e565b604082019050919050565b60006020820190508181036000830152613ce981613cad565b9050919050565b7f4c6174657374206170706f696e746d656e7420737461747573206d757374206260008201527f6520506169640000000000000000000000000000000000000000000000000000602082015250565b6000613d4c602683612aff565b9150613d5782613cf0565b604082019050919050565b60006020820190508181036000830152613d7b81613d3f565b9050919050565b7f4f6e6c792070617469656e74732063616e2061636b6e6f776c6564676520736560008201527f7276696365000000000000000000000000000000000000000000000000000000602082015250565b6000613dde602583612aff565b9150613de982613d82565b604082019050919050565b60006020820190508181036000830152613e0d81613dd1565b9050919050565b7f4c6174657374206170706f696e746d656e7420737461747573206d757374206260008201527f65205365727669636550726f7669646564000000000000000000000000000000602082015250565b6000613e70603183612aff565b9150613e7b82613e14565b604082019050919050565b60006020820190508181036000830152613e9f81613e63565b9050919050565b7f4c617374206170706f696e746d656e74277320737461747573206d757374206260008201527f6520636f6d706c6574656420616e642072656c65617365640000000000000000602082015250565b6000613f02603883612aff565b9150613f0d82613ea6565b604082019050919050565b60006020820190508181036000830152613f3181613ef5565b905091905056fea264697066735822122021a4a0d73bdad1b8738dff1accc83eaf61d6f01d5a99d53d15266a3829cab2e064736f6c634300080d0033",
  "immutableReferences": {},
  "source": "// SPDX-License-Identifier: GPL-3.0\r\npragma solidity >=0.5.10;\r\n\r\nimport \"@openzeppelin/contracts/token/ERC20/IERC20.sol\";\r\nimport \"./MedicalRecordAccess.sol\"; // Import the other smart contract\r\nimport \"./DEHToken.sol\";\r\n\r\ncontract MedicalAppointment {\r\n       enum AppointmentStatus { Pending, Paid, Confirmed, ServiceProvided, AcknowledgedService, RecordReleased }\r\n\r\n    struct Appointment {\r\n        address patientAddresses;\r\n        string name;\r\n        uint bookingId;\r\n        uint fee;\r\n        string appointmentDate;\r\n        string appointmentSlot;\r\n        AppointmentStatus status;\r\n    }\r\n\r\n    struct Patient {\r\n        address patientAddress;\r\n        string name;\r\n        uint age;\r\n        Appointment[] appointments;\r\n    }\r\n\r\n    address public hospital;\r\n    uint private nextBookingId = 1; // Counter for generating unique booking IDs\r\n    mapping(address => Patient) public patients;\r\n    address[] public patientAddresses; // Array to store patient addresses\r\n    mapping(address => Appointment[]) public allAppointments;\r\n    DEHToken public dehToken;\r\n    MedicalRecordAccess public medicalRecordAccess; // Instance of the other smart contract\r\n    constructor(address _hospital, address _dehTokenAddress, address _medicalRecordAccess) {\r\n        hospital = _hospital;\r\n        dehToken =  DEHToken(_dehTokenAddress);\r\n        medicalRecordAccess = MedicalRecordAccess(_medicalRecordAccess); // Initialize the instance\r\n    }\r\n\r\n    // Function to add patient address to the patientAddresses array\r\n    function addPatientAddress(address _patientAddress) private {\r\n        // Check if the patient address is not already added\r\n        bool exists = false;\r\n        for (uint i = 0; i < patientAddresses.length; i++) {\r\n            if (patientAddresses[i] == _patientAddress) {\r\n                exists = true;\r\n                break;\r\n            }\r\n        }\r\n        // If patient address does not exist, add it\r\n        if (!exists) {\r\n            patientAddresses.push(_patientAddress);\r\n        }\r\n    }\r\n\r\n    function requestAppointment(uint _fee, string memory _appointmentDate, string memory _appointmentSlot, string memory _name, uint _age) public {\r\n\r\n        // Create new patient if not exists\r\n        if (patients[msg.sender].patientAddress == address(0)) {\r\n            patients[msg.sender].patientAddress = msg.sender;\r\n            patientAddresses.push(msg.sender); // Add patient address to the list\r\n        }\r\n\r\n        else {\r\n        require(patients[msg.sender].appointments.length == 0 || hasLastAppointmentRecordReleased(msg.sender), \"Last appointment's status must be completed and released\");\r\n        }\r\n        patients[msg.sender].name = _name;\r\n        patients[msg.sender].age = _age;\r\n        uint bookingId = getNextBookingId(); // Get the next unique booking ID\r\n        Appointment memory newAppointment = Appointment(msg.sender, _name,  bookingId, _fee, _appointmentDate, _appointmentSlot, AppointmentStatus.Pending);\r\n\r\n        // Add appointment to patient's list\r\n        patients[msg.sender].appointments.push(newAppointment);\r\n        allAppointments[msg.sender].push(newAppointment);\r\n    }\r\n\r\n\r\n    // Internal function to check if the last appointment's status is RecordReleased\r\n    function hasLastAppointmentRecordReleased(address _patientAddress) private view returns (bool) {\r\n        if (patients[_patientAddress].appointments.length == 0) {\r\n            // No previous appointments, so return true\r\n            return true;\r\n        } else {\r\n            // Get the status of the last appointment\r\n            Appointment storage lastAppointment = patients[_patientAddress].appointments[patients[_patientAddress].appointments.length - 1];\r\n            return lastAppointment.status == AppointmentStatus.RecordReleased;\r\n        }\r\n}\r\n\r\n    // Internal function to get the next unique booking ID\r\n    function getNextBookingId() private returns (uint) {\r\n        uint bookingId = nextBookingId;\r\n        nextBookingId++; // Increment the counter for the next booking ID\r\n        return bookingId;\r\n    }\r\n\r\n    function payAppointmentFee() public {\r\n        Patient storage patient = patients[msg.sender];\r\n        \r\n        // Ensure that the patient has appointments\r\n        require(patient.appointments.length > 0, \"Patient has no appointments\");\r\n        \r\n        // Find the latest appointment of the patient\r\n        Appointment storage latestAppointment = patient.appointments[patient.appointments.length - 1];\r\n        \r\n        // Ensure that the latest appointment status is \"Pending\" before allowing payment\r\n        require(latestAppointment.status == AppointmentStatus.Pending, \"Latest appointment status must be Pending\");\r\n        \r\n        // Transfer the appointment fee (doubled) from the patient's account to the contract's address\r\n        uint doubledFee = latestAppointment.fee * 2;\r\n        require(dehToken.transferFrom(msg.sender, address(this), doubledFee), \"Insufficient allowance or balance\");\r\n        \r\n        // Update the latest appointment status to \"Paid\" after successful payment\r\n        latestAppointment.status = AppointmentStatus.Paid;\r\n    }\r\n\r\n\r\n    function confirmAppointment(address _patientAddress) public {\r\n        require(msg.sender == hospital, \"Only hospital can confirm appointments\");\r\n        Patient storage patient = patients[_patientAddress];\r\n        \r\n        // Ensure that the patient exists and has appointments\r\n        require(patient.patientAddress != address(0), \"Patient not found\");\r\n        require(patient.appointments.length > 0, \"Patient has no appointments\");\r\n        \r\n        // Find the latest appointment of the patient\r\n        Appointment storage latestAppointment = patient.appointments[patient.appointments.length - 1];\r\n        \r\n        // Ensure that the latest appointment status is \"Paid\" before confirming\r\n        require(latestAppointment.status == AppointmentStatus.Paid, \"Latest appointment status must be Paid\");\r\n        \r\n        // Update the latest appointment status to \"Confirmed\"\r\n        latestAppointment.status = AppointmentStatus.Confirmed;\r\n    }\r\n\r\n\r\n\r\n    function provideService(address _patientAddress) public {\r\n        require(msg.sender == hospital, \"Only hospital can provide service\");\r\n        Patient storage patient = patients[_patientAddress];\r\n        \r\n        // Ensure that the patient exists and has appointments\r\n        require(patient.patientAddress != address(0), \"Patient not found\");\r\n        require(patient.appointments.length > 0, \"Patient has no appointments\");\r\n        \r\n        // Find the latest appointment of the patient\r\n        Appointment storage latestAppointment = patient.appointments[patient.appointments.length - 1];\r\n        \r\n        // Ensure that the status of the latest appointment is \"Confirmed\" before providing service\r\n        require(latestAppointment.status == AppointmentStatus.Confirmed, \"Latest appointment status must be Confirmed\");\r\n        \r\n        // Update the status of the latest appointment to \"ServiceProvided\"\r\n        latestAppointment.status = AppointmentStatus.ServiceProvided;\r\n    }\r\n\r\n\r\n    function acknowledgeService() public {\r\n        // Ensure that the message sender is the patient\r\n        require(msg.sender != hospital, \"Only patients can acknowledge service\");\r\n        Patient storage patient = patients[msg.sender];\r\n        \r\n        // Ensure that the patient exists and has appointments\r\n        require(patient.patientAddress != address(0), \"Patient not found\");\r\n        require(patient.appointments.length > 0, \"Patient has no appointments\");\r\n        \r\n        // Find the latest appointment of the patient\r\n        Appointment storage latestAppointment = patient.appointments[patient.appointments.length - 1];\r\n        \r\n        // Ensure that the status of the latest appointment is \"ServiceProvided\" before acknowledgment\r\n        require(latestAppointment.status == AppointmentStatus.ServiceProvided, \"Latest appointment status must be ServiceProvided\");\r\n        \r\n        // Update the status of the latest appointment to \"AcknowledgedService\"\r\n        latestAppointment.status = AppointmentStatus.AcknowledgedService;\r\n    }\r\n\r\n\r\n    function releaseMedicalRecord(address _patientAddress, string memory _medicalRecord) public {\r\n        // Ensure that the message sender is the hospital\r\n        require(msg.sender == hospital, \"Only hospital can release medical records\");\r\n\r\n        // Find the patient and ensure that the patient exists and has appointments\r\n        Patient storage patient = patients[_patientAddress];\r\n        uint age = patient.age;\r\n        require(patient.patientAddress != address(0), \"Patient not found\");\r\n        require(patient.appointments.length > 0, \"Patient has no appointments\");\r\n\r\n        // Find the latest appointment of the patient\r\n        Appointment storage latestAppointment = patient.appointments[patient.appointments.length - 1];\r\n\r\n        // Ensure that the status of the latest appointment is \"ServiceProvided\" before releasing the record\r\n        require(latestAppointment.status == AppointmentStatus.AcknowledgedService, \"Latest appointment status must be AcknowledgedService\");\r\n\r\n        // Calculate the half fee\r\n        uint halfFee = latestAppointment.fee;\r\n\r\n        // Transfer half of the fee to the hospital\r\n        require(dehToken.transfer(hospital, halfFee), \"Token transfer to hospital failed\");\r\n\r\n        // Update the status of the latest appointment to \"RecordReleased\"\r\n        latestAppointment.status = AppointmentStatus.RecordReleased;\r\n\r\n        // Call the storeRecord function from the MedicalRecordAccess contract to store the medical record\r\n        medicalRecordAccess.storeRecord(_patientAddress, patient.name, _medicalRecord, age, latestAppointment.appointmentDate);\r\n\r\n        // Transfer half of the fee to the patient\r\n        require(dehToken.transfer(_patientAddress, halfFee), \"Token transfer to patient failed\");\r\n    }\r\n\r\n\r\n\r\n\r\nfunction getAllAppointments() public view returns (Appointment[] memory) {\r\n    // Ensure that the message sender is the hospital\r\n    require(msg.sender == hospital, \"Only hospital can access all appointments\");\r\n\r\n    // Calculate the total number of appointments\r\n    uint totalAppointments;\r\n    for (uint i = 0; i < patientAddresses.length; i++) {\r\n        totalAppointments += patients[patientAddresses[i]].appointments.length;\r\n    }\r\n\r\n    // Create a dynamic array to store all appointments\r\n    Appointment[] memory allAppointmentsCombined = new Appointment[](totalAppointments);\r\n    uint index = 0;\r\n\r\n    // Iterate through all patient addresses and concatenate their appointments\r\n    for (uint i = 0; i < patientAddresses.length; i++) {\r\n        address patientAddress = patientAddresses[i];\r\n        Patient storage patient = patients[patientAddress];\r\n\r\n        for (uint j = 0; j < patient.appointments.length; j++) {\r\n            allAppointmentsCombined[index++] = patient.appointments[j];\r\n        }\r\n    }\r\n\r\n    return allAppointmentsCombined;\r\n}\r\n\r\n\r\n\r\n    function getPatientAppointments() public view returns (Appointment[] memory) {\r\n        return patients[msg.sender].appointments;\r\n    }\r\n\r\n    function getPatientDetails(address patientAddress) public view returns (string memory, uint) {\r\n        // Retrieve patient details using their address\r\n        Patient memory patient = patients[patientAddress];\r\n        // Return name and age of the patient\r\n        return (patient.name, patient.age);\r\n    }\r\n}\r\n",
  "sourcePath": "C:\\Users\\jeffr\\Documents\\GitHub\\Healthcare-Blockchain-Project\\blockchain\\contracts\\MedicalAppointment.sol",
  "compiler": {
    "name": "solc",
    "version": "0.8.13+commit.abaa5c0e.Emscripten.clang"
  },
  "schemaVersion": "3.4.16",
  "updatedAt": "2024-04-02T16:49:22.530Z",
  "networkType": "ethereum",
  "devdoc": {
    "kind": "dev",
    "methods": {},
    "version": 1
  },
  "userdoc": {
    "kind": "user",
    "methods": {},
    "version": 1
  }
}