{
  "contractName": "MedicalAppointment",
  "abi": [
    {
      "inputs": [
        {
          "internalType": "address",
          "name": "_hospital",
          "type": "address"
        },
        {
          "internalType": "address",
          "name": "_dehTokenAddress",
          "type": "address"
        },
        {
          "internalType": "address",
          "name": "_medicalRecordAccess",
          "type": "address"
        }
      ],
      "stateMutability": "nonpayable",
      "type": "constructor"
    },
    {
      "inputs": [
        {
          "internalType": "address",
          "name": "",
          "type": "address"
        },
        {
          "internalType": "uint256",
          "name": "",
          "type": "uint256"
        }
      ],
      "name": "allAppointments",
      "outputs": [
        {
          "internalType": "address",
          "name": "patientAddresses",
          "type": "address"
        },
        {
          "internalType": "string",
          "name": "name",
          "type": "string"
        },
        {
          "internalType": "uint256",
          "name": "bookingId",
          "type": "uint256"
        },
        {
          "internalType": "uint256",
          "name": "fee",
          "type": "uint256"
        },
        {
          "internalType": "string",
          "name": "appointmentDate",
          "type": "string"
        },
        {
          "internalType": "string",
          "name": "appointmentSlot",
          "type": "string"
        },
        {
          "internalType": "enum MedicalAppointment.AppointmentStatus",
          "name": "status",
          "type": "uint8"
        }
      ],
      "stateMutability": "view",
      "type": "function",
      "constant": true
    },
    {
      "inputs": [],
      "name": "dehToken",
      "outputs": [
        {
          "internalType": "contract DEHToken",
          "name": "",
          "type": "address"
        }
      ],
      "stateMutability": "view",
      "type": "function",
      "constant": true
    },
    {
      "inputs": [],
      "name": "hospital",
      "outputs": [
        {
          "internalType": "address",
          "name": "",
          "type": "address"
        }
      ],
      "stateMutability": "view",
      "type": "function",
      "constant": true
    },
    {
      "inputs": [],
      "name": "medicalRecordAccess",
      "outputs": [
        {
          "internalType": "contract MedicalRecordAccess",
          "name": "",
          "type": "address"
        }
      ],
      "stateMutability": "view",
      "type": "function",
      "constant": true
    },
    {
      "inputs": [
        {
          "internalType": "uint256",
          "name": "",
          "type": "uint256"
        }
      ],
      "name": "patientAddresses",
      "outputs": [
        {
          "internalType": "address",
          "name": "",
          "type": "address"
        }
      ],
      "stateMutability": "view",
      "type": "function",
      "constant": true
    },
    {
      "inputs": [
        {
          "internalType": "address",
          "name": "",
          "type": "address"
        }
      ],
      "name": "patients",
      "outputs": [
        {
          "internalType": "address",
          "name": "patientAddress",
          "type": "address"
        },
        {
          "internalType": "string",
          "name": "name",
          "type": "string"
        },
        {
          "internalType": "uint256",
          "name": "age",
          "type": "uint256"
        }
      ],
      "stateMutability": "view",
      "type": "function",
      "constant": true
    },
    {
      "inputs": [
        {
          "internalType": "uint256",
          "name": "_fee",
          "type": "uint256"
        },
        {
          "internalType": "string",
          "name": "_appointmentDate",
          "type": "string"
        },
        {
          "internalType": "string",
          "name": "_appointmentSlot",
          "type": "string"
        },
        {
          "internalType": "string",
          "name": "_name",
          "type": "string"
        },
        {
          "internalType": "uint256",
          "name": "_age",
          "type": "uint256"
        }
      ],
      "name": "requestAppointment",
      "outputs": [],
      "stateMutability": "nonpayable",
      "type": "function"
    },
    {
      "inputs": [],
      "name": "payAppointmentFee",
      "outputs": [],
      "stateMutability": "nonpayable",
      "type": "function"
    },
    {
      "inputs": [
        {
          "internalType": "address",
          "name": "_patientAddress",
          "type": "address"
        }
      ],
      "name": "confirmAppointment",
      "outputs": [],
      "stateMutability": "nonpayable",
      "type": "function"
    },
    {
      "inputs": [
        {
          "internalType": "address",
          "name": "_patientAddress",
          "type": "address"
        }
      ],
      "name": "provideService",
      "outputs": [],
      "stateMutability": "nonpayable",
      "type": "function"
    },
    {
      "inputs": [],
      "name": "acknowledgeService",
      "outputs": [],
      "stateMutability": "nonpayable",
      "type": "function"
    },
    {
      "inputs": [
        {
          "internalType": "address",
          "name": "_patientAddress",
          "type": "address"
        },
        {
          "internalType": "string",
          "name": "_medicalRecord",
          "type": "string"
        }
      ],
      "name": "releaseMedicalRecord",
      "outputs": [],
      "stateMutability": "nonpayable",
      "type": "function"
    },
    {
      "inputs": [],
      "name": "getAllAppointments",
      "outputs": [
        {
          "components": [
            {
              "internalType": "address",
              "name": "patientAddresses",
              "type": "address"
            },
            {
              "internalType": "string",
              "name": "name",
              "type": "string"
            },
            {
              "internalType": "uint256",
              "name": "bookingId",
              "type": "uint256"
            },
            {
              "internalType": "uint256",
              "name": "fee",
              "type": "uint256"
            },
            {
              "internalType": "string",
              "name": "appointmentDate",
              "type": "string"
            },
            {
              "internalType": "string",
              "name": "appointmentSlot",
              "type": "string"
            },
            {
              "internalType": "enum MedicalAppointment.AppointmentStatus",
              "name": "status",
              "type": "uint8"
            }
          ],
          "internalType": "struct MedicalAppointment.Appointment[]",
          "name": "",
          "type": "tuple[]"
        }
      ],
      "stateMutability": "view",
      "type": "function",
      "constant": true
    },
    {
      "inputs": [],
      "name": "getPatientAppointments",
      "outputs": [
        {
          "components": [
            {
              "internalType": "address",
              "name": "patientAddresses",
              "type": "address"
            },
            {
              "internalType": "string",
              "name": "name",
              "type": "string"
            },
            {
              "internalType": "uint256",
              "name": "bookingId",
              "type": "uint256"
            },
            {
              "internalType": "uint256",
              "name": "fee",
              "type": "uint256"
            },
            {
              "internalType": "string",
              "name": "appointmentDate",
              "type": "string"
            },
            {
              "internalType": "string",
              "name": "appointmentSlot",
              "type": "string"
            },
            {
              "internalType": "enum MedicalAppointment.AppointmentStatus",
              "name": "status",
              "type": "uint8"
            }
          ],
          "internalType": "struct MedicalAppointment.Appointment[]",
          "name": "",
          "type": "tuple[]"
        }
      ],
      "stateMutability": "view",
      "type": "function",
      "constant": true
    }
  ],
  "bytecode": "0x6080604052600180553480156200001557600080fd5b5060405162003ccd38038062003ccd83398181016040528101906200003b919062000170565b826000806101000a81548173ffffffffffffffffffffffffffffffffffffffff021916908373ffffffffffffffffffffffffffffffffffffffff16021790555081600560006101000a81548173ffffffffffffffffffffffffffffffffffffffff021916908373ffffffffffffffffffffffffffffffffffffffff16021790555080600660006101000a81548173ffffffffffffffffffffffffffffffffffffffff021916908373ffffffffffffffffffffffffffffffffffffffff160217905550505050620001cc565b600080fd5b600073ffffffffffffffffffffffffffffffffffffffff82169050919050565b600062000138826200010b565b9050919050565b6200014a816200012b565b81146200015657600080fd5b50565b6000815190506200016a816200013f565b92915050565b6000806000606084860312156200018c576200018b62000106565b5b60006200019c8682870162000159565b9350506020620001af8682870162000159565b9250506040620001c28682870162000159565b9150509250925092565b613af180620001dc6000396000f3fe608060405234801561001057600080fd5b50600436106100ea5760003560e01c8063a6c6e9e21161008c578063d65a548311610066578063d65a548314610241578063e6a07e241461025f578063f246c13d1461027b578063f7be2e2914610285576100ea565b8063a6c6e9e2146101d7578063aa2fedde146101f3578063b40f169114610211576100ea565b80637933570c116100c85780637933570c146101495780639636c70f146101675780639d5dbc041461019d578063a23ba70b146101b9576100ea565b80630869cfbc146100ef5780630df7d4b8146101215780636408b4a51461012b575b600080fd5b6101096004803603810190610104919061266b565b6102a1565b60405161011893929190612759565b60405180910390f35b610129610373565b005b6101336105db565b60405161014091906127f6565b60405180910390f35b610151610601565b60405161015e9190612a5c565b60405180910390f35b610181600480360381019061017c9190612aaa565b610b33565b6040516101949796959493929190612af9565b60405180910390f35b6101b760048036038101906101b2919061266b565b610d57565b005b6101c1610fea565b6040516101ce9190612a5c565b60405180910390f35b6101f160048036038101906101ec9190612cb2565b6112e4565b005b6101fb611805565b6040516102089190612d0e565b60405180910390f35b61022b60048036038101906102269190612d29565b611829565b6040516102389190612d0e565b60405180910390f35b610249611868565b6040516102569190612d77565b60405180910390f35b6102796004803603810190610274919061266b565b61188e565b005b610283611b21565b005b61029f600480360381019061029a9190612d92565b611db3565b005b60026020528060005260406000206000915090508060000160009054906101000a900473ffffffffffffffffffffffffffffffffffffffff16908060010180546102ea90612e90565b80601f016020809104026020016040519081016040528092919081815260200182805461031690612e90565b80156103635780601f1061033857610100808354040283529160200191610363565b820191906000526020600020905b81548152906001019060200180831161034657829003601f168201915b5050505050908060020154905083565b6000600260003373ffffffffffffffffffffffffffffffffffffffff1673ffffffffffffffffffffffffffffffffffffffff16815260200190815260200160002090506000816003018054905011610400576040517f08c379a00000000000000000000000000000000000000000000000000000000081526004016103f790612f0d565b60405180910390fd5b6000816003016001836003018054905061041a9190612f5c565b8154811061042b5761042a612f90565b5b906000526020600020906007020190506000600581111561044f5761044e6128a5565b5b8160060160009054906101000a900460ff166005811115610473576104726128a5565b5b146104b3576040517f08c379a00000000000000000000000000000000000000000000000000000000081526004016104aa90613031565b60405180910390fd5b6000600282600301546104c69190613051565b9050600560009054906101000a900473ffffffffffffffffffffffffffffffffffffffff1673ffffffffffffffffffffffffffffffffffffffff166323b872dd3330846040518463ffffffff1660e01b8152600401610527939291906130ab565b6020604051808303816000875af1158015610546573d6000803e3d6000fd5b505050506040513d601f19601f8201168201806040525081019061056a919061311a565b6105a9576040517f08c379a00000000000000000000000000000000000000000000000000000000081526004016105a0906131b9565b60405180910390fd5b60018260060160006101000a81548160ff021916908360058111156105d1576105d06128a5565b5b0217905550505050565b600560009054906101000a900473ffffffffffffffffffffffffffffffffffffffff1681565b606060008054906101000a900473ffffffffffffffffffffffffffffffffffffffff1673ffffffffffffffffffffffffffffffffffffffff163373ffffffffffffffffffffffffffffffffffffffff1614610691576040517f08c379a00000000000000000000000000000000000000000000000000000000081526004016106889061324b565b60405180910390fd5b600080600090505b60038054905081101561074a5760026000600383815481106106be576106bd612f90565b5b9060005260206000200160009054906101000a900473ffffffffffffffffffffffffffffffffffffffff1673ffffffffffffffffffffffffffffffffffffffff1673ffffffffffffffffffffffffffffffffffffffff1681526020019081526020016000206003018054905082610735919061326b565b91508080610742906132c1565b915050610699565b5060008167ffffffffffffffff81111561076757610766612b87565b5b6040519080825280602002602001820160405280156107a057816020015b61078d6124f1565b8152602001906001900390816107855790505b5090506000805b600380549050811015610b29576000600382815481106107ca576107c9612f90565b5b9060005260206000200160009054906101000a900473ffffffffffffffffffffffffffffffffffffffff1690506000600260008373ffffffffffffffffffffffffffffffffffffffff1673ffffffffffffffffffffffffffffffffffffffff168152602001908152602001600020905060005b8160030180549050811015610b135781600301818154811061086257610861612f90565b5b90600052602060002090600702016040518060e00160405290816000820160009054906101000a900473ffffffffffffffffffffffffffffffffffffffff1673ffffffffffffffffffffffffffffffffffffffff1673ffffffffffffffffffffffffffffffffffffffff1681526020016001820180546108e190612e90565b80601f016020809104026020016040519081016040528092919081815260200182805461090d90612e90565b801561095a5780601f1061092f5761010080835404028352916020019161095a565b820191906000526020600020905b81548152906001019060200180831161093d57829003601f168201915b50505050508152602001600282015481526020016003820154815260200160048201805461098790612e90565b80601f01602080910402602001604051908101604052809291908181526020018280546109b390612e90565b8015610a005780601f106109d557610100808354040283529160200191610a00565b820191906000526020600020905b8154815290600101906020018083116109e357829003601f168201915b50505050508152602001600582018054610a1990612e90565b80601f0160208091040260200160405190810160405280929190818152602001828054610a4590612e90565b8015610a925780601f10610a6757610100808354040283529160200191610a92565b820191906000526020600020905b815481529060010190602001808311610a7557829003601f168201915b505050505081526020016006820160009054906101000a900460ff166005811115610ac057610abf6128a5565b5b6005811115610ad257610ad16128a5565b5b81525050868680610ae2906132c1565b975081518110610af557610af4612f90565b5b60200260200101819052508080610b0b906132c1565b91505061083d565b5050508080610b21906132c1565b9150506107a7565b5081935050505090565b60046020528160005260406000208181548110610b4f57600080fd5b9060005260206000209060070201600091509150508060000160009054906101000a900473ffffffffffffffffffffffffffffffffffffffff1690806001018054610b9990612e90565b80601f0160208091040260200160405190810160405280929190818152602001828054610bc590612e90565b8015610c125780601f10610be757610100808354040283529160200191610c12565b820191906000526020600020905b815481529060010190602001808311610bf557829003601f168201915b505050505090806002015490806003015490806004018054610c3390612e90565b80601f0160208091040260200160405190810160405280929190818152602001828054610c5f90612e90565b8015610cac5780601f10610c8157610100808354040283529160200191610cac565b820191906000526020600020905b815481529060010190602001808311610c8f57829003601f168201915b505050505090806005018054610cc190612e90565b80601f0160208091040260200160405190810160405280929190818152602001828054610ced90612e90565b8015610d3a5780601f10610d0f57610100808354040283529160200191610d3a565b820191906000526020600020905b815481529060010190602001808311610d1d57829003601f168201915b5050505050908060060160009054906101000a900460ff16905087565b60008054906101000a900473ffffffffffffffffffffffffffffffffffffffff1673ffffffffffffffffffffffffffffffffffffffff163373ffffffffffffffffffffffffffffffffffffffff1614610de5576040517f08c379a0000000000000000000000000000000000000000000000000000000008152600401610ddc9061337b565b60405180910390fd5b6000600260008373ffffffffffffffffffffffffffffffffffffffff1673ffffffffffffffffffffffffffffffffffffffff1681526020019081526020016000209050600073ffffffffffffffffffffffffffffffffffffffff168160000160009054906101000a900473ffffffffffffffffffffffffffffffffffffffff1673ffffffffffffffffffffffffffffffffffffffff1603610ebb576040517f08c379a0000000000000000000000000000000000000000000000000000000008152600401610eb2906133e7565b60405180910390fd5b6000816003018054905011610f05576040517f08c379a0000000000000000000000000000000000000000000000000000000008152600401610efc90612f0d565b60405180910390fd5b60008160030160018360030180549050610f1f9190612f5c565b81548110610f3057610f2f612f90565b5b9060005260206000209060070201905060026005811115610f5457610f536128a5565b5b8160060160009054906101000a900460ff166005811115610f7857610f776128a5565b5b14610fb8576040517f08c379a0000000000000000000000000000000000000000000000000000000008152600401610faf90613479565b60405180910390fd5b60038160060160006101000a81548160ff02191690836005811115610fe057610fdf6128a5565b5b0217905550505050565b6060600260003373ffffffffffffffffffffffffffffffffffffffff1673ffffffffffffffffffffffffffffffffffffffff168152602001908152602001600020600301805480602002602001604051908101604052809291908181526020016000905b828210156112db57838290600052602060002090600702016040518060e00160405290816000820160009054906101000a900473ffffffffffffffffffffffffffffffffffffffff1673ffffffffffffffffffffffffffffffffffffffff1673ffffffffffffffffffffffffffffffffffffffff1681526020016001820180546110d790612e90565b80601f016020809104026020016040519081016040528092919081815260200182805461110390612e90565b80156111505780601f1061112557610100808354040283529160200191611150565b820191906000526020600020905b81548152906001019060200180831161113357829003601f168201915b50505050508152602001600282015481526020016003820154815260200160048201805461117d90612e90565b80601f01602080910402602001604051908101604052809291908181526020018280546111a990612e90565b80156111f65780601f106111cb576101008083540402835291602001916111f6565b820191906000526020600020905b8154815290600101906020018083116111d957829003601f168201915b5050505050815260200160058201805461120f90612e90565b80601f016020809104026020016040519081016040528092919081815260200182805461123b90612e90565b80156112885780601f1061125d57610100808354040283529160200191611288565b820191906000526020600020905b81548152906001019060200180831161126b57829003601f168201915b505050505081526020016006820160009054906101000a900460ff1660058111156112b6576112b56128a5565b5b60058111156112c8576112c76128a5565b5b815250508152602001906001019061104e565b50505050905090565b60008054906101000a900473ffffffffffffffffffffffffffffffffffffffff1673ffffffffffffffffffffffffffffffffffffffff163373ffffffffffffffffffffffffffffffffffffffff1614611372576040517f08c379a00000000000000000000000000000000000000000000000000000000081526004016113699061350b565b60405180910390fd5b6000600260008473ffffffffffffffffffffffffffffffffffffffff1673ffffffffffffffffffffffffffffffffffffffff1681526020019081526020016000209050600081600201549050600073ffffffffffffffffffffffffffffffffffffffff168260000160009054906101000a900473ffffffffffffffffffffffffffffffffffffffff1673ffffffffffffffffffffffffffffffffffffffff1603611451576040517f08c379a0000000000000000000000000000000000000000000000000000000008152600401611448906133e7565b60405180910390fd5b600082600301805490501161149b576040517f08c379a000000000000000000000000000000000000000000000000000000000815260040161149290612f0d565b60405180910390fd5b600082600301600184600301805490506114b59190612f5c565b815481106114c6576114c5612f90565b5b90600052602060002090600702019050600460058111156114ea576114e96128a5565b5b8160060160009054906101000a900460ff16600581111561150e5761150d6128a5565b5b1461154e576040517f08c379a00000000000000000000000000000000000000000000000000000000081526004016115459061359d565b60405180910390fd5b600081600301549050600560009054906101000a900473ffffffffffffffffffffffffffffffffffffffff1673ffffffffffffffffffffffffffffffffffffffff1663a9059cbb60008054906101000a900473ffffffffffffffffffffffffffffffffffffffff16836040518363ffffffff1660e01b81526004016115d49291906135bd565b6020604051808303816000875af11580156115f3573d6000803e3d6000fd5b505050506040513d601f19601f82011682018060405250810190611617919061311a565b611656576040517f08c379a000000000000000000000000000000000000000000000000000000000815260040161164d90613658565b60405180910390fd5b60058260060160006101000a81548160ff0219169083600581111561167e5761167d6128a5565b5b0217905550600660009054906101000a900473ffffffffffffffffffffffffffffffffffffffff1673ffffffffffffffffffffffffffffffffffffffff1663a224b73587866001018887876004016040518663ffffffff1660e01b81526004016116ec95949392919061370d565b600060405180830381600087803b15801561170657600080fd5b505af115801561171a573d6000803e3d6000fd5b50505050600560009054906101000a900473ffffffffffffffffffffffffffffffffffffffff1673ffffffffffffffffffffffffffffffffffffffff1663a9059cbb87836040518363ffffffff1660e01b815260040161177b9291906135bd565b6020604051808303816000875af115801561179a573d6000803e3d6000fd5b505050506040513d601f19601f820116820180604052508101906117be919061311a565b6117fd576040517f08c379a00000000000000000000000000000000000000000000000000000000081526004016117f4906137c1565b60405180910390fd5b505050505050565b60008054906101000a900473ffffffffffffffffffffffffffffffffffffffff1681565b6003818154811061183957600080fd5b906000526020600020016000915054906101000a900473ffffffffffffffffffffffffffffffffffffffff1681565b600660009054906101000a900473ffffffffffffffffffffffffffffffffffffffff1681565b60008054906101000a900473ffffffffffffffffffffffffffffffffffffffff1673ffffffffffffffffffffffffffffffffffffffff163373ffffffffffffffffffffffffffffffffffffffff161461191c576040517f08c379a000000000000000000000000000000000000000000000000000000000815260040161191390613853565b60405180910390fd5b6000600260008373ffffffffffffffffffffffffffffffffffffffff1673ffffffffffffffffffffffffffffffffffffffff1681526020019081526020016000209050600073ffffffffffffffffffffffffffffffffffffffff168160000160009054906101000a900473ffffffffffffffffffffffffffffffffffffffff1673ffffffffffffffffffffffffffffffffffffffff16036119f2576040517f08c379a00000000000000000000000000000000000000000000000000000000081526004016119e9906133e7565b60405180910390fd5b6000816003018054905011611a3c576040517f08c379a0000000000000000000000000000000000000000000000000000000008152600401611a3390612f0d565b60405180910390fd5b60008160030160018360030180549050611a569190612f5c565b81548110611a6757611a66612f90565b5b9060005260206000209060070201905060016005811115611a8b57611a8a6128a5565b5b8160060160009054906101000a900460ff166005811115611aaf57611aae6128a5565b5b14611aef576040517f08c379a0000000000000000000000000000000000000000000000000000000008152600401611ae6906138e5565b60405180910390fd5b60028160060160006101000a81548160ff02191690836005811115611b1757611b166128a5565b5b0217905550505050565b60008054906101000a900473ffffffffffffffffffffffffffffffffffffffff1673ffffffffffffffffffffffffffffffffffffffff163373ffffffffffffffffffffffffffffffffffffffff1603611baf576040517f08c379a0000000000000000000000000000000000000000000000000000000008152600401611ba690613977565b60405180910390fd5b6000600260003373ffffffffffffffffffffffffffffffffffffffff1673ffffffffffffffffffffffffffffffffffffffff1681526020019081526020016000209050600073ffffffffffffffffffffffffffffffffffffffff168160000160009054906101000a900473ffffffffffffffffffffffffffffffffffffffff1673ffffffffffffffffffffffffffffffffffffffff1603611c85576040517f08c379a0000000000000000000000000000000000000000000000000000000008152600401611c7c906133e7565b60405180910390fd5b6000816003018054905011611ccf576040517f08c379a0000000000000000000000000000000000000000000000000000000008152600401611cc690612f0d565b60405180910390fd5b60008160030160018360030180549050611ce99190612f5c565b81548110611cfa57611cf9612f90565b5b9060005260206000209060070201905060036005811115611d1e57611d1d6128a5565b5b8160060160009054906101000a900460ff166005811115611d4257611d416128a5565b5b14611d82576040517f08c379a0000000000000000000000000000000000000000000000000000000008152600401611d7990613a09565b60405180910390fd5b60048160060160006101000a81548160ff02191690836005811115611daa57611da96128a5565b5b02179055505050565b600073ffffffffffffffffffffffffffffffffffffffff16600260003373ffffffffffffffffffffffffffffffffffffffff1673ffffffffffffffffffffffffffffffffffffffff16815260200190815260200160002060000160009054906101000a900473ffffffffffffffffffffffffffffffffffffffff1673ffffffffffffffffffffffffffffffffffffffff1603611fd05733600260003373ffffffffffffffffffffffffffffffffffffffff1673ffffffffffffffffffffffffffffffffffffffff16815260200190815260200160002060000160006101000a81548173ffffffffffffffffffffffffffffffffffffffff021916908373ffffffffffffffffffffffffffffffffffffffff16021790555081600260003373ffffffffffffffffffffffffffffffffffffffff1673ffffffffffffffffffffffffffffffffffffffff1681526020019081526020016000206001019080519060200190611f20929190612556565b5080600260003373ffffffffffffffffffffffffffffffffffffffff1673ffffffffffffffffffffffffffffffffffffffff168152602001908152602001600020600201819055506003339080600181540180825580915050600190039060005260206000200160009091909190916101000a81548173ffffffffffffffffffffffffffffffffffffffff021916908373ffffffffffffffffffffffffffffffffffffffff160217905550612069565b6000600260003373ffffffffffffffffffffffffffffffffffffffff1673ffffffffffffffffffffffffffffffffffffffff16815260200190815260200160002060030180549050148061202957506120283361237b565b5b612068576040517f08c379a000000000000000000000000000000000000000000000000000000000815260040161205f90613a9b565b60405180910390fd5b5b60006120736124ca565b905060006040518060e001604052803373ffffffffffffffffffffffffffffffffffffffff168152602001858152602001838152602001888152602001878152602001868152602001600060058111156120d0576120cf6128a5565b5b8152509050600260003373ffffffffffffffffffffffffffffffffffffffff1673ffffffffffffffffffffffffffffffffffffffff16815260200190815260200160002060030181908060018154018082558091505060019003906000526020600020906007020160009091909190915060008201518160000160006101000a81548173ffffffffffffffffffffffffffffffffffffffff021916908373ffffffffffffffffffffffffffffffffffffffff16021790555060208201518160010190805190602001906121a4929190612556565b50604082015181600201556060820151816003015560808201518160040190805190602001906121d5929190612556565b5060a08201518160050190805190602001906121f2929190612556565b5060c08201518160060160006101000a81548160ff0219169083600581111561221e5761221d6128a5565b5b02179055505050600460003373ffffffffffffffffffffffffffffffffffffffff1673ffffffffffffffffffffffffffffffffffffffff16815260200190815260200160002081908060018154018082558091505060019003906000526020600020906007020160009091909190915060008201518160000160006101000a81548173ffffffffffffffffffffffffffffffffffffffff021916908373ffffffffffffffffffffffffffffffffffffffff16021790555060208201518160010190805190602001906122f1929190612556565b5060408201518160020155606082015181600301556080820151816004019080519060200190612322929190612556565b5060a082015181600501908051906020019061233f929190612556565b5060c08201518160060160006101000a81548160ff0219169083600581111561236b5761236a6128a5565b5b0217905550505050505050505050565b600080600260008473ffffffffffffffffffffffffffffffffffffffff1673ffffffffffffffffffffffffffffffffffffffff16815260200190815260200160002060030180549050036123d257600190506124c5565b6000600260008473ffffffffffffffffffffffffffffffffffffffff1673ffffffffffffffffffffffffffffffffffffffff1681526020019081526020016000206003016001600260008673ffffffffffffffffffffffffffffffffffffffff1673ffffffffffffffffffffffffffffffffffffffff168152602001908152602001600020600301805490506124689190612f5c565b8154811061247957612478612f90565b5b9060005260206000209060070201905060058081111561249c5761249b6128a5565b5b8160060160009054906101000a900460ff1660058111156124c0576124bf6128a5565b5b149150505b919050565b6000806001549050600160008154809291906124e5906132c1565b91905055508091505090565b6040518060e00160405280600073ffffffffffffffffffffffffffffffffffffffff1681526020016060815260200160008152602001600081526020016060815260200160608152602001600060058111156125505761254f6128a5565b5b81525090565b82805461256290612e90565b90600052602060002090601f01602090048101928261258457600085556125cb565b82601f1061259d57805160ff19168380011785556125cb565b828001600101855582156125cb579182015b828111156125ca5782518255916020019190600101906125af565b5b5090506125d891906125dc565b5090565b5b808211156125f55760008160009055506001016125dd565b5090565b6000604051905090565b600080fd5b600080fd5b600073ffffffffffffffffffffffffffffffffffffffff82169050919050565b60006126388261260d565b9050919050565b6126488161262d565b811461265357600080fd5b50565b6000813590506126658161263f565b92915050565b60006020828403121561268157612680612603565b5b600061268f84828501612656565b91505092915050565b6126a18161262d565b82525050565b600081519050919050565b600082825260208201905092915050565b60005b838110156126e15780820151818401526020810190506126c6565b838111156126f0576000848401525b50505050565b6000601f19601f8301169050919050565b6000612712826126a7565b61271c81856126b2565b935061272c8185602086016126c3565b612735816126f6565b840191505092915050565b6000819050919050565b61275381612740565b82525050565b600060608201905061276e6000830186612698565b81810360208301526127808185612707565b905061278f604083018461274a565b949350505050565b6000819050919050565b60006127bc6127b76127b28461260d565b612797565b61260d565b9050919050565b60006127ce826127a1565b9050919050565b60006127e0826127c3565b9050919050565b6127f0816127d5565b82525050565b600060208201905061280b60008301846127e7565b92915050565b600081519050919050565b600082825260208201905092915050565b6000819050602082019050919050565b6128468161262d565b82525050565b600082825260208201905092915050565b6000612868826126a7565b612872818561284c565b93506128828185602086016126c3565b61288b816126f6565b840191505092915050565b61289f81612740565b82525050565b7f4e487b7100000000000000000000000000000000000000000000000000000000600052602160045260246000fd5b600681106128e5576128e46128a5565b5b50565b60008190506128f6826128d4565b919050565b6000612906826128e8565b9050919050565b612916816128fb565b82525050565b600060e083016000830151612934600086018261283d565b506020830151848203602086015261294c828261285d565b91505060408301516129616040860182612896565b5060608301516129746060860182612896565b506080830151848203608086015261298c828261285d565b91505060a083015184820360a08601526129a6828261285d565b91505060c08301516129bb60c086018261290d565b508091505092915050565b60006129d2838361291c565b905092915050565b6000602082019050919050565b60006129f282612811565b6129fc818561281c565b935083602082028501612a0e8561282d565b8060005b85811015612a4a5784840389528151612a2b85826129c6565b9450612a36836129da565b925060208a01995050600181019050612a12565b50829750879550505050505092915050565b60006020820190508181036000830152612a7681846129e7565b905092915050565b612a8781612740565b8114612a9257600080fd5b50565b600081359050612aa481612a7e565b92915050565b60008060408385031215612ac157612ac0612603565b5b6000612acf85828601612656565b9250506020612ae085828601612a95565b9150509250929050565b612af3816128fb565b82525050565b600060e082019050612b0e600083018a612698565b8181036020830152612b208189612707565b9050612b2f604083018861274a565b612b3c606083018761274a565b8181036080830152612b4e8186612707565b905081810360a0830152612b628185612707565b9050612b7160c0830184612aea565b98975050505050505050565b600080fd5b600080fd5b7f4e487b7100000000000000000000000000000000000000000000000000000000600052604160045260246000fd5b612bbf826126f6565b810181811067ffffffffffffffff82111715612bde57612bdd612b87565b5b80604052505050565b6000612bf16125f9565b9050612bfd8282612bb6565b919050565b600067ffffffffffffffff821115612c1d57612c1c612b87565b5b612c26826126f6565b9050602081019050919050565b82818337600083830152505050565b6000612c55612c5084612c02565b612be7565b905082815260208101848484011115612c7157612c70612b82565b5b612c7c848285612c33565b509392505050565b600082601f830112612c9957612c98612b7d565b5b8135612ca9848260208601612c42565b91505092915050565b60008060408385031215612cc957612cc8612603565b5b6000612cd785828601612656565b925050602083013567ffffffffffffffff811115612cf857612cf7612608565b5b612d0485828601612c84565b9150509250929050565b6000602082019050612d236000830184612698565b92915050565b600060208284031215612d3f57612d3e612603565b5b6000612d4d84828501612a95565b91505092915050565b6000612d61826127c3565b9050919050565b612d7181612d56565b82525050565b6000602082019050612d8c6000830184612d68565b92915050565b600080600080600060a08688031215612dae57612dad612603565b5b6000612dbc88828901612a95565b955050602086013567ffffffffffffffff811115612ddd57612ddc612608565b5b612de988828901612c84565b945050604086013567ffffffffffffffff811115612e0a57612e09612608565b5b612e1688828901612c84565b935050606086013567ffffffffffffffff811115612e3757612e36612608565b5b612e4388828901612c84565b9250506080612e5488828901612a95565b9150509295509295909350565b7f4e487b7100000000000000000000000000000000000000000000000000000000600052602260045260246000fd5b60006002820490506001821680612ea857607f821691505b602082108103612ebb57612eba612e61565b5b50919050565b7f50617469656e7420686173206e6f206170706f696e746d656e74730000000000600082015250565b6000612ef7601b836126b2565b9150612f0282612ec1565b602082019050919050565b60006020820190508181036000830152612f2681612eea565b9050919050565b7f4e487b7100000000000000000000000000000000000000000000000000000000600052601160045260246000fd5b6000612f6782612740565b9150612f7283612740565b925082821015612f8557612f84612f2d565b5b828203905092915050565b7f4e487b7100000000000000000000000000000000000000000000000000000000600052603260045260246000fd5b7f4c6174657374206170706f696e746d656e7420737461747573206d757374206260008201527f652050656e64696e670000000000000000000000000000000000000000000000602082015250565b600061301b6029836126b2565b915061302682612fbf565b604082019050919050565b6000602082019050818103600083015261304a8161300e565b9050919050565b600061305c82612740565b915061306783612740565b9250817fffffffffffffffffffffffffffffffffffffffffffffffffffffffffffffffff04831182151516156130a05761309f612f2d565b5b828202905092915050565b60006060820190506130c06000830186612698565b6130cd6020830185612698565b6130da604083018461274a565b949350505050565b60008115159050919050565b6130f7816130e2565b811461310257600080fd5b50565b600081519050613114816130ee565b92915050565b6000602082840312156131305761312f612603565b5b600061313e84828501613105565b91505092915050565b7f496e73756666696369656e7420616c6c6f77616e6365206f722062616c616e6360008201527f6500000000000000000000000000000000000000000000000000000000000000602082015250565b60006131a36021836126b2565b91506131ae82613147565b604082019050919050565b600060208201905081810360008301526131d281613196565b9050919050565b7f4f6e6c7920686f73706974616c2063616e2061636365737320616c6c2061707060008201527f6f696e746d656e74730000000000000000000000000000000000000000000000602082015250565b60006132356029836126b2565b9150613240826131d9565b604082019050919050565b6000602082019050818103600083015261326481613228565b9050919050565b600061327682612740565b915061328183612740565b9250827fffffffffffffffffffffffffffffffffffffffffffffffffffffffffffffffff038211156132b6576132b5612f2d565b5b828201905092915050565b60006132cc82612740565b91507fffffffffffffffffffffffffffffffffffffffffffffffffffffffffffffffff82036132fe576132fd612f2d565b5b600182019050919050565b7f4f6e6c7920686f73706974616c2063616e2070726f766964652073657276696360008201527f6500000000000000000000000000000000000000000000000000000000000000602082015250565b60006133656021836126b2565b915061337082613309565b604082019050919050565b6000602082019050818103600083015261339481613358565b9050919050565b7f50617469656e74206e6f7420666f756e64000000000000000000000000000000600082015250565b60006133d16011836126b2565b91506133dc8261339b565b602082019050919050565b60006020820190508181036000830152613400816133c4565b9050919050565b7f4c6174657374206170706f696e746d656e7420737461747573206d757374206260008201527f6520436f6e6669726d6564000000000000000000000000000000000000000000602082015250565b6000613463602b836126b2565b915061346e82613407565b604082019050919050565b6000602082019050818103600083015261349281613456565b9050919050565b7f4f6e6c7920686f73706974616c2063616e2072656c65617365206d656469636160008201527f6c207265636f7264730000000000000000000000000000000000000000000000602082015250565b60006134f56029836126b2565b915061350082613499565b604082019050919050565b60006020820190508181036000830152613524816134e8565b9050919050565b7f4c6174657374206170706f696e746d656e7420737461747573206d757374206260008201527f652041636b6e6f776c6564676564536572766963650000000000000000000000602082015250565b60006135876035836126b2565b91506135928261352b565b604082019050919050565b600060208201905081810360008301526135b68161357a565b9050919050565b60006040820190506135d26000830185612698565b6135df602083018461274a565b9392505050565b7f546f6b656e207472616e7366657220746f20686f73706974616c206661696c6560008201527f6400000000000000000000000000000000000000000000000000000000000000602082015250565b60006136426021836126b2565b915061364d826135e6565b604082019050919050565b6000602082019050818103600083015261367181613635565b9050919050565b60008190508160005260206000209050919050565b6000815461369a81612e90565b6136a481866126b2565b945060018216600081146136bf57600181146136d157613704565b60ff1983168652602086019350613704565b6136da85613678565b60005b838110156136fc578154818901526001820191506020810190506136dd565b808801955050505b50505092915050565b600060a0820190506137226000830188612698565b8181036020830152613734818761368d565b905081810360408301526137488186612707565b9050613757606083018561274a565b8181036080830152613769818461368d565b90509695505050505050565b7f546f6b656e207472616e7366657220746f2070617469656e74206661696c6564600082015250565b60006137ab6020836126b2565b91506137b682613775565b602082019050919050565b600060208201905081810360008301526137da8161379e565b9050919050565b7f4f6e6c7920686f73706974616c2063616e20636f6e6669726d206170706f696e60008201527f746d656e74730000000000000000000000000000000000000000000000000000602082015250565b600061383d6026836126b2565b9150613848826137e1565b604082019050919050565b6000602082019050818103600083015261386c81613830565b9050919050565b7f4c6174657374206170706f696e746d656e7420737461747573206d757374206260008201527f6520506169640000000000000000000000000000000000000000000000000000602082015250565b60006138cf6026836126b2565b91506138da82613873565b604082019050919050565b600060208201905081810360008301526138fe816138c2565b9050919050565b7f4f6e6c792070617469656e74732063616e2061636b6e6f776c6564676520736560008201527f7276696365000000000000000000000000000000000000000000000000000000602082015250565b60006139616025836126b2565b915061396c82613905565b604082019050919050565b6000602082019050818103600083015261399081613954565b9050919050565b7f4c6174657374206170706f696e746d656e7420737461747573206d757374206260008201527f65205365727669636550726f7669646564000000000000000000000000000000602082015250565b60006139f36031836126b2565b91506139fe82613997565b604082019050919050565b60006020820190508181036000830152613a22816139e6565b9050919050565b7f4c617374206170706f696e746d656e74277320737461747573206d757374206260008201527f6520636f6d706c6574656420616e642072656c65617365640000000000000000602082015250565b6000613a856038836126b2565b9150613a9082613a29565b604082019050919050565b60006020820190508181036000830152613ab481613a78565b905091905056fea2646970667358221220f2af52d8a9fb5818e6b767ba810bc787845c526ff14a54b2a1aab12c6eaa66c964736f6c634300080d0033",
  "immutableReferences": {},
  "source": "// SPDX-License-Identifier: GPL-3.0\r\npragma solidity >=0.5.10;\r\n\r\nimport \"@openzeppelin/contracts/token/ERC20/IERC20.sol\";\r\nimport \"./MedicalRecordAccess.sol\"; // Import the other smart contract\r\nimport \"./DEHToken.sol\";\r\n\r\ncontract MedicalAppointment {\r\n       enum AppointmentStatus { Pending, Paid, Confirmed, ServiceProvided, AcknowledgedService, RecordReleased }\r\n\r\n    struct Appointment {\r\n        address patientAddresses;\r\n        string name;\r\n        uint bookingId;\r\n        uint fee;\r\n        string appointmentDate;\r\n        string appointmentSlot;\r\n        AppointmentStatus status;\r\n    }\r\n\r\n    struct Patient {\r\n        address patientAddress;\r\n        string name;\r\n        uint age;\r\n        Appointment[] appointments;\r\n    }\r\n\r\n    address public hospital;\r\n    uint private nextBookingId = 1; // Counter for generating unique booking IDs\r\n    mapping(address => Patient) public patients;\r\n    address[] public patientAddresses; // Array to store patient addresses\r\n    mapping(address => Appointment[]) public allAppointments;\r\n    DEHToken public dehToken;\r\n    MedicalRecordAccess public medicalRecordAccess; // Instance of the other smart contract\r\n    constructor(address _hospital, address _dehTokenAddress, address _medicalRecordAccess) {\r\n        hospital = _hospital;\r\n        dehToken =  DEHToken(_dehTokenAddress);\r\n        medicalRecordAccess = MedicalRecordAccess(_medicalRecordAccess); // Initialize the instance\r\n    }\r\n\r\n    // Function to add patient address to the patientAddresses array\r\n    function addPatientAddress(address _patientAddress) private {\r\n        // Check if the patient address is not already added\r\n        bool exists = false;\r\n        for (uint i = 0; i < patientAddresses.length; i++) {\r\n            if (patientAddresses[i] == _patientAddress) {\r\n                exists = true;\r\n                break;\r\n            }\r\n        }\r\n        // If patient address does not exist, add it\r\n        if (!exists) {\r\n            patientAddresses.push(_patientAddress);\r\n        }\r\n    }\r\n\r\n    function requestAppointment(uint _fee, string memory _appointmentDate, string memory _appointmentSlot, string memory _name, uint _age) public {\r\n\r\n        // Create new patient if not exists\r\n        if (patients[msg.sender].patientAddress == address(0)) {\r\n            patients[msg.sender].patientAddress = msg.sender;\r\n            patients[msg.sender].name = _name;\r\n            patients[msg.sender].age = _age;\r\n            patientAddresses.push(msg.sender); // Add patient address to the list\r\n        }\r\n\r\n        else {\r\n        require(patients[msg.sender].appointments.length == 0 || hasLastAppointmentRecordReleased(msg.sender), \"Last appointment's status must be completed and released\");\r\n        }\r\n\r\n        uint bookingId = getNextBookingId(); // Get the next unique booking ID\r\n        Appointment memory newAppointment = Appointment(msg.sender, _name,  bookingId, _fee, _appointmentDate, _appointmentSlot, AppointmentStatus.Pending);\r\n\r\n        // Add appointment to patient's list\r\n        patients[msg.sender].appointments.push(newAppointment);\r\n        allAppointments[msg.sender].push(newAppointment);\r\n    }\r\n\r\n\r\n    // Internal function to check if the last appointment's status is RecordReleased\r\n    function hasLastAppointmentRecordReleased(address _patientAddress) private view returns (bool) {\r\n        if (patients[_patientAddress].appointments.length == 0) {\r\n            // No previous appointments, so return true\r\n            return true;\r\n        } else {\r\n            // Get the status of the last appointment\r\n            Appointment storage lastAppointment = patients[_patientAddress].appointments[patients[_patientAddress].appointments.length - 1];\r\n            return lastAppointment.status == AppointmentStatus.RecordReleased;\r\n        }\r\n}\r\n\r\n    // Internal function to get the next unique booking ID\r\n    function getNextBookingId() private returns (uint) {\r\n        uint bookingId = nextBookingId;\r\n        nextBookingId++; // Increment the counter for the next booking ID\r\n        return bookingId;\r\n    }\r\n\r\n    function payAppointmentFee() public {\r\n        Patient storage patient = patients[msg.sender];\r\n        \r\n        // Ensure that the patient has appointments\r\n        require(patient.appointments.length > 0, \"Patient has no appointments\");\r\n        \r\n        // Find the latest appointment of the patient\r\n        Appointment storage latestAppointment = patient.appointments[patient.appointments.length - 1];\r\n        \r\n        // Ensure that the latest appointment status is \"Pending\" before allowing payment\r\n        require(latestAppointment.status == AppointmentStatus.Pending, \"Latest appointment status must be Pending\");\r\n        \r\n        // Transfer the appointment fee (doubled) from the patient's account to the contract's address\r\n        uint doubledFee = latestAppointment.fee * 2;\r\n        require(dehToken.transferFrom(msg.sender, address(this), doubledFee), \"Insufficient allowance or balance\");\r\n        \r\n        // Update the latest appointment status to \"Paid\" after successful payment\r\n        latestAppointment.status = AppointmentStatus.Paid;\r\n    }\r\n\r\n\r\n    function confirmAppointment(address _patientAddress) public {\r\n        require(msg.sender == hospital, \"Only hospital can confirm appointments\");\r\n        Patient storage patient = patients[_patientAddress];\r\n        \r\n        // Ensure that the patient exists and has appointments\r\n        require(patient.patientAddress != address(0), \"Patient not found\");\r\n        require(patient.appointments.length > 0, \"Patient has no appointments\");\r\n        \r\n        // Find the latest appointment of the patient\r\n        Appointment storage latestAppointment = patient.appointments[patient.appointments.length - 1];\r\n        \r\n        // Ensure that the latest appointment status is \"Paid\" before confirming\r\n        require(latestAppointment.status == AppointmentStatus.Paid, \"Latest appointment status must be Paid\");\r\n        \r\n        // Update the latest appointment status to \"Confirmed\"\r\n        latestAppointment.status = AppointmentStatus.Confirmed;\r\n    }\r\n\r\n\r\n\r\n    function provideService(address _patientAddress) public {\r\n        require(msg.sender == hospital, \"Only hospital can provide service\");\r\n        Patient storage patient = patients[_patientAddress];\r\n        \r\n        // Ensure that the patient exists and has appointments\r\n        require(patient.patientAddress != address(0), \"Patient not found\");\r\n        require(patient.appointments.length > 0, \"Patient has no appointments\");\r\n        \r\n        // Find the latest appointment of the patient\r\n        Appointment storage latestAppointment = patient.appointments[patient.appointments.length - 1];\r\n        \r\n        // Ensure that the status of the latest appointment is \"Confirmed\" before providing service\r\n        require(latestAppointment.status == AppointmentStatus.Confirmed, \"Latest appointment status must be Confirmed\");\r\n        \r\n        // Update the status of the latest appointment to \"ServiceProvided\"\r\n        latestAppointment.status = AppointmentStatus.ServiceProvided;\r\n    }\r\n\r\n\r\n    function acknowledgeService() public {\r\n        // Ensure that the message sender is the patient\r\n        require(msg.sender != hospital, \"Only patients can acknowledge service\");\r\n        Patient storage patient = patients[msg.sender];\r\n        \r\n        // Ensure that the patient exists and has appointments\r\n        require(patient.patientAddress != address(0), \"Patient not found\");\r\n        require(patient.appointments.length > 0, \"Patient has no appointments\");\r\n        \r\n        // Find the latest appointment of the patient\r\n        Appointment storage latestAppointment = patient.appointments[patient.appointments.length - 1];\r\n        \r\n        // Ensure that the status of the latest appointment is \"ServiceProvided\" before acknowledgment\r\n        require(latestAppointment.status == AppointmentStatus.ServiceProvided, \"Latest appointment status must be ServiceProvided\");\r\n        \r\n        // Update the status of the latest appointment to \"AcknowledgedService\"\r\n        latestAppointment.status = AppointmentStatus.AcknowledgedService;\r\n    }\r\n\r\n\r\n    function releaseMedicalRecord(address _patientAddress, string memory _medicalRecord) public {\r\n        // Ensure that the message sender is the hospital\r\n        require(msg.sender == hospital, \"Only hospital can release medical records\");\r\n\r\n        // Find the patient and ensure that the patient exists and has appointments\r\n        Patient storage patient = patients[_patientAddress];\r\n        uint age = patient.age;\r\n        require(patient.patientAddress != address(0), \"Patient not found\");\r\n        require(patient.appointments.length > 0, \"Patient has no appointments\");\r\n\r\n        // Find the latest appointment of the patient\r\n        Appointment storage latestAppointment = patient.appointments[patient.appointments.length - 1];\r\n\r\n        // Ensure that the status of the latest appointment is \"ServiceProvided\" before releasing the record\r\n        require(latestAppointment.status == AppointmentStatus.AcknowledgedService, \"Latest appointment status must be AcknowledgedService\");\r\n\r\n        // Calculate the half fee\r\n        uint halfFee = latestAppointment.fee;\r\n\r\n        // Transfer half of the fee to the hospital\r\n        require(dehToken.transfer(hospital, halfFee), \"Token transfer to hospital failed\");\r\n\r\n        // Update the status of the latest appointment to \"RecordReleased\"\r\n        latestAppointment.status = AppointmentStatus.RecordReleased;\r\n\r\n        // Call the storeRecord function from the MedicalRecordAccess contract to store the medical record\r\n        medicalRecordAccess.storeRecord(_patientAddress, patient.name, _medicalRecord, age, latestAppointment.appointmentDate);\r\n\r\n        // Transfer half of the fee to the patient\r\n        require(dehToken.transfer(_patientAddress, halfFee), \"Token transfer to patient failed\");\r\n    }\r\n\r\n\r\n\r\n\r\nfunction getAllAppointments() public view returns (Appointment[] memory) {\r\n    // Ensure that the message sender is the hospital\r\n    require(msg.sender == hospital, \"Only hospital can access all appointments\");\r\n\r\n    // Calculate the total number of appointments\r\n    uint totalAppointments;\r\n    for (uint i = 0; i < patientAddresses.length; i++) {\r\n        totalAppointments += patients[patientAddresses[i]].appointments.length;\r\n    }\r\n\r\n    // Create a dynamic array to store all appointments\r\n    Appointment[] memory allAppointmentsCombined = new Appointment[](totalAppointments);\r\n    uint index = 0;\r\n\r\n    // Iterate through all patient addresses and concatenate their appointments\r\n    for (uint i = 0; i < patientAddresses.length; i++) {\r\n        address patientAddress = patientAddresses[i];\r\n        Patient storage patient = patients[patientAddress];\r\n\r\n        for (uint j = 0; j < patient.appointments.length; j++) {\r\n            allAppointmentsCombined[index++] = patient.appointments[j];\r\n        }\r\n    }\r\n\r\n    return allAppointmentsCombined;\r\n}\r\n\r\n\r\n\r\n    function getPatientAppointments() public view returns (Appointment[] memory) {\r\n        return patients[msg.sender].appointments;\r\n    }\r\n}\r\n",
  "sourcePath": "C:\\Users\\jeffr\\Documents\\GitHub\\Healthcare-Blockchain-Project\\blockchain\\contracts\\MedicalAppointment.sol",
  "compiler": {
    "name": "solc",
    "version": "0.8.13+commit.abaa5c0e.Emscripten.clang"
  },
  "schemaVersion": "3.4.16",
  "updatedAt": "2024-04-01T21:32:48.383Z",
  "networkType": "ethereum",
  "devdoc": {
    "kind": "dev",
    "methods": {},
    "version": 1
  },
  "userdoc": {
    "kind": "user",
    "methods": {},
    "version": 1
  }
}