{
  "contractName": "MedicalRecordAccess",
  "abi": [
    {
      "inputs": [],
      "stateMutability": "nonpayable",
      "type": "constructor"
    },
    {
      "inputs": [
        {
          "internalType": "uint256",
          "name": "",
          "type": "uint256"
        }
      ],
      "name": "allPatients",
      "outputs": [
        {
          "internalType": "address",
          "name": "",
          "type": "address"
        }
      ],
      "stateMutability": "view",
      "type": "function",
      "constant": true
    },
    {
      "inputs": [
        {
          "internalType": "uint256",
          "name": "",
          "type": "uint256"
        }
      ],
      "name": "allThirdParties",
      "outputs": [
        {
          "internalType": "address",
          "name": "",
          "type": "address"
        }
      ],
      "stateMutability": "view",
      "type": "function",
      "constant": true
    },
    {
      "inputs": [
        {
          "internalType": "address",
          "name": "",
          "type": "address"
        }
      ],
      "name": "isPatient",
      "outputs": [
        {
          "internalType": "bool",
          "name": "",
          "type": "bool"
        }
      ],
      "stateMutability": "view",
      "type": "function",
      "constant": true
    },
    {
      "inputs": [
        {
          "internalType": "address",
          "name": "",
          "type": "address"
        }
      ],
      "name": "isThirdParty",
      "outputs": [
        {
          "internalType": "bool",
          "name": "",
          "type": "bool"
        }
      ],
      "stateMutability": "view",
      "type": "function",
      "constant": true
    },
    {
      "inputs": [
        {
          "internalType": "address",
          "name": "",
          "type": "address"
        }
      ],
      "name": "patients",
      "outputs": [
        {
          "internalType": "address",
          "name": "patientAddress",
          "type": "address"
        },
        {
          "internalType": "string",
          "name": "name",
          "type": "string"
        },
        {
          "internalType": "uint256",
          "name": "age",
          "type": "uint256"
        }
      ],
      "stateMutability": "view",
      "type": "function",
      "constant": true
    },
    {
      "inputs": [
        {
          "internalType": "address",
          "name": "_patientAddress",
          "type": "address"
        },
        {
          "internalType": "string",
          "name": "_patientName",
          "type": "string"
        },
        {
          "internalType": "string",
          "name": "_medicalRecord",
          "type": "string"
        },
        {
          "internalType": "uint256",
          "name": "age",
          "type": "uint256"
        },
        {
          "internalType": "string",
          "name": "_date",
          "type": "string"
        }
      ],
      "name": "storeRecord",
      "outputs": [],
      "stateMutability": "nonpayable",
      "type": "function"
    },
    {
      "inputs": [
        {
          "internalType": "address",
          "name": "_thirdParty",
          "type": "address"
        }
      ],
      "name": "addThirdParty",
      "outputs": [],
      "stateMutability": "nonpayable",
      "type": "function"
    },
    {
      "inputs": [
        {
          "internalType": "address",
          "name": "_thirdParty",
          "type": "address"
        }
      ],
      "name": "grantAccess",
      "outputs": [],
      "stateMutability": "nonpayable",
      "type": "function"
    },
    {
      "inputs": [
        {
          "internalType": "address",
          "name": "_thirdParty",
          "type": "address"
        }
      ],
      "name": "revokeAccess",
      "outputs": [],
      "stateMutability": "nonpayable",
      "type": "function"
    },
    {
      "inputs": [],
      "name": "listAccessList",
      "outputs": [
        {
          "components": [
            {
              "internalType": "address",
              "name": "thirdParty",
              "type": "address"
            },
            {
              "internalType": "enum MedicalRecordAccess.AccessStatus",
              "name": "hasAccess",
              "type": "uint8"
            }
          ],
          "internalType": "struct MedicalRecordAccess.AccessListItem[]",
          "name": "",
          "type": "tuple[]"
        }
      ],
      "stateMutability": "view",
      "type": "function",
      "constant": true
    },
    {
      "inputs": [
        {
          "internalType": "address",
          "name": "_patient",
          "type": "address"
        }
      ],
      "name": "requestAccess",
      "outputs": [],
      "stateMutability": "nonpayable",
      "type": "function"
    },
    {
      "inputs": [
        {
          "internalType": "address",
          "name": "_patient",
          "type": "address"
        }
      ],
      "name": "getMedicalRecords",
      "outputs": [
        {
          "internalType": "address",
          "name": "",
          "type": "address"
        },
        {
          "internalType": "string",
          "name": "",
          "type": "string"
        },
        {
          "internalType": "uint256",
          "name": "",
          "type": "uint256"
        },
        {
          "internalType": "string[]",
          "name": "",
          "type": "string[]"
        },
        {
          "internalType": "string[]",
          "name": "",
          "type": "string[]"
        }
      ],
      "stateMutability": "view",
      "type": "function",
      "constant": true
    },
    {
      "inputs": [],
      "name": "getAccessRequests",
      "outputs": [
        {
          "internalType": "address[]",
          "name": "",
          "type": "address[]"
        },
        {
          "internalType": "string[]",
          "name": "",
          "type": "string[]"
        },
        {
          "internalType": "string[]",
          "name": "",
          "type": "string[]"
        }
      ],
      "stateMutability": "view",
      "type": "function",
      "constant": true
    }
  ],
  "bytecode": "0x608060405234801561001057600080fd5b506126d5806100206000396000f3fe608060405234801561001057600080fd5b50600436106100cf5760003560e01c806385e685311161008c578063afd8297c11610066578063afd8297c14610214578063b056b11714610248578063c6b5b1a814610264578063d8f608df14610294576100cf565b806385e68531146101ac5780638f9c79ed146101c8578063a224b735146101f8576100cf565b806301675338146100d4578063022cb271146100f25780630869cfbc1461010e5780630ae5e7391461014057806355b63a941461015c5780636db9868c1461017c575b600080fd5b6100dc6102c4565b6040516100e99190611c86565b60405180910390f35b61010c60048036038101906101079190611ce8565b6105f7565b005b61012860048036038101906101239190611ce8565b610737565b60405161013793929190611dd6565b60405180910390f35b61015a60048036038101906101559190611ce8565b610809565b005b61016461093f565b60405161017393929190611fcf565b60405180910390f35b61019660048036038101906101919190612047565b610eb3565b6040516101a39190612074565b60405180910390f35b6101c660048036038101906101c19190611ce8565b610ef2565b005b6101e260048036038101906101dd9190611ce8565b611028565b6040516101ef91906120aa565b60405180910390f35b610212600480360381019061020d91906121fa565b611048565b005b61022e60048036038101906102299190611ce8565b61127f565b60405161023f9594939291906122c9565b60405180910390f35b610262600480360381019061025d9190611ce8565b611700565b005b61027e60048036038101906102799190611ce8565b6119ac565b60405161028b91906120aa565b60405180910390f35b6102ae60048036038101906102a99190612047565b6119cc565b6040516102bb9190612074565b60405180910390f35b606060008060003373ffffffffffffffffffffffffffffffffffffffff1673ffffffffffffffffffffffffffffffffffffffff1681526020019081526020016000209050600060048054905067ffffffffffffffff811115610329576103286120cf565b5b60405190808252806020026020018201604052801561036257816020015b61034f611a0b565b8152602001906001900390816103475790505b50905060005b6004805490508110156105ee576000600381111561038957610388611b5d565b5b836005016000600484815481106103a3576103a2612331565b5b9060005260206000200160009054906101000a900473ffffffffffffffffffffffffffffffffffffffff1673ffffffffffffffffffffffffffffffffffffffff1673ffffffffffffffffffffffffffffffffffffffff16815260200190815260200160002060009054906101000a900460ff16600381111561042857610427611b5d565b5b14806104e3575060038081111561044257610441611b5d565b5b8360050160006004848154811061045c5761045b612331565b5b9060005260206000200160009054906101000a900473ffffffffffffffffffffffffffffffffffffffff1673ffffffffffffffffffffffffffffffffffffffff1673ffffffffffffffffffffffffffffffffffffffff16815260200190815260200160002060009054906101000a900460ff1660038111156104e1576104e0611b5d565b5b145b6105db576000600482815481106104fd576104fc612331565b5b9060005260206000200160009054906101000a900473ffffffffffffffffffffffffffffffffffffffff16905060008460050160008373ffffffffffffffffffffffffffffffffffffffff1673ffffffffffffffffffffffffffffffffffffffff16815260200190815260200160002060009054906101000a900460ff16905060405180604001604052808373ffffffffffffffffffffffffffffffffffffffff1681526020018260038111156105b7576105b6611b5d565b5b8152508484815181106105cd576105cc612331565b5b602002602001018190525050505b80806105e69061238f565b915050610368565b50809250505090565b600160003373ffffffffffffffffffffffffffffffffffffffff1673ffffffffffffffffffffffffffffffffffffffff16815260200190815260200160002060009054906101000a900460ff1615610684576040517f08c379a000000000000000000000000000000000000000000000000000000000815260040161067b90612449565b60405180910390fd5b61068d33611700565b60016000808373ffffffffffffffffffffffffffffffffffffffff1673ffffffffffffffffffffffffffffffffffffffff16815260200190815260200160002060050160003373ffffffffffffffffffffffffffffffffffffffff1673ffffffffffffffffffffffffffffffffffffffff16815260200190815260200160002060006101000a81548160ff0219169083600381111561072f5761072e611b5d565b5b021790555050565b60006020528060005260406000206000915090508060000160009054906101000a900473ffffffffffffffffffffffffffffffffffffffff169080600101805461078090612498565b80601f01602080910402602001604051908101604052809291908181526020018280546107ac90612498565b80156107f95780601f106107ce576101008083540402835291602001916107f9565b820191906000526020600020905b8154815290600101906020018083116107dc57829003601f168201915b5050505050908060020154905083565b600160003373ffffffffffffffffffffffffffffffffffffffff1673ffffffffffffffffffffffffffffffffffffffff16815260200190815260200160002060009054906101000a900460ff16610895576040517f08c379a000000000000000000000000000000000000000000000000000000000815260040161088c90612515565b60405180910390fd5b60026000803373ffffffffffffffffffffffffffffffffffffffff1673ffffffffffffffffffffffffffffffffffffffff16815260200190815260200160002060050160008373ffffffffffffffffffffffffffffffffffffffff1673ffffffffffffffffffffffffffffffffffffffff16815260200190815260200160002060006101000a81548160ff0219169083600381111561093757610936611b5d565b5b021790555050565b60608060606000339050600260008273ffffffffffffffffffffffffffffffffffffffff1673ffffffffffffffffffffffffffffffffffffffff16815260200190815260200160002060009054906101000a900460ff166109d5576040517f08c379a00000000000000000000000000000000000000000000000000000000081526004016109cc90612581565b60405180910390fd5b600060038054905067ffffffffffffffff8111156109f6576109f56120cf565b5b604051908082528060200260200182016040528015610a245781602001602082028036833780820191505090505b509050600060038054905067ffffffffffffffff811115610a4857610a476120cf565b5b604051908082528060200260200182016040528015610a7b57816020015b6060815260200190600190039081610a665790505b509050600060038054905067ffffffffffffffff811115610a9f57610a9e6120cf565b5b604051908082528060200260200182016040528015610ad257816020015b6060815260200190600190039081610abd5790505b50905060005b600380549050811015610ea057600060038281548110610afb57610afa612331565b5b9060005260206000200160009054906101000a900473ffffffffffffffffffffffffffffffffffffffff16905060008060008373ffffffffffffffffffffffffffffffffffffffff1673ffffffffffffffffffffffffffffffffffffffff16815260200190815260200160002060050160008873ffffffffffffffffffffffffffffffffffffffff1673ffffffffffffffffffffffffffffffffffffffff16815260200190815260200160002060009054906101000a900460ff16905060008060008473ffffffffffffffffffffffffffffffffffffffff1673ffffffffffffffffffffffffffffffffffffffff1681526020019081526020016000206001018054610c0690612498565b80601f0160208091040260200160405190810160405280929190818152602001828054610c3290612498565b8015610c7f5780601f10610c5457610100808354040283529160200191610c7f565b820191906000526020600020905b815481529060010190602001808311610c6257829003601f168201915b50505050509050606060016003811115610c9c57610c9b611b5d565b5b836003811115610caf57610cae611b5d565b5b03610cf1576040518060400160405280601481526020017f57616974696e6720466f7220417070726f76616c0000000000000000000000008152509050610dfd565b60026003811115610d0557610d04611b5d565b5b836003811115610d1857610d17611b5d565b5b03610d5a576040518060400160405280600881526020017f417070726f7665640000000000000000000000000000000000000000000000008152509050610dfc565b600380811115610d6d57610d6c611b5d565b5b836003811115610d8057610d7f611b5d565b5b03610dc2576040518060400160405280600981526020017f4e6f2041636365737300000000000000000000000000000000000000000000008152509050610dfb565b6040518060400160405280600d81526020017f4e6f74205265717565737465640000000000000000000000000000000000000081525090505b5b5b83888681518110610e1157610e10612331565b5b602002602001019073ffffffffffffffffffffffffffffffffffffffff16908173ffffffffffffffffffffffffffffffffffffffff168152505080868681518110610e5f57610e5e612331565b5b602002602001018190525081878681518110610e7e57610e7d612331565b5b6020026020010181905250505050508080610e989061238f565b915050610ad8565b5082828296509650965050505050909192565b60048181548110610ec357600080fd5b906000526020600020016000915054906101000a900473ffffffffffffffffffffffffffffffffffffffff1681565b600160003373ffffffffffffffffffffffffffffffffffffffff1673ffffffffffffffffffffffffffffffffffffffff16815260200190815260200160002060009054906101000a900460ff16610f7e576040517f08c379a0000000000000000000000000000000000000000000000000000000008152600401610f7590612515565b60405180910390fd5b60036000803373ffffffffffffffffffffffffffffffffffffffff1673ffffffffffffffffffffffffffffffffffffffff16815260200190815260200160002060050160008373ffffffffffffffffffffffffffffffffffffffff1673ffffffffffffffffffffffffffffffffffffffff16815260200190815260200160002060006101000a81548160ff021916908360038111156110205761101f611b5d565b5b021790555050565b60016020528060005260406000206000915054906101000a900460ff1681565b60008060008773ffffffffffffffffffffffffffffffffffffffff1673ffffffffffffffffffffffffffffffffffffffff1681526020019081526020016000209050858160000160006101000a81548173ffffffffffffffffffffffffffffffffffffffff021916908373ffffffffffffffffffffffffffffffffffffffff160217905550848160010190805190602001906110e5929190611a4d565b50828160020181905550806003018290806001815401808255809150506001900390600052602060002001600090919091909150908051906020019061112c929190611a4d565b50806004018490806001815401808255809150506001900390600052602060002001600090919091909150908051906020019061116a929190611a4d565b50600160008773ffffffffffffffffffffffffffffffffffffffff1673ffffffffffffffffffffffffffffffffffffffff16815260200190815260200160002060009054906101000a900460ff16611277576003869080600181540180825580915050600190039060005260206000200160009091909190916101000a81548173ffffffffffffffffffffffffffffffffffffffff021916908373ffffffffffffffffffffffffffffffffffffffff16021790555060018060008873ffffffffffffffffffffffffffffffffffffffff1673ffffffffffffffffffffffffffffffffffffffff16815260200190815260200160002060006101000a81548160ff0219169083151502179055505b505050505050565b600060606000606080600160008773ffffffffffffffffffffffffffffffffffffffff1673ffffffffffffffffffffffffffffffffffffffff16815260200190815260200160002060009054906101000a900460ff16611314576040517f08c379a000000000000000000000000000000000000000000000000000000000815260040161130b90612515565b60405180910390fd5b3373ffffffffffffffffffffffffffffffffffffffff168673ffffffffffffffffffffffffffffffffffffffff1614806113fd57506002600381111561135d5761135c611b5d565b5b6000808873ffffffffffffffffffffffffffffffffffffffff1673ffffffffffffffffffffffffffffffffffffffff16815260200190815260200160002060050160003373ffffffffffffffffffffffffffffffffffffffff1673ffffffffffffffffffffffffffffffffffffffff16815260200190815260200160002060009054906101000a900460ff1660038111156113fb576113fa611b5d565b5b145b156116bc5760008060008873ffffffffffffffffffffffffffffffffffffffff1673ffffffffffffffffffffffffffffffffffffffff16815260200190815260200160002090508060000160009054906101000a900473ffffffffffffffffffffffffffffffffffffffff16816001018260020154836003018460040183805461148690612498565b80601f01602080910402602001604051908101604052809291908181526020018280546114b290612498565b80156114ff5780601f106114d4576101008083540402835291602001916114ff565b820191906000526020600020905b8154815290600101906020018083116114e257829003601f168201915b5050505050935081805480602002602001604051908101604052809291908181526020016000905b828210156115d357838290600052602060002001805461154690612498565b80601f016020809104026020016040519081016040528092919081815260200182805461157290612498565b80156115bf5780601f10611594576101008083540402835291602001916115bf565b820191906000526020600020905b8154815290600101906020018083116115a257829003601f168201915b505050505081526020019060010190611527565b50505050915080805480602002602001604051908101604052809291908181526020016000905b828210156116a657838290600052602060002001805461161990612498565b80601f016020809104026020016040519081016040528092919081815260200182805461164590612498565b80156116925780601f1061166757610100808354040283529160200191611692565b820191906000526020600020905b81548152906001019060200180831161167557829003601f168201915b5050505050815260200190600101906115fa565b50505050905095509550955095509550506116f7565b6040517f08c379a00000000000000000000000000000000000000000000000000000000081526004016116ee906125ed565b60405180910390fd5b91939590929450565b600160008273ffffffffffffffffffffffffffffffffffffffff1673ffffffffffffffffffffffffffffffffffffffff16815260200190815260200160002060009054906101000a900460ff161561178d576040517f08c379a00000000000000000000000000000000000000000000000000000000081526004016117849061267f565b60405180910390fd5b600260008273ffffffffffffffffffffffffffffffffffffffff1673ffffffffffffffffffffffffffffffffffffffff16815260200190815260200160002060009054906101000a900460ff166119a9576004819080600181540180825580915050600190039060005260206000200160009091909190916101000a81548173ffffffffffffffffffffffffffffffffffffffff021916908373ffffffffffffffffffffffffffffffffffffffff1602179055506001600260008373ffffffffffffffffffffffffffffffffffffffff1673ffffffffffffffffffffffffffffffffffffffff16815260200190815260200160002060006101000a81548160ff02191690831515021790555060005b6003805490508110156119a7576000600382815481106118bf576118be612331565b5b9060005260206000200160009054906101000a900473ffffffffffffffffffffffffffffffffffffffff16905060008060008373ffffffffffffffffffffffffffffffffffffffff1673ffffffffffffffffffffffffffffffffffffffff16815260200190815260200160002060050160008573ffffffffffffffffffffffffffffffffffffffff1673ffffffffffffffffffffffffffffffffffffffff16815260200190815260200160002060006101000a81548160ff0219169083600381111561198e5761198d611b5d565b5b021790555050808061199f9061238f565b91505061189c565b505b50565b60026020528060005260406000206000915054906101000a900460ff1681565b600381815481106119dc57600080fd5b906000526020600020016000915054906101000a900473ffffffffffffffffffffffffffffffffffffffff1681565b6040518060400160405280600073ffffffffffffffffffffffffffffffffffffffff16815260200160006003811115611a4757611a46611b5d565b5b81525090565b828054611a5990612498565b90600052602060002090601f016020900481019282611a7b5760008555611ac2565b82601f10611a9457805160ff1916838001178555611ac2565b82800160010185558215611ac2579182015b82811115611ac1578251825591602001919060010190611aa6565b5b509050611acf9190611ad3565b5090565b5b80821115611aec576000816000905550600101611ad4565b5090565b600081519050919050565b600082825260208201905092915050565b6000819050602082019050919050565b600073ffffffffffffffffffffffffffffffffffffffff82169050919050565b6000611b4782611b1c565b9050919050565b611b5781611b3c565b82525050565b7f4e487b7100000000000000000000000000000000000000000000000000000000600052602160045260246000fd5b60048110611b9d57611b9c611b5d565b5b50565b6000819050611bae82611b8c565b919050565b6000611bbe82611ba0565b9050919050565b611bce81611bb3565b82525050565b604082016000820151611bea6000850182611b4e565b506020820151611bfd6020850182611bc5565b50505050565b6000611c0f8383611bd4565b60408301905092915050565b6000602082019050919050565b6000611c3382611af0565b611c3d8185611afb565b9350611c4883611b0c565b8060005b83811015611c79578151611c608882611c03565b9750611c6b83611c1b565b925050600181019050611c4c565b5085935050505092915050565b60006020820190508181036000830152611ca08184611c28565b905092915050565b6000604051905090565b600080fd5b600080fd5b611cc581611b3c565b8114611cd057600080fd5b50565b600081359050611ce281611cbc565b92915050565b600060208284031215611cfe57611cfd611cb2565b5b6000611d0c84828501611cd3565b91505092915050565b611d1e81611b3c565b82525050565b600081519050919050565b600082825260208201905092915050565b60005b83811015611d5e578082015181840152602081019050611d43565b83811115611d6d576000848401525b50505050565b6000601f19601f8301169050919050565b6000611d8f82611d24565b611d998185611d2f565b9350611da9818560208601611d40565b611db281611d73565b840191505092915050565b6000819050919050565b611dd081611dbd565b82525050565b6000606082019050611deb6000830186611d15565b8181036020830152611dfd8185611d84565b9050611e0c6040830184611dc7565b949350505050565b600081519050919050565b600082825260208201905092915050565b6000819050602082019050919050565b6000611e4c8383611b4e565b60208301905092915050565b6000602082019050919050565b6000611e7082611e14565b611e7a8185611e1f565b9350611e8583611e30565b8060005b83811015611eb6578151611e9d8882611e40565b9750611ea883611e58565b925050600181019050611e89565b5085935050505092915050565b600081519050919050565b600082825260208201905092915050565b6000819050602082019050919050565b600082825260208201905092915050565b6000611f0b82611d24565b611f158185611eef565b9350611f25818560208601611d40565b611f2e81611d73565b840191505092915050565b6000611f458383611f00565b905092915050565b6000602082019050919050565b6000611f6582611ec3565b611f6f8185611ece565b935083602082028501611f8185611edf565b8060005b85811015611fbd5784840389528151611f9e8582611f39565b9450611fa983611f4d565b925060208a01995050600181019050611f85565b50829750879550505050505092915050565b60006060820190508181036000830152611fe98186611e65565b90508181036020830152611ffd8185611f5a565b905081810360408301526120118184611f5a565b9050949350505050565b61202481611dbd565b811461202f57600080fd5b50565b6000813590506120418161201b565b92915050565b60006020828403121561205d5761205c611cb2565b5b600061206b84828501612032565b91505092915050565b60006020820190506120896000830184611d15565b92915050565b60008115159050919050565b6120a48161208f565b82525050565b60006020820190506120bf600083018461209b565b92915050565b600080fd5b600080fd5b7f4e487b7100000000000000000000000000000000000000000000000000000000600052604160045260246000fd5b61210782611d73565b810181811067ffffffffffffffff82111715612126576121256120cf565b5b80604052505050565b6000612139611ca8565b905061214582826120fe565b919050565b600067ffffffffffffffff821115612165576121646120cf565b5b61216e82611d73565b9050602081019050919050565b82818337600083830152505050565b600061219d6121988461214a565b61212f565b9050828152602081018484840111156121b9576121b86120ca565b5b6121c484828561217b565b509392505050565b600082601f8301126121e1576121e06120c5565b5b81356121f184826020860161218a565b91505092915050565b600080600080600060a0868803121561221657612215611cb2565b5b600061222488828901611cd3565b955050602086013567ffffffffffffffff81111561224557612244611cb7565b5b612251888289016121cc565b945050604086013567ffffffffffffffff81111561227257612271611cb7565b5b61227e888289016121cc565b935050606061228f88828901612032565b925050608086013567ffffffffffffffff8111156122b0576122af611cb7565b5b6122bc888289016121cc565b9150509295509295909350565b600060a0820190506122de6000830188611d15565b81810360208301526122f08187611d84565b90506122ff6040830186611dc7565b81810360608301526123118185611f5a565b905081810360808301526123258184611f5a565b90509695505050505050565b7f4e487b7100000000000000000000000000000000000000000000000000000000600052603260045260246000fd5b7f4e487b7100000000000000000000000000000000000000000000000000000000600052601160045260246000fd5b600061239a82611dbd565b91507fffffffffffffffffffffffffffffffffffffffffffffffffffffffffffffffff82036123cc576123cb612360565b5b600182019050919050565b7f53656e64657220697320616c726561647920726567697374657265642061732060008201527f612070617469656e740000000000000000000000000000000000000000000000602082015250565b6000612433602983611d2f565b915061243e826123d7565b604082019050919050565b6000602082019050818103600083015261246281612426565b9050919050565b7f4e487b7100000000000000000000000000000000000000000000000000000000600052602260045260246000fd5b600060028204905060018216806124b057607f821691505b6020821081036124c3576124c2612469565b5b50919050565b7f50617469656e7420646f6573206e6f7420657869737400000000000000000000600082015250565b60006124ff601683611d2f565b915061250a826124c9565b602082019050919050565b6000602082019050818103600083015261252e816124f2565b9050919050565b7f546869726420706172747920646f6573206e6f74206578697374000000000000600082015250565b600061256b601a83611d2f565b915061257682612535565b602082019050919050565b6000602082019050818103600083015261259a8161255e565b9050919050565b7f4163636573732064656e69656400000000000000000000000000000000000000600082015250565b60006125d7600d83611d2f565b91506125e2826125a1565b602082019050919050565b60006020820190508181036000830152612606816125ca565b9050919050565b7f4164647265737320697320616c7265616479207265676973746572656420617360008201527f20612070617469656e7400000000000000000000000000000000000000000000602082015250565b6000612669602a83611d2f565b91506126748261260d565b604082019050919050565b600060208201905081810360008301526126988161265c565b905091905056fea26469706673582212200e0ba61d641ff9de72bd0b9ced6cae85befbea1eb4586899c43a0db8a924134c64736f6c634300080d0033",
  "immutableReferences": {},
  "source": "// SPDX-License-Identifier: GPL-3.0\r\npragma solidity >=0.5.10;\r\n\r\ncontract MedicalRecordAccess {\r\n    enum AccessStatus { NotRequested, Requested, Approved, Revoked }\r\n    struct Patient {\r\n        address patientAddress; // Address of the patient\r\n        string name;\r\n        uint age;\r\n        string[] date;\r\n        string[] medicalRecords; \r\n        mapping(address => AccessStatus) accessList; // Mapping of third-party addresses to access status\r\n    }\r\n\r\n    struct AccessListItem {\r\n        address thirdParty;\r\n        AccessStatus hasAccess;\r\n    }\r\n\r\n    mapping(address => Patient) public patients;\r\n    mapping(address => bool) public isPatient;\r\n    mapping(address => bool) public isThirdParty;\r\n    address[] public allPatients;\r\n    address[] public allThirdParties;\r\n\r\n    constructor() {}\r\n\r\n    function storeRecord(address _patientAddress, string memory _patientName, string memory _medicalRecord, uint age, string memory _date) public {\r\n        Patient storage patient = patients[_patientAddress];\r\n        patient.patientAddress = _patientAddress;\r\n        patient.name = _patientName;\r\n        patient.age = age;\r\n        patient.date.push(_date);\r\n        patient.medicalRecords.push(_medicalRecord);\r\n        if (!isPatient[_patientAddress]) {\r\n            allPatients.push(_patientAddress);\r\n            isPatient[_patientAddress] = true;\r\n        }\r\n    }\r\n\r\n    function addThirdParty(address _thirdParty) public {\r\n        require(!isPatient[_thirdParty], \"Address is already registered as a patient\");\r\n        if (!isThirdParty[_thirdParty]) {\r\n            allThirdParties.push(_thirdParty);\r\n            isThirdParty[_thirdParty] = true;\r\n            for (uint i = 0; i < allPatients.length; i++) {\r\n                address patientAddress = allPatients[i];\r\n                patients[patientAddress].accessList[_thirdParty] = AccessStatus.NotRequested;\r\n            }\r\n        }\r\n    }\r\n\r\n    function grantAccess(address _thirdParty) public {\r\n        require(isPatient[msg.sender], \"Patient does not exist\");\r\n        patients[msg.sender].accessList[_thirdParty] = AccessStatus.Approved;\r\n    }\r\n\r\n    function revokeAccess(address _thirdParty) public {\r\n        require(isPatient[msg.sender], \"Patient does not exist\");\r\n        patients[msg.sender].accessList[_thirdParty] = AccessStatus.Revoked;\r\n    }\r\n\r\n    function listAccessList() public view returns (AccessListItem[] memory) {\r\n        Patient storage patient = patients[msg.sender];\r\n        AccessListItem[] memory accessList = new AccessListItem[](allThirdParties.length);\r\n        for (uint i = 0; i < allThirdParties.length; i++) {\r\n            if (patient.accessList[allThirdParties[i]]==AccessStatus.NotRequested || patient.accessList[allThirdParties[i]]==AccessStatus.Revoked ){\r\n                continue;\r\n            }\r\n            address thirdParty = allThirdParties[i];\r\n            AccessStatus hasAccess = patient.accessList[thirdParty];\r\n            accessList[i] = AccessListItem(thirdParty, hasAccess);\r\n        }\r\n        return accessList;\r\n    }\r\n\r\n    function requestAccess(address _patient) public {\r\n        require(!isPatient[msg.sender], \"Sender is already registered as a patient\");\r\n        addThirdParty(msg.sender);\r\n        patients[_patient].accessList[msg.sender] = AccessStatus.Requested; // By default, access is requested but not granted\r\n\r\n    }\r\n\r\n    function getMedicalRecords(address _patient) public view returns (address, string memory, uint, string[] memory, string[] memory) {\r\n        require(isPatient[_patient], \"Patient does not exist\");\r\n        if (_patient == msg.sender || patients[_patient].accessList[msg.sender]==AccessStatus.Approved) {\r\n            Patient storage patient = patients[_patient];\r\n            return (patient.patientAddress, patient.name, patient.age, patient.date, patient.medicalRecords);\r\n        } else {\r\n            revert(\"Access denied\");\r\n        }\r\n    }\r\n\r\n    function getAccessRequests() public view returns (address[] memory, string[] memory, string[] memory) {\r\n        address _thirdParty = msg.sender;\r\n        require(isThirdParty[_thirdParty], \"Third party does not exist\");\r\n        address[] memory patientAddresses = new address[](allPatients.length);\r\n        string[] memory names = new string[](allPatients.length);\r\n        string[] memory statuses = new string[](allPatients.length);\r\n        for (uint i = 0; i < allPatients.length; i++) {\r\n            address patientAddress = allPatients[i];\r\n            AccessStatus hasRequested = patients[patientAddress].accessList[_thirdParty];\r\n            string memory name = patients[patientAddress].name;\r\n            string memory status;\r\n            if (hasRequested == AccessStatus.Requested) {\r\n                status = \"Waiting For Approval\";\r\n            } else if (hasRequested == AccessStatus.Approved){\r\n                status = \"Approved\";\r\n            } else if (hasRequested == AccessStatus.Revoked){\r\n                status = \"No Access\";\r\n            }\r\n            else {\r\n                status = \"Not Requested\";\r\n            }\r\n            patientAddresses[i] = patientAddress;\r\n            statuses[i] = status;\r\n            names[i] = name;\r\n        }\r\n        return (patientAddresses, names, statuses);\r\n    }\r\n\r\n\r\n}\r\n",
  "sourcePath": "C:\\Users\\jeffr\\Documents\\GitHub\\Healthcare-Blockchain-Project\\blockchain\\contracts\\MedicalRecordAccess.sol",
  "compiler": {
    "name": "solc",
    "version": "0.8.13+commit.abaa5c0e.Emscripten.clang"
  },
  "schemaVersion": "3.4.16",
  "updatedAt": "2024-04-02T16:49:22.513Z",
  "networkType": "ethereum",
  "devdoc": {
    "kind": "dev",
    "methods": {},
    "version": 1
  },
  "userdoc": {
    "kind": "user",
    "methods": {},
    "version": 1
  }
}