{
  "contractName": "MedicalAppointment",
  "abi": [
    {
      "inputs": [
        {
          "internalType": "address",
          "name": "_hospital",
          "type": "address"
        },
        {
          "internalType": "address",
          "name": "_dehTokenAddress",
          "type": "address"
        },
        {
          "internalType": "address",
          "name": "_medicalRecordAccess",
          "type": "address"
        }
      ],
      "stateMutability": "nonpayable",
      "type": "constructor"
    },
    {
      "inputs": [
        {
          "internalType": "address",
          "name": "",
          "type": "address"
        },
        {
          "internalType": "uint256",
          "name": "",
          "type": "uint256"
        }
      ],
      "name": "allAppointments",
      "outputs": [
        {
          "internalType": "address",
          "name": "patientAddresses",
          "type": "address"
        },
        {
          "internalType": "string",
          "name": "name",
          "type": "string"
        },
        {
          "internalType": "uint256",
          "name": "bookingId",
          "type": "uint256"
        },
        {
          "internalType": "uint256",
          "name": "fee",
          "type": "uint256"
        },
        {
          "internalType": "string",
          "name": "appointmentDate",
          "type": "string"
        },
        {
          "internalType": "string",
          "name": "appointmentSlot",
          "type": "string"
        },
        {
          "internalType": "enum MedicalAppointment.AppointmentStatus",
          "name": "status",
          "type": "uint8"
        }
      ],
      "stateMutability": "view",
      "type": "function",
      "constant": true
    },
    {
      "inputs": [],
      "name": "dehToken",
      "outputs": [
        {
          "internalType": "contract DEHToken",
          "name": "",
          "type": "address"
        }
      ],
      "stateMutability": "view",
      "type": "function",
      "constant": true
    },
    {
      "inputs": [],
      "name": "hospital",
      "outputs": [
        {
          "internalType": "address",
          "name": "",
          "type": "address"
        }
      ],
      "stateMutability": "view",
      "type": "function",
      "constant": true
    },
    {
      "inputs": [],
      "name": "medicalRecordAccess",
      "outputs": [
        {
          "internalType": "contract MedicalRecordAccess",
          "name": "",
          "type": "address"
        }
      ],
      "stateMutability": "view",
      "type": "function",
      "constant": true
    },
    {
      "inputs": [
        {
          "internalType": "uint256",
          "name": "",
          "type": "uint256"
        }
      ],
      "name": "patientAddresses",
      "outputs": [
        {
          "internalType": "address",
          "name": "",
          "type": "address"
        }
      ],
      "stateMutability": "view",
      "type": "function",
      "constant": true
    },
    {
      "inputs": [
        {
          "internalType": "address",
          "name": "",
          "type": "address"
        }
      ],
      "name": "patients",
      "outputs": [
        {
          "internalType": "address",
          "name": "patientAddress",
          "type": "address"
        },
        {
          "internalType": "string",
          "name": "name",
          "type": "string"
        },
        {
          "internalType": "uint256",
          "name": "age",
          "type": "uint256"
        }
      ],
      "stateMutability": "view",
      "type": "function",
      "constant": true
    },
    {
      "inputs": [
        {
          "internalType": "uint256",
          "name": "_fee",
          "type": "uint256"
        },
        {
          "internalType": "string",
          "name": "_appointmentDate",
          "type": "string"
        },
        {
          "internalType": "string",
          "name": "_appointmentSlot",
          "type": "string"
        },
        {
          "internalType": "string",
          "name": "_name",
          "type": "string"
        },
        {
          "internalType": "uint256",
          "name": "_age",
          "type": "uint256"
        }
      ],
      "name": "requestAppointment",
      "outputs": [],
      "stateMutability": "nonpayable",
      "type": "function"
    },
    {
      "inputs": [],
      "name": "payAppointmentFee",
      "outputs": [],
      "stateMutability": "nonpayable",
      "type": "function"
    },
    {
      "inputs": [
        {
          "internalType": "address",
          "name": "_patientAddress",
          "type": "address"
        }
      ],
      "name": "confirmAppointment",
      "outputs": [],
      "stateMutability": "nonpayable",
      "type": "function"
    },
    {
      "inputs": [
        {
          "internalType": "address",
          "name": "_patientAddress",
          "type": "address"
        }
      ],
      "name": "rejectAppointment",
      "outputs": [],
      "stateMutability": "nonpayable",
      "type": "function"
    },
    {
      "inputs": [],
      "name": "cancelAppointment",
      "outputs": [],
      "stateMutability": "nonpayable",
      "type": "function"
    },
    {
      "inputs": [
        {
          "internalType": "address",
          "name": "_patientAddress",
          "type": "address"
        }
      ],
      "name": "provideService",
      "outputs": [],
      "stateMutability": "nonpayable",
      "type": "function"
    },
    {
      "inputs": [],
      "name": "acknowledgeService",
      "outputs": [],
      "stateMutability": "nonpayable",
      "type": "function"
    },
    {
      "inputs": [
        {
          "internalType": "address",
          "name": "_patientAddress",
          "type": "address"
        },
        {
          "internalType": "string",
          "name": "_medicalRecord",
          "type": "string"
        }
      ],
      "name": "releaseMedicalRecord",
      "outputs": [],
      "stateMutability": "nonpayable",
      "type": "function"
    },
    {
      "inputs": [],
      "name": "getAllAppointments",
      "outputs": [
        {
          "components": [
            {
              "internalType": "address",
              "name": "patientAddresses",
              "type": "address"
            },
            {
              "internalType": "string",
              "name": "name",
              "type": "string"
            },
            {
              "internalType": "uint256",
              "name": "bookingId",
              "type": "uint256"
            },
            {
              "internalType": "uint256",
              "name": "fee",
              "type": "uint256"
            },
            {
              "internalType": "string",
              "name": "appointmentDate",
              "type": "string"
            },
            {
              "internalType": "string",
              "name": "appointmentSlot",
              "type": "string"
            },
            {
              "internalType": "enum MedicalAppointment.AppointmentStatus",
              "name": "status",
              "type": "uint8"
            }
          ],
          "internalType": "struct MedicalAppointment.Appointment[]",
          "name": "",
          "type": "tuple[]"
        }
      ],
      "stateMutability": "view",
      "type": "function",
      "constant": true
    },
    {
      "inputs": [],
      "name": "getPatientAppointments",
      "outputs": [
        {
          "components": [
            {
              "internalType": "address",
              "name": "patientAddresses",
              "type": "address"
            },
            {
              "internalType": "string",
              "name": "name",
              "type": "string"
            },
            {
              "internalType": "uint256",
              "name": "bookingId",
              "type": "uint256"
            },
            {
              "internalType": "uint256",
              "name": "fee",
              "type": "uint256"
            },
            {
              "internalType": "string",
              "name": "appointmentDate",
              "type": "string"
            },
            {
              "internalType": "string",
              "name": "appointmentSlot",
              "type": "string"
            },
            {
              "internalType": "enum MedicalAppointment.AppointmentStatus",
              "name": "status",
              "type": "uint8"
            }
          ],
          "internalType": "struct MedicalAppointment.Appointment[]",
          "name": "",
          "type": "tuple[]"
        }
      ],
      "stateMutability": "view",
      "type": "function",
      "constant": true
    },
    {
      "inputs": [
        {
          "internalType": "address",
          "name": "patientAddress",
          "type": "address"
        }
      ],
      "name": "getPatientDetails",
      "outputs": [
        {
          "internalType": "string",
          "name": "",
          "type": "string"
        },
        {
          "internalType": "uint256",
          "name": "",
          "type": "uint256"
        }
      ],
      "stateMutability": "view",
      "type": "function",
      "constant": true
    }
  ],
  "bytecode": "0x6080604052600180553480156200001557600080fd5b5060405162004c7638038062004c7683398181016040528101906200003b919062000170565b826000806101000a81548173ffffffffffffffffffffffffffffffffffffffff021916908373ffffffffffffffffffffffffffffffffffffffff16021790555081600560006101000a81548173ffffffffffffffffffffffffffffffffffffffff021916908373ffffffffffffffffffffffffffffffffffffffff16021790555080600660006101000a81548173ffffffffffffffffffffffffffffffffffffffff021916908373ffffffffffffffffffffffffffffffffffffffff160217905550505050620001cc565b600080fd5b600073ffffffffffffffffffffffffffffffffffffffff82169050919050565b600062000138826200010b565b9050919050565b6200014a816200012b565b81146200015657600080fd5b50565b6000815190506200016a816200013f565b92915050565b6000806000606084860312156200018c576200018b62000106565b5b60006200019c8682870162000159565b9350506020620001af8682870162000159565b9250506040620001c28682870162000159565b9150509250925092565b614a9a80620001dc6000396000f3fe608060405234801561001057600080fd5b506004361061010b5760003560e01c8063a6c6e9e2116100a2578063e6a07e2411610071578063e6a07e241461029c578063efe2ccc1146102b8578063f246c13d146102e9578063f7be2e29146102f3578063fea32dd21461030f5761010b565b8063a6c6e9e214610214578063aa2fedde14610230578063b40f16911461024e578063d65a54831461027e5761010b565b80637933570c116100de5780637933570c146101865780639636c70f146101a45780639d5dbc04146101da578063a23ba70b146101f65761010b565b80630869cfbc146101105780630df7d4b814610142578063553bcbdc1461014c5780636408b4a514610168575b600080fd5b61012a600480360381019061012591906134cc565b610319565b604051610139939291906135ba565b60405180910390f35b61014a6103eb565b005b610166600480360381019061016191906134cc565b610653565b005b6101706109db565b60405161017d9190613657565b60405180910390f35b61018e610a01565b60405161019b91906138bd565b60405180910390f35b6101be60048036038101906101b9919061390b565b610f33565b6040516101d1979695949392919061395a565b60405180910390f35b6101f460048036038101906101ef91906134cc565b611157565b005b6101fe6113ea565b60405161020b91906138bd565b60405180910390f35b61022e60048036038101906102299190613b13565b6116e4565b005b610238611c05565b6040516102459190613b6f565b60405180910390f35b61026860048036038101906102639190613b8a565b611c29565b6040516102759190613b6f565b60405180910390f35b610286611c68565b6040516102939190613bd8565b60405180910390f35b6102b660048036038101906102b191906134cc565b611c8e565b005b6102d260048036038101906102cd91906134cc565b611f21565b6040516102e0929190613bf3565b60405180910390f35b6102f1612332565b005b61030d60048036038101906103089190613c23565b6125c4565b005b610317612b8c565b005b60026020528060005260406000206000915090508060000160009054906101000a900473ffffffffffffffffffffffffffffffffffffffff169080600101805461036290613d21565b80601f016020809104026020016040519081016040528092919081815260200182805461038e90613d21565b80156103db5780601f106103b0576101008083540402835291602001916103db565b820191906000526020600020905b8154815290600101906020018083116103be57829003601f168201915b5050505050908060020154905083565b6000600260003373ffffffffffffffffffffffffffffffffffffffff1673ffffffffffffffffffffffffffffffffffffffff16815260200190815260200160002090506000816003018054905011610478576040517f08c379a000000000000000000000000000000000000000000000000000000000815260040161046f90613d9e565b60405180910390fd5b600081600301600183600301805490506104929190613ded565b815481106104a3576104a2613e21565b5b90600052602060002090600702019050600060068111156104c7576104c6613706565b5b8160060160009054906101000a900460ff1660068111156104eb576104ea613706565b5b1461052b576040517f08c379a000000000000000000000000000000000000000000000000000000000815260040161052290613ec2565b60405180910390fd5b60006002826003015461053e9190613ee2565b9050600560009054906101000a900473ffffffffffffffffffffffffffffffffffffffff1673ffffffffffffffffffffffffffffffffffffffff166323b872dd3330846040518463ffffffff1660e01b815260040161059f93929190613f3c565b6020604051808303816000875af11580156105be573d6000803e3d6000fd5b505050506040513d601f19601f820116820180604052508101906105e29190613fab565b610621576040517f08c379a00000000000000000000000000000000000000000000000000000000081526004016106189061404a565b60405180910390fd5b60018260060160006101000a81548160ff0219169083600681111561064957610648613706565b5b0217905550505050565b60008054906101000a900473ffffffffffffffffffffffffffffffffffffffff1673ffffffffffffffffffffffffffffffffffffffff163373ffffffffffffffffffffffffffffffffffffffff16146106e1576040517f08c379a00000000000000000000000000000000000000000000000000000000081526004016106d8906140dc565b60405180910390fd5b6000600260008373ffffffffffffffffffffffffffffffffffffffff1673ffffffffffffffffffffffffffffffffffffffff1681526020019081526020016000209050600073ffffffffffffffffffffffffffffffffffffffff168160000160009054906101000a900473ffffffffffffffffffffffffffffffffffffffff1673ffffffffffffffffffffffffffffffffffffffff16036107b7576040517f08c379a00000000000000000000000000000000000000000000000000000000081526004016107ae90614148565b60405180910390fd5b6000816003018054905011610801576040517f08c379a00000000000000000000000000000000000000000000000000000000081526004016107f890613d9e565b60405180910390fd5b6000816003016001836003018054905061081b9190613ded565b8154811061082c5761082b613e21565b5b90600052602060002090600702019050600160068111156108505761084f613706565b5b8160060160009054906101000a900460ff16600681111561087457610873613706565b5b146108b4576040517f08c379a00000000000000000000000000000000000000000000000000000000081526004016108ab906141da565b60405180910390fd5b6000600282600301546108c79190613ee2565b9050600560009054906101000a900473ffffffffffffffffffffffffffffffffffffffff1673ffffffffffffffffffffffffffffffffffffffff1663a9059cbb85836040518363ffffffff1660e01b81526004016109269291906141fa565b6020604051808303816000875af1158015610945573d6000803e3d6000fd5b505050506040513d601f19601f820116820180604052508101906109699190613fab565b6109a8576040517f08c379a000000000000000000000000000000000000000000000000000000000815260040161099f9061426f565b60405180910390fd5b60068260060160006101000a81548160ff021916908360068111156109d0576109cf613706565b5b021790555050505050565b600560009054906101000a900473ffffffffffffffffffffffffffffffffffffffff1681565b606060008054906101000a900473ffffffffffffffffffffffffffffffffffffffff1673ffffffffffffffffffffffffffffffffffffffff163373ffffffffffffffffffffffffffffffffffffffff1614610a91576040517f08c379a0000000000000000000000000000000000000000000000000000000008152600401610a8890614301565b60405180910390fd5b600080600090505b600380549050811015610b4a576002600060038381548110610abe57610abd613e21565b5b9060005260206000200160009054906101000a900473ffffffffffffffffffffffffffffffffffffffff1673ffffffffffffffffffffffffffffffffffffffff1673ffffffffffffffffffffffffffffffffffffffff1681526020019081526020016000206003018054905082610b359190614321565b91508080610b4290614377565b915050610a99565b5060008167ffffffffffffffff811115610b6757610b666139e8565b5b604051908082528060200260200182016040528015610ba057816020015b610b8d613352565b815260200190600190039081610b855790505b5090506000805b600380549050811015610f2957600060038281548110610bca57610bc9613e21565b5b9060005260206000200160009054906101000a900473ffffffffffffffffffffffffffffffffffffffff1690506000600260008373ffffffffffffffffffffffffffffffffffffffff1673ffffffffffffffffffffffffffffffffffffffff168152602001908152602001600020905060005b8160030180549050811015610f1357816003018181548110610c6257610c61613e21565b5b90600052602060002090600702016040518060e00160405290816000820160009054906101000a900473ffffffffffffffffffffffffffffffffffffffff1673ffffffffffffffffffffffffffffffffffffffff1673ffffffffffffffffffffffffffffffffffffffff168152602001600182018054610ce190613d21565b80601f0160208091040260200160405190810160405280929190818152602001828054610d0d90613d21565b8015610d5a5780601f10610d2f57610100808354040283529160200191610d5a565b820191906000526020600020905b815481529060010190602001808311610d3d57829003601f168201915b505050505081526020016002820154815260200160038201548152602001600482018054610d8790613d21565b80601f0160208091040260200160405190810160405280929190818152602001828054610db390613d21565b8015610e005780601f10610dd557610100808354040283529160200191610e00565b820191906000526020600020905b815481529060010190602001808311610de357829003601f168201915b50505050508152602001600582018054610e1990613d21565b80601f0160208091040260200160405190810160405280929190818152602001828054610e4590613d21565b8015610e925780601f10610e6757610100808354040283529160200191610e92565b820191906000526020600020905b815481529060010190602001808311610e7557829003601f168201915b505050505081526020016006820160009054906101000a900460ff166006811115610ec057610ebf613706565b5b6006811115610ed257610ed1613706565b5b81525050868680610ee290614377565b975081518110610ef557610ef4613e21565b5b60200260200101819052508080610f0b90614377565b915050610c3d565b5050508080610f2190614377565b915050610ba7565b5081935050505090565b60046020528160005260406000208181548110610f4f57600080fd5b9060005260206000209060070201600091509150508060000160009054906101000a900473ffffffffffffffffffffffffffffffffffffffff1690806001018054610f9990613d21565b80601f0160208091040260200160405190810160405280929190818152602001828054610fc590613d21565b80156110125780601f10610fe757610100808354040283529160200191611012565b820191906000526020600020905b815481529060010190602001808311610ff557829003601f168201915b50505050509080600201549080600301549080600401805461103390613d21565b80601f016020809104026020016040519081016040528092919081815260200182805461105f90613d21565b80156110ac5780601f10611081576101008083540402835291602001916110ac565b820191906000526020600020905b81548152906001019060200180831161108f57829003601f168201915b5050505050908060050180546110c190613d21565b80601f01602080910402602001604051908101604052809291908181526020018280546110ed90613d21565b801561113a5780601f1061110f5761010080835404028352916020019161113a565b820191906000526020600020905b81548152906001019060200180831161111d57829003601f168201915b5050505050908060060160009054906101000a900460ff16905087565b60008054906101000a900473ffffffffffffffffffffffffffffffffffffffff1673ffffffffffffffffffffffffffffffffffffffff163373ffffffffffffffffffffffffffffffffffffffff16146111e5576040517f08c379a00000000000000000000000000000000000000000000000000000000081526004016111dc90614431565b60405180910390fd5b6000600260008373ffffffffffffffffffffffffffffffffffffffff1673ffffffffffffffffffffffffffffffffffffffff1681526020019081526020016000209050600073ffffffffffffffffffffffffffffffffffffffff168160000160009054906101000a900473ffffffffffffffffffffffffffffffffffffffff1673ffffffffffffffffffffffffffffffffffffffff16036112bb576040517f08c379a00000000000000000000000000000000000000000000000000000000081526004016112b290614148565b60405180910390fd5b6000816003018054905011611305576040517f08c379a00000000000000000000000000000000000000000000000000000000081526004016112fc90613d9e565b60405180910390fd5b6000816003016001836003018054905061131f9190613ded565b815481106113305761132f613e21565b5b906000526020600020906007020190506002600681111561135457611353613706565b5b8160060160009054906101000a900460ff16600681111561137857611377613706565b5b146113b8576040517f08c379a00000000000000000000000000000000000000000000000000000000081526004016113af906144c3565b60405180910390fd5b60038160060160006101000a81548160ff021916908360068111156113e0576113df613706565b5b0217905550505050565b6060600260003373ffffffffffffffffffffffffffffffffffffffff1673ffffffffffffffffffffffffffffffffffffffff168152602001908152602001600020600301805480602002602001604051908101604052809291908181526020016000905b828210156116db57838290600052602060002090600702016040518060e00160405290816000820160009054906101000a900473ffffffffffffffffffffffffffffffffffffffff1673ffffffffffffffffffffffffffffffffffffffff1673ffffffffffffffffffffffffffffffffffffffff1681526020016001820180546114d790613d21565b80601f016020809104026020016040519081016040528092919081815260200182805461150390613d21565b80156115505780601f1061152557610100808354040283529160200191611550565b820191906000526020600020905b81548152906001019060200180831161153357829003601f168201915b50505050508152602001600282015481526020016003820154815260200160048201805461157d90613d21565b80601f01602080910402602001604051908101604052809291908181526020018280546115a990613d21565b80156115f65780601f106115cb576101008083540402835291602001916115f6565b820191906000526020600020905b8154815290600101906020018083116115d957829003601f168201915b5050505050815260200160058201805461160f90613d21565b80601f016020809104026020016040519081016040528092919081815260200182805461163b90613d21565b80156116885780601f1061165d57610100808354040283529160200191611688565b820191906000526020600020905b81548152906001019060200180831161166b57829003601f168201915b505050505081526020016006820160009054906101000a900460ff1660068111156116b6576116b5613706565b5b60068111156116c8576116c7613706565b5b815250508152602001906001019061144e565b50505050905090565b60008054906101000a900473ffffffffffffffffffffffffffffffffffffffff1673ffffffffffffffffffffffffffffffffffffffff163373ffffffffffffffffffffffffffffffffffffffff1614611772576040517f08c379a000000000000000000000000000000000000000000000000000000000815260040161176990614555565b60405180910390fd5b6000600260008473ffffffffffffffffffffffffffffffffffffffff1673ffffffffffffffffffffffffffffffffffffffff1681526020019081526020016000209050600081600201549050600073ffffffffffffffffffffffffffffffffffffffff168260000160009054906101000a900473ffffffffffffffffffffffffffffffffffffffff1673ffffffffffffffffffffffffffffffffffffffff1603611851576040517f08c379a000000000000000000000000000000000000000000000000000000000815260040161184890614148565b60405180910390fd5b600082600301805490501161189b576040517f08c379a000000000000000000000000000000000000000000000000000000000815260040161189290613d9e565b60405180910390fd5b600082600301600184600301805490506118b59190613ded565b815481106118c6576118c5613e21565b5b90600052602060002090600702019050600460068111156118ea576118e9613706565b5b8160060160009054906101000a900460ff16600681111561190e5761190d613706565b5b1461194e576040517f08c379a0000000000000000000000000000000000000000000000000000000008152600401611945906145e7565b60405180910390fd5b600081600301549050600560009054906101000a900473ffffffffffffffffffffffffffffffffffffffff1673ffffffffffffffffffffffffffffffffffffffff1663a9059cbb60008054906101000a900473ffffffffffffffffffffffffffffffffffffffff16836040518363ffffffff1660e01b81526004016119d49291906141fa565b6020604051808303816000875af11580156119f3573d6000803e3d6000fd5b505050506040513d601f19601f82011682018060405250810190611a179190613fab565b611a56576040517f08c379a0000000000000000000000000000000000000000000000000000000008152600401611a4d90614679565b60405180910390fd5b60058260060160006101000a81548160ff02191690836006811115611a7e57611a7d613706565b5b0217905550600660009054906101000a900473ffffffffffffffffffffffffffffffffffffffff1673ffffffffffffffffffffffffffffffffffffffff1663a224b73587866001018887876004016040518663ffffffff1660e01b8152600401611aec95949392919061472e565b600060405180830381600087803b158015611b0657600080fd5b505af1158015611b1a573d6000803e3d6000fd5b50505050600560009054906101000a900473ffffffffffffffffffffffffffffffffffffffff1673ffffffffffffffffffffffffffffffffffffffff1663a9059cbb87836040518363ffffffff1660e01b8152600401611b7b9291906141fa565b6020604051808303816000875af1158015611b9a573d6000803e3d6000fd5b505050506040513d601f19601f82011682018060405250810190611bbe9190613fab565b611bfd576040517f08c379a0000000000000000000000000000000000000000000000000000000008152600401611bf49061426f565b60405180910390fd5b505050505050565b60008054906101000a900473ffffffffffffffffffffffffffffffffffffffff1681565b60038181548110611c3957600080fd5b906000526020600020016000915054906101000a900473ffffffffffffffffffffffffffffffffffffffff1681565b600660009054906101000a900473ffffffffffffffffffffffffffffffffffffffff1681565b60008054906101000a900473ffffffffffffffffffffffffffffffffffffffff1673ffffffffffffffffffffffffffffffffffffffff163373ffffffffffffffffffffffffffffffffffffffff1614611d1c576040517f08c379a0000000000000000000000000000000000000000000000000000000008152600401611d1390614808565b60405180910390fd5b6000600260008373ffffffffffffffffffffffffffffffffffffffff1673ffffffffffffffffffffffffffffffffffffffff1681526020019081526020016000209050600073ffffffffffffffffffffffffffffffffffffffff168160000160009054906101000a900473ffffffffffffffffffffffffffffffffffffffff1673ffffffffffffffffffffffffffffffffffffffff1603611df2576040517f08c379a0000000000000000000000000000000000000000000000000000000008152600401611de990614148565b60405180910390fd5b6000816003018054905011611e3c576040517f08c379a0000000000000000000000000000000000000000000000000000000008152600401611e3390613d9e565b60405180910390fd5b60008160030160018360030180549050611e569190613ded565b81548110611e6757611e66613e21565b5b9060005260206000209060070201905060016006811115611e8b57611e8a613706565b5b8160060160009054906101000a900460ff166006811115611eaf57611eae613706565b5b14611eef576040517f08c379a0000000000000000000000000000000000000000000000000000000008152600401611ee6906141da565b60405180910390fd5b60028160060160006101000a81548160ff02191690836006811115611f1757611f16613706565b5b0217905550505050565b6060600080600260008573ffffffffffffffffffffffffffffffffffffffff1673ffffffffffffffffffffffffffffffffffffffff1681526020019081526020016000206040518060800160405290816000820160009054906101000a900473ffffffffffffffffffffffffffffffffffffffff1673ffffffffffffffffffffffffffffffffffffffff1673ffffffffffffffffffffffffffffffffffffffff168152602001600182018054611fd690613d21565b80601f016020809104026020016040519081016040528092919081815260200182805461200290613d21565b801561204f5780601f106120245761010080835404028352916020019161204f565b820191906000526020600020905b81548152906001019060200180831161203257829003601f168201915b505050505081526020016002820154815260200160038201805480602002602001604051908101604052809291908181526020016000905b8282101561231457838290600052602060002090600702016040518060e00160405290816000820160009054906101000a900473ffffffffffffffffffffffffffffffffffffffff1673ffffffffffffffffffffffffffffffffffffffff1673ffffffffffffffffffffffffffffffffffffffff16815260200160018201805461211090613d21565b80601f016020809104026020016040519081016040528092919081815260200182805461213c90613d21565b80156121895780601f1061215e57610100808354040283529160200191612189565b820191906000526020600020905b81548152906001019060200180831161216c57829003601f168201915b5050505050815260200160028201548152602001600382015481526020016004820180546121b690613d21565b80601f01602080910402602001604051908101604052809291908181526020018280546121e290613d21565b801561222f5780601f106122045761010080835404028352916020019161222f565b820191906000526020600020905b81548152906001019060200180831161221257829003601f168201915b5050505050815260200160058201805461224890613d21565b80601f016020809104026020016040519081016040528092919081815260200182805461227490613d21565b80156122c15780601f10612296576101008083540402835291602001916122c1565b820191906000526020600020905b8154815290600101906020018083116122a457829003601f168201915b505050505081526020016006820160009054906101000a900460ff1660068111156122ef576122ee613706565b5b600681111561230157612300613706565b5b8152505081526020019060010190612087565b50505050815250509050806020015181604001519250925050915091565b60008054906101000a900473ffffffffffffffffffffffffffffffffffffffff1673ffffffffffffffffffffffffffffffffffffffff163373ffffffffffffffffffffffffffffffffffffffff16036123c0576040517f08c379a00000000000000000000000000000000000000000000000000000000081526004016123b79061489a565b60405180910390fd5b6000600260003373ffffffffffffffffffffffffffffffffffffffff1673ffffffffffffffffffffffffffffffffffffffff1681526020019081526020016000209050600073ffffffffffffffffffffffffffffffffffffffff168160000160009054906101000a900473ffffffffffffffffffffffffffffffffffffffff1673ffffffffffffffffffffffffffffffffffffffff1603612496576040517f08c379a000000000000000000000000000000000000000000000000000000000815260040161248d90614148565b60405180910390fd5b60008160030180549050116124e0576040517f08c379a00000000000000000000000000000000000000000000000000000000081526004016124d790613d9e565b60405180910390fd5b600081600301600183600301805490506124fa9190613ded565b8154811061250b5761250a613e21565b5b906000526020600020906007020190506003600681111561252f5761252e613706565b5b8160060160009054906101000a900460ff16600681111561255357612552613706565b5b14612593576040517f08c379a000000000000000000000000000000000000000000000000000000000815260040161258a9061492c565b60405180910390fd5b60048160060160006101000a81548160ff021916908360068111156125bb576125ba613706565b5b02179055505050565b600073ffffffffffffffffffffffffffffffffffffffff16600260003373ffffffffffffffffffffffffffffffffffffffff1673ffffffffffffffffffffffffffffffffffffffff16815260200190815260200160002060000160009054906101000a900473ffffffffffffffffffffffffffffffffffffffff1673ffffffffffffffffffffffffffffffffffffffff16036127435733600260003373ffffffffffffffffffffffffffffffffffffffff1673ffffffffffffffffffffffffffffffffffffffff16815260200190815260200160002060000160006101000a81548173ffffffffffffffffffffffffffffffffffffffff021916908373ffffffffffffffffffffffffffffffffffffffff1602179055506003339080600181540180825580915050600190039060005260206000200160009091909190916101000a81548173ffffffffffffffffffffffffffffffffffffffff021916908373ffffffffffffffffffffffffffffffffffffffff1602179055506127dc565b6000600260003373ffffffffffffffffffffffffffffffffffffffff1673ffffffffffffffffffffffffffffffffffffffff16815260200190815260200160002060030180549050148061279c575061279b3361319c565b5b6127db576040517f08c379a00000000000000000000000000000000000000000000000000000000081526004016127d2906149e4565b60405180910390fd5b5b81600260003373ffffffffffffffffffffffffffffffffffffffff1673ffffffffffffffffffffffffffffffffffffffff16815260200190815260200160002060010190805190602001906128329291906133b7565b5080600260003373ffffffffffffffffffffffffffffffffffffffff1673ffffffffffffffffffffffffffffffffffffffff16815260200190815260200160002060020181905550600061288461332b565b905060006040518060e001604052803373ffffffffffffffffffffffffffffffffffffffff168152602001858152602001838152602001888152602001878152602001868152602001600060068111156128e1576128e0613706565b5b8152509050600260003373ffffffffffffffffffffffffffffffffffffffff1673ffffffffffffffffffffffffffffffffffffffff16815260200190815260200160002060030181908060018154018082558091505060019003906000526020600020906007020160009091909190915060008201518160000160006101000a81548173ffffffffffffffffffffffffffffffffffffffff021916908373ffffffffffffffffffffffffffffffffffffffff16021790555060208201518160010190805190602001906129b59291906133b7565b50604082015181600201556060820151816003015560808201518160040190805190602001906129e69291906133b7565b5060a0820151816005019080519060200190612a039291906133b7565b5060c08201518160060160006101000a81548160ff02191690836006811115612a2f57612a2e613706565b5b02179055505050600460003373ffffffffffffffffffffffffffffffffffffffff1673ffffffffffffffffffffffffffffffffffffffff16815260200190815260200160002081908060018154018082558091505060019003906000526020600020906007020160009091909190915060008201518160000160006101000a81548173ffffffffffffffffffffffffffffffffffffffff021916908373ffffffffffffffffffffffffffffffffffffffff1602179055506020820151816001019080519060200190612b029291906133b7565b5060408201518160020155606082015181600301556080820151816004019080519060200190612b339291906133b7565b5060a0820151816005019080519060200190612b509291906133b7565b5060c08201518160060160006101000a81548160ff02191690836006811115612b7c57612b7b613706565b5b0217905550505050505050505050565b6000600260003373ffffffffffffffffffffffffffffffffffffffff1673ffffffffffffffffffffffffffffffffffffffff16815260200190815260200160002090506000816003018054905011612c19576040517f08c379a0000000000000000000000000000000000000000000000000000000008152600401612c1090613d9e565b60405180910390fd5b60008160030160018360030180549050612c339190613ded565b81548110612c4457612c43613e21565b5b9060005260206000209060070201905060016006811115612c6857612c67613706565b5b8160060160009054906101000a900460ff166006811115612c8c57612c8b613706565b5b1480612ccd575060006006811115612ca757612ca6613706565b5b8160060160009054906101000a900460ff166006811115612ccb57612cca613706565b5b145b80612d0d575060026006811115612ce757612ce6613706565b5b8160060160009054906101000a900460ff166006811115612d0b57612d0a613706565b5b145b612d4c576040517f08c379a0000000000000000000000000000000000000000000000000000000008152600401612d43906141da565b60405180910390fd5b60016006811115612d6057612d5f613706565b5b8160060160009054906101000a900460ff166006811115612d8457612d83613706565b5b03612eac57600060028260030154612d9c9190613ee2565b9050600560009054906101000a900473ffffffffffffffffffffffffffffffffffffffff1673ffffffffffffffffffffffffffffffffffffffff1663a9059cbb33836040518363ffffffff1660e01b8152600401612dfb9291906141fa565b6020604051808303816000875af1158015612e1a573d6000803e3d6000fd5b505050506040513d601f19601f82011682018060405250810190612e3e9190613fab565b612e7d576040517f08c379a0000000000000000000000000000000000000000000000000000000008152600401612e749061426f565b60405180910390fd5b60068260060160006101000a81548160ff02191690836006811115612ea557612ea4613706565b5b0217905550505b60006006811115612ec057612ebf613706565b5b8160060160009054906101000a900460ff166006811115612ee457612ee3613706565b5b03612f175760068160060160006101000a81548160ff02191690836006811115612f1157612f10613706565b5b02179055505b60026006811115612f2b57612f2a613706565b5b8160060160009054906101000a900460ff166006811115612f4f57612f4e613706565b5b03613198576000600260038360030154612f699190613ee2565b612f739190614a33565b9050600060028360030154612f889190614a33565b9050600560009054906101000a900473ffffffffffffffffffffffffffffffffffffffff1673ffffffffffffffffffffffffffffffffffffffff1663a9059cbb33846040518363ffffffff1660e01b8152600401612fe79291906141fa565b6020604051808303816000875af1158015613006573d6000803e3d6000fd5b505050506040513d601f19601f8201168201806040525081019061302a9190613fab565b613069576040517f08c379a00000000000000000000000000000000000000000000000000000000081526004016130609061426f565b60405180910390fd5b600560009054906101000a900473ffffffffffffffffffffffffffffffffffffffff1673ffffffffffffffffffffffffffffffffffffffff1663a9059cbb60008054906101000a900473ffffffffffffffffffffffffffffffffffffffff16836040518363ffffffff1660e01b81526004016130e69291906141fa565b6020604051808303816000875af1158015613105573d6000803e3d6000fd5b505050506040513d601f19601f820116820180604052508101906131299190613fab565b613168576040517f08c379a000000000000000000000000000000000000000000000000000000000815260040161315f9061426f565b60405180910390fd5b60068360060160006101000a81548160ff021916908360068111156131905761318f613706565b5b021790555050505b5050565b600080600260008473ffffffffffffffffffffffffffffffffffffffff1673ffffffffffffffffffffffffffffffffffffffff16815260200190815260200160002060030180549050036131f35760019050613326565b6000600260008473ffffffffffffffffffffffffffffffffffffffff1673ffffffffffffffffffffffffffffffffffffffff1681526020019081526020016000206003016001600260008673ffffffffffffffffffffffffffffffffffffffff1673ffffffffffffffffffffffffffffffffffffffff168152602001908152602001600020600301805490506132899190613ded565b8154811061329a57613299613e21565b5b90600052602060002090600702019050600560068111156132be576132bd613706565b5b8160060160009054906101000a900460ff1660068111156132e2576132e1613706565b5b148061332257506006808111156132fc576132fb613706565b5b8160060160009054906101000a900460ff1660068111156133205761331f613706565b5b145b9150505b919050565b60008060015490506001600081548092919061334690614377565b91905055508091505090565b6040518060e00160405280600073ffffffffffffffffffffffffffffffffffffffff1681526020016060815260200160008152602001600081526020016060815260200160608152602001600060068111156133b1576133b0613706565b5b81525090565b8280546133c390613d21565b90600052602060002090601f0160209004810192826133e5576000855561342c565b82601f106133fe57805160ff191683800117855561342c565b8280016001018555821561342c579182015b8281111561342b578251825591602001919060010190613410565b5b509050613439919061343d565b5090565b5b8082111561345657600081600090555060010161343e565b5090565b6000604051905090565b600080fd5b600080fd5b600073ffffffffffffffffffffffffffffffffffffffff82169050919050565b60006134998261346e565b9050919050565b6134a98161348e565b81146134b457600080fd5b50565b6000813590506134c6816134a0565b92915050565b6000602082840312156134e2576134e1613464565b5b60006134f0848285016134b7565b91505092915050565b6135028161348e565b82525050565b600081519050919050565b600082825260208201905092915050565b60005b83811015613542578082015181840152602081019050613527565b83811115613551576000848401525b50505050565b6000601f19601f8301169050919050565b600061357382613508565b61357d8185613513565b935061358d818560208601613524565b61359681613557565b840191505092915050565b6000819050919050565b6135b4816135a1565b82525050565b60006060820190506135cf60008301866134f9565b81810360208301526135e18185613568565b90506135f060408301846135ab565b949350505050565b6000819050919050565b600061361d6136186136138461346e565b6135f8565b61346e565b9050919050565b600061362f82613602565b9050919050565b600061364182613624565b9050919050565b61365181613636565b82525050565b600060208201905061366c6000830184613648565b92915050565b600081519050919050565b600082825260208201905092915050565b6000819050602082019050919050565b6136a78161348e565b82525050565b600082825260208201905092915050565b60006136c982613508565b6136d381856136ad565b93506136e3818560208601613524565b6136ec81613557565b840191505092915050565b613700816135a1565b82525050565b7f4e487b7100000000000000000000000000000000000000000000000000000000600052602160045260246000fd5b6007811061374657613745613706565b5b50565b600081905061375782613735565b919050565b600061376782613749565b9050919050565b6137778161375c565b82525050565b600060e083016000830151613795600086018261369e565b50602083015184820360208601526137ad82826136be565b91505060408301516137c260408601826136f7565b5060608301516137d560608601826136f7565b50608083015184820360808601526137ed82826136be565b91505060a083015184820360a086015261380782826136be565b91505060c083015161381c60c086018261376e565b508091505092915050565b6000613833838361377d565b905092915050565b6000602082019050919050565b600061385382613672565b61385d818561367d565b93508360208202850161386f8561368e565b8060005b858110156138ab578484038952815161388c8582613827565b94506138978361383b565b925060208a01995050600181019050613873565b50829750879550505050505092915050565b600060208201905081810360008301526138d78184613848565b905092915050565b6138e8816135a1565b81146138f357600080fd5b50565b600081359050613905816138df565b92915050565b6000806040838503121561392257613921613464565b5b6000613930858286016134b7565b9250506020613941858286016138f6565b9150509250929050565b6139548161375c565b82525050565b600060e08201905061396f600083018a6134f9565b81810360208301526139818189613568565b905061399060408301886135ab565b61399d60608301876135ab565b81810360808301526139af8186613568565b905081810360a08301526139c38185613568565b90506139d260c083018461394b565b98975050505050505050565b600080fd5b600080fd5b7f4e487b7100000000000000000000000000000000000000000000000000000000600052604160045260246000fd5b613a2082613557565b810181811067ffffffffffffffff82111715613a3f57613a3e6139e8565b5b80604052505050565b6000613a5261345a565b9050613a5e8282613a17565b919050565b600067ffffffffffffffff821115613a7e57613a7d6139e8565b5b613a8782613557565b9050602081019050919050565b82818337600083830152505050565b6000613ab6613ab184613a63565b613a48565b905082815260208101848484011115613ad257613ad16139e3565b5b613add848285613a94565b509392505050565b600082601f830112613afa57613af96139de565b5b8135613b0a848260208601613aa3565b91505092915050565b60008060408385031215613b2a57613b29613464565b5b6000613b38858286016134b7565b925050602083013567ffffffffffffffff811115613b5957613b58613469565b5b613b6585828601613ae5565b9150509250929050565b6000602082019050613b8460008301846134f9565b92915050565b600060208284031215613ba057613b9f613464565b5b6000613bae848285016138f6565b91505092915050565b6000613bc282613624565b9050919050565b613bd281613bb7565b82525050565b6000602082019050613bed6000830184613bc9565b92915050565b60006040820190508181036000830152613c0d8185613568565b9050613c1c60208301846135ab565b9392505050565b600080600080600060a08688031215613c3f57613c3e613464565b5b6000613c4d888289016138f6565b955050602086013567ffffffffffffffff811115613c6e57613c6d613469565b5b613c7a88828901613ae5565b945050604086013567ffffffffffffffff811115613c9b57613c9a613469565b5b613ca788828901613ae5565b935050606086013567ffffffffffffffff811115613cc857613cc7613469565b5b613cd488828901613ae5565b9250506080613ce5888289016138f6565b9150509295509295909350565b7f4e487b7100000000000000000000000000000000000000000000000000000000600052602260045260246000fd5b60006002820490506001821680613d3957607f821691505b602082108103613d4c57613d4b613cf2565b5b50919050565b7f50617469656e7420686173206e6f206170706f696e746d656e74730000000000600082015250565b6000613d88601b83613513565b9150613d9382613d52565b602082019050919050565b60006020820190508181036000830152613db781613d7b565b9050919050565b7f4e487b7100000000000000000000000000000000000000000000000000000000600052601160045260246000fd5b6000613df8826135a1565b9150613e03836135a1565b925082821015613e1657613e15613dbe565b5b828203905092915050565b7f4e487b7100000000000000000000000000000000000000000000000000000000600052603260045260246000fd5b7f4c6174657374206170706f696e746d656e7420737461747573206d757374206260008201527f652050656e64696e670000000000000000000000000000000000000000000000602082015250565b6000613eac602983613513565b9150613eb782613e50565b604082019050919050565b60006020820190508181036000830152613edb81613e9f565b9050919050565b6000613eed826135a1565b9150613ef8836135a1565b9250817fffffffffffffffffffffffffffffffffffffffffffffffffffffffffffffffff0483118215151615613f3157613f30613dbe565b5b828202905092915050565b6000606082019050613f5160008301866134f9565b613f5e60208301856134f9565b613f6b60408301846135ab565b949350505050565b60008115159050919050565b613f8881613f73565b8114613f9357600080fd5b50565b600081519050613fa581613f7f565b92915050565b600060208284031215613fc157613fc0613464565b5b6000613fcf84828501613f96565b91505092915050565b7f496e73756666696369656e7420616c6c6f77616e6365206f722062616c616e6360008201527f6500000000000000000000000000000000000000000000000000000000000000602082015250565b6000614034602183613513565b915061403f82613fd8565b604082019050919050565b6000602082019050818103600083015261406381614027565b9050919050565b7f4f6e6c7920686f73706974616c2063616e2072656a656374206170706f696e7460008201527f6d656e7473000000000000000000000000000000000000000000000000000000602082015250565b60006140c6602583613513565b91506140d18261406a565b604082019050919050565b600060208201905081810360008301526140f5816140b9565b9050919050565b7f50617469656e74206e6f7420666f756e64000000000000000000000000000000600082015250565b6000614132601183613513565b915061413d826140fc565b602082019050919050565b6000602082019050818103600083015261416181614125565b9050919050565b7f4c6174657374206170706f696e746d656e7420737461747573206d757374206260008201527f6520506169640000000000000000000000000000000000000000000000000000602082015250565b60006141c4602683613513565b91506141cf82614168565b604082019050919050565b600060208201905081810360008301526141f3816141b7565b9050919050565b600060408201905061420f60008301856134f9565b61421c60208301846135ab565b9392505050565b7f546f6b656e207472616e7366657220746f2070617469656e74206661696c6564600082015250565b6000614259602083613513565b915061426482614223565b602082019050919050565b600060208201905081810360008301526142888161424c565b9050919050565b7f4f6e6c7920686f73706974616c2063616e2061636365737320616c6c2061707060008201527f6f696e746d656e74730000000000000000000000000000000000000000000000602082015250565b60006142eb602983613513565b91506142f68261428f565b604082019050919050565b6000602082019050818103600083015261431a816142de565b9050919050565b600061432c826135a1565b9150614337836135a1565b9250827fffffffffffffffffffffffffffffffffffffffffffffffffffffffffffffffff0382111561436c5761436b613dbe565b5b828201905092915050565b6000614382826135a1565b91507fffffffffffffffffffffffffffffffffffffffffffffffffffffffffffffffff82036143b4576143b3613dbe565b5b600182019050919050565b7f4f6e6c7920686f73706974616c2063616e2070726f766964652073657276696360008201527f6500000000000000000000000000000000000000000000000000000000000000602082015250565b600061441b602183613513565b9150614426826143bf565b604082019050919050565b6000602082019050818103600083015261444a8161440e565b9050919050565b7f4c6174657374206170706f696e746d656e7420737461747573206d757374206260008201527f6520436f6e6669726d6564000000000000000000000000000000000000000000602082015250565b60006144ad602b83613513565b91506144b882614451565b604082019050919050565b600060208201905081810360008301526144dc816144a0565b9050919050565b7f4f6e6c7920686f73706974616c2063616e2072656c65617365206d656469636160008201527f6c207265636f7264730000000000000000000000000000000000000000000000602082015250565b600061453f602983613513565b915061454a826144e3565b604082019050919050565b6000602082019050818103600083015261456e81614532565b9050919050565b7f4c6174657374206170706f696e746d656e7420737461747573206d757374206260008201527f652041636b6e6f776c6564676564536572766963650000000000000000000000602082015250565b60006145d1603583613513565b91506145dc82614575565b604082019050919050565b60006020820190508181036000830152614600816145c4565b9050919050565b7f546f6b656e207472616e7366657220746f20686f73706974616c206661696c6560008201527f6400000000000000000000000000000000000000000000000000000000000000602082015250565b6000614663602183613513565b915061466e82614607565b604082019050919050565b6000602082019050818103600083015261469281614656565b9050919050565b60008190508160005260206000209050919050565b600081546146bb81613d21565b6146c58186613513565b945060018216600081146146e057600181146146f257614725565b60ff1983168652602086019350614725565b6146fb85614699565b60005b8381101561471d578154818901526001820191506020810190506146fe565b808801955050505b50505092915050565b600060a08201905061474360008301886134f9565b818103602083015261475581876146ae565b905081810360408301526147698186613568565b905061477860608301856135ab565b818103608083015261478a81846146ae565b90509695505050505050565b7f4f6e6c7920686f73706974616c2063616e20636f6e6669726d206170706f696e60008201527f746d656e74730000000000000000000000000000000000000000000000000000602082015250565b60006147f2602683613513565b91506147fd82614796565b604082019050919050565b60006020820190508181036000830152614821816147e5565b9050919050565b7f4f6e6c792070617469656e74732063616e2061636b6e6f776c6564676520736560008201527f7276696365000000000000000000000000000000000000000000000000000000602082015250565b6000614884602583613513565b915061488f82614828565b604082019050919050565b600060208201905081810360008301526148b381614877565b9050919050565b7f4c6174657374206170706f696e746d656e7420737461747573206d757374206260008201527f65205365727669636550726f7669646564000000000000000000000000000000602082015250565b6000614916603183613513565b9150614921826148ba565b604082019050919050565b6000602082019050818103600083015261494581614909565b9050919050565b7f4c617374206170706f696e746d656e74277320737461747573206d757374206260008201527f6520636f6d706c6574656420616e642072656c6561736564206f722072656a6560208201527f6374656400000000000000000000000000000000000000000000000000000000604082015250565b60006149ce604483613513565b91506149d98261494c565b606082019050919050565b600060208201905081810360008301526149fd816149c1565b9050919050565b7f4e487b7100000000000000000000000000000000000000000000000000000000600052601260045260246000fd5b6000614a3e826135a1565b9150614a49836135a1565b925082614a5957614a58614a04565b5b82820490509291505056fea26469706673582212208341085d48cc55f2e6f06c591181c3bfb7691d367153b2868d0f7a8e8017900364736f6c634300080d0033",
  "immutableReferences": {},
  "source": "// SPDX-License-Identifier: GPL-3.0\r\npragma solidity >=0.5.10;\r\n\r\nimport \"@openzeppelin/contracts/token/ERC20/IERC20.sol\";\r\nimport \"./MedicalRecordAccess.sol\"; // Import the other smart contract\r\nimport \"./DEHToken.sol\";\r\n\r\ncontract MedicalAppointment {\r\n       enum AppointmentStatus { Pending, Paid, Confirmed, ServiceProvided, AcknowledgedService, RecordReleased, Rejected }\r\n\r\n    struct Appointment {\r\n        address patientAddresses;\r\n        string name;\r\n        uint bookingId;\r\n        uint fee;\r\n        string appointmentDate;\r\n        string appointmentSlot;\r\n        AppointmentStatus status;\r\n    }\r\n\r\n    struct Patient {\r\n        address patientAddress;\r\n        string name;\r\n        uint age;\r\n        Appointment[] appointments;\r\n    }\r\n\r\n    address public hospital;\r\n    uint private nextBookingId = 1; // Counter for generating unique booking IDs\r\n    mapping(address => Patient) public patients;\r\n    address[] public patientAddresses; // Array to store patient addresses\r\n    mapping(address => Appointment[]) public allAppointments;\r\n    DEHToken public dehToken;\r\n    MedicalRecordAccess public medicalRecordAccess; // Instance of the other smart contract\r\n    constructor(address _hospital, address _dehTokenAddress, address _medicalRecordAccess) {\r\n        hospital = _hospital;\r\n        dehToken =  DEHToken(_dehTokenAddress);\r\n        medicalRecordAccess = MedicalRecordAccess(_medicalRecordAccess); // Initialize the instance\r\n    }\r\n\r\n    // Function to add patient address to the patientAddresses array\r\n    function addPatientAddress(address _patientAddress) private {\r\n        // Check if the patient address is not already added\r\n        bool exists = false;\r\n        for (uint i = 0; i < patientAddresses.length; i++) {\r\n            if (patientAddresses[i] == _patientAddress) {\r\n                exists = true;\r\n                break;\r\n            }\r\n        }\r\n        // If patient address does not exist, add it\r\n        if (!exists) {\r\n            patientAddresses.push(_patientAddress);\r\n        }\r\n    }\r\n\r\n    function requestAppointment(uint _fee, string memory _appointmentDate, string memory _appointmentSlot, string memory _name, uint _age) public {\r\n\r\n        // Create new patient if not exists\r\n        if (patients[msg.sender].patientAddress == address(0)) {\r\n            patients[msg.sender].patientAddress = msg.sender;\r\n            patientAddresses.push(msg.sender); // Add patient address to the list\r\n        }\r\n\r\n        else {\r\n        require(patients[msg.sender].appointments.length == 0 || hasLastAppointmentRecordReleased(msg.sender), \"Last appointment's status must be completed and released or rejected\");\r\n        }\r\n        patients[msg.sender].name = _name;\r\n        patients[msg.sender].age = _age;\r\n        uint bookingId = getNextBookingId(); // Get the next unique booking ID\r\n        Appointment memory newAppointment = Appointment(msg.sender, _name,  bookingId, _fee, _appointmentDate, _appointmentSlot, AppointmentStatus.Pending);\r\n\r\n        // Add appointment to patient's list\r\n        patients[msg.sender].appointments.push(newAppointment);\r\n        allAppointments[msg.sender].push(newAppointment);\r\n    }\r\n\r\n\r\n    // Internal function to check if the last appointment's status is RecordReleased\r\n    function hasLastAppointmentRecordReleased(address _patientAddress) private view returns (bool) {\r\n        if (patients[_patientAddress].appointments.length == 0) {\r\n            // No previous appointments, so return true\r\n            return true;\r\n        } else {\r\n            // Get the status of the last appointment\r\n            Appointment storage lastAppointment = patients[_patientAddress].appointments[patients[_patientAddress].appointments.length - 1];\r\n            return (lastAppointment.status == AppointmentStatus.RecordReleased || lastAppointment.status == AppointmentStatus.Rejected);\r\n        }\r\n}\r\n\r\n    // Internal function to get the next unique booking ID\r\n    function getNextBookingId() private returns (uint) {\r\n        uint bookingId = nextBookingId;\r\n        nextBookingId++; // Increment the counter for the next booking ID\r\n        return bookingId;\r\n    }\r\n\r\n    function payAppointmentFee() public {\r\n        Patient storage patient = patients[msg.sender];\r\n        \r\n        // Ensure that the patient has appointments\r\n        require(patient.appointments.length > 0, \"Patient has no appointments\");\r\n        \r\n        // Find the latest appointment of the patient\r\n        Appointment storage latestAppointment = patient.appointments[patient.appointments.length - 1];\r\n        \r\n        // Ensure that the latest appointment status is \"Pending\" before allowing payment\r\n        require(latestAppointment.status == AppointmentStatus.Pending, \"Latest appointment status must be Pending\");\r\n        \r\n        // Transfer the appointment fee (doubled) from the patient's account to the contract's address\r\n        uint doubledFee = latestAppointment.fee * 2;\r\n        require(dehToken.transferFrom(msg.sender, address(this), doubledFee), \"Insufficient allowance or balance\");\r\n        \r\n        // Update the latest appointment status to \"Paid\" after successful payment\r\n        latestAppointment.status = AppointmentStatus.Paid;\r\n    }\r\n\r\n\r\n    function confirmAppointment(address _patientAddress) public {\r\n        require(msg.sender == hospital, \"Only hospital can confirm appointments\");\r\n        Patient storage patient = patients[_patientAddress];\r\n        \r\n        // Ensure that the patient exists and has appointments\r\n        require(patient.patientAddress != address(0), \"Patient not found\");\r\n        require(patient.appointments.length > 0, \"Patient has no appointments\");\r\n        \r\n        // Find the latest appointment of the patient\r\n        Appointment storage latestAppointment = patient.appointments[patient.appointments.length - 1];\r\n        \r\n        // Ensure that the latest appointment status is \"Paid\" before confirming\r\n        require(latestAppointment.status == AppointmentStatus.Paid, \"Latest appointment status must be Paid\");\r\n        \r\n        // Update the latest appointment status to \"Confirmed\"\r\n        latestAppointment.status = AppointmentStatus.Confirmed;\r\n    }\r\n\r\n    function rejectAppointment(address _patientAddress) public {\r\n        require(msg.sender == hospital, \"Only hospital can reject appointments\");\r\n        Patient storage patient = patients[_patientAddress];\r\n        \r\n        // Ensure that the patient exists and has appointments\r\n        require(patient.patientAddress != address(0), \"Patient not found\");\r\n        require(patient.appointments.length > 0, \"Patient has no appointments\");\r\n        \r\n        // Find the latest appointment of the patient\r\n        Appointment storage latestAppointment = patient.appointments[patient.appointments.length - 1];\r\n        \r\n        // Ensure that the latest appointment status is \"Paid\" before confirming\r\n        require(latestAppointment.status == AppointmentStatus.Paid, \"Latest appointment status must be Paid\");\r\n\r\n        uint refund = latestAppointment.fee*2;\r\n\r\n        // Transfer half of the fee to the hospital\r\n        require(dehToken.transfer(_patientAddress, refund), \"Token transfer to patient failed\");\r\n        \r\n        // Update the latest appointment status to \"Confirmed\"\r\n        latestAppointment.status = AppointmentStatus.Rejected;\r\n    }\r\n\r\n\r\n    function cancelAppointment() public {\r\n        Patient storage patient = patients[msg.sender];\r\n        \r\n        // Ensure that the patient has appointments\r\n        require(patient.appointments.length > 0, \"Patient has no appointments\");\r\n        \r\n        // Find the latest appointment of the patient\r\n        Appointment storage latestAppointment = patient.appointments[patient.appointments.length - 1];\r\n        \r\n        require(latestAppointment.status == AppointmentStatus.Paid || latestAppointment.status == AppointmentStatus.Pending || latestAppointment.status == AppointmentStatus.Confirmed, \"Latest appointment status must be Paid\");\r\n\r\n        // Ensure that the latest appointment status is \"Pending\" before allowing payment\r\n        if(latestAppointment.status == AppointmentStatus.Paid){\r\n            uint refund = latestAppointment.fee*2;\r\n            require(dehToken.transfer(msg.sender, refund), \"Token transfer to patient failed\");\r\n            latestAppointment.status = AppointmentStatus.Rejected;\r\n        }\r\n\r\n        if(latestAppointment.status == AppointmentStatus.Pending){\r\n            latestAppointment.status = AppointmentStatus.Rejected;\r\n        }\r\n\r\n        if(latestAppointment.status == AppointmentStatus.Confirmed){\r\n            uint refund = (latestAppointment.fee * 3) / 2;\r\n            uint fine = (latestAppointment.fee) / 2;\r\n            require(dehToken.transfer(msg.sender, refund), \"Token transfer to patient failed\");\r\n            require(dehToken.transfer(hospital, fine), \"Token transfer to patient failed\");\r\n            latestAppointment.status = AppointmentStatus.Rejected;\r\n        }\r\n    }\r\n\r\n\r\n\r\n\r\n\r\n\r\n    function provideService(address _patientAddress) public {\r\n        require(msg.sender == hospital, \"Only hospital can provide service\");\r\n        Patient storage patient = patients[_patientAddress];\r\n        \r\n        // Ensure that the patient exists and has appointments\r\n        require(patient.patientAddress != address(0), \"Patient not found\");\r\n        require(patient.appointments.length > 0, \"Patient has no appointments\");\r\n        \r\n        // Find the latest appointment of the patient\r\n        Appointment storage latestAppointment = patient.appointments[patient.appointments.length - 1];\r\n        \r\n        // Ensure that the status of the latest appointment is \"Confirmed\" before providing service\r\n        require(latestAppointment.status == AppointmentStatus.Confirmed, \"Latest appointment status must be Confirmed\");\r\n        \r\n        // Update the status of the latest appointment to \"ServiceProvided\"\r\n        latestAppointment.status = AppointmentStatus.ServiceProvided;\r\n    }\r\n\r\n\r\n    function acknowledgeService() public {\r\n        // Ensure that the message sender is the patient\r\n        require(msg.sender != hospital, \"Only patients can acknowledge service\");\r\n        Patient storage patient = patients[msg.sender];\r\n        \r\n        // Ensure that the patient exists and has appointments\r\n        require(patient.patientAddress != address(0), \"Patient not found\");\r\n        require(patient.appointments.length > 0, \"Patient has no appointments\");\r\n        \r\n        // Find the latest appointment of the patient\r\n        Appointment storage latestAppointment = patient.appointments[patient.appointments.length - 1];\r\n        \r\n        // Ensure that the status of the latest appointment is \"ServiceProvided\" before acknowledgment\r\n        require(latestAppointment.status == AppointmentStatus.ServiceProvided, \"Latest appointment status must be ServiceProvided\");\r\n        \r\n        // Update the status of the latest appointment to \"AcknowledgedService\"\r\n        latestAppointment.status = AppointmentStatus.AcknowledgedService;\r\n    }\r\n\r\n\r\n    function releaseMedicalRecord(address _patientAddress, string memory _medicalRecord) public {\r\n        // Ensure that the message sender is the hospital\r\n        require(msg.sender == hospital, \"Only hospital can release medical records\");\r\n\r\n        // Find the patient and ensure that the patient exists and has appointments\r\n        Patient storage patient = patients[_patientAddress];\r\n        uint age = patient.age;\r\n        require(patient.patientAddress != address(0), \"Patient not found\");\r\n        require(patient.appointments.length > 0, \"Patient has no appointments\");\r\n\r\n        // Find the latest appointment of the patient\r\n        Appointment storage latestAppointment = patient.appointments[patient.appointments.length - 1];\r\n\r\n        // Ensure that the status of the latest appointment is \"ServiceProvided\" before releasing the record\r\n        require(latestAppointment.status == AppointmentStatus.AcknowledgedService, \"Latest appointment status must be AcknowledgedService\");\r\n\r\n        // Calculate the half fee\r\n        uint halfFee = latestAppointment.fee;\r\n\r\n        // Transfer half of the fee to the hospital\r\n        require(dehToken.transfer(hospital, halfFee), \"Token transfer to hospital failed\");\r\n\r\n        // Update the status of the latest appointment to \"RecordReleased\"\r\n        latestAppointment.status = AppointmentStatus.RecordReleased;\r\n\r\n        // Call the storeRecord function from the MedicalRecordAccess contract to store the medical record\r\n        medicalRecordAccess.storeRecord(_patientAddress, patient.name, _medicalRecord, age, latestAppointment.appointmentDate);\r\n\r\n        // Transfer half of the fee to the patient\r\n        require(dehToken.transfer(_patientAddress, halfFee), \"Token transfer to patient failed\");\r\n    }\r\n\r\n\r\n\r\n\r\nfunction getAllAppointments() public view returns (Appointment[] memory) {\r\n    // Ensure that the message sender is the hospital\r\n    require(msg.sender == hospital, \"Only hospital can access all appointments\");\r\n\r\n    // Calculate the total number of appointments\r\n    uint totalAppointments;\r\n    for (uint i = 0; i < patientAddresses.length; i++) {\r\n        totalAppointments += patients[patientAddresses[i]].appointments.length;\r\n    }\r\n\r\n    // Create a dynamic array to store all appointments\r\n    Appointment[] memory allAppointmentsCombined = new Appointment[](totalAppointments);\r\n    uint index = 0;\r\n\r\n    // Iterate through all patient addresses and concatenate their appointments\r\n    for (uint i = 0; i < patientAddresses.length; i++) {\r\n        address patientAddress = patientAddresses[i];\r\n        Patient storage patient = patients[patientAddress];\r\n\r\n        for (uint j = 0; j < patient.appointments.length; j++) {\r\n            allAppointmentsCombined[index++] = patient.appointments[j];\r\n        }\r\n    }\r\n\r\n    return allAppointmentsCombined;\r\n}\r\n\r\n\r\n\r\n    function getPatientAppointments() public view returns (Appointment[] memory) {\r\n        return patients[msg.sender].appointments;\r\n    }\r\n\r\n    function getPatientDetails(address patientAddress) public view returns (string memory, uint) {\r\n        // Retrieve patient details using their address\r\n        Patient memory patient = patients[patientAddress];\r\n        // Return name and age of the patient\r\n        return (patient.name, patient.age);\r\n    }\r\n}\r\n",
  "sourcePath": "C:\\Users\\jeffr\\Documents\\GitHub\\Healthcare-Blockchain-Project\\blockchain\\contracts\\MedicalAppointment.sol",
  "compiler": {
    "name": "solc",
    "version": "0.8.13+commit.abaa5c0e.Emscripten.clang"
  },
  "schemaVersion": "3.4.16",
  "updatedAt": "2024-04-08T20:59:06.818Z",
  "networkType": "ethereum",
  "devdoc": {
    "kind": "dev",
    "methods": {},
    "version": 1
  },
  "userdoc": {
    "kind": "user",
    "methods": {},
    "version": 1
  }
}