{
  "contractName": "MedicalAppointment",
  "abi": [
    {
      "inputs": [
        {
          "internalType": "address",
          "name": "_hospital",
          "type": "address"
        },
        {
          "internalType": "address",
          "name": "_dehTokenAddress",
          "type": "address"
        },
        {
          "internalType": "address",
          "name": "_medicalRecordAccess",
          "type": "address"
        }
      ],
      "stateMutability": "nonpayable",
      "type": "constructor"
    },
    {
      "inputs": [
        {
          "internalType": "address",
          "name": "",
          "type": "address"
        },
        {
          "internalType": "uint256",
          "name": "",
          "type": "uint256"
        }
      ],
      "name": "allAppointments",
      "outputs": [
        {
          "internalType": "uint256",
          "name": "bookingId",
          "type": "uint256"
        },
        {
          "internalType": "uint256",
          "name": "fee",
          "type": "uint256"
        },
        {
          "internalType": "string",
          "name": "appointmentDate",
          "type": "string"
        },
        {
          "internalType": "string",
          "name": "appointmentSlot",
          "type": "string"
        },
        {
          "internalType": "enum MedicalAppointment.AppointmentStatus",
          "name": "status",
          "type": "uint8"
        }
      ],
      "stateMutability": "view",
      "type": "function"
    },
    {
      "inputs": [],
      "name": "dehToken",
      "outputs": [
        {
          "internalType": "contract DEHToken",
          "name": "",
          "type": "address"
        }
      ],
      "stateMutability": "view",
      "type": "function"
    },
    {
      "inputs": [],
      "name": "hospital",
      "outputs": [
        {
          "internalType": "address",
          "name": "",
          "type": "address"
        }
      ],
      "stateMutability": "view",
      "type": "function"
    },
    {
      "inputs": [],
      "name": "medicalRecordAccess",
      "outputs": [
        {
          "internalType": "contract MedicalRecordAccess",
          "name": "",
          "type": "address"
        }
      ],
      "stateMutability": "view",
      "type": "function"
    },
    {
      "inputs": [
        {
          "internalType": "uint256",
          "name": "",
          "type": "uint256"
        }
      ],
      "name": "patientAddresses",
      "outputs": [
        {
          "internalType": "address",
          "name": "",
          "type": "address"
        }
      ],
      "stateMutability": "view",
      "type": "function"
    },
    {
      "inputs": [
        {
          "internalType": "address",
          "name": "",
          "type": "address"
        }
      ],
      "name": "patients",
      "outputs": [
        {
          "internalType": "address",
          "name": "patientAddress",
          "type": "address"
        },
        {
          "internalType": "string",
          "name": "name",
          "type": "string"
        }
      ],
      "stateMutability": "view",
      "type": "function"
    },
    {
      "inputs": [
        {
          "internalType": "uint256",
          "name": "_fee",
          "type": "uint256"
        },
        {
          "internalType": "string",
          "name": "_appointmentDate",
          "type": "string"
        },
        {
          "internalType": "string",
          "name": "_appointmentSlot",
          "type": "string"
        },
        {
          "internalType": "string",
          "name": "_name",
          "type": "string"
        }
      ],
      "name": "requestAppointment",
      "outputs": [],
      "stateMutability": "nonpayable",
      "type": "function"
    },
    {
      "inputs": [],
      "name": "payAppointmentFee",
      "outputs": [],
      "stateMutability": "nonpayable",
      "type": "function"
    },
    {
      "inputs": [
        {
          "internalType": "address",
          "name": "_patientAddress",
          "type": "address"
        }
      ],
      "name": "confirmAppointment",
      "outputs": [],
      "stateMutability": "nonpayable",
      "type": "function"
    },
    {
      "inputs": [
        {
          "internalType": "address",
          "name": "_patientAddress",
          "type": "address"
        }
      ],
      "name": "provideService",
      "outputs": [],
      "stateMutability": "nonpayable",
      "type": "function"
    },
    {
      "inputs": [],
      "name": "acknowledgeService",
      "outputs": [],
      "stateMutability": "nonpayable",
      "type": "function"
    },
    {
      "inputs": [
        {
          "internalType": "address",
          "name": "_patientAddress",
          "type": "address"
        },
        {
          "internalType": "string",
          "name": "_medicalRecord",
          "type": "string"
        }
      ],
      "name": "releaseMedicalRecord",
      "outputs": [],
      "stateMutability": "nonpayable",
      "type": "function"
    },
    {
      "inputs": [],
      "name": "getAllAppointments",
      "outputs": [
        {
          "components": [
            {
              "internalType": "uint256",
              "name": "bookingId",
              "type": "uint256"
            },
            {
              "internalType": "uint256",
              "name": "fee",
              "type": "uint256"
            },
            {
              "internalType": "string",
              "name": "appointmentDate",
              "type": "string"
            },
            {
              "internalType": "string",
              "name": "appointmentSlot",
              "type": "string"
            },
            {
              "internalType": "enum MedicalAppointment.AppointmentStatus",
              "name": "status",
              "type": "uint8"
            }
          ],
          "internalType": "struct MedicalAppointment.Appointment[]",
          "name": "",
          "type": "tuple[]"
        }
      ],
      "stateMutability": "view",
      "type": "function"
    },
    {
      "inputs": [
        {
          "internalType": "address",
          "name": "_patientAddress",
          "type": "address"
        }
      ],
      "name": "getPatientAppointments",
      "outputs": [
        {
          "components": [
            {
              "internalType": "uint256",
              "name": "bookingId",
              "type": "uint256"
            },
            {
              "internalType": "uint256",
              "name": "fee",
              "type": "uint256"
            },
            {
              "internalType": "string",
              "name": "appointmentDate",
              "type": "string"
            },
            {
              "internalType": "string",
              "name": "appointmentSlot",
              "type": "string"
            },
            {
              "internalType": "enum MedicalAppointment.AppointmentStatus",
              "name": "status",
              "type": "uint8"
            }
          ],
          "internalType": "struct MedicalAppointment.Appointment[]",
          "name": "",
          "type": "tuple[]"
        }
      ],
      "stateMutability": "view",
      "type": "function"
    }
  ],
  "bytecode": "0x6080604052600180553480156200001557600080fd5b50604051620038603803806200386083398181016040528101906200003b919062000170565b826000806101000a81548173ffffffffffffffffffffffffffffffffffffffff021916908373ffffffffffffffffffffffffffffffffffffffff16021790555081600560006101000a81548173ffffffffffffffffffffffffffffffffffffffff021916908373ffffffffffffffffffffffffffffffffffffffff16021790555080600660006101000a81548173ffffffffffffffffffffffffffffffffffffffff021916908373ffffffffffffffffffffffffffffffffffffffff160217905550505050620001cc565b600080fd5b600073ffffffffffffffffffffffffffffffffffffffff82169050919050565b600062000138826200010b565b9050919050565b6200014a816200012b565b81146200015657600080fd5b50565b6000815190506200016a816200013f565b92915050565b6000806000606084860312156200018c576200018b62000106565b5b60006200019c8682870162000159565b9350506020620001af8682870162000159565b9250506040620001c28682870162000159565b9150509250925092565b61368480620001dc6000396000f3fe608060405234801561001057600080fd5b50600436106100ea5760003560e01c80639d5dbc041161008c578063b40f169111610066578063b40f16911461023c578063d65a54831461026c578063e6a07e241461028a578063f246c13d146102a6576100ea565b80639d5dbc04146101e6578063a6c6e9e214610202578063aa2fedde1461021e576100ea565b80636408b4a5116100c85780636408b4a5146101465780637933570c146101645780638e366c74146101825780639636c70f146101b2576100ea565b80630869cfbc146100ef5780630df7d4b814610120578063406cf6911461012a575b600080fd5b61010960048036038101906101049190612242565b6102b0565b604051610117929190612317565b60405180910390f35b61012861037c565b005b610144600480360381019061013f91906124b2565b6105e4565b005b61014e610a25565b60405161015b91906125cc565b60405180910390f35b61016c610a4b565b60405161017991906127f6565b60405180910390f35b61019c60048036038101906101979190612242565b610e95565b6040516101a991906127f6565b60405180910390f35b6101cc60048036038101906101c79190612818565b6110a9565b6040516101dd959493929190612876565b60405180910390f35b61020060048036038101906101fb9190612242565b611219565b005b61021c600480360381019061021791906128d7565b6114ac565b005b6102266119c8565b6040516102339190612933565b60405180910390f35b6102566004803603810190610251919061294e565b6119ec565b6040516102639190612933565b60405180910390f35b610274611a2b565b604051610281919061299c565b60405180910390f35b6102a4600480360381019061029f9190612242565b611a51565b005b6102ae611ce4565b005b60026020528060005260406000206000915090508060000160009054906101000a900473ffffffffffffffffffffffffffffffffffffffff16908060010180546102f9906129e6565b80601f0160208091040260200160405190810160405280929190818152602001828054610325906129e6565b80156103725780601f1061034757610100808354040283529160200191610372565b820191906000526020600020905b81548152906001019060200180831161035557829003601f168201915b5050505050905082565b6000600260003373ffffffffffffffffffffffffffffffffffffffff1673ffffffffffffffffffffffffffffffffffffffff16815260200190815260200160002090506000816002018054905011610409576040517f08c379a000000000000000000000000000000000000000000000000000000000815260040161040090612a63565b60405180910390fd5b600081600201600183600201805490506104239190612ab2565b8154811061043457610433612ae6565b5b90600052602060002090600502019050600060058111156104585761045761266c565b5b8160040160009054906101000a900460ff16600581111561047c5761047b61266c565b5b146104bc576040517f08c379a00000000000000000000000000000000000000000000000000000000081526004016104b390612b87565b60405180910390fd5b6000600282600101546104cf9190612ba7565b9050600560009054906101000a900473ffffffffffffffffffffffffffffffffffffffff1673ffffffffffffffffffffffffffffffffffffffff166323b872dd3330846040518463ffffffff1660e01b815260040161053093929190612c01565b6020604051808303816000875af115801561054f573d6000803e3d6000fd5b505050506040513d601f19601f820116820180604052508101906105739190612c70565b6105b2576040517f08c379a00000000000000000000000000000000000000000000000000000000081526004016105a990612d0f565b60405180910390fd5b60018260040160006101000a81548160ff021916908360058111156105da576105d961266c565b5b0217905550505050565b6105ed33611f76565b61062c576040517f08c379a000000000000000000000000000000000000000000000000000000000815260040161062390612da1565b60405180910390fd5b600073ffffffffffffffffffffffffffffffffffffffff16600260003373ffffffffffffffffffffffffffffffffffffffff1673ffffffffffffffffffffffffffffffffffffffff16815260200190815260200160002060000160009054906101000a900473ffffffffffffffffffffffffffffffffffffffff1673ffffffffffffffffffffffffffffffffffffffff16036107fe5733600260003373ffffffffffffffffffffffffffffffffffffffff1673ffffffffffffffffffffffffffffffffffffffff16815260200190815260200160002060000160006101000a81548173ffffffffffffffffffffffffffffffffffffffff021916908373ffffffffffffffffffffffffffffffffffffffff16021790555080600260003373ffffffffffffffffffffffffffffffffffffffff1673ffffffffffffffffffffffffffffffffffffffff16815260200190815260200160002060010190805190602001906107999291906120ec565b506003339080600181540180825580915050600190039060005260206000200160009091909190916101000a81548173ffffffffffffffffffffffffffffffffffffffff021916908373ffffffffffffffffffffffffffffffffffffffff1602179055505b60006108086120c5565b905060006040518060a00160405280838152602001878152602001868152602001858152602001600060058111156108435761084261266c565b5b8152509050600260003373ffffffffffffffffffffffffffffffffffffffff1673ffffffffffffffffffffffffffffffffffffffff168152602001908152602001600020600201819080600181540180825580915050600190039060005260206000209060050201600090919091909150600082015181600001556020820151816001015560408201518160020190805190602001906108e49291906120ec565b5060608201518160030190805190602001906109019291906120ec565b5060808201518160040160006101000a81548160ff0219169083600581111561092d5761092c61266c565b5b02179055505050600460003373ffffffffffffffffffffffffffffffffffffffff1673ffffffffffffffffffffffffffffffffffffffff168152602001908152602001600020819080600181540180825580915050600190039060005260206000209060050201600090919091909150600082015181600001556020820151816001015560408201518160020190805190602001906109cd9291906120ec565b5060608201518160030190805190602001906109ea9291906120ec565b5060808201518160040160006101000a81548160ff02191690836005811115610a1657610a1561266c565b5b02179055505050505050505050565b600560009054906101000a900473ffffffffffffffffffffffffffffffffffffffff1681565b606060008054906101000a900473ffffffffffffffffffffffffffffffffffffffff1673ffffffffffffffffffffffffffffffffffffffff163373ffffffffffffffffffffffffffffffffffffffff1614610adb576040517f08c379a0000000000000000000000000000000000000000000000000000000008152600401610ad290612e33565b60405180910390fd5b600080600090505b600380549050811015610b94576002600060038381548110610b0857610b07612ae6565b5b9060005260206000200160009054906101000a900473ffffffffffffffffffffffffffffffffffffffff1673ffffffffffffffffffffffffffffffffffffffff1673ffffffffffffffffffffffffffffffffffffffff1681526020019081526020016000206002018054905082610b7f9190612e53565b91508080610b8c90612ea9565b915050610ae3565b5060008167ffffffffffffffff811115610bb157610bb0612387565b5b604051908082528060200260200182016040528015610bea57816020015b610bd7612172565b815260200190600190039081610bcf5790505b5090506000805b600380549050811015610e8b57600060038281548110610c1457610c13612ae6565b5b9060005260206000200160009054906101000a900473ffffffffffffffffffffffffffffffffffffffff1690506000600260008373ffffffffffffffffffffffffffffffffffffffff1673ffffffffffffffffffffffffffffffffffffffff168152602001908152602001600020905060005b8160020180549050811015610e7557816002018181548110610cac57610cab612ae6565b5b90600052602060002090600502016040518060a00160405290816000820154815260200160018201548152602001600282018054610ce9906129e6565b80601f0160208091040260200160405190810160405280929190818152602001828054610d15906129e6565b8015610d625780601f10610d3757610100808354040283529160200191610d62565b820191906000526020600020905b815481529060010190602001808311610d4557829003601f168201915b50505050508152602001600382018054610d7b906129e6565b80601f0160208091040260200160405190810160405280929190818152602001828054610da7906129e6565b8015610df45780601f10610dc957610100808354040283529160200191610df4565b820191906000526020600020905b815481529060010190602001808311610dd757829003601f168201915b505050505081526020016004820160009054906101000a900460ff166005811115610e2257610e2161266c565b5b6005811115610e3457610e3361266c565b5b81525050868680610e4490612ea9565b975081518110610e5757610e56612ae6565b5b60200260200101819052508080610e6d90612ea9565b915050610c87565b5050508080610e8390612ea9565b915050610bf1565b5081935050505090565b6060600260008373ffffffffffffffffffffffffffffffffffffffff1673ffffffffffffffffffffffffffffffffffffffff168152602001908152602001600020600201805480602002602001604051908101604052809291908181526020016000905b8282101561109e57838290600052602060002090600502016040518060a00160405290816000820154815260200160018201548152602001600282018054610f40906129e6565b80601f0160208091040260200160405190810160405280929190818152602001828054610f6c906129e6565b8015610fb95780601f10610f8e57610100808354040283529160200191610fb9565b820191906000526020600020905b815481529060010190602001808311610f9c57829003601f168201915b50505050508152602001600382018054610fd2906129e6565b80601f0160208091040260200160405190810160405280929190818152602001828054610ffe906129e6565b801561104b5780601f106110205761010080835404028352916020019161104b565b820191906000526020600020905b81548152906001019060200180831161102e57829003601f168201915b505050505081526020016004820160009054906101000a900460ff1660058111156110795761107861266c565b5b600581111561108b5761108a61266c565b5b8152505081526020019060010190610ef9565b505050509050919050565b600460205281600052604060002081815481106110c557600080fd5b9060005260206000209060050201600091509150508060000154908060010154908060020180546110f5906129e6565b80601f0160208091040260200160405190810160405280929190818152602001828054611121906129e6565b801561116e5780601f106111435761010080835404028352916020019161116e565b820191906000526020600020905b81548152906001019060200180831161115157829003601f168201915b505050505090806003018054611183906129e6565b80601f01602080910402602001604051908101604052809291908181526020018280546111af906129e6565b80156111fc5780601f106111d1576101008083540402835291602001916111fc565b820191906000526020600020905b8154815290600101906020018083116111df57829003601f168201915b5050505050908060040160009054906101000a900460ff16905085565b60008054906101000a900473ffffffffffffffffffffffffffffffffffffffff1673ffffffffffffffffffffffffffffffffffffffff163373ffffffffffffffffffffffffffffffffffffffff16146112a7576040517f08c379a000000000000000000000000000000000000000000000000000000000815260040161129e90612f63565b60405180910390fd5b6000600260008373ffffffffffffffffffffffffffffffffffffffff1673ffffffffffffffffffffffffffffffffffffffff1681526020019081526020016000209050600073ffffffffffffffffffffffffffffffffffffffff168160000160009054906101000a900473ffffffffffffffffffffffffffffffffffffffff1673ffffffffffffffffffffffffffffffffffffffff160361137d576040517f08c379a000000000000000000000000000000000000000000000000000000000815260040161137490612fcf565b60405180910390fd5b60008160020180549050116113c7576040517f08c379a00000000000000000000000000000000000000000000000000000000081526004016113be90612a63565b60405180910390fd5b600081600201600183600201805490506113e19190612ab2565b815481106113f2576113f1612ae6565b5b90600052602060002090600502019050600260058111156114165761141561266c565b5b8160040160009054906101000a900460ff16600581111561143a5761143961266c565b5b1461147a576040517f08c379a000000000000000000000000000000000000000000000000000000000815260040161147190613061565b60405180910390fd5b60038160040160006101000a81548160ff021916908360058111156114a2576114a161266c565b5b0217905550505050565b60008054906101000a900473ffffffffffffffffffffffffffffffffffffffff1673ffffffffffffffffffffffffffffffffffffffff163373ffffffffffffffffffffffffffffffffffffffff161461153a576040517f08c379a0000000000000000000000000000000000000000000000000000000008152600401611531906130f3565b60405180910390fd5b6000600260008473ffffffffffffffffffffffffffffffffffffffff1673ffffffffffffffffffffffffffffffffffffffff1681526020019081526020016000209050600073ffffffffffffffffffffffffffffffffffffffff168160000160009054906101000a900473ffffffffffffffffffffffffffffffffffffffff1673ffffffffffffffffffffffffffffffffffffffff1603611610576040517f08c379a000000000000000000000000000000000000000000000000000000000815260040161160790612fcf565b60405180910390fd5b600081600201805490501161165a576040517f08c379a000000000000000000000000000000000000000000000000000000000815260040161165190612a63565b60405180910390fd5b600081600201600183600201805490506116749190612ab2565b8154811061168557611684612ae6565b5b90600052602060002090600502019050600460058111156116a9576116a861266c565b5b8160040160009054906101000a900460ff1660058111156116cd576116cc61266c565b5b1461170d576040517f08c379a000000000000000000000000000000000000000000000000000000000815260040161170490613185565b60405180910390fd5b60006002826001015461172091906131d4565b9050600560009054906101000a900473ffffffffffffffffffffffffffffffffffffffff1673ffffffffffffffffffffffffffffffffffffffff1663a9059cbb60008054906101000a900473ffffffffffffffffffffffffffffffffffffffff16836040518363ffffffff1660e01b815260040161179f929190613205565b6020604051808303816000875af11580156117be573d6000803e3d6000fd5b505050506040513d601f19601f820116820180604052508101906117e29190612c70565b611821576040517f08c379a0000000000000000000000000000000000000000000000000000000008152600401611818906132a0565b60405180910390fd5b60058260040160006101000a81548160ff021916908360058111156118495761184861266c565b5b0217905550600660009054906101000a900473ffffffffffffffffffffffffffffffffffffffff1673ffffffffffffffffffffffffffffffffffffffff1663f7ca0af08685600101876040518463ffffffff1660e01b81526004016118b093929190613355565b600060405180830381600087803b1580156118ca57600080fd5b505af11580156118de573d6000803e3d6000fd5b50505050600560009054906101000a900473ffffffffffffffffffffffffffffffffffffffff1673ffffffffffffffffffffffffffffffffffffffff1663a9059cbb86836040518363ffffffff1660e01b815260040161193f929190613205565b6020604051808303816000875af115801561195e573d6000803e3d6000fd5b505050506040513d601f19601f820116820180604052508101906119829190612c70565b6119c1576040517f08c379a00000000000000000000000000000000000000000000000000000000081526004016119b8906133e6565b60405180910390fd5b5050505050565b60008054906101000a900473ffffffffffffffffffffffffffffffffffffffff1681565b600381815481106119fc57600080fd5b906000526020600020016000915054906101000a900473ffffffffffffffffffffffffffffffffffffffff1681565b600660009054906101000a900473ffffffffffffffffffffffffffffffffffffffff1681565b60008054906101000a900473ffffffffffffffffffffffffffffffffffffffff1673ffffffffffffffffffffffffffffffffffffffff163373ffffffffffffffffffffffffffffffffffffffff1614611adf576040517f08c379a0000000000000000000000000000000000000000000000000000000008152600401611ad690613478565b60405180910390fd5b6000600260008373ffffffffffffffffffffffffffffffffffffffff1673ffffffffffffffffffffffffffffffffffffffff1681526020019081526020016000209050600073ffffffffffffffffffffffffffffffffffffffff168160000160009054906101000a900473ffffffffffffffffffffffffffffffffffffffff1673ffffffffffffffffffffffffffffffffffffffff1603611bb5576040517f08c379a0000000000000000000000000000000000000000000000000000000008152600401611bac90612fcf565b60405180910390fd5b6000816002018054905011611bff576040517f08c379a0000000000000000000000000000000000000000000000000000000008152600401611bf690612a63565b60405180910390fd5b60008160020160018360020180549050611c199190612ab2565b81548110611c2a57611c29612ae6565b5b9060005260206000209060050201905060016005811115611c4e57611c4d61266c565b5b8160040160009054906101000a900460ff166005811115611c7257611c7161266c565b5b14611cb2576040517f08c379a0000000000000000000000000000000000000000000000000000000008152600401611ca99061350a565b60405180910390fd5b60028160040160006101000a81548160ff02191690836005811115611cda57611cd961266c565b5b0217905550505050565b60008054906101000a900473ffffffffffffffffffffffffffffffffffffffff1673ffffffffffffffffffffffffffffffffffffffff163373ffffffffffffffffffffffffffffffffffffffff1603611d72576040517f08c379a0000000000000000000000000000000000000000000000000000000008152600401611d699061359c565b60405180910390fd5b6000600260003373ffffffffffffffffffffffffffffffffffffffff1673ffffffffffffffffffffffffffffffffffffffff1681526020019081526020016000209050600073ffffffffffffffffffffffffffffffffffffffff168160000160009054906101000a900473ffffffffffffffffffffffffffffffffffffffff1673ffffffffffffffffffffffffffffffffffffffff1603611e48576040517f08c379a0000000000000000000000000000000000000000000000000000000008152600401611e3f90612fcf565b60405180910390fd5b6000816002018054905011611e92576040517f08c379a0000000000000000000000000000000000000000000000000000000008152600401611e8990612a63565b60405180910390fd5b60008160020160018360020180549050611eac9190612ab2565b81548110611ebd57611ebc612ae6565b5b9060005260206000209060050201905060036005811115611ee157611ee061266c565b5b8160040160009054906101000a900460ff166005811115611f0557611f0461266c565b5b14611f45576040517f08c379a0000000000000000000000000000000000000000000000000000000008152600401611f3c9061362e565b60405180910390fd5b60048160040160006101000a81548160ff02191690836005811115611f6d57611f6c61266c565b5b02179055505050565b600080600260008473ffffffffffffffffffffffffffffffffffffffff1673ffffffffffffffffffffffffffffffffffffffff1681526020019081526020016000206002018054905003611fcd57600190506120c0565b6000600260008473ffffffffffffffffffffffffffffffffffffffff1673ffffffffffffffffffffffffffffffffffffffff1681526020019081526020016000206002016001600260008673ffffffffffffffffffffffffffffffffffffffff1673ffffffffffffffffffffffffffffffffffffffff168152602001908152602001600020600201805490506120639190612ab2565b8154811061207457612073612ae6565b5b906000526020600020906005020190506005808111156120975761209661266c565b5b8160040160009054906101000a900460ff1660058111156120bb576120ba61266c565b5b149150505b919050565b6000806001549050600160008154809291906120e090612ea9565b91905055508091505090565b8280546120f8906129e6565b90600052602060002090601f01602090048101928261211a5760008555612161565b82601f1061213357805160ff1916838001178555612161565b82800160010185558215612161579182015b82811115612160578251825591602001919060010190612145565b5b50905061216e91906121b3565b5090565b6040518060a0016040528060008152602001600081526020016060815260200160608152602001600060058111156121ad576121ac61266c565b5b81525090565b5b808211156121cc5760008160009055506001016121b4565b5090565b6000604051905090565b600080fd5b600080fd5b600073ffffffffffffffffffffffffffffffffffffffff82169050919050565b600061220f826121e4565b9050919050565b61221f81612204565b811461222a57600080fd5b50565b60008135905061223c81612216565b92915050565b600060208284031215612258576122576121da565b5b60006122668482850161222d565b91505092915050565b61227881612204565b82525050565b600081519050919050565b600082825260208201905092915050565b60005b838110156122b857808201518184015260208101905061229d565b838111156122c7576000848401525b50505050565b6000601f19601f8301169050919050565b60006122e98261227e565b6122f38185612289565b935061230381856020860161229a565b61230c816122cd565b840191505092915050565b600060408201905061232c600083018561226f565b818103602083015261233e81846122de565b90509392505050565b6000819050919050565b61235a81612347565b811461236557600080fd5b50565b60008135905061237781612351565b92915050565b600080fd5b600080fd5b7f4e487b7100000000000000000000000000000000000000000000000000000000600052604160045260246000fd5b6123bf826122cd565b810181811067ffffffffffffffff821117156123de576123dd612387565b5b80604052505050565b60006123f16121d0565b90506123fd82826123b6565b919050565b600067ffffffffffffffff82111561241d5761241c612387565b5b612426826122cd565b9050602081019050919050565b82818337600083830152505050565b600061245561245084612402565b6123e7565b90508281526020810184848401111561247157612470612382565b5b61247c848285612433565b509392505050565b600082601f8301126124995761249861237d565b5b81356124a9848260208601612442565b91505092915050565b600080600080608085870312156124cc576124cb6121da565b5b60006124da87828801612368565b945050602085013567ffffffffffffffff8111156124fb576124fa6121df565b5b61250787828801612484565b935050604085013567ffffffffffffffff811115612528576125276121df565b5b61253487828801612484565b925050606085013567ffffffffffffffff811115612555576125546121df565b5b61256187828801612484565b91505092959194509250565b6000819050919050565b600061259261258d612588846121e4565b61256d565b6121e4565b9050919050565b60006125a482612577565b9050919050565b60006125b682612599565b9050919050565b6125c6816125ab565b82525050565b60006020820190506125e160008301846125bd565b92915050565b600081519050919050565b600082825260208201905092915050565b6000819050602082019050919050565b61261c81612347565b82525050565b600082825260208201905092915050565b600061263e8261227e565b6126488185612622565b935061265881856020860161229a565b612661816122cd565b840191505092915050565b7f4e487b7100000000000000000000000000000000000000000000000000000000600052602160045260246000fd5b600681106126ac576126ab61266c565b5b50565b60008190506126bd8261269b565b919050565b60006126cd826126af565b9050919050565b6126dd816126c2565b82525050565b600060a0830160008301516126fb6000860182612613565b50602083015161270e6020860182612613565b50604083015184820360408601526127268282612633565b915050606083015184820360608601526127408282612633565b915050608083015161275560808601826126d4565b508091505092915050565b600061276c83836126e3565b905092915050565b6000602082019050919050565b600061278c826125e7565b61279681856125f2565b9350836020820285016127a885612603565b8060005b858110156127e457848403895281516127c58582612760565b94506127d083612774565b925060208a019950506001810190506127ac565b50829750879550505050505092915050565b600060208201905081810360008301526128108184612781565b905092915050565b6000806040838503121561282f5761282e6121da565b5b600061283d8582860161222d565b925050602061284e85828601612368565b9150509250929050565b61286181612347565b82525050565b612870816126c2565b82525050565b600060a08201905061288b6000830188612858565b6128986020830187612858565b81810360408301526128aa81866122de565b905081810360608301526128be81856122de565b90506128cd6080830184612867565b9695505050505050565b600080604083850312156128ee576128ed6121da565b5b60006128fc8582860161222d565b925050602083013567ffffffffffffffff81111561291d5761291c6121df565b5b61292985828601612484565b9150509250929050565b6000602082019050612948600083018461226f565b92915050565b600060208284031215612964576129636121da565b5b600061297284828501612368565b91505092915050565b600061298682612599565b9050919050565b6129968161297b565b82525050565b60006020820190506129b1600083018461298d565b92915050565b7f4e487b7100000000000000000000000000000000000000000000000000000000600052602260045260246000fd5b600060028204905060018216806129fe57607f821691505b602082108103612a1157612a106129b7565b5b50919050565b7f50617469656e7420686173206e6f206170706f696e746d656e74730000000000600082015250565b6000612a4d601b83612289565b9150612a5882612a17565b602082019050919050565b60006020820190508181036000830152612a7c81612a40565b9050919050565b7f4e487b7100000000000000000000000000000000000000000000000000000000600052601160045260246000fd5b6000612abd82612347565b9150612ac883612347565b925082821015612adb57612ada612a83565b5b828203905092915050565b7f4e487b7100000000000000000000000000000000000000000000000000000000600052603260045260246000fd5b7f4c6174657374206170706f696e746d656e7420737461747573206d757374206260008201527f652050656e64696e670000000000000000000000000000000000000000000000602082015250565b6000612b71602983612289565b9150612b7c82612b15565b604082019050919050565b60006020820190508181036000830152612ba081612b64565b9050919050565b6000612bb282612347565b9150612bbd83612347565b9250817fffffffffffffffffffffffffffffffffffffffffffffffffffffffffffffffff0483118215151615612bf657612bf5612a83565b5b828202905092915050565b6000606082019050612c16600083018661226f565b612c23602083018561226f565b612c306040830184612858565b949350505050565b60008115159050919050565b612c4d81612c38565b8114612c5857600080fd5b50565b600081519050612c6a81612c44565b92915050565b600060208284031215612c8657612c856121da565b5b6000612c9484828501612c5b565b91505092915050565b7f496e73756666696369656e7420616c6c6f77616e6365206f722062616c616e6360008201527f6500000000000000000000000000000000000000000000000000000000000000602082015250565b6000612cf9602183612289565b9150612d0482612c9d565b604082019050919050565b60006020820190508181036000830152612d2881612cec565b9050919050565b7f4c617374206170706f696e746d656e74277320737461747573206d757374206260008201527f6520636f6d706c65746564000000000000000000000000000000000000000000602082015250565b6000612d8b602b83612289565b9150612d9682612d2f565b604082019050919050565b60006020820190508181036000830152612dba81612d7e565b9050919050565b7f4f6e6c7920686f73706974616c2063616e2061636365737320616c6c2061707060008201527f6f696e746d656e74730000000000000000000000000000000000000000000000602082015250565b6000612e1d602983612289565b9150612e2882612dc1565b604082019050919050565b60006020820190508181036000830152612e4c81612e10565b9050919050565b6000612e5e82612347565b9150612e6983612347565b9250827fffffffffffffffffffffffffffffffffffffffffffffffffffffffffffffffff03821115612e9e57612e9d612a83565b5b828201905092915050565b6000612eb482612347565b91507fffffffffffffffffffffffffffffffffffffffffffffffffffffffffffffffff8203612ee657612ee5612a83565b5b600182019050919050565b7f4f6e6c7920686f73706974616c2063616e2070726f766964652073657276696360008201527f6500000000000000000000000000000000000000000000000000000000000000602082015250565b6000612f4d602183612289565b9150612f5882612ef1565b604082019050919050565b60006020820190508181036000830152612f7c81612f40565b9050919050565b7f50617469656e74206e6f7420666f756e64000000000000000000000000000000600082015250565b6000612fb9601183612289565b9150612fc482612f83565b602082019050919050565b60006020820190508181036000830152612fe881612fac565b9050919050565b7f4c6174657374206170706f696e746d656e7420737461747573206d757374206260008201527f6520436f6e6669726d6564000000000000000000000000000000000000000000602082015250565b600061304b602b83612289565b915061305682612fef565b604082019050919050565b6000602082019050818103600083015261307a8161303e565b9050919050565b7f4f6e6c7920686f73706974616c2063616e2072656c65617365206d656469636160008201527f6c207265636f7264730000000000000000000000000000000000000000000000602082015250565b60006130dd602983612289565b91506130e882613081565b604082019050919050565b6000602082019050818103600083015261310c816130d0565b9050919050565b7f4c6174657374206170706f696e746d656e7420737461747573206d757374206260008201527f652041636b6e6f776c6564676564536572766963650000000000000000000000602082015250565b600061316f603583612289565b915061317a82613113565b604082019050919050565b6000602082019050818103600083015261319e81613162565b9050919050565b7f4e487b7100000000000000000000000000000000000000000000000000000000600052601260045260246000fd5b60006131df82612347565b91506131ea83612347565b9250826131fa576131f96131a5565b5b828204905092915050565b600060408201905061321a600083018561226f565b6132276020830184612858565b9392505050565b7f546f6b656e207472616e7366657220746f20686f73706974616c206661696c6560008201527f6400000000000000000000000000000000000000000000000000000000000000602082015250565b600061328a602183612289565b91506132958261322e565b604082019050919050565b600060208201905081810360008301526132b98161327d565b9050919050565b60008190508160005260206000209050919050565b600081546132e2816129e6565b6132ec8186612289565b9450600182166000811461330757600181146133195761334c565b60ff198316865260208601935061334c565b613322856132c0565b60005b8381101561334457815481890152600182019150602081019050613325565b808801955050505b50505092915050565b600060608201905061336a600083018661226f565b818103602083015261337c81856132d5565b9050818103604083015261339081846122de565b9050949350505050565b7f546f6b656e207472616e7366657220746f2070617469656e74206661696c6564600082015250565b60006133d0602083612289565b91506133db8261339a565b602082019050919050565b600060208201905081810360008301526133ff816133c3565b9050919050565b7f4f6e6c7920686f73706974616c2063616e20636f6e6669726d206170706f696e60008201527f746d656e74730000000000000000000000000000000000000000000000000000602082015250565b6000613462602683612289565b915061346d82613406565b604082019050919050565b6000602082019050818103600083015261349181613455565b9050919050565b7f4c6174657374206170706f696e746d656e7420737461747573206d757374206260008201527f6520506169640000000000000000000000000000000000000000000000000000602082015250565b60006134f4602683612289565b91506134ff82613498565b604082019050919050565b60006020820190508181036000830152613523816134e7565b9050919050565b7f4f6e6c792070617469656e74732063616e2061636b6e6f776c6564676520736560008201527f7276696365000000000000000000000000000000000000000000000000000000602082015250565b6000613586602583612289565b91506135918261352a565b604082019050919050565b600060208201905081810360008301526135b581613579565b9050919050565b7f4c6174657374206170706f696e746d656e7420737461747573206d757374206260008201527f65205365727669636550726f7669646564000000000000000000000000000000602082015250565b6000613618603183612289565b9150613623826135bc565b604082019050919050565b600060208201905081810360008301526136478161360b565b905091905056fea264697066735822122048d69b0f1942d97a96d460a8113eaf9d2c8c0934554a37b160c0971358b1e44c64736f6c634300080d0033",
  "immutableReferences": {},
  "source": "// SPDX-License-Identifier: GPL-3.0\r\npragma solidity >=0.5.10;\r\n\r\nimport \"@openzeppelin/contracts/token/ERC20/IERC20.sol\";\r\nimport \"./MedicalRecordAccess.sol\"; // Import the other smart contract\r\nimport \"./DEHToken.sol\";\r\n\r\ncontract MedicalAppointment {\r\n       enum AppointmentStatus { Pending, Paid, Confirmed, ServiceProvided, AcknowledgedService, RecordReleased }\r\n\r\n    struct Appointment {\r\n        uint bookingId;\r\n        uint fee;\r\n        string appointmentDate;\r\n        string appointmentSlot;\r\n        AppointmentStatus status;\r\n    }\r\n\r\n    struct Patient {\r\n        address patientAddress;\r\n        string name;\r\n        Appointment[] appointments;\r\n    }\r\n\r\n    address public hospital;\r\n    uint private nextBookingId = 1; // Counter for generating unique booking IDs\r\n    mapping(address => Patient) public patients;\r\n    address[] public patientAddresses; // Array to store patient addresses\r\n    mapping(address => Appointment[]) public allAppointments;\r\n    DEHToken public dehToken;\r\n    MedicalRecordAccess public medicalRecordAccess; // Instance of the other smart contract\r\n    constructor(address _hospital, address _dehTokenAddress, address _medicalRecordAccess) {\r\n        hospital = _hospital;\r\n        dehToken =  DEHToken(_dehTokenAddress);\r\n        medicalRecordAccess = MedicalRecordAccess(_medicalRecordAccess); // Initialize the instance\r\n    }\r\n\r\n    // Function to add patient address to the patientAddresses array\r\n    function addPatientAddress(address _patientAddress) private {\r\n        // Check if the patient address is not already added\r\n        bool exists = false;\r\n        for (uint i = 0; i < patientAddresses.length; i++) {\r\n            if (patientAddresses[i] == _patientAddress) {\r\n                exists = true;\r\n                break;\r\n            }\r\n        }\r\n        // If patient address does not exist, add it\r\n        if (!exists) {\r\n            patientAddresses.push(_patientAddress);\r\n        }\r\n    }\r\n\r\n    function requestAppointment(uint _fee, string memory _appointmentDate, string memory _appointmentSlot, string memory _name) public {\r\n        // Check if the patient has previous appointments\r\n        require(hasLastAppointmentRecordReleased(msg.sender), \"Last appointment's status must be completed\");\r\n\r\n        // Create new patient if not exists\r\n        if (patients[msg.sender].patientAddress == address(0)) {\r\n            patients[msg.sender].patientAddress = msg.sender;\r\n            patients[msg.sender].name = _name;\r\n            patientAddresses.push(msg.sender); // Add patient address to the list\r\n        }\r\n\r\n        uint bookingId = getNextBookingId(); // Get the next unique booking ID\r\n        Appointment memory newAppointment = Appointment(bookingId, _fee, _appointmentDate, _appointmentSlot, AppointmentStatus.Pending);\r\n\r\n        // Add appointment to patient's list\r\n        patients[msg.sender].appointments.push(newAppointment);\r\n        allAppointments[msg.sender].push(newAppointment);\r\n    }\r\n\r\n\r\n    // Internal function to check if the last appointment's status is RecordReleased\r\n    function hasLastAppointmentRecordReleased(address _patientAddress) private view returns (bool) {\r\n        if (patients[_patientAddress].appointments.length == 0) {\r\n            // No previous appointments, so return true\r\n            return true;\r\n        } else {\r\n            // Get the status of the last appointment\r\n            Appointment storage lastAppointment = patients[_patientAddress].appointments[patients[_patientAddress].appointments.length - 1];\r\n            return lastAppointment.status == AppointmentStatus.RecordReleased;\r\n        }\r\n}\r\n\r\n    // Internal function to get the next unique booking ID\r\n    function getNextBookingId() private returns (uint) {\r\n        uint bookingId = nextBookingId;\r\n        nextBookingId++; // Increment the counter for the next booking ID\r\n        return bookingId;\r\n    }\r\n\r\n    function payAppointmentFee() public {\r\n        Patient storage patient = patients[msg.sender];\r\n        \r\n        // Ensure that the patient has appointments\r\n        require(patient.appointments.length > 0, \"Patient has no appointments\");\r\n        \r\n        // Find the latest appointment of the patient\r\n        Appointment storage latestAppointment = patient.appointments[patient.appointments.length - 1];\r\n        \r\n        // Ensure that the latest appointment status is \"Pending\" before allowing payment\r\n        require(latestAppointment.status == AppointmentStatus.Pending, \"Latest appointment status must be Pending\");\r\n        \r\n        // Transfer the appointment fee (doubled) from the patient's account to the contract's address\r\n        uint doubledFee = latestAppointment.fee * 2;\r\n        require(dehToken.transferFrom(msg.sender, address(this), doubledFee), \"Insufficient allowance or balance\");\r\n        \r\n        // Update the latest appointment status to \"Paid\" after successful payment\r\n        latestAppointment.status = AppointmentStatus.Paid;\r\n    }\r\n\r\n\r\n    function confirmAppointment(address _patientAddress) public {\r\n        require(msg.sender == hospital, \"Only hospital can confirm appointments\");\r\n        Patient storage patient = patients[_patientAddress];\r\n        \r\n        // Ensure that the patient exists and has appointments\r\n        require(patient.patientAddress != address(0), \"Patient not found\");\r\n        require(patient.appointments.length > 0, \"Patient has no appointments\");\r\n        \r\n        // Find the latest appointment of the patient\r\n        Appointment storage latestAppointment = patient.appointments[patient.appointments.length - 1];\r\n        \r\n        // Ensure that the latest appointment status is \"Paid\" before confirming\r\n        require(latestAppointment.status == AppointmentStatus.Paid, \"Latest appointment status must be Paid\");\r\n        \r\n        // Update the latest appointment status to \"Confirmed\"\r\n        latestAppointment.status = AppointmentStatus.Confirmed;\r\n    }\r\n\r\n\r\n\r\n    function provideService(address _patientAddress) public {\r\n        require(msg.sender == hospital, \"Only hospital can provide service\");\r\n        Patient storage patient = patients[_patientAddress];\r\n        \r\n        // Ensure that the patient exists and has appointments\r\n        require(patient.patientAddress != address(0), \"Patient not found\");\r\n        require(patient.appointments.length > 0, \"Patient has no appointments\");\r\n        \r\n        // Find the latest appointment of the patient\r\n        Appointment storage latestAppointment = patient.appointments[patient.appointments.length - 1];\r\n        \r\n        // Ensure that the status of the latest appointment is \"Confirmed\" before providing service\r\n        require(latestAppointment.status == AppointmentStatus.Confirmed, \"Latest appointment status must be Confirmed\");\r\n        \r\n        // Update the status of the latest appointment to \"ServiceProvided\"\r\n        latestAppointment.status = AppointmentStatus.ServiceProvided;\r\n    }\r\n\r\n\r\n    function acknowledgeService() public {\r\n        // Ensure that the message sender is the patient\r\n        require(msg.sender != hospital, \"Only patients can acknowledge service\");\r\n        Patient storage patient = patients[msg.sender];\r\n        \r\n        // Ensure that the patient exists and has appointments\r\n        require(patient.patientAddress != address(0), \"Patient not found\");\r\n        require(patient.appointments.length > 0, \"Patient has no appointments\");\r\n        \r\n        // Find the latest appointment of the patient\r\n        Appointment storage latestAppointment = patient.appointments[patient.appointments.length - 1];\r\n        \r\n        // Ensure that the status of the latest appointment is \"ServiceProvided\" before acknowledgment\r\n        require(latestAppointment.status == AppointmentStatus.ServiceProvided, \"Latest appointment status must be ServiceProvided\");\r\n        \r\n        // Update the status of the latest appointment to \"AcknowledgedService\"\r\n        latestAppointment.status = AppointmentStatus.AcknowledgedService;\r\n    }\r\n\r\n\r\n    function releaseMedicalRecord(address _patientAddress, string memory _medicalRecord) public {\r\n        // Ensure that the message sender is the hospital\r\n        require(msg.sender == hospital, \"Only hospital can release medical records\");\r\n\r\n        // Find the patient and ensure that the patient exists and has appointments\r\n        Patient storage patient = patients[_patientAddress];\r\n        require(patient.patientAddress != address(0), \"Patient not found\");\r\n        require(patient.appointments.length > 0, \"Patient has no appointments\");\r\n\r\n        // Find the latest appointment of the patient\r\n        Appointment storage latestAppointment = patient.appointments[patient.appointments.length - 1];\r\n\r\n        // Ensure that the status of the latest appointment is \"ServiceProvided\" before releasing the record\r\n        require(latestAppointment.status == AppointmentStatus.AcknowledgedService, \"Latest appointment status must be AcknowledgedService\");\r\n\r\n        // Calculate the half fee\r\n        uint halfFee = latestAppointment.fee / 2;\r\n\r\n        // Transfer half of the fee to the hospital\r\n        require(dehToken.transfer(hospital, halfFee), \"Token transfer to hospital failed\");\r\n\r\n        // Update the status of the latest appointment to \"RecordReleased\"\r\n        latestAppointment.status = AppointmentStatus.RecordReleased;\r\n\r\n        // Call the storeRecord function from the MedicalRecordAccess contract to store the medical record\r\n        medicalRecordAccess.storeRecord(_patientAddress, patient.name, _medicalRecord);\r\n\r\n        // Transfer half of the fee to the patient\r\n        require(dehToken.transfer(_patientAddress, halfFee), \"Token transfer to patient failed\");\r\n    }\r\n\r\n\r\n\r\n\r\nfunction getAllAppointments() public view returns (Appointment[] memory) {\r\n    // Ensure that the message sender is the hospital\r\n    require(msg.sender == hospital, \"Only hospital can access all appointments\");\r\n\r\n    // Calculate the total number of appointments\r\n    uint totalAppointments;\r\n    for (uint i = 0; i < patientAddresses.length; i++) {\r\n        totalAppointments += patients[patientAddresses[i]].appointments.length;\r\n    }\r\n\r\n    // Create a dynamic array to store all appointments\r\n    Appointment[] memory allAppointmentsCombined = new Appointment[](totalAppointments);\r\n    uint index = 0;\r\n\r\n    // Iterate through all patient addresses and concatenate their appointments\r\n    for (uint i = 0; i < patientAddresses.length; i++) {\r\n        address patientAddress = patientAddresses[i];\r\n        Patient storage patient = patients[patientAddress];\r\n        for (uint j = 0; j < patient.appointments.length; j++) {\r\n            allAppointmentsCombined[index++] = patient.appointments[j];\r\n        }\r\n    }\r\n\r\n    return allAppointmentsCombined;\r\n}\r\n\r\n\r\n\r\n    function getPatientAppointments(address _patientAddress) public view returns (Appointment[] memory) {\r\n        return patients[_patientAddress].appointments;\r\n    }\r\n}\r\n",
  "sourcePath": "C:\\Users\\jeffr\\Documents\\GitHub\\Healthcare-Blockchain-Project\\blockchain\\contracts\\MedicalAppointment.sol",
  "compiler": {
    "name": "solc",
    "version": "0.8.13+commit.abaa5c0e.Emscripten.clang"
  },
  "schemaVersion": "3.4.16",
  "updatedAt": "2024-04-01T09:53:22.491Z",
  "devdoc": {
    "kind": "dev",
    "methods": {},
    "version": 1
  },
  "userdoc": {
    "kind": "user",
    "methods": {},
    "version": 1
  }
}