{
  "contractName": "MedicalAppointment",
  "abi": [
    {
      "inputs": [
        {
          "internalType": "address",
          "name": "_hospital",
          "type": "address"
        },
        {
          "internalType": "address",
          "name": "_dehTokenAddress",
          "type": "address"
        },
        {
          "internalType": "address",
          "name": "_medicalRecordAccess",
          "type": "address"
        }
      ],
      "stateMutability": "nonpayable",
      "type": "constructor"
    },
    {
      "inputs": [
        {
          "internalType": "address",
          "name": "",
          "type": "address"
        },
        {
          "internalType": "uint256",
          "name": "",
          "type": "uint256"
        }
      ],
      "name": "allAppointments",
      "outputs": [
        {
          "internalType": "address",
          "name": "patientAddresses",
          "type": "address"
        },
        {
          "internalType": "string",
          "name": "name",
          "type": "string"
        },
        {
          "internalType": "uint256",
          "name": "bookingId",
          "type": "uint256"
        },
        {
          "internalType": "uint256",
          "name": "fee",
          "type": "uint256"
        },
        {
          "internalType": "string",
          "name": "appointmentDate",
          "type": "string"
        },
        {
          "internalType": "string",
          "name": "appointmentSlot",
          "type": "string"
        },
        {
          "internalType": "enum MedicalAppointment.AppointmentStatus",
          "name": "status",
          "type": "uint8"
        }
      ],
      "stateMutability": "view",
      "type": "function",
      "constant": true
    },
    {
      "inputs": [],
      "name": "dehToken",
      "outputs": [
        {
          "internalType": "contract DEHToken",
          "name": "",
          "type": "address"
        }
      ],
      "stateMutability": "view",
      "type": "function",
      "constant": true
    },
    {
      "inputs": [],
      "name": "hospital",
      "outputs": [
        {
          "internalType": "address",
          "name": "",
          "type": "address"
        }
      ],
      "stateMutability": "view",
      "type": "function",
      "constant": true
    },
    {
      "inputs": [],
      "name": "medicalRecordAccess",
      "outputs": [
        {
          "internalType": "contract MedicalRecordAccess",
          "name": "",
          "type": "address"
        }
      ],
      "stateMutability": "view",
      "type": "function",
      "constant": true
    },
    {
      "inputs": [
        {
          "internalType": "uint256",
          "name": "",
          "type": "uint256"
        }
      ],
      "name": "patientAddresses",
      "outputs": [
        {
          "internalType": "address",
          "name": "",
          "type": "address"
        }
      ],
      "stateMutability": "view",
      "type": "function",
      "constant": true
    },
    {
      "inputs": [
        {
          "internalType": "address",
          "name": "",
          "type": "address"
        }
      ],
      "name": "patients",
      "outputs": [
        {
          "internalType": "address",
          "name": "patientAddress",
          "type": "address"
        },
        {
          "internalType": "string",
          "name": "name",
          "type": "string"
        }
      ],
      "stateMutability": "view",
      "type": "function",
      "constant": true
    },
    {
      "inputs": [
        {
          "internalType": "uint256",
          "name": "_fee",
          "type": "uint256"
        },
        {
          "internalType": "string",
          "name": "_appointmentDate",
          "type": "string"
        },
        {
          "internalType": "string",
          "name": "_appointmentSlot",
          "type": "string"
        },
        {
          "internalType": "string",
          "name": "_name",
          "type": "string"
        }
      ],
      "name": "requestAppointment",
      "outputs": [],
      "stateMutability": "nonpayable",
      "type": "function"
    },
    {
      "inputs": [],
      "name": "payAppointmentFee",
      "outputs": [],
      "stateMutability": "nonpayable",
      "type": "function"
    },
    {
      "inputs": [
        {
          "internalType": "address",
          "name": "_patientAddress",
          "type": "address"
        }
      ],
      "name": "confirmAppointment",
      "outputs": [],
      "stateMutability": "nonpayable",
      "type": "function"
    },
    {
      "inputs": [
        {
          "internalType": "address",
          "name": "_patientAddress",
          "type": "address"
        }
      ],
      "name": "provideService",
      "outputs": [],
      "stateMutability": "nonpayable",
      "type": "function"
    },
    {
      "inputs": [],
      "name": "acknowledgeService",
      "outputs": [],
      "stateMutability": "nonpayable",
      "type": "function"
    },
    {
      "inputs": [
        {
          "internalType": "address",
          "name": "_patientAddress",
          "type": "address"
        },
        {
          "internalType": "string",
          "name": "_medicalRecord",
          "type": "string"
        }
      ],
      "name": "releaseMedicalRecord",
      "outputs": [],
      "stateMutability": "nonpayable",
      "type": "function"
    },
    {
      "inputs": [],
      "name": "getAllAppointments",
      "outputs": [
        {
          "components": [
            {
              "internalType": "address",
              "name": "patientAddresses",
              "type": "address"
            },
            {
              "internalType": "string",
              "name": "name",
              "type": "string"
            },
            {
              "internalType": "uint256",
              "name": "bookingId",
              "type": "uint256"
            },
            {
              "internalType": "uint256",
              "name": "fee",
              "type": "uint256"
            },
            {
              "internalType": "string",
              "name": "appointmentDate",
              "type": "string"
            },
            {
              "internalType": "string",
              "name": "appointmentSlot",
              "type": "string"
            },
            {
              "internalType": "enum MedicalAppointment.AppointmentStatus",
              "name": "status",
              "type": "uint8"
            }
          ],
          "internalType": "struct MedicalAppointment.Appointment[]",
          "name": "",
          "type": "tuple[]"
        }
      ],
      "stateMutability": "view",
      "type": "function",
      "constant": true
    },
    {
      "inputs": [],
      "name": "getPatientAppointments",
      "outputs": [
        {
          "components": [
            {
              "internalType": "address",
              "name": "patientAddresses",
              "type": "address"
            },
            {
              "internalType": "string",
              "name": "name",
              "type": "string"
            },
            {
              "internalType": "uint256",
              "name": "bookingId",
              "type": "uint256"
            },
            {
              "internalType": "uint256",
              "name": "fee",
              "type": "uint256"
            },
            {
              "internalType": "string",
              "name": "appointmentDate",
              "type": "string"
            },
            {
              "internalType": "string",
              "name": "appointmentSlot",
              "type": "string"
            },
            {
              "internalType": "enum MedicalAppointment.AppointmentStatus",
              "name": "status",
              "type": "uint8"
            }
          ],
          "internalType": "struct MedicalAppointment.Appointment[]",
          "name": "",
          "type": "tuple[]"
        }
      ],
      "stateMutability": "view",
      "type": "function",
      "constant": true
    }
  ],
  "bytecode": "0x6080604052600180553480156200001557600080fd5b5060405162003c9438038062003c9483398181016040528101906200003b919062000170565b826000806101000a81548173ffffffffffffffffffffffffffffffffffffffff021916908373ffffffffffffffffffffffffffffffffffffffff16021790555081600560006101000a81548173ffffffffffffffffffffffffffffffffffffffff021916908373ffffffffffffffffffffffffffffffffffffffff16021790555080600660006101000a81548173ffffffffffffffffffffffffffffffffffffffff021916908373ffffffffffffffffffffffffffffffffffffffff160217905550505050620001cc565b600080fd5b600073ffffffffffffffffffffffffffffffffffffffff82169050919050565b600062000138826200010b565b9050919050565b6200014a816200012b565b81146200015657600080fd5b50565b6000815190506200016a816200013f565b92915050565b6000806000606084860312156200018c576200018b62000106565b5b60006200019c8682870162000159565b9350506020620001af8682870162000159565b9250506040620001c28682870162000159565b9150509250925092565b613ab880620001dc6000396000f3fe608060405234801561001057600080fd5b50600436106100ea5760003560e01c8063a23ba70b1161008c578063b40f169111610066578063b40f16911461022c578063d65a54831461025c578063e6a07e241461027a578063f246c13d14610296576100ea565b8063a23ba70b146101d4578063a6c6e9e2146101f2578063aa2fedde1461020e576100ea565b80636408b4a5116100c85780636408b4a5146101465780637933570c146101645780639636c70f146101825780639d5dbc04146101b8576100ea565b80630869cfbc146100ef5780630df7d4b814610120578063406cf6911461012a575b600080fd5b61010960048036038101906101049190612617565b6102a0565b6040516101179291906126ec565b60405180910390f35b61012861036c565b005b610144600480360381019061013f9190612887565b6105d4565b005b61014e610b54565b60405161015b91906129a1565b60405180910390f35b61016c610b7a565b6040516101799190612c07565b60405180910390f35b61019c60048036038101906101979190612c29565b6110ac565b6040516101af9796959493929190612c87565b60405180910390f35b6101d260048036038101906101cd9190612617565b6112d0565b005b6101dc611563565b6040516101e99190612c07565b60405180910390f35b61020c60048036038101906102079190612d0b565b61185d565b005b610216611d79565b6040516102239190612d67565b60405180910390f35b61024660048036038101906102419190612d82565b611d9d565b6040516102539190612d67565b60405180910390f35b610264611ddc565b6040516102719190612dd0565b60405180910390f35b610294600480360381019061028f9190612617565b611e02565b005b61029e612095565b005b60026020528060005260406000206000915090508060000160009054906101000a900473ffffffffffffffffffffffffffffffffffffffff16908060010180546102e990612e1a565b80601f016020809104026020016040519081016040528092919081815260200182805461031590612e1a565b80156103625780601f1061033757610100808354040283529160200191610362565b820191906000526020600020905b81548152906001019060200180831161034557829003601f168201915b5050505050905082565b6000600260003373ffffffffffffffffffffffffffffffffffffffff1673ffffffffffffffffffffffffffffffffffffffff168152602001908152602001600020905060008160020180549050116103f9576040517f08c379a00000000000000000000000000000000000000000000000000000000081526004016103f090612e97565b60405180910390fd5b600081600201600183600201805490506104139190612ee6565b8154811061042457610423612f1a565b5b906000526020600020906007020190506000600581111561044857610447612a50565b5b8160060160009054906101000a900460ff16600581111561046c5761046b612a50565b5b146104ac576040517f08c379a00000000000000000000000000000000000000000000000000000000081526004016104a390612fbb565b60405180910390fd5b6000600282600301546104bf9190612fdb565b9050600560009054906101000a900473ffffffffffffffffffffffffffffffffffffffff1673ffffffffffffffffffffffffffffffffffffffff166323b872dd3330846040518463ffffffff1660e01b815260040161052093929190613035565b6020604051808303816000875af115801561053f573d6000803e3d6000fd5b505050506040513d601f19601f8201168201806040525081019061056391906130a4565b6105a2576040517f08c379a000000000000000000000000000000000000000000000000000000000815260040161059990613143565b60405180910390fd5b60018260060160006101000a81548160ff021916908360058111156105ca576105c9612a50565b5b0217905550505050565b600073ffffffffffffffffffffffffffffffffffffffff16600260003373ffffffffffffffffffffffffffffffffffffffff1673ffffffffffffffffffffffffffffffffffffffff16815260200190815260200160002060000160009054906101000a900473ffffffffffffffffffffffffffffffffffffffff1673ffffffffffffffffffffffffffffffffffffffff16036107aa5733600260003373ffffffffffffffffffffffffffffffffffffffff1673ffffffffffffffffffffffffffffffffffffffff16815260200190815260200160002060000160006101000a81548173ffffffffffffffffffffffffffffffffffffffff021916908373ffffffffffffffffffffffffffffffffffffffff16021790555080600260003373ffffffffffffffffffffffffffffffffffffffff1673ffffffffffffffffffffffffffffffffffffffff168152602001908152602001600020600101908051906020019061074192919061249d565b506003339080600181540180825580915050600190039060005260206000200160009091909190916101000a81548173ffffffffffffffffffffffffffffffffffffffff021916908373ffffffffffffffffffffffffffffffffffffffff160217905550610843565b6000600260003373ffffffffffffffffffffffffffffffffffffffff1673ffffffffffffffffffffffffffffffffffffffff168152602001908152602001600020600201805490501480610803575061080233612327565b5b610842576040517f08c379a0000000000000000000000000000000000000000000000000000000008152600401610839906131d5565b60405180910390fd5b5b600061084d612476565b905060006040518060e001604052803373ffffffffffffffffffffffffffffffffffffffff168152602001848152602001838152602001878152602001868152602001858152602001600060058111156108aa576108a9612a50565b5b8152509050600260003373ffffffffffffffffffffffffffffffffffffffff1673ffffffffffffffffffffffffffffffffffffffff16815260200190815260200160002060020181908060018154018082558091505060019003906000526020600020906007020160009091909190915060008201518160000160006101000a81548173ffffffffffffffffffffffffffffffffffffffff021916908373ffffffffffffffffffffffffffffffffffffffff160217905550602082015181600101908051906020019061097e92919061249d565b50604082015181600201556060820151816003015560808201518160040190805190602001906109af92919061249d565b5060a08201518160050190805190602001906109cc92919061249d565b5060c08201518160060160006101000a81548160ff021916908360058111156109f8576109f7612a50565b5b02179055505050600460003373ffffffffffffffffffffffffffffffffffffffff1673ffffffffffffffffffffffffffffffffffffffff16815260200190815260200160002081908060018154018082558091505060019003906000526020600020906007020160009091909190915060008201518160000160006101000a81548173ffffffffffffffffffffffffffffffffffffffff021916908373ffffffffffffffffffffffffffffffffffffffff1602179055506020820151816001019080519060200190610acb92919061249d565b5060408201518160020155606082015181600301556080820151816004019080519060200190610afc92919061249d565b5060a0820151816005019080519060200190610b1992919061249d565b5060c08201518160060160006101000a81548160ff02191690836005811115610b4557610b44612a50565b5b02179055505050505050505050565b600560009054906101000a900473ffffffffffffffffffffffffffffffffffffffff1681565b606060008054906101000a900473ffffffffffffffffffffffffffffffffffffffff1673ffffffffffffffffffffffffffffffffffffffff163373ffffffffffffffffffffffffffffffffffffffff1614610c0a576040517f08c379a0000000000000000000000000000000000000000000000000000000008152600401610c0190613267565b60405180910390fd5b600080600090505b600380549050811015610cc3576002600060038381548110610c3757610c36612f1a565b5b9060005260206000200160009054906101000a900473ffffffffffffffffffffffffffffffffffffffff1673ffffffffffffffffffffffffffffffffffffffff1673ffffffffffffffffffffffffffffffffffffffff1681526020019081526020016000206002018054905082610cae9190613287565b91508080610cbb906132dd565b915050610c12565b5060008167ffffffffffffffff811115610ce057610cdf61275c565b5b604051908082528060200260200182016040528015610d1957816020015b610d06612523565b815260200190600190039081610cfe5790505b5090506000805b6003805490508110156110a257600060038281548110610d4357610d42612f1a565b5b9060005260206000200160009054906101000a900473ffffffffffffffffffffffffffffffffffffffff1690506000600260008373ffffffffffffffffffffffffffffffffffffffff1673ffffffffffffffffffffffffffffffffffffffff168152602001908152602001600020905060005b816002018054905081101561108c57816002018181548110610ddb57610dda612f1a565b5b90600052602060002090600702016040518060e00160405290816000820160009054906101000a900473ffffffffffffffffffffffffffffffffffffffff1673ffffffffffffffffffffffffffffffffffffffff1673ffffffffffffffffffffffffffffffffffffffff168152602001600182018054610e5a90612e1a565b80601f0160208091040260200160405190810160405280929190818152602001828054610e8690612e1a565b8015610ed35780601f10610ea857610100808354040283529160200191610ed3565b820191906000526020600020905b815481529060010190602001808311610eb657829003601f168201915b505050505081526020016002820154815260200160038201548152602001600482018054610f0090612e1a565b80601f0160208091040260200160405190810160405280929190818152602001828054610f2c90612e1a565b8015610f795780601f10610f4e57610100808354040283529160200191610f79565b820191906000526020600020905b815481529060010190602001808311610f5c57829003601f168201915b50505050508152602001600582018054610f9290612e1a565b80601f0160208091040260200160405190810160405280929190818152602001828054610fbe90612e1a565b801561100b5780601f10610fe05761010080835404028352916020019161100b565b820191906000526020600020905b815481529060010190602001808311610fee57829003601f168201915b505050505081526020016006820160009054906101000a900460ff16600581111561103957611038612a50565b5b600581111561104b5761104a612a50565b5b8152505086868061105b906132dd565b97508151811061106e5761106d612f1a565b5b60200260200101819052508080611084906132dd565b915050610db6565b505050808061109a906132dd565b915050610d20565b5081935050505090565b600460205281600052604060002081815481106110c857600080fd5b9060005260206000209060070201600091509150508060000160009054906101000a900473ffffffffffffffffffffffffffffffffffffffff169080600101805461111290612e1a565b80601f016020809104026020016040519081016040528092919081815260200182805461113e90612e1a565b801561118b5780601f106111605761010080835404028352916020019161118b565b820191906000526020600020905b81548152906001019060200180831161116e57829003601f168201915b5050505050908060020154908060030154908060040180546111ac90612e1a565b80601f01602080910402602001604051908101604052809291908181526020018280546111d890612e1a565b80156112255780601f106111fa57610100808354040283529160200191611225565b820191906000526020600020905b81548152906001019060200180831161120857829003601f168201915b50505050509080600501805461123a90612e1a565b80601f016020809104026020016040519081016040528092919081815260200182805461126690612e1a565b80156112b35780601f10611288576101008083540402835291602001916112b3565b820191906000526020600020905b81548152906001019060200180831161129657829003601f168201915b5050505050908060060160009054906101000a900460ff16905087565b60008054906101000a900473ffffffffffffffffffffffffffffffffffffffff1673ffffffffffffffffffffffffffffffffffffffff163373ffffffffffffffffffffffffffffffffffffffff161461135e576040517f08c379a000000000000000000000000000000000000000000000000000000000815260040161135590613397565b60405180910390fd5b6000600260008373ffffffffffffffffffffffffffffffffffffffff1673ffffffffffffffffffffffffffffffffffffffff1681526020019081526020016000209050600073ffffffffffffffffffffffffffffffffffffffff168160000160009054906101000a900473ffffffffffffffffffffffffffffffffffffffff1673ffffffffffffffffffffffffffffffffffffffff1603611434576040517f08c379a000000000000000000000000000000000000000000000000000000000815260040161142b90613403565b60405180910390fd5b600081600201805490501161147e576040517f08c379a000000000000000000000000000000000000000000000000000000000815260040161147590612e97565b60405180910390fd5b600081600201600183600201805490506114989190612ee6565b815481106114a9576114a8612f1a565b5b90600052602060002090600702019050600260058111156114cd576114cc612a50565b5b8160060160009054906101000a900460ff1660058111156114f1576114f0612a50565b5b14611531576040517f08c379a000000000000000000000000000000000000000000000000000000000815260040161152890613495565b60405180910390fd5b60038160060160006101000a81548160ff0219169083600581111561155957611558612a50565b5b0217905550505050565b6060600260003373ffffffffffffffffffffffffffffffffffffffff1673ffffffffffffffffffffffffffffffffffffffff168152602001908152602001600020600201805480602002602001604051908101604052809291908181526020016000905b8282101561185457838290600052602060002090600702016040518060e00160405290816000820160009054906101000a900473ffffffffffffffffffffffffffffffffffffffff1673ffffffffffffffffffffffffffffffffffffffff1673ffffffffffffffffffffffffffffffffffffffff16815260200160018201805461165090612e1a565b80601f016020809104026020016040519081016040528092919081815260200182805461167c90612e1a565b80156116c95780601f1061169e576101008083540402835291602001916116c9565b820191906000526020600020905b8154815290600101906020018083116116ac57829003601f168201915b5050505050815260200160028201548152602001600382015481526020016004820180546116f690612e1a565b80601f016020809104026020016040519081016040528092919081815260200182805461172290612e1a565b801561176f5780601f106117445761010080835404028352916020019161176f565b820191906000526020600020905b81548152906001019060200180831161175257829003601f168201915b5050505050815260200160058201805461178890612e1a565b80601f01602080910402602001604051908101604052809291908181526020018280546117b490612e1a565b80156118015780601f106117d657610100808354040283529160200191611801565b820191906000526020600020905b8154815290600101906020018083116117e457829003601f168201915b505050505081526020016006820160009054906101000a900460ff16600581111561182f5761182e612a50565b5b600581111561184157611840612a50565b5b81525050815260200190600101906115c7565b50505050905090565b60008054906101000a900473ffffffffffffffffffffffffffffffffffffffff1673ffffffffffffffffffffffffffffffffffffffff163373ffffffffffffffffffffffffffffffffffffffff16146118eb576040517f08c379a00000000000000000000000000000000000000000000000000000000081526004016118e290613527565b60405180910390fd5b6000600260008473ffffffffffffffffffffffffffffffffffffffff1673ffffffffffffffffffffffffffffffffffffffff1681526020019081526020016000209050600073ffffffffffffffffffffffffffffffffffffffff168160000160009054906101000a900473ffffffffffffffffffffffffffffffffffffffff1673ffffffffffffffffffffffffffffffffffffffff16036119c1576040517f08c379a00000000000000000000000000000000000000000000000000000000081526004016119b890613403565b60405180910390fd5b6000816002018054905011611a0b576040517f08c379a0000000000000000000000000000000000000000000000000000000008152600401611a0290612e97565b60405180910390fd5b60008160020160018360020180549050611a259190612ee6565b81548110611a3657611a35612f1a565b5b9060005260206000209060070201905060046005811115611a5a57611a59612a50565b5b8160060160009054906101000a900460ff166005811115611a7e57611a7d612a50565b5b14611abe576040517f08c379a0000000000000000000000000000000000000000000000000000000008152600401611ab5906135b9565b60405180910390fd5b600060028260030154611ad19190613608565b9050600560009054906101000a900473ffffffffffffffffffffffffffffffffffffffff1673ffffffffffffffffffffffffffffffffffffffff1663a9059cbb60008054906101000a900473ffffffffffffffffffffffffffffffffffffffff16836040518363ffffffff1660e01b8152600401611b50929190613639565b6020604051808303816000875af1158015611b6f573d6000803e3d6000fd5b505050506040513d601f19601f82011682018060405250810190611b9391906130a4565b611bd2576040517f08c379a0000000000000000000000000000000000000000000000000000000008152600401611bc9906136d4565b60405180910390fd5b60058260060160006101000a81548160ff02191690836005811115611bfa57611bf9612a50565b5b0217905550600660009054906101000a900473ffffffffffffffffffffffffffffffffffffffff1673ffffffffffffffffffffffffffffffffffffffff1663f7ca0af08685600101876040518463ffffffff1660e01b8152600401611c6193929190613789565b600060405180830381600087803b158015611c7b57600080fd5b505af1158015611c8f573d6000803e3d6000fd5b50505050600560009054906101000a900473ffffffffffffffffffffffffffffffffffffffff1673ffffffffffffffffffffffffffffffffffffffff1663a9059cbb86836040518363ffffffff1660e01b8152600401611cf0929190613639565b6020604051808303816000875af1158015611d0f573d6000803e3d6000fd5b505050506040513d601f19601f82011682018060405250810190611d3391906130a4565b611d72576040517f08c379a0000000000000000000000000000000000000000000000000000000008152600401611d699061381a565b60405180910390fd5b5050505050565b60008054906101000a900473ffffffffffffffffffffffffffffffffffffffff1681565b60038181548110611dad57600080fd5b906000526020600020016000915054906101000a900473ffffffffffffffffffffffffffffffffffffffff1681565b600660009054906101000a900473ffffffffffffffffffffffffffffffffffffffff1681565b60008054906101000a900473ffffffffffffffffffffffffffffffffffffffff1673ffffffffffffffffffffffffffffffffffffffff163373ffffffffffffffffffffffffffffffffffffffff1614611e90576040517f08c379a0000000000000000000000000000000000000000000000000000000008152600401611e87906138ac565b60405180910390fd5b6000600260008373ffffffffffffffffffffffffffffffffffffffff1673ffffffffffffffffffffffffffffffffffffffff1681526020019081526020016000209050600073ffffffffffffffffffffffffffffffffffffffff168160000160009054906101000a900473ffffffffffffffffffffffffffffffffffffffff1673ffffffffffffffffffffffffffffffffffffffff1603611f66576040517f08c379a0000000000000000000000000000000000000000000000000000000008152600401611f5d90613403565b60405180910390fd5b6000816002018054905011611fb0576040517f08c379a0000000000000000000000000000000000000000000000000000000008152600401611fa790612e97565b60405180910390fd5b60008160020160018360020180549050611fca9190612ee6565b81548110611fdb57611fda612f1a565b5b9060005260206000209060070201905060016005811115611fff57611ffe612a50565b5b8160060160009054906101000a900460ff16600581111561202357612022612a50565b5b14612063576040517f08c379a000000000000000000000000000000000000000000000000000000000815260040161205a9061393e565b60405180910390fd5b60028160060160006101000a81548160ff0219169083600581111561208b5761208a612a50565b5b0217905550505050565b60008054906101000a900473ffffffffffffffffffffffffffffffffffffffff1673ffffffffffffffffffffffffffffffffffffffff163373ffffffffffffffffffffffffffffffffffffffff1603612123576040517f08c379a000000000000000000000000000000000000000000000000000000000815260040161211a906139d0565b60405180910390fd5b6000600260003373ffffffffffffffffffffffffffffffffffffffff1673ffffffffffffffffffffffffffffffffffffffff1681526020019081526020016000209050600073ffffffffffffffffffffffffffffffffffffffff168160000160009054906101000a900473ffffffffffffffffffffffffffffffffffffffff1673ffffffffffffffffffffffffffffffffffffffff16036121f9576040517f08c379a00000000000000000000000000000000000000000000000000000000081526004016121f090613403565b60405180910390fd5b6000816002018054905011612243576040517f08c379a000000000000000000000000000000000000000000000000000000000815260040161223a90612e97565b60405180910390fd5b6000816002016001836002018054905061225d9190612ee6565b8154811061226e5761226d612f1a565b5b906000526020600020906007020190506003600581111561229257612291612a50565b5b8160060160009054906101000a900460ff1660058111156122b6576122b5612a50565b5b146122f6576040517f08c379a00000000000000000000000000000000000000000000000000000000081526004016122ed90613a62565b60405180910390fd5b60048160060160006101000a81548160ff0219169083600581111561231e5761231d612a50565b5b02179055505050565b600080600260008473ffffffffffffffffffffffffffffffffffffffff1673ffffffffffffffffffffffffffffffffffffffff168152602001908152602001600020600201805490500361237e5760019050612471565b6000600260008473ffffffffffffffffffffffffffffffffffffffff1673ffffffffffffffffffffffffffffffffffffffff1681526020019081526020016000206002016001600260008673ffffffffffffffffffffffffffffffffffffffff1673ffffffffffffffffffffffffffffffffffffffff168152602001908152602001600020600201805490506124149190612ee6565b8154811061242557612424612f1a565b5b9060005260206000209060070201905060058081111561244857612447612a50565b5b8160060160009054906101000a900460ff16600581111561246c5761246b612a50565b5b149150505b919050565b600080600154905060016000815480929190612491906132dd565b91905055508091505090565b8280546124a990612e1a565b90600052602060002090601f0160209004810192826124cb5760008555612512565b82601f106124e457805160ff1916838001178555612512565b82800160010185558215612512579182015b828111156125115782518255916020019190600101906124f6565b5b50905061251f9190612588565b5090565b6040518060e00160405280600073ffffffffffffffffffffffffffffffffffffffff16815260200160608152602001600081526020016000815260200160608152602001606081526020016000600581111561258257612581612a50565b5b81525090565b5b808211156125a1576000816000905550600101612589565b5090565b6000604051905090565b600080fd5b600080fd5b600073ffffffffffffffffffffffffffffffffffffffff82169050919050565b60006125e4826125b9565b9050919050565b6125f4816125d9565b81146125ff57600080fd5b50565b600081359050612611816125eb565b92915050565b60006020828403121561262d5761262c6125af565b5b600061263b84828501612602565b91505092915050565b61264d816125d9565b82525050565b600081519050919050565b600082825260208201905092915050565b60005b8381101561268d578082015181840152602081019050612672565b8381111561269c576000848401525b50505050565b6000601f19601f8301169050919050565b60006126be82612653565b6126c8818561265e565b93506126d881856020860161266f565b6126e1816126a2565b840191505092915050565b60006040820190506127016000830185612644565b818103602083015261271381846126b3565b90509392505050565b6000819050919050565b61272f8161271c565b811461273a57600080fd5b50565b60008135905061274c81612726565b92915050565b600080fd5b600080fd5b7f4e487b7100000000000000000000000000000000000000000000000000000000600052604160045260246000fd5b612794826126a2565b810181811067ffffffffffffffff821117156127b3576127b261275c565b5b80604052505050565b60006127c66125a5565b90506127d2828261278b565b919050565b600067ffffffffffffffff8211156127f2576127f161275c565b5b6127fb826126a2565b9050602081019050919050565b82818337600083830152505050565b600061282a612825846127d7565b6127bc565b90508281526020810184848401111561284657612845612757565b5b612851848285612808565b509392505050565b600082601f83011261286e5761286d612752565b5b813561287e848260208601612817565b91505092915050565b600080600080608085870312156128a1576128a06125af565b5b60006128af8782880161273d565b945050602085013567ffffffffffffffff8111156128d0576128cf6125b4565b5b6128dc87828801612859565b935050604085013567ffffffffffffffff8111156128fd576128fc6125b4565b5b61290987828801612859565b925050606085013567ffffffffffffffff81111561292a576129296125b4565b5b61293687828801612859565b91505092959194509250565b6000819050919050565b600061296761296261295d846125b9565b612942565b6125b9565b9050919050565b60006129798261294c565b9050919050565b600061298b8261296e565b9050919050565b61299b81612980565b82525050565b60006020820190506129b66000830184612992565b92915050565b600081519050919050565b600082825260208201905092915050565b6000819050602082019050919050565b6129f1816125d9565b82525050565b600082825260208201905092915050565b6000612a1382612653565b612a1d81856129f7565b9350612a2d81856020860161266f565b612a36816126a2565b840191505092915050565b612a4a8161271c565b82525050565b7f4e487b7100000000000000000000000000000000000000000000000000000000600052602160045260246000fd5b60068110612a9057612a8f612a50565b5b50565b6000819050612aa182612a7f565b919050565b6000612ab182612a93565b9050919050565b612ac181612aa6565b82525050565b600060e083016000830151612adf60008601826129e8565b5060208301518482036020860152612af78282612a08565b9150506040830151612b0c6040860182612a41565b506060830151612b1f6060860182612a41565b5060808301518482036080860152612b378282612a08565b91505060a083015184820360a0860152612b518282612a08565b91505060c0830151612b6660c0860182612ab8565b508091505092915050565b6000612b7d8383612ac7565b905092915050565b6000602082019050919050565b6000612b9d826129bc565b612ba781856129c7565b935083602082028501612bb9856129d8565b8060005b85811015612bf55784840389528151612bd68582612b71565b9450612be183612b85565b925060208a01995050600181019050612bbd565b50829750879550505050505092915050565b60006020820190508181036000830152612c218184612b92565b905092915050565b60008060408385031215612c4057612c3f6125af565b5b6000612c4e85828601612602565b9250506020612c5f8582860161273d565b9150509250929050565b612c728161271c565b82525050565b612c8181612aa6565b82525050565b600060e082019050612c9c600083018a612644565b8181036020830152612cae81896126b3565b9050612cbd6040830188612c69565b612cca6060830187612c69565b8181036080830152612cdc81866126b3565b905081810360a0830152612cf081856126b3565b9050612cff60c0830184612c78565b98975050505050505050565b60008060408385031215612d2257612d216125af565b5b6000612d3085828601612602565b925050602083013567ffffffffffffffff811115612d5157612d506125b4565b5b612d5d85828601612859565b9150509250929050565b6000602082019050612d7c6000830184612644565b92915050565b600060208284031215612d9857612d976125af565b5b6000612da68482850161273d565b91505092915050565b6000612dba8261296e565b9050919050565b612dca81612daf565b82525050565b6000602082019050612de56000830184612dc1565b92915050565b7f4e487b7100000000000000000000000000000000000000000000000000000000600052602260045260246000fd5b60006002820490506001821680612e3257607f821691505b602082108103612e4557612e44612deb565b5b50919050565b7f50617469656e7420686173206e6f206170706f696e746d656e74730000000000600082015250565b6000612e81601b8361265e565b9150612e8c82612e4b565b602082019050919050565b60006020820190508181036000830152612eb081612e74565b9050919050565b7f4e487b7100000000000000000000000000000000000000000000000000000000600052601160045260246000fd5b6000612ef18261271c565b9150612efc8361271c565b925082821015612f0f57612f0e612eb7565b5b828203905092915050565b7f4e487b7100000000000000000000000000000000000000000000000000000000600052603260045260246000fd5b7f4c6174657374206170706f696e746d656e7420737461747573206d757374206260008201527f652050656e64696e670000000000000000000000000000000000000000000000602082015250565b6000612fa560298361265e565b9150612fb082612f49565b604082019050919050565b60006020820190508181036000830152612fd481612f98565b9050919050565b6000612fe68261271c565b9150612ff18361271c565b9250817fffffffffffffffffffffffffffffffffffffffffffffffffffffffffffffffff048311821515161561302a57613029612eb7565b5b828202905092915050565b600060608201905061304a6000830186612644565b6130576020830185612644565b6130646040830184612c69565b949350505050565b60008115159050919050565b6130818161306c565b811461308c57600080fd5b50565b60008151905061309e81613078565b92915050565b6000602082840312156130ba576130b96125af565b5b60006130c88482850161308f565b91505092915050565b7f496e73756666696369656e7420616c6c6f77616e6365206f722062616c616e6360008201527f6500000000000000000000000000000000000000000000000000000000000000602082015250565b600061312d60218361265e565b9150613138826130d1565b604082019050919050565b6000602082019050818103600083015261315c81613120565b9050919050565b7f4c617374206170706f696e746d656e74277320737461747573206d757374206260008201527f6520636f6d706c6574656420616e642072656c65617365640000000000000000602082015250565b60006131bf60388361265e565b91506131ca82613163565b604082019050919050565b600060208201905081810360008301526131ee816131b2565b9050919050565b7f4f6e6c7920686f73706974616c2063616e2061636365737320616c6c2061707060008201527f6f696e746d656e74730000000000000000000000000000000000000000000000602082015250565b600061325160298361265e565b915061325c826131f5565b604082019050919050565b6000602082019050818103600083015261328081613244565b9050919050565b60006132928261271c565b915061329d8361271c565b9250827fffffffffffffffffffffffffffffffffffffffffffffffffffffffffffffffff038211156132d2576132d1612eb7565b5b828201905092915050565b60006132e88261271c565b91507fffffffffffffffffffffffffffffffffffffffffffffffffffffffffffffffff820361331a57613319612eb7565b5b600182019050919050565b7f4f6e6c7920686f73706974616c2063616e2070726f766964652073657276696360008201527f6500000000000000000000000000000000000000000000000000000000000000602082015250565b600061338160218361265e565b915061338c82613325565b604082019050919050565b600060208201905081810360008301526133b081613374565b9050919050565b7f50617469656e74206e6f7420666f756e64000000000000000000000000000000600082015250565b60006133ed60118361265e565b91506133f8826133b7565b602082019050919050565b6000602082019050818103600083015261341c816133e0565b9050919050565b7f4c6174657374206170706f696e746d656e7420737461747573206d757374206260008201527f6520436f6e6669726d6564000000000000000000000000000000000000000000602082015250565b600061347f602b8361265e565b915061348a82613423565b604082019050919050565b600060208201905081810360008301526134ae81613472565b9050919050565b7f4f6e6c7920686f73706974616c2063616e2072656c65617365206d656469636160008201527f6c207265636f7264730000000000000000000000000000000000000000000000602082015250565b600061351160298361265e565b915061351c826134b5565b604082019050919050565b6000602082019050818103600083015261354081613504565b9050919050565b7f4c6174657374206170706f696e746d656e7420737461747573206d757374206260008201527f652041636b6e6f776c6564676564536572766963650000000000000000000000602082015250565b60006135a360358361265e565b91506135ae82613547565b604082019050919050565b600060208201905081810360008301526135d281613596565b9050919050565b7f4e487b7100000000000000000000000000000000000000000000000000000000600052601260045260246000fd5b60006136138261271c565b915061361e8361271c565b92508261362e5761362d6135d9565b5b828204905092915050565b600060408201905061364e6000830185612644565b61365b6020830184612c69565b9392505050565b7f546f6b656e207472616e7366657220746f20686f73706974616c206661696c6560008201527f6400000000000000000000000000000000000000000000000000000000000000602082015250565b60006136be60218361265e565b91506136c982613662565b604082019050919050565b600060208201905081810360008301526136ed816136b1565b9050919050565b60008190508160005260206000209050919050565b6000815461371681612e1a565b613720818661265e565b9450600182166000811461373b576001811461374d57613780565b60ff1983168652602086019350613780565b613756856136f4565b60005b8381101561377857815481890152600182019150602081019050613759565b808801955050505b50505092915050565b600060608201905061379e6000830186612644565b81810360208301526137b08185613709565b905081810360408301526137c481846126b3565b9050949350505050565b7f546f6b656e207472616e7366657220746f2070617469656e74206661696c6564600082015250565b600061380460208361265e565b915061380f826137ce565b602082019050919050565b60006020820190508181036000830152613833816137f7565b9050919050565b7f4f6e6c7920686f73706974616c2063616e20636f6e6669726d206170706f696e60008201527f746d656e74730000000000000000000000000000000000000000000000000000602082015250565b600061389660268361265e565b91506138a18261383a565b604082019050919050565b600060208201905081810360008301526138c581613889565b9050919050565b7f4c6174657374206170706f696e746d656e7420737461747573206d757374206260008201527f6520506169640000000000000000000000000000000000000000000000000000602082015250565b600061392860268361265e565b9150613933826138cc565b604082019050919050565b600060208201905081810360008301526139578161391b565b9050919050565b7f4f6e6c792070617469656e74732063616e2061636b6e6f776c6564676520736560008201527f7276696365000000000000000000000000000000000000000000000000000000602082015250565b60006139ba60258361265e565b91506139c58261395e565b604082019050919050565b600060208201905081810360008301526139e9816139ad565b9050919050565b7f4c6174657374206170706f696e746d656e7420737461747573206d757374206260008201527f65205365727669636550726f7669646564000000000000000000000000000000602082015250565b6000613a4c60318361265e565b9150613a57826139f0565b604082019050919050565b60006020820190508181036000830152613a7b81613a3f565b905091905056fea26469706673582212208a189c6e74a8145a9af695b7923ac67fafe619d0953439eb6acb4aab1b69984964736f6c634300080d0033",
  "immutableReferences": {},
  "source": "// SPDX-License-Identifier: GPL-3.0\r\npragma solidity >=0.5.10;\r\n\r\nimport \"@openzeppelin/contracts/token/ERC20/IERC20.sol\";\r\nimport \"./MedicalRecordAccess.sol\"; // Import the other smart contract\r\nimport \"./DEHToken.sol\";\r\n\r\ncontract MedicalAppointment {\r\n       enum AppointmentStatus { Pending, Paid, Confirmed, ServiceProvided, AcknowledgedService, RecordReleased }\r\n\r\n    struct Appointment {\r\n        address patientAddresses;\r\n        string name;\r\n        uint bookingId;\r\n        uint fee;\r\n        string appointmentDate;\r\n        string appointmentSlot;\r\n        AppointmentStatus status;\r\n    }\r\n\r\n    struct Patient {\r\n        address patientAddress;\r\n        string name;\r\n        Appointment[] appointments;\r\n    }\r\n\r\n    address public hospital;\r\n    uint private nextBookingId = 1; // Counter for generating unique booking IDs\r\n    mapping(address => Patient) public patients;\r\n    address[] public patientAddresses; // Array to store patient addresses\r\n    mapping(address => Appointment[]) public allAppointments;\r\n    DEHToken public dehToken;\r\n    MedicalRecordAccess public medicalRecordAccess; // Instance of the other smart contract\r\n    constructor(address _hospital, address _dehTokenAddress, address _medicalRecordAccess) {\r\n        hospital = _hospital;\r\n        dehToken =  DEHToken(_dehTokenAddress);\r\n        medicalRecordAccess = MedicalRecordAccess(_medicalRecordAccess); // Initialize the instance\r\n    }\r\n\r\n    // Function to add patient address to the patientAddresses array\r\n    function addPatientAddress(address _patientAddress) private {\r\n        // Check if the patient address is not already added\r\n        bool exists = false;\r\n        for (uint i = 0; i < patientAddresses.length; i++) {\r\n            if (patientAddresses[i] == _patientAddress) {\r\n                exists = true;\r\n                break;\r\n            }\r\n        }\r\n        // If patient address does not exist, add it\r\n        if (!exists) {\r\n            patientAddresses.push(_patientAddress);\r\n        }\r\n    }\r\n\r\n    function requestAppointment(uint _fee, string memory _appointmentDate, string memory _appointmentSlot, string memory _name) public {\r\n\r\n        // Create new patient if not exists\r\n        if (patients[msg.sender].patientAddress == address(0)) {\r\n            patients[msg.sender].patientAddress = msg.sender;\r\n            patients[msg.sender].name = _name;\r\n            patientAddresses.push(msg.sender); // Add patient address to the list\r\n        }\r\n\r\n        else {\r\n        require(patients[msg.sender].appointments.length == 0 || hasLastAppointmentRecordReleased(msg.sender), \"Last appointment's status must be completed and released\");\r\n        }\r\n\r\n        uint bookingId = getNextBookingId(); // Get the next unique booking ID\r\n        Appointment memory newAppointment = Appointment(msg.sender, _name,  bookingId, _fee, _appointmentDate, _appointmentSlot, AppointmentStatus.Pending);\r\n\r\n        // Add appointment to patient's list\r\n        patients[msg.sender].appointments.push(newAppointment);\r\n        allAppointments[msg.sender].push(newAppointment);\r\n    }\r\n\r\n\r\n    // Internal function to check if the last appointment's status is RecordReleased\r\n    function hasLastAppointmentRecordReleased(address _patientAddress) private view returns (bool) {\r\n        if (patients[_patientAddress].appointments.length == 0) {\r\n            // No previous appointments, so return true\r\n            return true;\r\n        } else {\r\n            // Get the status of the last appointment\r\n            Appointment storage lastAppointment = patients[_patientAddress].appointments[patients[_patientAddress].appointments.length - 1];\r\n            return lastAppointment.status == AppointmentStatus.RecordReleased;\r\n        }\r\n}\r\n\r\n    // Internal function to get the next unique booking ID\r\n    function getNextBookingId() private returns (uint) {\r\n        uint bookingId = nextBookingId;\r\n        nextBookingId++; // Increment the counter for the next booking ID\r\n        return bookingId;\r\n    }\r\n\r\n    function payAppointmentFee() public {\r\n        Patient storage patient = patients[msg.sender];\r\n        \r\n        // Ensure that the patient has appointments\r\n        require(patient.appointments.length > 0, \"Patient has no appointments\");\r\n        \r\n        // Find the latest appointment of the patient\r\n        Appointment storage latestAppointment = patient.appointments[patient.appointments.length - 1];\r\n        \r\n        // Ensure that the latest appointment status is \"Pending\" before allowing payment\r\n        require(latestAppointment.status == AppointmentStatus.Pending, \"Latest appointment status must be Pending\");\r\n        \r\n        // Transfer the appointment fee (doubled) from the patient's account to the contract's address\r\n        uint doubledFee = latestAppointment.fee * 2;\r\n        require(dehToken.transferFrom(msg.sender, address(this), doubledFee), \"Insufficient allowance or balance\");\r\n        \r\n        // Update the latest appointment status to \"Paid\" after successful payment\r\n        latestAppointment.status = AppointmentStatus.Paid;\r\n    }\r\n\r\n\r\n    function confirmAppointment(address _patientAddress) public {\r\n        require(msg.sender == hospital, \"Only hospital can confirm appointments\");\r\n        Patient storage patient = patients[_patientAddress];\r\n        \r\n        // Ensure that the patient exists and has appointments\r\n        require(patient.patientAddress != address(0), \"Patient not found\");\r\n        require(patient.appointments.length > 0, \"Patient has no appointments\");\r\n        \r\n        // Find the latest appointment of the patient\r\n        Appointment storage latestAppointment = patient.appointments[patient.appointments.length - 1];\r\n        \r\n        // Ensure that the latest appointment status is \"Paid\" before confirming\r\n        require(latestAppointment.status == AppointmentStatus.Paid, \"Latest appointment status must be Paid\");\r\n        \r\n        // Update the latest appointment status to \"Confirmed\"\r\n        latestAppointment.status = AppointmentStatus.Confirmed;\r\n    }\r\n\r\n\r\n\r\n    function provideService(address _patientAddress) public {\r\n        require(msg.sender == hospital, \"Only hospital can provide service\");\r\n        Patient storage patient = patients[_patientAddress];\r\n        \r\n        // Ensure that the patient exists and has appointments\r\n        require(patient.patientAddress != address(0), \"Patient not found\");\r\n        require(patient.appointments.length > 0, \"Patient has no appointments\");\r\n        \r\n        // Find the latest appointment of the patient\r\n        Appointment storage latestAppointment = patient.appointments[patient.appointments.length - 1];\r\n        \r\n        // Ensure that the status of the latest appointment is \"Confirmed\" before providing service\r\n        require(latestAppointment.status == AppointmentStatus.Confirmed, \"Latest appointment status must be Confirmed\");\r\n        \r\n        // Update the status of the latest appointment to \"ServiceProvided\"\r\n        latestAppointment.status = AppointmentStatus.ServiceProvided;\r\n    }\r\n\r\n\r\n    function acknowledgeService() public {\r\n        // Ensure that the message sender is the patient\r\n        require(msg.sender != hospital, \"Only patients can acknowledge service\");\r\n        Patient storage patient = patients[msg.sender];\r\n        \r\n        // Ensure that the patient exists and has appointments\r\n        require(patient.patientAddress != address(0), \"Patient not found\");\r\n        require(patient.appointments.length > 0, \"Patient has no appointments\");\r\n        \r\n        // Find the latest appointment of the patient\r\n        Appointment storage latestAppointment = patient.appointments[patient.appointments.length - 1];\r\n        \r\n        // Ensure that the status of the latest appointment is \"ServiceProvided\" before acknowledgment\r\n        require(latestAppointment.status == AppointmentStatus.ServiceProvided, \"Latest appointment status must be ServiceProvided\");\r\n        \r\n        // Update the status of the latest appointment to \"AcknowledgedService\"\r\n        latestAppointment.status = AppointmentStatus.AcknowledgedService;\r\n    }\r\n\r\n\r\n    function releaseMedicalRecord(address _patientAddress, string memory _medicalRecord) public {\r\n        // Ensure that the message sender is the hospital\r\n        require(msg.sender == hospital, \"Only hospital can release medical records\");\r\n\r\n        // Find the patient and ensure that the patient exists and has appointments\r\n        Patient storage patient = patients[_patientAddress];\r\n        require(patient.patientAddress != address(0), \"Patient not found\");\r\n        require(patient.appointments.length > 0, \"Patient has no appointments\");\r\n\r\n        // Find the latest appointment of the patient\r\n        Appointment storage latestAppointment = patient.appointments[patient.appointments.length - 1];\r\n\r\n        // Ensure that the status of the latest appointment is \"ServiceProvided\" before releasing the record\r\n        require(latestAppointment.status == AppointmentStatus.AcknowledgedService, \"Latest appointment status must be AcknowledgedService\");\r\n\r\n        // Calculate the half fee\r\n        uint halfFee = latestAppointment.fee / 2;\r\n\r\n        // Transfer half of the fee to the hospital\r\n        require(dehToken.transfer(hospital, halfFee), \"Token transfer to hospital failed\");\r\n\r\n        // Update the status of the latest appointment to \"RecordReleased\"\r\n        latestAppointment.status = AppointmentStatus.RecordReleased;\r\n\r\n        // Call the storeRecord function from the MedicalRecordAccess contract to store the medical record\r\n        medicalRecordAccess.storeRecord(_patientAddress, patient.name, _medicalRecord);\r\n\r\n        // Transfer half of the fee to the patient\r\n        require(dehToken.transfer(_patientAddress, halfFee), \"Token transfer to patient failed\");\r\n    }\r\n\r\n\r\n\r\n\r\nfunction getAllAppointments() public view returns (Appointment[] memory) {\r\n    // Ensure that the message sender is the hospital\r\n    require(msg.sender == hospital, \"Only hospital can access all appointments\");\r\n\r\n    // Calculate the total number of appointments\r\n    uint totalAppointments;\r\n    for (uint i = 0; i < patientAddresses.length; i++) {\r\n        totalAppointments += patients[patientAddresses[i]].appointments.length;\r\n    }\r\n\r\n    // Create a dynamic array to store all appointments\r\n    Appointment[] memory allAppointmentsCombined = new Appointment[](totalAppointments);\r\n    uint index = 0;\r\n\r\n    // Iterate through all patient addresses and concatenate their appointments\r\n    for (uint i = 0; i < patientAddresses.length; i++) {\r\n        address patientAddress = patientAddresses[i];\r\n        Patient storage patient = patients[patientAddress];\r\n\r\n        for (uint j = 0; j < patient.appointments.length; j++) {\r\n            allAppointmentsCombined[index++] = patient.appointments[j];\r\n        }\r\n    }\r\n\r\n    return allAppointmentsCombined;\r\n}\r\n\r\n\r\n\r\n    function getPatientAppointments() public view returns (Appointment[] memory) {\r\n        return patients[msg.sender].appointments;\r\n    }\r\n}\r\n",
  "sourcePath": "C:\\Users\\jeffr\\Documents\\GitHub\\Healthcare-Blockchain-Project\\blockchain\\contracts\\MedicalAppointment.sol",
  "compiler": {
    "name": "solc",
    "version": "0.8.13+commit.abaa5c0e.Emscripten.clang"
  },
  "schemaVersion": "3.4.16",
  "updatedAt": "2024-04-01T12:57:22.728Z",
  "networkType": "ethereum",
  "devdoc": {
    "kind": "dev",
    "methods": {},
    "version": 1
  },
  "userdoc": {
    "kind": "user",
    "methods": {},
    "version": 1
  }
}