{
  "contractName": "MedicalRecordAccess",
  "abi": [
    {
      "inputs": [],
      "stateMutability": "nonpayable",
      "type": "constructor"
    },
    {
      "inputs": [
        {
          "internalType": "uint256",
          "name": "",
          "type": "uint256"
        }
      ],
      "name": "allPatients",
      "outputs": [
        {
          "internalType": "address",
          "name": "",
          "type": "address"
        }
      ],
      "stateMutability": "view",
      "type": "function",
      "constant": true
    },
    {
      "inputs": [
        {
          "internalType": "uint256",
          "name": "",
          "type": "uint256"
        }
      ],
      "name": "allThirdParties",
      "outputs": [
        {
          "internalType": "address",
          "name": "",
          "type": "address"
        }
      ],
      "stateMutability": "view",
      "type": "function",
      "constant": true
    },
    {
      "inputs": [
        {
          "internalType": "address",
          "name": "",
          "type": "address"
        }
      ],
      "name": "isPatient",
      "outputs": [
        {
          "internalType": "bool",
          "name": "",
          "type": "bool"
        }
      ],
      "stateMutability": "view",
      "type": "function",
      "constant": true
    },
    {
      "inputs": [
        {
          "internalType": "address",
          "name": "",
          "type": "address"
        }
      ],
      "name": "isThirdParty",
      "outputs": [
        {
          "internalType": "bool",
          "name": "",
          "type": "bool"
        }
      ],
      "stateMutability": "view",
      "type": "function",
      "constant": true
    },
    {
      "inputs": [
        {
          "internalType": "address",
          "name": "",
          "type": "address"
        }
      ],
      "name": "patients",
      "outputs": [
        {
          "internalType": "address",
          "name": "patientAddress",
          "type": "address"
        },
        {
          "internalType": "string",
          "name": "name",
          "type": "string"
        }
      ],
      "stateMutability": "view",
      "type": "function",
      "constant": true
    },
    {
      "inputs": [
        {
          "internalType": "address",
          "name": "_patientAddress",
          "type": "address"
        },
        {
          "internalType": "string",
          "name": "_patientName",
          "type": "string"
        },
        {
          "internalType": "string",
          "name": "_medicalRecord",
          "type": "string"
        }
      ],
      "name": "storeRecord",
      "outputs": [],
      "stateMutability": "nonpayable",
      "type": "function"
    },
    {
      "inputs": [
        {
          "internalType": "address",
          "name": "_thirdParty",
          "type": "address"
        }
      ],
      "name": "addThirdParty",
      "outputs": [],
      "stateMutability": "nonpayable",
      "type": "function"
    },
    {
      "inputs": [
        {
          "internalType": "address",
          "name": "_patient",
          "type": "address"
        },
        {
          "internalType": "address",
          "name": "_thirdParty",
          "type": "address"
        }
      ],
      "name": "grantAccess",
      "outputs": [],
      "stateMutability": "nonpayable",
      "type": "function"
    },
    {
      "inputs": [
        {
          "internalType": "address",
          "name": "_patient",
          "type": "address"
        },
        {
          "internalType": "address",
          "name": "_thirdParty",
          "type": "address"
        }
      ],
      "name": "revokeAccess",
      "outputs": [],
      "stateMutability": "nonpayable",
      "type": "function"
    },
    {
      "inputs": [
        {
          "internalType": "address",
          "name": "_patient",
          "type": "address"
        }
      ],
      "name": "listAccessList",
      "outputs": [
        {
          "components": [
            {
              "internalType": "address",
              "name": "thirdParty",
              "type": "address"
            },
            {
              "internalType": "bool",
              "name": "hasAccess",
              "type": "bool"
            }
          ],
          "internalType": "struct MedicalRecordAccess.AccessListItem[]",
          "name": "",
          "type": "tuple[]"
        }
      ],
      "stateMutability": "view",
      "type": "function",
      "constant": true
    },
    {
      "inputs": [
        {
          "internalType": "address",
          "name": "_patient",
          "type": "address"
        }
      ],
      "name": "requestAccess",
      "outputs": [],
      "stateMutability": "nonpayable",
      "type": "function"
    },
    {
      "inputs": [
        {
          "internalType": "address",
          "name": "_patient",
          "type": "address"
        }
      ],
      "name": "getMedicalRecords",
      "outputs": [
        {
          "internalType": "string[]",
          "name": "",
          "type": "string[]"
        }
      ],
      "stateMutability": "view",
      "type": "function",
      "constant": true
    }
  ],
  "bytecode": "0x608060405234801561001057600080fd5b506119c9806100206000396000f3fe608060405234801561001057600080fd5b50600436106100b45760003560e01c8063afd8297c11610071578063afd8297c146101b2578063b056b117146101e2578063c6a09d95146101fe578063c6b5b1a81461021a578063d8f608df1461024a578063f7ca0af01461027a576100b4565b8063022cb271146100b95780630869cfbc146100d55780635f6ea340146101065780636db9868c146101225780637e78e295146101525780638f9c79ed14610182575b600080fd5b6100d360048036038101906100ce919061108c565b610296565b005b6100ef60048036038101906100ea919061108c565b6103c6565b6040516100fd929190611161565b60405180910390f35b610120600480360381019061011b9190611191565b610492565b005b61013c60048036038101906101379190611207565b6105b9565b6040516101499190611234565b60405180910390f35b61016c6004803603810190610167919061108c565b6105f8565b6040516101799190611357565b60405180910390f35b61019c6004803603810190610197919061108c565b6107aa565b6040516101a99190611388565b60405180910390f35b6101cc60048036038101906101c7919061108c565b6107ca565b6040516101d991906114af565b60405180910390f35b6101fc60048036038101906101f7919061108c565b610a77565b005b61021860048036038101906102139190611191565b610c14565b005b610234600480360381019061022f919061108c565b610d3b565b6040516102419190611388565b60405180910390f35b610264600480360381019061025f9190611207565b610d5b565b6040516102719190611234565b60405180910390f35b610294600480360381019061028f9190611606565b610d9a565b005b600160003373ffffffffffffffffffffffffffffffffffffffff1673ffffffffffffffffffffffffffffffffffffffff16815260200190815260200160002060009054906101000a900460ff1615610323576040517f08c379a000000000000000000000000000000000000000000000000000000000815260040161031a90611703565b60405180910390fd5b60008060008373ffffffffffffffffffffffffffffffffffffffff1673ffffffffffffffffffffffffffffffffffffffff16815260200190815260200160002060030160003373ffffffffffffffffffffffffffffffffffffffff1673ffffffffffffffffffffffffffffffffffffffff16815260200190815260200160002060006101000a81548160ff0219169083151502179055506103c333610a77565b50565b60006020528060005260406000206000915090508060000160009054906101000a900473ffffffffffffffffffffffffffffffffffffffff169080600101805461040f90611752565b80601f016020809104026020016040519081016040528092919081815260200182805461043b90611752565b80156104885780601f1061045d57610100808354040283529160200191610488565b820191906000526020600020905b81548152906001019060200180831161046b57829003601f168201915b5050505050905082565b600160008373ffffffffffffffffffffffffffffffffffffffff1673ffffffffffffffffffffffffffffffffffffffff16815260200190815260200160002060009054906101000a900460ff1661051e576040517f08c379a0000000000000000000000000000000000000000000000000000000008152600401610515906117cf565b60405180910390fd5b60008060008473ffffffffffffffffffffffffffffffffffffffff1673ffffffffffffffffffffffffffffffffffffffff16815260200190815260200160002060030160008373ffffffffffffffffffffffffffffffffffffffff1673ffffffffffffffffffffffffffffffffffffffff16815260200190815260200160002060006101000a81548160ff0219169083151502179055505050565b600481815481106105c957600080fd5b906000526020600020016000915054906101000a900473ffffffffffffffffffffffffffffffffffffffff1681565b606060008060008473ffffffffffffffffffffffffffffffffffffffff1673ffffffffffffffffffffffffffffffffffffffff1681526020019081526020016000209050600060048054905067ffffffffffffffff81111561065d5761065c6114db565b5b60405190808252806020026020018201604052801561069657816020015b610683610f45565b81526020019060019003908161067b5790505b50905060005b60048054905081101561079f576000600482815481106106bf576106be6117ef565b5b9060005260206000200160009054906101000a900473ffffffffffffffffffffffffffffffffffffffff16905060008460030160008373ffffffffffffffffffffffffffffffffffffffff1673ffffffffffffffffffffffffffffffffffffffff16815260200190815260200160002060009054906101000a900460ff16905060405180604001604052808373ffffffffffffffffffffffffffffffffffffffff16815260200182151581525084848151811061077f5761077e6117ef565b5b6020026020010181905250505080806107979061184d565b91505061069c565b508092505050919050565b60016020528060005260406000206000915054906101000a900460ff1681565b6060600160008373ffffffffffffffffffffffffffffffffffffffff1673ffffffffffffffffffffffffffffffffffffffff16815260200190815260200160002060009054906101000a900460ff16610858576040517f08c379a000000000000000000000000000000000000000000000000000000000815260040161084f906117cf565b60405180910390fd5b3373ffffffffffffffffffffffffffffffffffffffff168273ffffffffffffffffffffffffffffffffffffffff16148061091a57506000808373ffffffffffffffffffffffffffffffffffffffff1673ffffffffffffffffffffffffffffffffffffffff16815260200190815260200160002060030160003373ffffffffffffffffffffffffffffffffffffffff1673ffffffffffffffffffffffffffffffffffffffff16815260200190815260200160002060009054906101000a900460ff165b15610a37576000808373ffffffffffffffffffffffffffffffffffffffff1673ffffffffffffffffffffffffffffffffffffffff168152602001908152602001600020600201805480602002602001604051908101604052809291908181526020016000905b82821015610a2c57838290600052602060002001805461099f90611752565b80601f01602080910402602001604051908101604052809291908181526020018280546109cb90611752565b8015610a185780601f106109ed57610100808354040283529160200191610a18565b820191906000526020600020905b8154815290600101906020018083116109fb57829003601f168201915b505050505081526020019060010190610980565b505050509050610a72565b6040517f08c379a0000000000000000000000000000000000000000000000000000000008152600401610a69906118e1565b60405180910390fd5b919050565b600160008273ffffffffffffffffffffffffffffffffffffffff1673ffffffffffffffffffffffffffffffffffffffff16815260200190815260200160002060009054906101000a900460ff1615610b04576040517f08c379a0000000000000000000000000000000000000000000000000000000008152600401610afb90611973565b60405180910390fd5b600260008273ffffffffffffffffffffffffffffffffffffffff1673ffffffffffffffffffffffffffffffffffffffff16815260200190815260200160002060009054906101000a900460ff16610c11576004819080600181540180825580915050600190039060005260206000200160009091909190916101000a81548173ffffffffffffffffffffffffffffffffffffffff021916908373ffffffffffffffffffffffffffffffffffffffff1602179055506001600260008373ffffffffffffffffffffffffffffffffffffffff1673ffffffffffffffffffffffffffffffffffffffff16815260200190815260200160002060006101000a81548160ff0219169083151502179055505b50565b600160008373ffffffffffffffffffffffffffffffffffffffff1673ffffffffffffffffffffffffffffffffffffffff16815260200190815260200160002060009054906101000a900460ff16610ca0576040517f08c379a0000000000000000000000000000000000000000000000000000000008152600401610c97906117cf565b60405180910390fd5b60016000808473ffffffffffffffffffffffffffffffffffffffff1673ffffffffffffffffffffffffffffffffffffffff16815260200190815260200160002060030160008373ffffffffffffffffffffffffffffffffffffffff1673ffffffffffffffffffffffffffffffffffffffff16815260200190815260200160002060006101000a81548160ff0219169083151502179055505050565b60026020528060005260406000206000915054906101000a900460ff1681565b60038181548110610d6b57600080fd5b906000526020600020016000915054906101000a900473ffffffffffffffffffffffffffffffffffffffff1681565b60008060008573ffffffffffffffffffffffffffffffffffffffff1673ffffffffffffffffffffffffffffffffffffffff168152602001908152602001600020905082816001019080519060200190610df4929190610f77565b508060020182908060018154018082558091505060019003906000526020600020016000909190919091509080519060200190610e32929190610f77565b50600160008573ffffffffffffffffffffffffffffffffffffffff1673ffffffffffffffffffffffffffffffffffffffff16815260200190815260200160002060009054906101000a900460ff16610f3f576003849080600181540180825580915050600190039060005260206000200160009091909190916101000a81548173ffffffffffffffffffffffffffffffffffffffff021916908373ffffffffffffffffffffffffffffffffffffffff16021790555060018060008673ffffffffffffffffffffffffffffffffffffffff1673ffffffffffffffffffffffffffffffffffffffff16815260200190815260200160002060006101000a81548160ff0219169083151502179055505b50505050565b6040518060400160405280600073ffffffffffffffffffffffffffffffffffffffff1681526020016000151581525090565b828054610f8390611752565b90600052602060002090601f016020900481019282610fa55760008555610fec565b82601f10610fbe57805160ff1916838001178555610fec565b82800160010185558215610fec579182015b82811115610feb578251825591602001919060010190610fd0565b5b509050610ff99190610ffd565b5090565b5b80821115611016576000816000905550600101610ffe565b5090565b6000604051905090565b600080fd5b600080fd5b600073ffffffffffffffffffffffffffffffffffffffff82169050919050565b60006110598261102e565b9050919050565b6110698161104e565b811461107457600080fd5b50565b60008135905061108681611060565b92915050565b6000602082840312156110a2576110a1611024565b5b60006110b084828501611077565b91505092915050565b6110c28161104e565b82525050565b600081519050919050565b600082825260208201905092915050565b60005b838110156111025780820151818401526020810190506110e7565b83811115611111576000848401525b50505050565b6000601f19601f8301169050919050565b6000611133826110c8565b61113d81856110d3565b935061114d8185602086016110e4565b61115681611117565b840191505092915050565b600060408201905061117660008301856110b9565b81810360208301526111888184611128565b90509392505050565b600080604083850312156111a8576111a7611024565b5b60006111b685828601611077565b92505060206111c785828601611077565b9150509250929050565b6000819050919050565b6111e4816111d1565b81146111ef57600080fd5b50565b600081359050611201816111db565b92915050565b60006020828403121561121d5761121c611024565b5b600061122b848285016111f2565b91505092915050565b600060208201905061124960008301846110b9565b92915050565b600081519050919050565b600082825260208201905092915050565b6000819050602082019050919050565b6112848161104e565b82525050565b60008115159050919050565b61129f8161128a565b82525050565b6040820160008201516112bb600085018261127b565b5060208201516112ce6020850182611296565b50505050565b60006112e083836112a5565b60408301905092915050565b6000602082019050919050565b60006113048261124f565b61130e818561125a565b93506113198361126b565b8060005b8381101561134a57815161133188826112d4565b975061133c836112ec565b92505060018101905061131d565b5085935050505092915050565b6000602082019050818103600083015261137181846112f9565b905092915050565b6113828161128a565b82525050565b600060208201905061139d6000830184611379565b92915050565b600081519050919050565b600082825260208201905092915050565b6000819050602082019050919050565b600082825260208201905092915050565b60006113eb826110c8565b6113f581856113cf565b93506114058185602086016110e4565b61140e81611117565b840191505092915050565b600061142583836113e0565b905092915050565b6000602082019050919050565b6000611445826113a3565b61144f81856113ae565b935083602082028501611461856113bf565b8060005b8581101561149d578484038952815161147e8582611419565b94506114898361142d565b925060208a01995050600181019050611465565b50829750879550505050505092915050565b600060208201905081810360008301526114c9818461143a565b905092915050565b600080fd5b600080fd5b7f4e487b7100000000000000000000000000000000000000000000000000000000600052604160045260246000fd5b61151382611117565b810181811067ffffffffffffffff82111715611532576115316114db565b5b80604052505050565b600061154561101a565b9050611551828261150a565b919050565b600067ffffffffffffffff821115611571576115706114db565b5b61157a82611117565b9050602081019050919050565b82818337600083830152505050565b60006115a96115a484611556565b61153b565b9050828152602081018484840111156115c5576115c46114d6565b5b6115d0848285611587565b509392505050565b600082601f8301126115ed576115ec6114d1565b5b81356115fd848260208601611596565b91505092915050565b60008060006060848603121561161f5761161e611024565b5b600061162d86828701611077565b935050602084013567ffffffffffffffff81111561164e5761164d611029565b5b61165a868287016115d8565b925050604084013567ffffffffffffffff81111561167b5761167a611029565b5b611687868287016115d8565b9150509250925092565b7f53656e64657220697320616c726561647920726567697374657265642061732060008201527f612070617469656e740000000000000000000000000000000000000000000000602082015250565b60006116ed6029836110d3565b91506116f882611691565b604082019050919050565b6000602082019050818103600083015261171c816116e0565b9050919050565b7f4e487b7100000000000000000000000000000000000000000000000000000000600052602260045260246000fd5b6000600282049050600182168061176a57607f821691505b60208210810361177d5761177c611723565b5b50919050565b7f50617469656e7420646f6573206e6f7420657869737400000000000000000000600082015250565b60006117b96016836110d3565b91506117c482611783565b602082019050919050565b600060208201905081810360008301526117e8816117ac565b9050919050565b7f4e487b7100000000000000000000000000000000000000000000000000000000600052603260045260246000fd5b7f4e487b7100000000000000000000000000000000000000000000000000000000600052601160045260246000fd5b6000611858826111d1565b91507fffffffffffffffffffffffffffffffffffffffffffffffffffffffffffffffff820361188a5761188961181e565b5b600182019050919050565b7f4163636573732064656e69656400000000000000000000000000000000000000600082015250565b60006118cb600d836110d3565b91506118d682611895565b602082019050919050565b600060208201905081810360008301526118fa816118be565b9050919050565b7f4164647265737320697320616c7265616479207265676973746572656420617360008201527f20612070617469656e7400000000000000000000000000000000000000000000602082015250565b600061195d602a836110d3565b915061196882611901565b604082019050919050565b6000602082019050818103600083015261198c81611950565b905091905056fea2646970667358221220da6b7c1467664e573a321de5ffa7c7c3249087bee76e0713ce62683e86103be864736f6c634300080d0033",
  "immutableReferences": {},
  "source": "// SPDX-License-Identifier: GPL-3.0\r\npragma solidity >=0.5.10;\r\n\r\ncontract MedicalRecordAccess {\r\n    struct Patient {\r\n        address patientAddress; // Address of the patient\r\n        string name;\r\n        string[] medicalRecords; \r\n        mapping(address => bool) accessList; // Mapping of third-party addresses to access status\r\n    }\r\n\r\n    struct AccessListItem {\r\n        address thirdParty;\r\n        bool hasAccess;\r\n    }\r\n\r\n    mapping(address => Patient) public patients;\r\n    mapping(address => bool) public isPatient;\r\n    mapping(address => bool) public isThirdParty;\r\n    address[] public allPatients;\r\n    address[] public allThirdParties;\r\n\r\n    constructor() {}\r\n\r\n    function storeRecord(address _patientAddress, string memory _patientName, string memory _medicalRecord) public {\r\n        Patient storage patient = patients[_patientAddress];\r\n        patient.name = _patientName;\r\n        patient.medicalRecords.push(_medicalRecord);\r\n        if (!isPatient[_patientAddress]) {\r\n            allPatients.push(_patientAddress);\r\n            isPatient[_patientAddress] = true;\r\n        }\r\n    }\r\n\r\n    function addThirdParty(address _thirdParty) public {\r\n        require(!isPatient[_thirdParty], \"Address is already registered as a patient\");\r\n        if (!isThirdParty[_thirdParty]) {\r\n            allThirdParties.push(_thirdParty);\r\n            isThirdParty[_thirdParty] = true;\r\n        }\r\n    }\r\n\r\n    function grantAccess(address _patient, address _thirdParty) public {\r\n        require(isPatient[_patient], \"Patient does not exist\");\r\n        patients[_patient].accessList[_thirdParty] = true;\r\n    }\r\n\r\n    function revokeAccess(address _patient, address _thirdParty) public {\r\n        require(isPatient[_patient], \"Patient does not exist\");\r\n        patients[_patient].accessList[_thirdParty] = false;\r\n    }\r\n\r\n    function listAccessList(address _patient) public view returns (AccessListItem[] memory) {\r\n        Patient storage patient = patients[_patient];\r\n        AccessListItem[] memory accessList = new AccessListItem[](allThirdParties.length);\r\n        for (uint i = 0; i < allThirdParties.length; i++) {\r\n            address thirdParty = allThirdParties[i];\r\n            bool hasAccess = patient.accessList[thirdParty];\r\n            accessList[i] = AccessListItem(thirdParty, hasAccess);\r\n        }\r\n        return accessList;\r\n    }\r\n\r\n    function requestAccess(address _patient) public {\r\n        require(!isPatient[msg.sender], \"Sender is already registered as a patient\");\r\n        patients[_patient].accessList[msg.sender] = false; // By default, access is requested but not granted\r\n        addThirdParty(msg.sender);\r\n    }\r\n\r\n    function getMedicalRecords(address _patient) public view returns (string[] memory) {\r\n        require(isPatient[_patient], \"Patient does not exist\");\r\n        if (_patient == msg.sender || patients[_patient].accessList[msg.sender]) {\r\n            return patients[_patient].medicalRecords;\r\n        } else {\r\n            revert(\"Access denied\");\r\n        }\r\n    }\r\n}\r\n",
  "sourcePath": "C:\\Users\\jeffr\\Documents\\GitHub\\Healthcare-Blockchain-Project\\blockchain\\contracts\\MedicalRecordAccess.sol",
  "compiler": {
    "name": "solc",
    "version": "0.8.13+commit.abaa5c0e.Emscripten.clang"
  },
  "schemaVersion": "3.4.16",
  "updatedAt": "2024-04-01T12:57:22.709Z",
  "networkType": "ethereum",
  "devdoc": {
    "kind": "dev",
    "methods": {},
    "version": 1
  },
  "userdoc": {
    "kind": "user",
    "methods": {},
    "version": 1
  }
}