{
  "contractName": "MedicalRecordAccess",
  "abi": [
    {
      "inputs": [],
      "stateMutability": "nonpayable",
      "type": "constructor"
    },
    {
      "inputs": [
        {
          "internalType": "uint256",
          "name": "",
          "type": "uint256"
        }
      ],
      "name": "allPatients",
      "outputs": [
        {
          "internalType": "address",
          "name": "",
          "type": "address"
        }
      ],
      "stateMutability": "view",
      "type": "function",
      "constant": true
    },
    {
      "inputs": [
        {
          "internalType": "uint256",
          "name": "",
          "type": "uint256"
        }
      ],
      "name": "allThirdParties",
      "outputs": [
        {
          "internalType": "address",
          "name": "",
          "type": "address"
        }
      ],
      "stateMutability": "view",
      "type": "function",
      "constant": true
    },
    {
      "inputs": [
        {
          "internalType": "address",
          "name": "",
          "type": "address"
        }
      ],
      "name": "isPatient",
      "outputs": [
        {
          "internalType": "bool",
          "name": "",
          "type": "bool"
        }
      ],
      "stateMutability": "view",
      "type": "function",
      "constant": true
    },
    {
      "inputs": [
        {
          "internalType": "address",
          "name": "",
          "type": "address"
        }
      ],
      "name": "isThirdParty",
      "outputs": [
        {
          "internalType": "bool",
          "name": "",
          "type": "bool"
        }
      ],
      "stateMutability": "view",
      "type": "function",
      "constant": true
    },
    {
      "inputs": [
        {
          "internalType": "address",
          "name": "",
          "type": "address"
        }
      ],
      "name": "patients",
      "outputs": [
        {
          "internalType": "address",
          "name": "patientAddress",
          "type": "address"
        },
        {
          "internalType": "string",
          "name": "name",
          "type": "string"
        },
        {
          "internalType": "uint256",
          "name": "age",
          "type": "uint256"
        }
      ],
      "stateMutability": "view",
      "type": "function",
      "constant": true
    },
    {
      "inputs": [
        {
          "internalType": "address",
          "name": "_patientAddress",
          "type": "address"
        },
        {
          "internalType": "string",
          "name": "_patientName",
          "type": "string"
        },
        {
          "internalType": "string",
          "name": "_medicalRecord",
          "type": "string"
        },
        {
          "internalType": "uint256",
          "name": "age",
          "type": "uint256"
        },
        {
          "internalType": "string",
          "name": "_date",
          "type": "string"
        }
      ],
      "name": "storeRecord",
      "outputs": [],
      "stateMutability": "nonpayable",
      "type": "function"
    },
    {
      "inputs": [
        {
          "internalType": "address",
          "name": "_thirdParty",
          "type": "address"
        }
      ],
      "name": "addThirdParty",
      "outputs": [],
      "stateMutability": "nonpayable",
      "type": "function"
    },
    {
      "inputs": [
        {
          "internalType": "address",
          "name": "_thirdParty",
          "type": "address"
        }
      ],
      "name": "grantAccess",
      "outputs": [],
      "stateMutability": "nonpayable",
      "type": "function"
    },
    {
      "inputs": [
        {
          "internalType": "address",
          "name": "_thirdParty",
          "type": "address"
        }
      ],
      "name": "revokeAccess",
      "outputs": [],
      "stateMutability": "nonpayable",
      "type": "function"
    },
    {
      "inputs": [],
      "name": "listAccessList",
      "outputs": [
        {
          "components": [
            {
              "internalType": "address",
              "name": "thirdParty",
              "type": "address"
            },
            {
              "internalType": "enum MedicalRecordAccess.AccessStatus",
              "name": "hasAccess",
              "type": "uint8"
            }
          ],
          "internalType": "struct MedicalRecordAccess.AccessListItem[]",
          "name": "",
          "type": "tuple[]"
        }
      ],
      "stateMutability": "view",
      "type": "function",
      "constant": true
    },
    {
      "inputs": [
        {
          "internalType": "address",
          "name": "_patient",
          "type": "address"
        }
      ],
      "name": "requestAccess",
      "outputs": [],
      "stateMutability": "nonpayable",
      "type": "function"
    },
    {
      "inputs": [
        {
          "internalType": "address",
          "name": "_patient",
          "type": "address"
        }
      ],
      "name": "getMedicalRecords",
      "outputs": [
        {
          "internalType": "address",
          "name": "",
          "type": "address"
        },
        {
          "internalType": "string",
          "name": "",
          "type": "string"
        },
        {
          "internalType": "uint256",
          "name": "",
          "type": "uint256"
        },
        {
          "internalType": "string[]",
          "name": "",
          "type": "string[]"
        },
        {
          "internalType": "string[]",
          "name": "",
          "type": "string[]"
        }
      ],
      "stateMutability": "view",
      "type": "function",
      "constant": true
    },
    {
      "inputs": [],
      "name": "getAccessRequests",
      "outputs": [
        {
          "internalType": "address[]",
          "name": "",
          "type": "address[]"
        },
        {
          "internalType": "uint256[]",
          "name": "",
          "type": "uint256[]"
        },
        {
          "internalType": "string[]",
          "name": "",
          "type": "string[]"
        },
        {
          "internalType": "string[]",
          "name": "",
          "type": "string[]"
        },
        {
          "internalType": "string[]",
          "name": "",
          "type": "string[]"
        }
      ],
      "stateMutability": "view",
      "type": "function",
      "constant": true
    },
    {
      "inputs": [
        {
          "internalType": "address",
          "name": "_address",
          "type": "address"
        }
      ],
      "name": "checkIsThirdParty",
      "outputs": [
        {
          "internalType": "bool",
          "name": "",
          "type": "bool"
        }
      ],
      "stateMutability": "view",
      "type": "function",
      "constant": true
    }
  ],
  "bytecode": "0x608060405234801561001057600080fd5b50612b0b806100206000396000f3fe608060405234801561001057600080fd5b50600436106100ea5760003560e01c806385e685311161008c578063afd8297c11610066578063afd8297c14610261578063b056b11714610295578063c6b5b1a8146102b1578063d8f608df146102e1576100ea565b806385e68531146101f95780638f9c79ed14610215578063a224b73514610245576100ea565b80630ae5e739116100c85780630ae5e7391461015b5780634682377c1461017757806355b63a94146101a75780636db9868c146101c9576100ea565b806301675338146100ef578063022cb2711461010d5780630869cfbc14610129575b600080fd5b6100f7610311565b6040516101049190611fa0565b60405180910390f35b61012760048036038101906101229190612002565b610644565b005b610143600480360381019061013e9190612002565b610784565b604051610152939291906120f0565b60405180910390f35b61017560048036038101906101709190612002565b610856565b005b610191600480360381019061018c9190612002565b61098c565b60405161019e9190612149565b60405180910390f35b6101af6109e2565b6040516101c09594939291906123dd565b60405180910390f35b6101e360048036038101906101de919061247f565b6111cd565b6040516101f091906124ac565b60405180910390f35b610213600480360381019061020e9190612002565b61120c565b005b61022f600480360381019061022a9190612002565b611342565b60405161023c9190612149565b60405180910390f35b61025f600480360381019061025a91906125fc565b611362565b005b61027b60048036038101906102769190612002565b611599565b60405161028c9594939291906126cb565b60405180910390f35b6102af60048036038101906102aa9190612002565b611a1a565b005b6102cb60048036038101906102c69190612002565b611cc6565b6040516102d89190612149565b60405180910390f35b6102fb60048036038101906102f6919061247f565b611ce6565b60405161030891906124ac565b60405180910390f35b606060008060003373ffffffffffffffffffffffffffffffffffffffff1673ffffffffffffffffffffffffffffffffffffffff1681526020019081526020016000209050600060048054905067ffffffffffffffff811115610376576103756124d1565b5b6040519080825280602002602001820160405280156103af57816020015b61039c611d25565b8152602001906001900390816103945790505b50905060005b60048054905081101561063b57600060038111156103d6576103d5611e77565b5b836005016000600484815481106103f0576103ef612733565b5b9060005260206000200160009054906101000a900473ffffffffffffffffffffffffffffffffffffffff1673ffffffffffffffffffffffffffffffffffffffff1673ffffffffffffffffffffffffffffffffffffffff16815260200190815260200160002060009054906101000a900460ff16600381111561047557610474611e77565b5b1480610530575060038081111561048f5761048e611e77565b5b836005016000600484815481106104a9576104a8612733565b5b9060005260206000200160009054906101000a900473ffffffffffffffffffffffffffffffffffffffff1673ffffffffffffffffffffffffffffffffffffffff1673ffffffffffffffffffffffffffffffffffffffff16815260200190815260200160002060009054906101000a900460ff16600381111561052e5761052d611e77565b5b145b6106285760006004828154811061054a57610549612733565b5b9060005260206000200160009054906101000a900473ffffffffffffffffffffffffffffffffffffffff16905060008460050160008373ffffffffffffffffffffffffffffffffffffffff1673ffffffffffffffffffffffffffffffffffffffff16815260200190815260200160002060009054906101000a900460ff16905060405180604001604052808373ffffffffffffffffffffffffffffffffffffffff16815260200182600381111561060457610603611e77565b5b81525084848151811061061a57610619612733565b5b602002602001018190525050505b808061063390612791565b9150506103b5565b50809250505090565b600160003373ffffffffffffffffffffffffffffffffffffffff1673ffffffffffffffffffffffffffffffffffffffff16815260200190815260200160002060009054906101000a900460ff16156106d1576040517f08c379a00000000000000000000000000000000000000000000000000000000081526004016106c89061284b565b60405180910390fd5b6106da33611a1a565b60016000808373ffffffffffffffffffffffffffffffffffffffff1673ffffffffffffffffffffffffffffffffffffffff16815260200190815260200160002060050160003373ffffffffffffffffffffffffffffffffffffffff1673ffffffffffffffffffffffffffffffffffffffff16815260200190815260200160002060006101000a81548160ff0219169083600381111561077c5761077b611e77565b5b021790555050565b60006020528060005260406000206000915090508060000160009054906101000a900473ffffffffffffffffffffffffffffffffffffffff16908060010180546107cd9061289a565b80601f01602080910402602001604051908101604052809291908181526020018280546107f99061289a565b80156108465780601f1061081b57610100808354040283529160200191610846565b820191906000526020600020905b81548152906001019060200180831161082957829003601f168201915b5050505050908060020154905083565b600160003373ffffffffffffffffffffffffffffffffffffffff1673ffffffffffffffffffffffffffffffffffffffff16815260200190815260200160002060009054906101000a900460ff166108e2576040517f08c379a00000000000000000000000000000000000000000000000000000000081526004016108d990612917565b60405180910390fd5b60026000803373ffffffffffffffffffffffffffffffffffffffff1673ffffffffffffffffffffffffffffffffffffffff16815260200190815260200160002060050160008373ffffffffffffffffffffffffffffffffffffffff1673ffffffffffffffffffffffffffffffffffffffff16815260200190815260200160002060006101000a81548160ff0219169083600381111561098457610983611e77565b5b021790555050565b6000600260008373ffffffffffffffffffffffffffffffffffffffff1673ffffffffffffffffffffffffffffffffffffffff16815260200190815260200160002060009054906101000a900460ff169050919050565b60608060608060606000339050600260008273ffffffffffffffffffffffffffffffffffffffff1673ffffffffffffffffffffffffffffffffffffffff16815260200190815260200160002060009054906101000a900460ff16610a7b576040517f08c379a0000000000000000000000000000000000000000000000000000000008152600401610a7290612983565b60405180910390fd5b600060038054905067ffffffffffffffff811115610a9c57610a9b6124d1565b5b604051908082528060200260200182016040528015610aca5781602001602082028036833780820191505090505b509050600060038054905067ffffffffffffffff811115610aee57610aed6124d1565b5b604051908082528060200260200182016040528015610b2157816020015b6060815260200190600190039081610b0c5790505b509050600060038054905067ffffffffffffffff811115610b4557610b446124d1565b5b604051908082528060200260200182016040528015610b735781602001602082028036833780820191505090505b509050600060038054905067ffffffffffffffff811115610b9757610b966124d1565b5b604051908082528060200260200182016040528015610bca57816020015b6060815260200190600190039081610bb55790505b509050600060038054905067ffffffffffffffff811115610bee57610bed6124d1565b5b604051908082528060200260200182016040528015610c2157816020015b6060815260200190600190039081610c0c5790505b50905060005b6003805490508110156111b057600060038281548110610c4a57610c49612733565b5b9060005260206000200160009054906101000a900473ffffffffffffffffffffffffffffffffffffffff16905060008060008373ffffffffffffffffffffffffffffffffffffffff1673ffffffffffffffffffffffffffffffffffffffff16815260200190815260200160002060050160008a73ffffffffffffffffffffffffffffffffffffffff1673ffffffffffffffffffffffffffffffffffffffff16815260200190815260200160002060009054906101000a900460ff16905060008060008473ffffffffffffffffffffffffffffffffffffffff1673ffffffffffffffffffffffffffffffffffffffff1681526020019081526020016000206001018054610d559061289a565b80601f0160208091040260200160405190810160405280929190818152602001828054610d819061289a565b8015610dce5780601f10610da357610100808354040283529160200191610dce565b820191906000526020600020905b815481529060010190602001808311610db157829003601f168201915b5050505050905060008060008573ffffffffffffffffffffffffffffffffffffffff1673ffffffffffffffffffffffffffffffffffffffff168152602001908152602001600020600201549050606060008060008773ffffffffffffffffffffffffffffffffffffffff1673ffffffffffffffffffffffffffffffffffffffff16815260200190815260200160002060030160016000808973ffffffffffffffffffffffffffffffffffffffff1673ffffffffffffffffffffffffffffffffffffffff16815260200190815260200160002060030180549050610eb191906129a3565b81548110610ec257610ec1612733565b5b906000526020600020018054610ed79061289a565b80601f0160208091040260200160405190810160405280929190818152602001828054610f039061289a565b8015610f505780601f10610f2557610100808354040283529160200191610f50565b820191906000526020600020905b815481529060010190602001808311610f3357829003601f168201915b5050505050905060016003811115610f6b57610f6a611e77565b5b856003811115610f7e57610f7d611e77565b5b03610fc0576040518060400160405280601481526020017f57616974696e6720466f7220417070726f76616c00000000000000000000000081525091506110cc565b60026003811115610fd457610fd3611e77565b5b856003811115610fe757610fe6611e77565b5b03611029576040518060400160405280600881526020017f417070726f76656400000000000000000000000000000000000000000000000081525091506110cb565b60038081111561103c5761103b611e77565b5b85600381111561104f5761104e611e77565b5b03611091576040518060400160405280600981526020017f4e6f20416363657373000000000000000000000000000000000000000000000081525091506110ca565b6040518060400160405280600d81526020017f4e6f74205265717565737465640000000000000000000000000000000000000081525091505b5b5b858c88815181106110e0576110df612733565b5b602002602001019073ffffffffffffffffffffffffffffffffffffffff16908173ffffffffffffffffffffffffffffffffffffffff16815250508189888151811061112e5761112d612733565b5b6020026020010181905250838b888151811061114d5761114c612733565b5b6020026020010181905250828a888151811061116c5761116b612733565b5b6020026020010181815250508088888151811061118c5761118b612733565b5b602002602001018190525050505050505080806111a890612791565b915050610c27565b5084838286859a509a509a509a509a505050505050509091929394565b600481815481106111dd57600080fd5b906000526020600020016000915054906101000a900473ffffffffffffffffffffffffffffffffffffffff1681565b600160003373ffffffffffffffffffffffffffffffffffffffff1673ffffffffffffffffffffffffffffffffffffffff16815260200190815260200160002060009054906101000a900460ff16611298576040517f08c379a000000000000000000000000000000000000000000000000000000000815260040161128f90612917565b60405180910390fd5b60036000803373ffffffffffffffffffffffffffffffffffffffff1673ffffffffffffffffffffffffffffffffffffffff16815260200190815260200160002060050160008373ffffffffffffffffffffffffffffffffffffffff1673ffffffffffffffffffffffffffffffffffffffff16815260200190815260200160002060006101000a81548160ff0219169083600381111561133a57611339611e77565b5b021790555050565b60016020528060005260406000206000915054906101000a900460ff1681565b60008060008773ffffffffffffffffffffffffffffffffffffffff1673ffffffffffffffffffffffffffffffffffffffff1681526020019081526020016000209050858160000160006101000a81548173ffffffffffffffffffffffffffffffffffffffff021916908373ffffffffffffffffffffffffffffffffffffffff160217905550848160010190805190602001906113ff929190611d67565b508281600201819055508060030182908060018154018082558091505060019003906000526020600020016000909190919091509080519060200190611446929190611d67565b508060040184908060018154018082558091505060019003906000526020600020016000909190919091509080519060200190611484929190611d67565b50600160008773ffffffffffffffffffffffffffffffffffffffff1673ffffffffffffffffffffffffffffffffffffffff16815260200190815260200160002060009054906101000a900460ff16611591576003869080600181540180825580915050600190039060005260206000200160009091909190916101000a81548173ffffffffffffffffffffffffffffffffffffffff021916908373ffffffffffffffffffffffffffffffffffffffff16021790555060018060008873ffffffffffffffffffffffffffffffffffffffff1673ffffffffffffffffffffffffffffffffffffffff16815260200190815260200160002060006101000a81548160ff0219169083151502179055505b505050505050565b600060606000606080600160008773ffffffffffffffffffffffffffffffffffffffff1673ffffffffffffffffffffffffffffffffffffffff16815260200190815260200160002060009054906101000a900460ff1661162e576040517f08c379a000000000000000000000000000000000000000000000000000000000815260040161162590612917565b60405180910390fd5b3373ffffffffffffffffffffffffffffffffffffffff168673ffffffffffffffffffffffffffffffffffffffff16148061171757506002600381111561167757611676611e77565b5b6000808873ffffffffffffffffffffffffffffffffffffffff1673ffffffffffffffffffffffffffffffffffffffff16815260200190815260200160002060050160003373ffffffffffffffffffffffffffffffffffffffff1673ffffffffffffffffffffffffffffffffffffffff16815260200190815260200160002060009054906101000a900460ff16600381111561171557611714611e77565b5b145b156119d65760008060008873ffffffffffffffffffffffffffffffffffffffff1673ffffffffffffffffffffffffffffffffffffffff16815260200190815260200160002090508060000160009054906101000a900473ffffffffffffffffffffffffffffffffffffffff1681600101826002015483600301846004018380546117a09061289a565b80601f01602080910402602001604051908101604052809291908181526020018280546117cc9061289a565b80156118195780601f106117ee57610100808354040283529160200191611819565b820191906000526020600020905b8154815290600101906020018083116117fc57829003601f168201915b5050505050935081805480602002602001604051908101604052809291908181526020016000905b828210156118ed5783829060005260206000200180546118609061289a565b80601f016020809104026020016040519081016040528092919081815260200182805461188c9061289a565b80156118d95780601f106118ae576101008083540402835291602001916118d9565b820191906000526020600020905b8154815290600101906020018083116118bc57829003601f168201915b505050505081526020019060010190611841565b50505050915080805480602002602001604051908101604052809291908181526020016000905b828210156119c05783829060005260206000200180546119339061289a565b80601f016020809104026020016040519081016040528092919081815260200182805461195f9061289a565b80156119ac5780601f10611981576101008083540402835291602001916119ac565b820191906000526020600020905b81548152906001019060200180831161198f57829003601f168201915b505050505081526020019060010190611914565b5050505090509550955095509550955050611a11565b6040517f08c379a0000000000000000000000000000000000000000000000000000000008152600401611a0890612a23565b60405180910390fd5b91939590929450565b600160008273ffffffffffffffffffffffffffffffffffffffff1673ffffffffffffffffffffffffffffffffffffffff16815260200190815260200160002060009054906101000a900460ff1615611aa7576040517f08c379a0000000000000000000000000000000000000000000000000000000008152600401611a9e90612ab5565b60405180910390fd5b600260008273ffffffffffffffffffffffffffffffffffffffff1673ffffffffffffffffffffffffffffffffffffffff16815260200190815260200160002060009054906101000a900460ff16611cc3576004819080600181540180825580915050600190039060005260206000200160009091909190916101000a81548173ffffffffffffffffffffffffffffffffffffffff021916908373ffffffffffffffffffffffffffffffffffffffff1602179055506001600260008373ffffffffffffffffffffffffffffffffffffffff1673ffffffffffffffffffffffffffffffffffffffff16815260200190815260200160002060006101000a81548160ff02191690831515021790555060005b600380549050811015611cc157600060038281548110611bd957611bd8612733565b5b9060005260206000200160009054906101000a900473ffffffffffffffffffffffffffffffffffffffff16905060008060008373ffffffffffffffffffffffffffffffffffffffff1673ffffffffffffffffffffffffffffffffffffffff16815260200190815260200160002060050160008573ffffffffffffffffffffffffffffffffffffffff1673ffffffffffffffffffffffffffffffffffffffff16815260200190815260200160002060006101000a81548160ff02191690836003811115611ca857611ca7611e77565b5b0217905550508080611cb990612791565b915050611bb6565b505b50565b60026020528060005260406000206000915054906101000a900460ff1681565b60038181548110611cf657600080fd5b906000526020600020016000915054906101000a900473ffffffffffffffffffffffffffffffffffffffff1681565b6040518060400160405280600073ffffffffffffffffffffffffffffffffffffffff16815260200160006003811115611d6157611d60611e77565b5b81525090565b828054611d739061289a565b90600052602060002090601f016020900481019282611d955760008555611ddc565b82601f10611dae57805160ff1916838001178555611ddc565b82800160010185558215611ddc579182015b82811115611ddb578251825591602001919060010190611dc0565b5b509050611de99190611ded565b5090565b5b80821115611e06576000816000905550600101611dee565b5090565b600081519050919050565b600082825260208201905092915050565b6000819050602082019050919050565b600073ffffffffffffffffffffffffffffffffffffffff82169050919050565b6000611e6182611e36565b9050919050565b611e7181611e56565b82525050565b7f4e487b7100000000000000000000000000000000000000000000000000000000600052602160045260246000fd5b60048110611eb757611eb6611e77565b5b50565b6000819050611ec882611ea6565b919050565b6000611ed882611eba565b9050919050565b611ee881611ecd565b82525050565b604082016000820151611f046000850182611e68565b506020820151611f176020850182611edf565b50505050565b6000611f298383611eee565b60408301905092915050565b6000602082019050919050565b6000611f4d82611e0a565b611f578185611e15565b9350611f6283611e26565b8060005b83811015611f93578151611f7a8882611f1d565b9750611f8583611f35565b925050600181019050611f66565b5085935050505092915050565b60006020820190508181036000830152611fba8184611f42565b905092915050565b6000604051905090565b600080fd5b600080fd5b611fdf81611e56565b8114611fea57600080fd5b50565b600081359050611ffc81611fd6565b92915050565b60006020828403121561201857612017611fcc565b5b600061202684828501611fed565b91505092915050565b61203881611e56565b82525050565b600081519050919050565b600082825260208201905092915050565b60005b8381101561207857808201518184015260208101905061205d565b83811115612087576000848401525b50505050565b6000601f19601f8301169050919050565b60006120a98261203e565b6120b38185612049565b93506120c381856020860161205a565b6120cc8161208d565b840191505092915050565b6000819050919050565b6120ea816120d7565b82525050565b6000606082019050612105600083018661202f565b8181036020830152612117818561209e565b905061212660408301846120e1565b949350505050565b60008115159050919050565b6121438161212e565b82525050565b600060208201905061215e600083018461213a565b92915050565b600081519050919050565b600082825260208201905092915050565b6000819050602082019050919050565b600061219c8383611e68565b60208301905092915050565b6000602082019050919050565b60006121c082612164565b6121ca818561216f565b93506121d583612180565b8060005b838110156122065781516121ed8882612190565b97506121f8836121a8565b9250506001810190506121d9565b5085935050505092915050565b600081519050919050565b600082825260208201905092915050565b6000819050602082019050919050565b612248816120d7565b82525050565b600061225a838361223f565b60208301905092915050565b6000602082019050919050565b600061227e82612213565b612288818561221e565b93506122938361222f565b8060005b838110156122c45781516122ab888261224e565b97506122b683612266565b925050600181019050612297565b5085935050505092915050565b600081519050919050565b600082825260208201905092915050565b6000819050602082019050919050565b600082825260208201905092915050565b60006123198261203e565b61232381856122fd565b935061233381856020860161205a565b61233c8161208d565b840191505092915050565b6000612353838361230e565b905092915050565b6000602082019050919050565b6000612373826122d1565b61237d81856122dc565b93508360208202850161238f856122ed565b8060005b858110156123cb57848403895281516123ac8582612347565b94506123b78361235b565b925060208a01995050600181019050612393565b50829750879550505050505092915050565b600060a08201905081810360008301526123f781886121b5565b9050818103602083015261240b8187612273565b9050818103604083015261241f8186612368565b905081810360608301526124338185612368565b905081810360808301526124478184612368565b90509695505050505050565b61245c816120d7565b811461246757600080fd5b50565b60008135905061247981612453565b92915050565b60006020828403121561249557612494611fcc565b5b60006124a38482850161246a565b91505092915050565b60006020820190506124c1600083018461202f565b92915050565b600080fd5b600080fd5b7f4e487b7100000000000000000000000000000000000000000000000000000000600052604160045260246000fd5b6125098261208d565b810181811067ffffffffffffffff82111715612528576125276124d1565b5b80604052505050565b600061253b611fc2565b90506125478282612500565b919050565b600067ffffffffffffffff821115612567576125666124d1565b5b6125708261208d565b9050602081019050919050565b82818337600083830152505050565b600061259f61259a8461254c565b612531565b9050828152602081018484840111156125bb576125ba6124cc565b5b6125c684828561257d565b509392505050565b600082601f8301126125e3576125e26124c7565b5b81356125f384826020860161258c565b91505092915050565b600080600080600060a0868803121561261857612617611fcc565b5b600061262688828901611fed565b955050602086013567ffffffffffffffff81111561264757612646611fd1565b5b612653888289016125ce565b945050604086013567ffffffffffffffff81111561267457612673611fd1565b5b612680888289016125ce565b93505060606126918882890161246a565b925050608086013567ffffffffffffffff8111156126b2576126b1611fd1565b5b6126be888289016125ce565b9150509295509295909350565b600060a0820190506126e0600083018861202f565b81810360208301526126f2818761209e565b905061270160408301866120e1565b81810360608301526127138185612368565b905081810360808301526127278184612368565b90509695505050505050565b7f4e487b7100000000000000000000000000000000000000000000000000000000600052603260045260246000fd5b7f4e487b7100000000000000000000000000000000000000000000000000000000600052601160045260246000fd5b600061279c826120d7565b91507fffffffffffffffffffffffffffffffffffffffffffffffffffffffffffffffff82036127ce576127cd612762565b5b600182019050919050565b7f53656e64657220697320616c726561647920726567697374657265642061732060008201527f612070617469656e740000000000000000000000000000000000000000000000602082015250565b6000612835602983612049565b9150612840826127d9565b604082019050919050565b6000602082019050818103600083015261286481612828565b9050919050565b7f4e487b7100000000000000000000000000000000000000000000000000000000600052602260045260246000fd5b600060028204905060018216806128b257607f821691505b6020821081036128c5576128c461286b565b5b50919050565b7f50617469656e7420646f6573206e6f7420657869737400000000000000000000600082015250565b6000612901601683612049565b915061290c826128cb565b602082019050919050565b60006020820190508181036000830152612930816128f4565b9050919050565b7f546869726420706172747920646f6573206e6f74206578697374000000000000600082015250565b600061296d601a83612049565b915061297882612937565b602082019050919050565b6000602082019050818103600083015261299c81612960565b9050919050565b60006129ae826120d7565b91506129b9836120d7565b9250828210156129cc576129cb612762565b5b828203905092915050565b7f4163636573732064656e69656400000000000000000000000000000000000000600082015250565b6000612a0d600d83612049565b9150612a18826129d7565b602082019050919050565b60006020820190508181036000830152612a3c81612a00565b9050919050565b7f4164647265737320697320616c7265616479207265676973746572656420617360008201527f20612070617469656e7400000000000000000000000000000000000000000000602082015250565b6000612a9f602a83612049565b9150612aaa82612a43565b604082019050919050565b60006020820190508181036000830152612ace81612a92565b905091905056fea264697066735822122096f24e853594edee3260cbbb5943f0389ac8d570520f50622682d1bd966debf464736f6c634300080d0033",
  "immutableReferences": {},
  "source": "// SPDX-License-Identifier: GPL-3.0\r\npragma solidity >=0.5.10;\r\n\r\ncontract MedicalRecordAccess {\r\n    enum AccessStatus { NotRequested, Requested, Approved, Revoked }\r\n    struct Patient {\r\n        address patientAddress; // Address of the patient\r\n        string name;\r\n        uint age;\r\n        string[] date;\r\n        string[] medicalRecords; \r\n        mapping(address => AccessStatus) accessList; // Mapping of third-party addresses to access status\r\n    }\r\n\r\n    struct AccessListItem {\r\n        address thirdParty;\r\n        AccessStatus hasAccess;\r\n    }\r\n\r\n    mapping(address => Patient) public patients;\r\n    mapping(address => bool) public isPatient;\r\n    mapping(address => bool) public isThirdParty;\r\n    address[] public allPatients;\r\n    address[] public allThirdParties;\r\n\r\n    constructor() {}\r\n\r\n    function storeRecord(address _patientAddress, string memory _patientName, string memory _medicalRecord, uint age, string memory _date) public {\r\n        Patient storage patient = patients[_patientAddress];\r\n        patient.patientAddress = _patientAddress;\r\n        patient.name = _patientName;\r\n        patient.age = age;\r\n        patient.date.push(_date);\r\n        patient.medicalRecords.push(_medicalRecord);\r\n        if (!isPatient[_patientAddress]) {\r\n            allPatients.push(_patientAddress);\r\n            isPatient[_patientAddress] = true;\r\n        }\r\n    }\r\n\r\n    function addThirdParty(address _thirdParty) public {\r\n        require(!isPatient[_thirdParty], \"Address is already registered as a patient\");\r\n        if (!isThirdParty[_thirdParty]) {\r\n            allThirdParties.push(_thirdParty);\r\n            isThirdParty[_thirdParty] = true;\r\n            for (uint i = 0; i < allPatients.length; i++) {\r\n                address patientAddress = allPatients[i];\r\n                patients[patientAddress].accessList[_thirdParty] = AccessStatus.NotRequested;\r\n            }\r\n        }\r\n    }\r\n\r\n    function grantAccess(address _thirdParty) public {\r\n        require(isPatient[msg.sender], \"Patient does not exist\");\r\n        patients[msg.sender].accessList[_thirdParty] = AccessStatus.Approved;\r\n    }\r\n\r\n    function revokeAccess(address _thirdParty) public {\r\n        require(isPatient[msg.sender], \"Patient does not exist\");\r\n        patients[msg.sender].accessList[_thirdParty] = AccessStatus.Revoked;\r\n    }\r\n\r\n    function listAccessList() public view returns (AccessListItem[] memory) {\r\n        Patient storage patient = patients[msg.sender];\r\n        AccessListItem[] memory accessList = new AccessListItem[](allThirdParties.length);\r\n        for (uint i = 0; i < allThirdParties.length; i++) {\r\n            if (patient.accessList[allThirdParties[i]]==AccessStatus.NotRequested || patient.accessList[allThirdParties[i]]==AccessStatus.Revoked ){\r\n                continue;\r\n            }\r\n            address thirdParty = allThirdParties[i];\r\n            AccessStatus hasAccess = patient.accessList[thirdParty];\r\n            accessList[i] = AccessListItem(thirdParty, hasAccess);\r\n        }\r\n        return accessList;\r\n    }\r\n\r\n    function requestAccess(address _patient) public {\r\n        require(!isPatient[msg.sender], \"Sender is already registered as a patient\");\r\n        addThirdParty(msg.sender);\r\n        patients[_patient].accessList[msg.sender] = AccessStatus.Requested; // By default, access is requested but not granted\r\n\r\n    }\r\n\r\n    function getMedicalRecords(address _patient) public view returns (address, string memory, uint, string[] memory, string[] memory) {\r\n        require(isPatient[_patient], \"Patient does not exist\");\r\n        if (_patient == msg.sender || patients[_patient].accessList[msg.sender]==AccessStatus.Approved) {\r\n            Patient storage patient = patients[_patient];\r\n            return (patient.patientAddress, patient.name, patient.age, patient.date, patient.medicalRecords);\r\n        } else {\r\n            revert(\"Access denied\");\r\n        }\r\n    }\r\n\r\n    function getAccessRequests() public view returns (address[] memory, uint[] memory, string[] memory, string[] memory, string[] memory) {\r\n        address _thirdParty = msg.sender;\r\n        require(isThirdParty[_thirdParty], \"Third party does not exist\");\r\n        address[] memory patientAddresses = new address[](allPatients.length);\r\n        string[] memory names = new string[](allPatients.length);\r\n        uint[] memory ages = new uint[](allPatients.length);\r\n        string[] memory statuses = new string[](allPatients.length);\r\n        string[] memory dates = new string[](allPatients.length);\r\n        for (uint i = 0; i < allPatients.length; i++) {\r\n            address patientAddress = allPatients[i];\r\n            AccessStatus hasRequested = patients[patientAddress].accessList[_thirdParty];\r\n            string memory name = patients[patientAddress].name;\r\n            uint age = patients[patientAddress].age;\r\n            string memory status;\r\n            string memory date = patients[patientAddress].date[patients[patientAddress].date.length - 1];\r\n            if (hasRequested == AccessStatus.Requested) {\r\n                status = \"Waiting For Approval\";\r\n            } else if (hasRequested == AccessStatus.Approved){\r\n                status = \"Approved\";\r\n            } else if (hasRequested == AccessStatus.Revoked){\r\n                status = \"No Access\";\r\n            }\r\n            else {\r\n                status = \"Not Requested\";\r\n            }\r\n            patientAddresses[i] = patientAddress;\r\n            statuses[i] = status;\r\n            names[i] = name;\r\n            ages[i] = age;\r\n            dates[i] = date;\r\n        }\r\n        return (patientAddresses, ages, dates, names, statuses);\r\n    }\r\n\r\n    function checkIsThirdParty(address _address) external view returns (bool) {\r\n        return isThirdParty[_address];\r\n    }\r\n\r\n\r\n}\r\n",
  "sourcePath": "C:\\Users\\jeffr\\Documents\\GitHub\\Healthcare-Blockchain-Project\\blockchain\\contracts\\MedicalRecordAccess.sol",
  "compiler": {
    "name": "solc",
    "version": "0.8.13+commit.abaa5c0e.Emscripten.clang"
  },
  "schemaVersion": "3.4.16",
  "updatedAt": "2024-04-03T04:08:08.981Z",
  "networkType": "ethereum",
  "devdoc": {
    "kind": "dev",
    "methods": {},
    "version": 1
  },
  "userdoc": {
    "kind": "user",
    "methods": {},
    "version": 1
  }
}