{
  "contractName": "MedicalAppointment",
  "abi": [
    {
      "inputs": [
        {
          "internalType": "address",
          "name": "_hospital",
          "type": "address"
        },
        {
          "internalType": "address",
          "name": "_dehTokenAddress",
          "type": "address"
        },
        {
          "internalType": "address",
          "name": "_medicalRecordAccess",
          "type": "address"
        }
      ],
      "stateMutability": "nonpayable",
      "type": "constructor"
    },
    {
      "inputs": [
        {
          "internalType": "address",
          "name": "",
          "type": "address"
        },
        {
          "internalType": "uint256",
          "name": "",
          "type": "uint256"
        }
      ],
      "name": "allAppointments",
      "outputs": [
        {
          "internalType": "uint256",
          "name": "bookingId",
          "type": "uint256"
        },
        {
          "internalType": "uint256",
          "name": "fee",
          "type": "uint256"
        },
        {
          "internalType": "uint256",
          "name": "appointmentDate",
          "type": "uint256"
        },
        {
          "internalType": "string",
          "name": "appointmentSlot",
          "type": "string"
        },
        {
          "internalType": "enum MedicalAppointment.AppointmentStatus",
          "name": "status",
          "type": "uint8"
        }
      ],
      "stateMutability": "view",
      "type": "function",
      "constant": true
    },
    {
      "inputs": [],
      "name": "dehToken",
      "outputs": [
        {
          "internalType": "contract DEHToken",
          "name": "",
          "type": "address"
        }
      ],
      "stateMutability": "view",
      "type": "function",
      "constant": true
    },
    {
      "inputs": [],
      "name": "hospital",
      "outputs": [
        {
          "internalType": "address",
          "name": "",
          "type": "address"
        }
      ],
      "stateMutability": "view",
      "type": "function",
      "constant": true
    },
    {
      "inputs": [],
      "name": "medicalRecordAccess",
      "outputs": [
        {
          "internalType": "contract MedicalRecordAccess",
          "name": "",
          "type": "address"
        }
      ],
      "stateMutability": "view",
      "type": "function",
      "constant": true
    },
    {
      "inputs": [
        {
          "internalType": "uint256",
          "name": "",
          "type": "uint256"
        }
      ],
      "name": "patientAddresses",
      "outputs": [
        {
          "internalType": "address",
          "name": "",
          "type": "address"
        }
      ],
      "stateMutability": "view",
      "type": "function",
      "constant": true
    },
    {
      "inputs": [
        {
          "internalType": "address",
          "name": "",
          "type": "address"
        }
      ],
      "name": "patients",
      "outputs": [
        {
          "internalType": "address",
          "name": "patientAddress",
          "type": "address"
        },
        {
          "internalType": "string",
          "name": "name",
          "type": "string"
        }
      ],
      "stateMutability": "view",
      "type": "function",
      "constant": true
    },
    {
      "inputs": [
        {
          "internalType": "uint256",
          "name": "_fee",
          "type": "uint256"
        },
        {
          "internalType": "uint256",
          "name": "_appointmentDate",
          "type": "uint256"
        },
        {
          "internalType": "string",
          "name": "_appointmentSlot",
          "type": "string"
        },
        {
          "internalType": "string",
          "name": "_name",
          "type": "string"
        }
      ],
      "name": "requestAppointment",
      "outputs": [],
      "stateMutability": "nonpayable",
      "type": "function"
    },
    {
      "inputs": [],
      "name": "payAppointmentFee",
      "outputs": [],
      "stateMutability": "nonpayable",
      "type": "function"
    },
    {
      "inputs": [
        {
          "internalType": "address",
          "name": "_patientAddress",
          "type": "address"
        }
      ],
      "name": "confirmAppointment",
      "outputs": [],
      "stateMutability": "nonpayable",
      "type": "function"
    },
    {
      "inputs": [
        {
          "internalType": "address",
          "name": "_patientAddress",
          "type": "address"
        }
      ],
      "name": "provideService",
      "outputs": [],
      "stateMutability": "nonpayable",
      "type": "function"
    },
    {
      "inputs": [],
      "name": "acknowledgeService",
      "outputs": [],
      "stateMutability": "nonpayable",
      "type": "function"
    },
    {
      "inputs": [
        {
          "internalType": "address",
          "name": "_patientAddress",
          "type": "address"
        },
        {
          "internalType": "string",
          "name": "_medicalRecord",
          "type": "string"
        }
      ],
      "name": "releaseMedicalRecord",
      "outputs": [],
      "stateMutability": "nonpayable",
      "type": "function"
    },
    {
      "inputs": [],
      "name": "getAllAppointments",
      "outputs": [
        {
          "components": [
            {
              "internalType": "uint256",
              "name": "bookingId",
              "type": "uint256"
            },
            {
              "internalType": "uint256",
              "name": "fee",
              "type": "uint256"
            },
            {
              "internalType": "uint256",
              "name": "appointmentDate",
              "type": "uint256"
            },
            {
              "internalType": "string",
              "name": "appointmentSlot",
              "type": "string"
            },
            {
              "internalType": "enum MedicalAppointment.AppointmentStatus",
              "name": "status",
              "type": "uint8"
            }
          ],
          "internalType": "struct MedicalAppointment.Appointment[]",
          "name": "",
          "type": "tuple[]"
        }
      ],
      "stateMutability": "view",
      "type": "function",
      "constant": true
    },
    {
      "inputs": [
        {
          "internalType": "address",
          "name": "_patientAddress",
          "type": "address"
        }
      ],
      "name": "getPatientAppointments",
      "outputs": [
        {
          "components": [
            {
              "internalType": "uint256",
              "name": "bookingId",
              "type": "uint256"
            },
            {
              "internalType": "uint256",
              "name": "fee",
              "type": "uint256"
            },
            {
              "internalType": "uint256",
              "name": "appointmentDate",
              "type": "uint256"
            },
            {
              "internalType": "string",
              "name": "appointmentSlot",
              "type": "string"
            },
            {
              "internalType": "enum MedicalAppointment.AppointmentStatus",
              "name": "status",
              "type": "uint8"
            }
          ],
          "internalType": "struct MedicalAppointment.Appointment[]",
          "name": "",
          "type": "tuple[]"
        }
      ],
      "stateMutability": "view",
      "type": "function",
      "constant": true
    }
  ],
  "bytecode": "0x6080604052600180553480156200001557600080fd5b50604051620036783803806200367883398181016040528101906200003b919062000170565b826000806101000a81548173ffffffffffffffffffffffffffffffffffffffff021916908373ffffffffffffffffffffffffffffffffffffffff16021790555081600560006101000a81548173ffffffffffffffffffffffffffffffffffffffff021916908373ffffffffffffffffffffffffffffffffffffffff16021790555080600660006101000a81548173ffffffffffffffffffffffffffffffffffffffff021916908373ffffffffffffffffffffffffffffffffffffffff160217905550505050620001cc565b600080fd5b600073ffffffffffffffffffffffffffffffffffffffff82169050919050565b600062000138826200010b565b9050919050565b6200014a816200012b565b81146200015657600080fd5b50565b6000815190506200016a816200013f565b92915050565b6000806000606084860312156200018c576200018b62000106565b5b60006200019c8682870162000159565b9350506020620001af8682870162000159565b9250506040620001c28682870162000159565b9150509250925092565b61349c80620001dc6000396000f3fe608060405234801561001057600080fd5b50600436106100ea5760003560e01c8063a6c6e9e21161008c578063d65a548311610066578063d65a548314610250578063d95be08b1461026e578063e6a07e241461028a578063f246c13d146102a6576100ea565b8063a6c6e9e2146101e6578063aa2fedde14610202578063b40f169114610220576100ea565b80637933570c116100c85780637933570c146101485780638e366c74146101665780639636c70f146101965780639d5dbc04146101ca576100ea565b80630869cfbc146100ef5780630df7d4b8146101205780636408b4a51461012a575b600080fd5b61010960048036038101906101049190612084565b6102b0565b604051610117929190612159565b60405180910390f35b61012861037c565b005b6101326105e4565b60405161013f91906121e8565b60405180910390f35b61015061060a565b60405161015d9190612415565b60405180910390f35b610180600480360381019061017b9190612084565b6109cc565b60405161018d9190612415565b60405180910390f35b6101b060048036038101906101ab9190612463565b610b58565b6040516101c19594939291906124c1565b60405180910390f35b6101e460048036038101906101df9190612084565b610c40565b005b61020060048036038101906101fb9190612650565b610ed3565b005b61020a6113ef565b60405161021791906126ac565b60405180910390f35b61023a600480360381019061023591906126c7565b611413565b60405161024791906126ac565b60405180910390f35b610258611452565b6040516102659190612715565b60405180910390f35b61028860048036038101906102839190612730565b611478565b005b6102a4600480360381019061029f9190612084565b611893565b005b6102ae611b26565b005b60026020528060005260406000206000915090508060000160009054906101000a900473ffffffffffffffffffffffffffffffffffffffff16908060010180546102f9906127fe565b80601f0160208091040260200160405190810160405280929190818152602001828054610325906127fe565b80156103725780601f1061034757610100808354040283529160200191610372565b820191906000526020600020905b81548152906001019060200180831161035557829003601f168201915b5050505050905082565b6000600260003373ffffffffffffffffffffffffffffffffffffffff1673ffffffffffffffffffffffffffffffffffffffff16815260200190815260200160002090506000816002018054905011610409576040517f08c379a00000000000000000000000000000000000000000000000000000000081526004016104009061287b565b60405180910390fd5b6000816002016001836002018054905061042391906128ca565b81548110610434576104336128fe565b5b906000526020600020906005020190506000600581111561045857610457612292565b5b8160040160009054906101000a900460ff16600581111561047c5761047b612292565b5b146104bc576040517f08c379a00000000000000000000000000000000000000000000000000000000081526004016104b39061299f565b60405180910390fd5b6000600282600101546104cf91906129bf565b9050600560009054906101000a900473ffffffffffffffffffffffffffffffffffffffff1673ffffffffffffffffffffffffffffffffffffffff166323b872dd3330846040518463ffffffff1660e01b815260040161053093929190612a19565b6020604051808303816000875af115801561054f573d6000803e3d6000fd5b505050506040513d601f19601f820116820180604052508101906105739190612a88565b6105b2576040517f08c379a00000000000000000000000000000000000000000000000000000000081526004016105a990612b27565b60405180910390fd5b60018260040160006101000a81548160ff021916908360058111156105da576105d9612292565b5b0217905550505050565b600560009054906101000a900473ffffffffffffffffffffffffffffffffffffffff1681565b606060008054906101000a900473ffffffffffffffffffffffffffffffffffffffff1673ffffffffffffffffffffffffffffffffffffffff163373ffffffffffffffffffffffffffffffffffffffff161461069a576040517f08c379a000000000000000000000000000000000000000000000000000000000815260040161069190612bb9565b60405180910390fd5b600080600090505b6003805490508110156107535760026000600383815481106106c7576106c66128fe565b5b9060005260206000200160009054906101000a900473ffffffffffffffffffffffffffffffffffffffff1673ffffffffffffffffffffffffffffffffffffffff1673ffffffffffffffffffffffffffffffffffffffff168152602001908152602001600020600201805490508261073e9190612bd9565b9150808061074b90612c2f565b9150506106a2565b5060008167ffffffffffffffff8111156107705761076f612525565b5b6040519080825280602002602001820160405280156107a957816020015b610796611f2e565b81526020019060019003908161078e5790505b5090506000805b6003805490508110156109c2576000600382815481106107d3576107d26128fe565b5b9060005260206000200160009054906101000a900473ffffffffffffffffffffffffffffffffffffffff1690506000600260008373ffffffffffffffffffffffffffffffffffffffff1673ffffffffffffffffffffffffffffffffffffffff168152602001908152602001600020905060005b81600201805490508110156109ac5781600201818154811061086b5761086a6128fe565b5b90600052602060002090600502016040518060a00160405290816000820154815260200160018201548152602001600282015481526020016003820180546108b2906127fe565b80601f01602080910402602001604051908101604052809291908181526020018280546108de906127fe565b801561092b5780601f106109005761010080835404028352916020019161092b565b820191906000526020600020905b81548152906001019060200180831161090e57829003601f168201915b505050505081526020016004820160009054906101000a900460ff16600581111561095957610958612292565b5b600581111561096b5761096a612292565b5b8152505086868061097b90612c2f565b97508151811061098e5761098d6128fe565b5b602002602001018190525080806109a490612c2f565b915050610846565b50505080806109ba90612c2f565b9150506107b0565b5081935050505090565b6060600260008373ffffffffffffffffffffffffffffffffffffffff1673ffffffffffffffffffffffffffffffffffffffff168152602001908152602001600020600201805480602002602001604051908101604052809291908181526020016000905b82821015610b4d57838290600052602060002090600502016040518060a0016040529081600082015481526020016001820154815260200160028201548152602001600382018054610a81906127fe565b80601f0160208091040260200160405190810160405280929190818152602001828054610aad906127fe565b8015610afa5780601f10610acf57610100808354040283529160200191610afa565b820191906000526020600020905b815481529060010190602001808311610add57829003601f168201915b505050505081526020016004820160009054906101000a900460ff166005811115610b2857610b27612292565b5b6005811115610b3a57610b39612292565b5b8152505081526020019060010190610a30565b505050509050919050565b60046020528160005260406000208181548110610b7457600080fd5b906000526020600020906005020160009150915050806000015490806001015490806002015490806003018054610baa906127fe565b80601f0160208091040260200160405190810160405280929190818152602001828054610bd6906127fe565b8015610c235780601f10610bf857610100808354040283529160200191610c23565b820191906000526020600020905b815481529060010190602001808311610c0657829003601f168201915b5050505050908060040160009054906101000a900460ff16905085565b60008054906101000a900473ffffffffffffffffffffffffffffffffffffffff1673ffffffffffffffffffffffffffffffffffffffff163373ffffffffffffffffffffffffffffffffffffffff1614610cce576040517f08c379a0000000000000000000000000000000000000000000000000000000008152600401610cc590612ce9565b60405180910390fd5b6000600260008373ffffffffffffffffffffffffffffffffffffffff1673ffffffffffffffffffffffffffffffffffffffff1681526020019081526020016000209050600073ffffffffffffffffffffffffffffffffffffffff168160000160009054906101000a900473ffffffffffffffffffffffffffffffffffffffff1673ffffffffffffffffffffffffffffffffffffffff1603610da4576040517f08c379a0000000000000000000000000000000000000000000000000000000008152600401610d9b90612d55565b60405180910390fd5b6000816002018054905011610dee576040517f08c379a0000000000000000000000000000000000000000000000000000000008152600401610de59061287b565b60405180910390fd5b60008160020160018360020180549050610e0891906128ca565b81548110610e1957610e186128fe565b5b9060005260206000209060050201905060026005811115610e3d57610e3c612292565b5b8160040160009054906101000a900460ff166005811115610e6157610e60612292565b5b14610ea1576040517f08c379a0000000000000000000000000000000000000000000000000000000008152600401610e9890612de7565b60405180910390fd5b60038160040160006101000a81548160ff02191690836005811115610ec957610ec8612292565b5b0217905550505050565b60008054906101000a900473ffffffffffffffffffffffffffffffffffffffff1673ffffffffffffffffffffffffffffffffffffffff163373ffffffffffffffffffffffffffffffffffffffff1614610f61576040517f08c379a0000000000000000000000000000000000000000000000000000000008152600401610f5890612e79565b60405180910390fd5b6000600260008473ffffffffffffffffffffffffffffffffffffffff1673ffffffffffffffffffffffffffffffffffffffff1681526020019081526020016000209050600073ffffffffffffffffffffffffffffffffffffffff168160000160009054906101000a900473ffffffffffffffffffffffffffffffffffffffff1673ffffffffffffffffffffffffffffffffffffffff1603611037576040517f08c379a000000000000000000000000000000000000000000000000000000000815260040161102e90612d55565b60405180910390fd5b6000816002018054905011611081576040517f08c379a00000000000000000000000000000000000000000000000000000000081526004016110789061287b565b60405180910390fd5b6000816002016001836002018054905061109b91906128ca565b815481106110ac576110ab6128fe565b5b90600052602060002090600502019050600460058111156110d0576110cf612292565b5b8160040160009054906101000a900460ff1660058111156110f4576110f3612292565b5b14611134576040517f08c379a000000000000000000000000000000000000000000000000000000000815260040161112b90612f0b565b60405180910390fd5b6000600282600101546111479190612f5a565b9050600560009054906101000a900473ffffffffffffffffffffffffffffffffffffffff1673ffffffffffffffffffffffffffffffffffffffff1663a9059cbb60008054906101000a900473ffffffffffffffffffffffffffffffffffffffff16836040518363ffffffff1660e01b81526004016111c6929190612f8b565b6020604051808303816000875af11580156111e5573d6000803e3d6000fd5b505050506040513d601f19601f820116820180604052508101906112099190612a88565b611248576040517f08c379a000000000000000000000000000000000000000000000000000000000815260040161123f90613026565b60405180910390fd5b60058260040160006101000a81548160ff021916908360058111156112705761126f612292565b5b0217905550600660009054906101000a900473ffffffffffffffffffffffffffffffffffffffff1673ffffffffffffffffffffffffffffffffffffffff1663f7ca0af08685600101876040518463ffffffff1660e01b81526004016112d7939291906130db565b600060405180830381600087803b1580156112f157600080fd5b505af1158015611305573d6000803e3d6000fd5b50505050600560009054906101000a900473ffffffffffffffffffffffffffffffffffffffff1673ffffffffffffffffffffffffffffffffffffffff1663a9059cbb86836040518363ffffffff1660e01b8152600401611366929190612f8b565b6020604051808303816000875af1158015611385573d6000803e3d6000fd5b505050506040513d601f19601f820116820180604052508101906113a99190612a88565b6113e8576040517f08c379a00000000000000000000000000000000000000000000000000000000081526004016113df9061316c565b60405180910390fd5b5050505050565b60008054906101000a900473ffffffffffffffffffffffffffffffffffffffff1681565b6003818154811061142357600080fd5b906000526020600020016000915054906101000a900473ffffffffffffffffffffffffffffffffffffffff1681565b600660009054906101000a900473ffffffffffffffffffffffffffffffffffffffff1681565b61148133611db8565b6114c0576040517f08c379a00000000000000000000000000000000000000000000000000000000081526004016114b7906131fe565b60405180910390fd5b600073ffffffffffffffffffffffffffffffffffffffff16600260003373ffffffffffffffffffffffffffffffffffffffff1673ffffffffffffffffffffffffffffffffffffffff16815260200190815260200160002060000160009054906101000a900473ffffffffffffffffffffffffffffffffffffffff1673ffffffffffffffffffffffffffffffffffffffff16036116925733600260003373ffffffffffffffffffffffffffffffffffffffff1673ffffffffffffffffffffffffffffffffffffffff16815260200190815260200160002060000160006101000a81548173ffffffffffffffffffffffffffffffffffffffff021916908373ffffffffffffffffffffffffffffffffffffffff16021790555080600260003373ffffffffffffffffffffffffffffffffffffffff1673ffffffffffffffffffffffffffffffffffffffff168152602001908152602001600020600101908051906020019061162d929190611f6f565b506003339080600181540180825580915050600190039060005260206000200160009091909190916101000a81548173ffffffffffffffffffffffffffffffffffffffff021916908373ffffffffffffffffffffffffffffffffffffffff1602179055505b600061169c611f07565b905060006040518060a00160405280838152602001878152602001868152602001858152602001600060058111156116d7576116d6612292565b5b8152509050600260003373ffffffffffffffffffffffffffffffffffffffff1673ffffffffffffffffffffffffffffffffffffffff1681526020019081526020016000206002018190806001815401808255809150506001900390600052602060002090600502016000909190919091506000820151816000015560208201518160010155604082015181600201556060820151816003019080519060200190611782929190611f6f565b5060808201518160040160006101000a81548160ff021916908360058111156117ae576117ad612292565b5b02179055505050600460003373ffffffffffffffffffffffffffffffffffffffff1673ffffffffffffffffffffffffffffffffffffffff1681526020019081526020016000208190806001815401808255809150506001900390600052602060002090600502016000909190919091506000820151816000015560208201518160010155604082015181600201556060820151816003019080519060200190611858929190611f6f565b5060808201518160040160006101000a81548160ff0219169083600581111561188457611883612292565b5b02179055505050505050505050565b60008054906101000a900473ffffffffffffffffffffffffffffffffffffffff1673ffffffffffffffffffffffffffffffffffffffff163373ffffffffffffffffffffffffffffffffffffffff1614611921576040517f08c379a000000000000000000000000000000000000000000000000000000000815260040161191890613290565b60405180910390fd5b6000600260008373ffffffffffffffffffffffffffffffffffffffff1673ffffffffffffffffffffffffffffffffffffffff1681526020019081526020016000209050600073ffffffffffffffffffffffffffffffffffffffff168160000160009054906101000a900473ffffffffffffffffffffffffffffffffffffffff1673ffffffffffffffffffffffffffffffffffffffff16036119f7576040517f08c379a00000000000000000000000000000000000000000000000000000000081526004016119ee90612d55565b60405180910390fd5b6000816002018054905011611a41576040517f08c379a0000000000000000000000000000000000000000000000000000000008152600401611a389061287b565b60405180910390fd5b60008160020160018360020180549050611a5b91906128ca565b81548110611a6c57611a6b6128fe565b5b9060005260206000209060050201905060016005811115611a9057611a8f612292565b5b8160040160009054906101000a900460ff166005811115611ab457611ab3612292565b5b14611af4576040517f08c379a0000000000000000000000000000000000000000000000000000000008152600401611aeb90613322565b60405180910390fd5b60028160040160006101000a81548160ff02191690836005811115611b1c57611b1b612292565b5b0217905550505050565b60008054906101000a900473ffffffffffffffffffffffffffffffffffffffff1673ffffffffffffffffffffffffffffffffffffffff163373ffffffffffffffffffffffffffffffffffffffff1603611bb4576040517f08c379a0000000000000000000000000000000000000000000000000000000008152600401611bab906133b4565b60405180910390fd5b6000600260003373ffffffffffffffffffffffffffffffffffffffff1673ffffffffffffffffffffffffffffffffffffffff1681526020019081526020016000209050600073ffffffffffffffffffffffffffffffffffffffff168160000160009054906101000a900473ffffffffffffffffffffffffffffffffffffffff1673ffffffffffffffffffffffffffffffffffffffff1603611c8a576040517f08c379a0000000000000000000000000000000000000000000000000000000008152600401611c8190612d55565b60405180910390fd5b6000816002018054905011611cd4576040517f08c379a0000000000000000000000000000000000000000000000000000000008152600401611ccb9061287b565b60405180910390fd5b60008160020160018360020180549050611cee91906128ca565b81548110611cff57611cfe6128fe565b5b9060005260206000209060050201905060036005811115611d2357611d22612292565b5b8160040160009054906101000a900460ff166005811115611d4757611d46612292565b5b14611d87576040517f08c379a0000000000000000000000000000000000000000000000000000000008152600401611d7e90613446565b60405180910390fd5b60048160040160006101000a81548160ff02191690836005811115611daf57611dae612292565b5b02179055505050565b600080600260008473ffffffffffffffffffffffffffffffffffffffff1673ffffffffffffffffffffffffffffffffffffffff1681526020019081526020016000206002018054905003611e0f5760019050611f02565b6000600260008473ffffffffffffffffffffffffffffffffffffffff1673ffffffffffffffffffffffffffffffffffffffff1681526020019081526020016000206002016001600260008673ffffffffffffffffffffffffffffffffffffffff1673ffffffffffffffffffffffffffffffffffffffff16815260200190815260200160002060020180549050611ea591906128ca565b81548110611eb657611eb56128fe565b5b90600052602060002090600502019050600580811115611ed957611ed8612292565b5b8160040160009054906101000a900460ff166005811115611efd57611efc612292565b5b149150505b919050565b600080600154905060016000815480929190611f2290612c2f565b91905055508091505090565b6040518060a001604052806000815260200160008152602001600081526020016060815260200160006005811115611f6957611f68612292565b5b81525090565b828054611f7b906127fe565b90600052602060002090601f016020900481019282611f9d5760008555611fe4565b82601f10611fb657805160ff1916838001178555611fe4565b82800160010185558215611fe4579182015b82811115611fe3578251825591602001919060010190611fc8565b5b509050611ff19190611ff5565b5090565b5b8082111561200e576000816000905550600101611ff6565b5090565b6000604051905090565b600080fd5b600080fd5b600073ffffffffffffffffffffffffffffffffffffffff82169050919050565b600061205182612026565b9050919050565b61206181612046565b811461206c57600080fd5b50565b60008135905061207e81612058565b92915050565b60006020828403121561209a5761209961201c565b5b60006120a88482850161206f565b91505092915050565b6120ba81612046565b82525050565b600081519050919050565b600082825260208201905092915050565b60005b838110156120fa5780820151818401526020810190506120df565b83811115612109576000848401525b50505050565b6000601f19601f8301169050919050565b600061212b826120c0565b61213581856120cb565b93506121458185602086016120dc565b61214e8161210f565b840191505092915050565b600060408201905061216e60008301856120b1565b81810360208301526121808184612120565b90509392505050565b6000819050919050565b60006121ae6121a96121a484612026565b612189565b612026565b9050919050565b60006121c082612193565b9050919050565b60006121d2826121b5565b9050919050565b6121e2816121c7565b82525050565b60006020820190506121fd60008301846121d9565b92915050565b600081519050919050565b600082825260208201905092915050565b6000819050602082019050919050565b6000819050919050565b6122428161222f565b82525050565b600082825260208201905092915050565b6000612264826120c0565b61226e8185612248565b935061227e8185602086016120dc565b6122878161210f565b840191505092915050565b7f4e487b7100000000000000000000000000000000000000000000000000000000600052602160045260246000fd5b600681106122d2576122d1612292565b5b50565b60008190506122e3826122c1565b919050565b60006122f3826122d5565b9050919050565b612303816122e8565b82525050565b600060a0830160008301516123216000860182612239565b5060208301516123346020860182612239565b5060408301516123476040860182612239565b506060830151848203606086015261235f8282612259565b915050608083015161237460808601826122fa565b508091505092915050565b600061238b8383612309565b905092915050565b6000602082019050919050565b60006123ab82612203565b6123b5818561220e565b9350836020820285016123c78561221f565b8060005b8581101561240357848403895281516123e4858261237f565b94506123ef83612393565b925060208a019950506001810190506123cb565b50829750879550505050505092915050565b6000602082019050818103600083015261242f81846123a0565b905092915050565b6124408161222f565b811461244b57600080fd5b50565b60008135905061245d81612437565b92915050565b6000806040838503121561247a5761247961201c565b5b60006124888582860161206f565b92505060206124998582860161244e565b9150509250929050565b6124ac8161222f565b82525050565b6124bb816122e8565b82525050565b600060a0820190506124d660008301886124a3565b6124e360208301876124a3565b6124f060408301866124a3565b81810360608301526125028185612120565b905061251160808301846124b2565b9695505050505050565b600080fd5b600080fd5b7f4e487b7100000000000000000000000000000000000000000000000000000000600052604160045260246000fd5b61255d8261210f565b810181811067ffffffffffffffff8211171561257c5761257b612525565b5b80604052505050565b600061258f612012565b905061259b8282612554565b919050565b600067ffffffffffffffff8211156125bb576125ba612525565b5b6125c48261210f565b9050602081019050919050565b82818337600083830152505050565b60006125f36125ee846125a0565b612585565b90508281526020810184848401111561260f5761260e612520565b5b61261a8482856125d1565b509392505050565b600082601f8301126126375761263661251b565b5b81356126478482602086016125e0565b91505092915050565b600080604083850312156126675761266661201c565b5b60006126758582860161206f565b925050602083013567ffffffffffffffff81111561269657612695612021565b5b6126a285828601612622565b9150509250929050565b60006020820190506126c160008301846120b1565b92915050565b6000602082840312156126dd576126dc61201c565b5b60006126eb8482850161244e565b91505092915050565b60006126ff826121b5565b9050919050565b61270f816126f4565b82525050565b600060208201905061272a6000830184612706565b92915050565b6000806000806080858703121561274a5761274961201c565b5b60006127588782880161244e565b94505060206127698782880161244e565b935050604085013567ffffffffffffffff81111561278a57612789612021565b5b61279687828801612622565b925050606085013567ffffffffffffffff8111156127b7576127b6612021565b5b6127c387828801612622565b91505092959194509250565b7f4e487b7100000000000000000000000000000000000000000000000000000000600052602260045260246000fd5b6000600282049050600182168061281657607f821691505b602082108103612829576128286127cf565b5b50919050565b7f50617469656e7420686173206e6f206170706f696e746d656e74730000000000600082015250565b6000612865601b836120cb565b91506128708261282f565b602082019050919050565b6000602082019050818103600083015261289481612858565b9050919050565b7f4e487b7100000000000000000000000000000000000000000000000000000000600052601160045260246000fd5b60006128d58261222f565b91506128e08361222f565b9250828210156128f3576128f261289b565b5b828203905092915050565b7f4e487b7100000000000000000000000000000000000000000000000000000000600052603260045260246000fd5b7f4c6174657374206170706f696e746d656e7420737461747573206d757374206260008201527f652050656e64696e670000000000000000000000000000000000000000000000602082015250565b60006129896029836120cb565b91506129948261292d565b604082019050919050565b600060208201905081810360008301526129b88161297c565b9050919050565b60006129ca8261222f565b91506129d58361222f565b9250817fffffffffffffffffffffffffffffffffffffffffffffffffffffffffffffffff0483118215151615612a0e57612a0d61289b565b5b828202905092915050565b6000606082019050612a2e60008301866120b1565b612a3b60208301856120b1565b612a4860408301846124a3565b949350505050565b60008115159050919050565b612a6581612a50565b8114612a7057600080fd5b50565b600081519050612a8281612a5c565b92915050565b600060208284031215612a9e57612a9d61201c565b5b6000612aac84828501612a73565b91505092915050565b7f496e73756666696369656e7420616c6c6f77616e6365206f722062616c616e6360008201527f6500000000000000000000000000000000000000000000000000000000000000602082015250565b6000612b116021836120cb565b9150612b1c82612ab5565b604082019050919050565b60006020820190508181036000830152612b4081612b04565b9050919050565b7f4f6e6c7920686f73706974616c2063616e2061636365737320616c6c2061707060008201527f6f696e746d656e74730000000000000000000000000000000000000000000000602082015250565b6000612ba36029836120cb565b9150612bae82612b47565b604082019050919050565b60006020820190508181036000830152612bd281612b96565b9050919050565b6000612be48261222f565b9150612bef8361222f565b9250827fffffffffffffffffffffffffffffffffffffffffffffffffffffffffffffffff03821115612c2457612c2361289b565b5b828201905092915050565b6000612c3a8261222f565b91507fffffffffffffffffffffffffffffffffffffffffffffffffffffffffffffffff8203612c6c57612c6b61289b565b5b600182019050919050565b7f4f6e6c7920686f73706974616c2063616e2070726f766964652073657276696360008201527f6500000000000000000000000000000000000000000000000000000000000000602082015250565b6000612cd36021836120cb565b9150612cde82612c77565b604082019050919050565b60006020820190508181036000830152612d0281612cc6565b9050919050565b7f50617469656e74206e6f7420666f756e64000000000000000000000000000000600082015250565b6000612d3f6011836120cb565b9150612d4a82612d09565b602082019050919050565b60006020820190508181036000830152612d6e81612d32565b9050919050565b7f4c6174657374206170706f696e746d656e7420737461747573206d757374206260008201527f6520436f6e6669726d6564000000000000000000000000000000000000000000602082015250565b6000612dd1602b836120cb565b9150612ddc82612d75565b604082019050919050565b60006020820190508181036000830152612e0081612dc4565b9050919050565b7f4f6e6c7920686f73706974616c2063616e2072656c65617365206d656469636160008201527f6c207265636f7264730000000000000000000000000000000000000000000000602082015250565b6000612e636029836120cb565b9150612e6e82612e07565b604082019050919050565b60006020820190508181036000830152612e9281612e56565b9050919050565b7f4c6174657374206170706f696e746d656e7420737461747573206d757374206260008201527f652041636b6e6f776c6564676564536572766963650000000000000000000000602082015250565b6000612ef56035836120cb565b9150612f0082612e99565b604082019050919050565b60006020820190508181036000830152612f2481612ee8565b9050919050565b7f4e487b7100000000000000000000000000000000000000000000000000000000600052601260045260246000fd5b6000612f658261222f565b9150612f708361222f565b925082612f8057612f7f612f2b565b5b828204905092915050565b6000604082019050612fa060008301856120b1565b612fad60208301846124a3565b9392505050565b7f546f6b656e207472616e7366657220746f20686f73706974616c206661696c6560008201527f6400000000000000000000000000000000000000000000000000000000000000602082015250565b60006130106021836120cb565b915061301b82612fb4565b604082019050919050565b6000602082019050818103600083015261303f81613003565b9050919050565b60008190508160005260206000209050919050565b60008154613068816127fe565b61307281866120cb565b9450600182166000811461308d576001811461309f576130d2565b60ff19831686526020860193506130d2565b6130a885613046565b60005b838110156130ca578154818901526001820191506020810190506130ab565b808801955050505b50505092915050565b60006060820190506130f060008301866120b1565b8181036020830152613102818561305b565b905081810360408301526131168184612120565b9050949350505050565b7f546f6b656e207472616e7366657220746f2070617469656e74206661696c6564600082015250565b60006131566020836120cb565b915061316182613120565b602082019050919050565b6000602082019050818103600083015261318581613149565b9050919050565b7f4c617374206170706f696e746d656e74277320737461747573206d757374206260008201527f6520636f6d706c65746564000000000000000000000000000000000000000000602082015250565b60006131e8602b836120cb565b91506131f38261318c565b604082019050919050565b60006020820190508181036000830152613217816131db565b9050919050565b7f4f6e6c7920686f73706974616c2063616e20636f6e6669726d206170706f696e60008201527f746d656e74730000000000000000000000000000000000000000000000000000602082015250565b600061327a6026836120cb565b91506132858261321e565b604082019050919050565b600060208201905081810360008301526132a98161326d565b9050919050565b7f4c6174657374206170706f696e746d656e7420737461747573206d757374206260008201527f6520506169640000000000000000000000000000000000000000000000000000602082015250565b600061330c6026836120cb565b9150613317826132b0565b604082019050919050565b6000602082019050818103600083015261333b816132ff565b9050919050565b7f4f6e6c792070617469656e74732063616e2061636b6e6f776c6564676520736560008201527f7276696365000000000000000000000000000000000000000000000000000000602082015250565b600061339e6025836120cb565b91506133a982613342565b604082019050919050565b600060208201905081810360008301526133cd81613391565b9050919050565b7f4c6174657374206170706f696e746d656e7420737461747573206d757374206260008201527f65205365727669636550726f7669646564000000000000000000000000000000602082015250565b60006134306031836120cb565b915061343b826133d4565b604082019050919050565b6000602082019050818103600083015261345f81613423565b905091905056fea264697066735822122031ea9d366b2416b6cb29a44cbcc148be6d54ef30c40f2e8235179570ecbfbe9c64736f6c634300080d0033",
  "immutableReferences": {},
  "source": "// SPDX-License-Identifier: GPL-3.0\r\npragma solidity >=0.5.10;\r\n\r\nimport \"@openzeppelin/contracts/token/ERC20/IERC20.sol\";\r\nimport \"./MedicalRecordAccess.sol\"; // Import the other smart contract\r\nimport \"./DEHToken.sol\";\r\n\r\ncontract MedicalAppointment {\r\n       enum AppointmentStatus { Pending, Paid, Confirmed, ServiceProvided, AcknowledgedService, RecordReleased }\r\n\r\n    struct Appointment {\r\n        uint bookingId;\r\n        uint fee;\r\n        uint appointmentDate;\r\n        string appointmentSlot;\r\n        AppointmentStatus status;\r\n    }\r\n\r\n    struct Patient {\r\n        address patientAddress;\r\n        string name;\r\n        Appointment[] appointments;\r\n    }\r\n\r\n    address public hospital;\r\n    uint private nextBookingId = 1; // Counter for generating unique booking IDs\r\n    mapping(address => Patient) public patients;\r\n    address[] public patientAddresses; // Array to store patient addresses\r\n    mapping(address => Appointment[]) public allAppointments;\r\n    DEHToken public dehToken;\r\n    MedicalRecordAccess public medicalRecordAccess; // Instance of the other smart contract\r\n    constructor(address _hospital, address _dehTokenAddress, address _medicalRecordAccess) {\r\n        hospital = _hospital;\r\n        dehToken =  DEHToken(_dehTokenAddress);\r\n        medicalRecordAccess = MedicalRecordAccess(_medicalRecordAccess); // Initialize the instance\r\n    }\r\n\r\n    // Function to add patient address to the patientAddresses array\r\n    function addPatientAddress(address _patientAddress) private {\r\n        // Check if the patient address is not already added\r\n        bool exists = false;\r\n        for (uint i = 0; i < patientAddresses.length; i++) {\r\n            if (patientAddresses[i] == _patientAddress) {\r\n                exists = true;\r\n                break;\r\n            }\r\n        }\r\n        // If patient address does not exist, add it\r\n        if (!exists) {\r\n            patientAddresses.push(_patientAddress);\r\n        }\r\n    }\r\n\r\n    function requestAppointment(uint _fee, uint _appointmentDate, string memory _appointmentSlot, string memory _name) public {\r\n        // Check if the patient has previous appointments\r\n        require(hasLastAppointmentRecordReleased(msg.sender), \"Last appointment's status must be completed\");\r\n\r\n        // Create new patient if not exists\r\n        if (patients[msg.sender].patientAddress == address(0)) {\r\n            patients[msg.sender].patientAddress = msg.sender;\r\n            patients[msg.sender].name = _name;\r\n            patientAddresses.push(msg.sender); // Add patient address to the list\r\n        }\r\n\r\n        uint bookingId = getNextBookingId(); // Get the next unique booking ID\r\n        Appointment memory newAppointment = Appointment(bookingId, _fee, _appointmentDate, _appointmentSlot, AppointmentStatus.Pending);\r\n\r\n        // Add appointment to patient's list\r\n        patients[msg.sender].appointments.push(newAppointment);\r\n        allAppointments[msg.sender].push(newAppointment);\r\n    }\r\n\r\n\r\n    // Internal function to check if the last appointment's status is RecordReleased\r\n    function hasLastAppointmentRecordReleased(address _patientAddress) private view returns (bool) {\r\n        if (patients[_patientAddress].appointments.length == 0) {\r\n            // No previous appointments, so return true\r\n            return true;\r\n        } else {\r\n            // Get the status of the last appointment\r\n            Appointment storage lastAppointment = patients[_patientAddress].appointments[patients[_patientAddress].appointments.length - 1];\r\n            return lastAppointment.status == AppointmentStatus.RecordReleased;\r\n        }\r\n}\r\n\r\n    // Internal function to get the next unique booking ID\r\n    function getNextBookingId() private returns (uint) {\r\n        uint bookingId = nextBookingId;\r\n        nextBookingId++; // Increment the counter for the next booking ID\r\n        return bookingId;\r\n    }\r\n\r\n    function payAppointmentFee() public {\r\n        Patient storage patient = patients[msg.sender];\r\n        \r\n        // Ensure that the patient has appointments\r\n        require(patient.appointments.length > 0, \"Patient has no appointments\");\r\n        \r\n        // Find the latest appointment of the patient\r\n        Appointment storage latestAppointment = patient.appointments[patient.appointments.length - 1];\r\n        \r\n        // Ensure that the latest appointment status is \"Pending\" before allowing payment\r\n        require(latestAppointment.status == AppointmentStatus.Pending, \"Latest appointment status must be Pending\");\r\n        \r\n        // Transfer the appointment fee (doubled) from the patient's account to the contract's address\r\n        uint doubledFee = latestAppointment.fee * 2;\r\n        require(dehToken.transferFrom(msg.sender, address(this), doubledFee), \"Insufficient allowance or balance\");\r\n        \r\n        // Update the latest appointment status to \"Paid\" after successful payment\r\n        latestAppointment.status = AppointmentStatus.Paid;\r\n    }\r\n\r\n\r\n    function confirmAppointment(address _patientAddress) public {\r\n        require(msg.sender == hospital, \"Only hospital can confirm appointments\");\r\n        Patient storage patient = patients[_patientAddress];\r\n        \r\n        // Ensure that the patient exists and has appointments\r\n        require(patient.patientAddress != address(0), \"Patient not found\");\r\n        require(patient.appointments.length > 0, \"Patient has no appointments\");\r\n        \r\n        // Find the latest appointment of the patient\r\n        Appointment storage latestAppointment = patient.appointments[patient.appointments.length - 1];\r\n        \r\n        // Ensure that the latest appointment status is \"Paid\" before confirming\r\n        require(latestAppointment.status == AppointmentStatus.Paid, \"Latest appointment status must be Paid\");\r\n        \r\n        // Update the latest appointment status to \"Confirmed\"\r\n        latestAppointment.status = AppointmentStatus.Confirmed;\r\n    }\r\n\r\n\r\n\r\n    function provideService(address _patientAddress) public {\r\n        require(msg.sender == hospital, \"Only hospital can provide service\");\r\n        Patient storage patient = patients[_patientAddress];\r\n        \r\n        // Ensure that the patient exists and has appointments\r\n        require(patient.patientAddress != address(0), \"Patient not found\");\r\n        require(patient.appointments.length > 0, \"Patient has no appointments\");\r\n        \r\n        // Find the latest appointment of the patient\r\n        Appointment storage latestAppointment = patient.appointments[patient.appointments.length - 1];\r\n        \r\n        // Ensure that the status of the latest appointment is \"Confirmed\" before providing service\r\n        require(latestAppointment.status == AppointmentStatus.Confirmed, \"Latest appointment status must be Confirmed\");\r\n        \r\n        // Update the status of the latest appointment to \"ServiceProvided\"\r\n        latestAppointment.status = AppointmentStatus.ServiceProvided;\r\n    }\r\n\r\n\r\n    function acknowledgeService() public {\r\n        // Ensure that the message sender is the patient\r\n        require(msg.sender != hospital, \"Only patients can acknowledge service\");\r\n        Patient storage patient = patients[msg.sender];\r\n        \r\n        // Ensure that the patient exists and has appointments\r\n        require(patient.patientAddress != address(0), \"Patient not found\");\r\n        require(patient.appointments.length > 0, \"Patient has no appointments\");\r\n        \r\n        // Find the latest appointment of the patient\r\n        Appointment storage latestAppointment = patient.appointments[patient.appointments.length - 1];\r\n        \r\n        // Ensure that the status of the latest appointment is \"ServiceProvided\" before acknowledgment\r\n        require(latestAppointment.status == AppointmentStatus.ServiceProvided, \"Latest appointment status must be ServiceProvided\");\r\n        \r\n        // Update the status of the latest appointment to \"AcknowledgedService\"\r\n        latestAppointment.status = AppointmentStatus.AcknowledgedService;\r\n    }\r\n\r\n\r\n    function releaseMedicalRecord(address _patientAddress, string memory _medicalRecord) public {\r\n        // Ensure that the message sender is the hospital\r\n        require(msg.sender == hospital, \"Only hospital can release medical records\");\r\n\r\n        // Find the patient and ensure that the patient exists and has appointments\r\n        Patient storage patient = patients[_patientAddress];\r\n        require(patient.patientAddress != address(0), \"Patient not found\");\r\n        require(patient.appointments.length > 0, \"Patient has no appointments\");\r\n\r\n        // Find the latest appointment of the patient\r\n        Appointment storage latestAppointment = patient.appointments[patient.appointments.length - 1];\r\n\r\n        // Ensure that the status of the latest appointment is \"ServiceProvided\" before releasing the record\r\n        require(latestAppointment.status == AppointmentStatus.AcknowledgedService, \"Latest appointment status must be AcknowledgedService\");\r\n\r\n        // Calculate the half fee\r\n        uint halfFee = latestAppointment.fee / 2;\r\n\r\n        // Transfer half of the fee to the hospital\r\n        require(dehToken.transfer(hospital, halfFee), \"Token transfer to hospital failed\");\r\n\r\n        // Update the status of the latest appointment to \"RecordReleased\"\r\n        latestAppointment.status = AppointmentStatus.RecordReleased;\r\n\r\n        // Call the storeRecord function from the MedicalRecordAccess contract to store the medical record\r\n        medicalRecordAccess.storeRecord(_patientAddress, patient.name, _medicalRecord);\r\n\r\n        // Transfer half of the fee to the patient\r\n        require(dehToken.transfer(_patientAddress, halfFee), \"Token transfer to patient failed\");\r\n    }\r\n\r\n\r\n\r\n\r\nfunction getAllAppointments() public view returns (Appointment[] memory) {\r\n    // Ensure that the message sender is the hospital\r\n    require(msg.sender == hospital, \"Only hospital can access all appointments\");\r\n\r\n    // Calculate the total number of appointments\r\n    uint totalAppointments;\r\n    for (uint i = 0; i < patientAddresses.length; i++) {\r\n        totalAppointments += patients[patientAddresses[i]].appointments.length;\r\n    }\r\n\r\n    // Create a dynamic array to store all appointments\r\n    Appointment[] memory allAppointmentsCombined = new Appointment[](totalAppointments);\r\n    uint index = 0;\r\n\r\n    // Iterate through all patient addresses and concatenate their appointments\r\n    for (uint i = 0; i < patientAddresses.length; i++) {\r\n        address patientAddress = patientAddresses[i];\r\n        Patient storage patient = patients[patientAddress];\r\n        for (uint j = 0; j < patient.appointments.length; j++) {\r\n            allAppointmentsCombined[index++] = patient.appointments[j];\r\n        }\r\n    }\r\n\r\n    return allAppointmentsCombined;\r\n}\r\n\r\n\r\n\r\n    function getPatientAppointments(address _patientAddress) public view returns (Appointment[] memory) {\r\n        return patients[_patientAddress].appointments;\r\n    }\r\n}\r\n",
  "sourcePath": "C:\\Users\\jeffr\\Documents\\GitHub\\Healthcare-Blockchain-Project\\blockchain\\contracts\\MedicalAppointment.sol",
  "compiler": {
    "name": "solc",
    "version": "0.8.13+commit.abaa5c0e.Emscripten.clang"
  },
  "schemaVersion": "3.4.16",
  "updatedAt": "2024-03-31T08:29:41.388Z",
  "networkType": "ethereum",
  "devdoc": {
    "kind": "dev",
    "methods": {},
    "version": 1
  },
  "userdoc": {
    "kind": "user",
    "methods": {},
    "version": 1
  }
}