{
  "contractName": "TokenInitializer",
  "abi": [
    {
      "inputs": [
        {
          "internalType": "address",
          "name": "_dehTokenAddress",
          "type": "address"
        }
      ],
      "stateMutability": "nonpayable",
      "type": "constructor"
    },
    {
      "inputs": [],
      "name": "dehToken",
      "outputs": [
        {
          "internalType": "contract DEHToken",
          "name": "",
          "type": "address"
        }
      ],
      "stateMutability": "view",
      "type": "function",
      "constant": true
    },
    {
      "inputs": [],
      "name": "rechargeTokens",
      "outputs": [],
      "stateMutability": "nonpayable",
      "type": "function"
    }
  ],
  "bytecode": "0x608060405234801561001057600080fd5b5060405161038d38038061038d833981810160405281019061003291906100db565b806000806101000a81548173ffffffffffffffffffffffffffffffffffffffff021916908373ffffffffffffffffffffffffffffffffffffffff16021790555050610108565b600080fd5b600073ffffffffffffffffffffffffffffffffffffffff82169050919050565b60006100a88261007d565b9050919050565b6100b88161009d565b81146100c357600080fd5b50565b6000815190506100d5816100af565b92915050565b6000602082840312156100f1576100f0610078565b5b60006100ff848285016100c6565b91505092915050565b610276806101176000396000f3fe608060405234801561001057600080fd5b50600436106100365760003560e01c80632f88236a1461003b5780636408b4a514610045575b600080fd5b610043610063565b005b61004d6100f3565b60405161005a9190610196565b60405180910390f35b60008054906101000a900473ffffffffffffffffffffffffffffffffffffffff1673ffffffffffffffffffffffffffffffffffffffff166340c10f193360646040518363ffffffff1660e01b81526004016100bf929190610217565b600060405180830381600087803b1580156100d957600080fd5b505af11580156100ed573d6000803e3d6000fd5b50505050565b60008054906101000a900473ffffffffffffffffffffffffffffffffffffffff1681565b600073ffffffffffffffffffffffffffffffffffffffff82169050919050565b6000819050919050565b600061015c61015761015284610117565b610137565b610117565b9050919050565b600061016e82610141565b9050919050565b600061018082610163565b9050919050565b61019081610175565b82525050565b60006020820190506101ab6000830184610187565b92915050565b60006101bc82610117565b9050919050565b6101cc816101b1565b82525050565b6000819050919050565b6000819050919050565b60006102016101fc6101f7846101d2565b610137565b6101dc565b9050919050565b610211816101e6565b82525050565b600060408201905061022c60008301856101c3565b6102396020830184610208565b939250505056fea26469706673582212200206f07a103764cff09dfb9066a751b2b7d91ffa0640296bf9e73c37ebc868d764736f6c634300080d0033",
  "immutableReferences": {},
  "source": "// SPDX-License-Identifier: GPL-3.0\r\npragma solidity >=0.5.10;\r\n\r\nimport \"./DEHToken.sol\";\r\n\r\ncontract TokenInitializer {\r\n    DEHToken public dehToken;\r\n\r\n    constructor(address _dehTokenAddress) {\r\n        dehToken = DEHToken(_dehTokenAddress);\r\n    }\r\n\r\n    function rechargeTokens() public {\r\n        // Mint tokens to the recipient\r\n        dehToken.mint(msg.sender, 100);\r\n    }\r\n}\r\n",
  "sourcePath": "C:\\Users\\jeffr\\Documents\\GitHub\\Healthcare-Blockchain-Project\\blockchain\\contracts\\TokenInitializer.sol",
  "compiler": {
    "name": "solc",
    "version": "0.8.13+commit.abaa5c0e.Emscripten.clang"
  },
  "schemaVersion": "3.4.16",
  "updatedAt": "2024-04-02T16:49:22.505Z",
  "networkType": "ethereum",
  "devdoc": {
    "kind": "dev",
    "methods": {},
    "version": 1
  },
  "userdoc": {
    "kind": "user",
    "methods": {},
    "version": 1
  }
}